:020000040800F2
:1000000040690020C5010008CD290008BB0D00088B
:10001000C9290008410C0008292E00080000000032
:10002000000000000000000000000000FB290008A4
:10003000B90D000800000000F92900082D2B000868
:10004000DF010008DF010008DF010008DF01000810
:10005000DF010008DF010008DF010008DF01000800
:10006000DF010008DF010008DF010008DF010008F0
:10007000DF010008DF010008DF010008DF010008E0
:10008000450C0008DF010008DF010008DF0100085F
:10009000DF010008DF010008DF010008DF010008C0
:1000A000DF010008DF010008DF010008DF010008B0
:1000B000DF010008DF010008FD2B0008DF01000858
:1000C000DF010008DF010008DF010008DF01000890
:1000D000DF010008DF010008DF010008DF01000880
:1000E000DF010008DF010008DF010008DF01000870
:1000F000DF010008DF010008DF010008DF01000860
:10010000DF010008DF010008DF010008DF0100084F
:10011000DF010008DF010008ED2D0008DF01000805
:10012000DD0C0008DF010008DF010008DF01000826
:10013000DF010008DF010008DF010008DF0100081F
:10014000DF010008DF010008DF010008DF0100080F
:10015000DF010008DF010008DF010008DF010008FF
:10016000DF010008DF010008DF010008DF010008EF
:10017000DF010008DF010008DF01000800000000C7
:10018000DF010008DF010008DF010008DF010008CF
:10019000DF010008DF010008DF01000800000000A7
:1001A000DF010008DF010008DF010008DFF810D0E0
:1001B00000F034FD004800473D400008AFF30080E8
:1001C000406900200648804706480047FEE7FEE7F2
:1001D000FEE7FEE7FEE7FEE7FEE7FEE7FEE7FEE7F7
:1001E000352B0008AD0100089FED3D0A5FEA920C37
:1001F00057D000BFD0ED000A90ED011A0B1D60EE44
:10020000A00A083041EE010AF5EEC00AF1EE10FA3C
:10021000A6BFB1EEE01A81ED001A81ED000AD0ED23
:10022000000A90ED011A191D60EEA00A083041EE97
:10023000010AF5EEC00AF1EE10FAA6BFB1EEE01A1F
:1002400083ED001A83ED000AD0ED000A90ED011A4B
:100250000B1D60EEA00A083041EE010AF5EEC00A5F
:10026000F1EE10FAA6BFB1EEE01A81ED001A81EDB1
:10027000000A90ED001AD0ED010A191D21EE011AB5
:10028000083000EEA01AB5EEC01AF1EE10FAA6BFC3
:10029000F1EEC10AC3ED000A83ED000ABCF1010CC6
:1002A000A8D112F0030208BF704700BFD0ED000ACA
:1002B00090ED011A0B4660EEA00A091D083041EED0
:1002C000010AF5EEC00AF1EE10FAA6BFB1EEE01A8F
:1002D00083ED001A83ED000A521EE7D1704700003B
:1002E000000000002DE9F04F8D082DED048B82B049
:1002F0000026AC463446019506EB0C0909EB0C0AC6
:100300000AEB0C0800EBC60700EBC90900EBCA0AB0
:1003100000EBC80897ED003AD9ED003ADAED006A33
:1003200098ED006A97ED010ADAED014A33EE265A9C
:1003300073EE860A99ED014AD8ED015A30EE241A7F
:100340004FEA440B02EBCB0E70EE644A74EE251AB2
:1003500035EE200A9EED002ADEED012A87ED000A27
:1003600031EE210A73EEC63A34EE656A87ED010A72
:1003700035EE600A33EE663A71EE610A02EBC407AD
:1003800074EEE35A33EE064A97ED005A73EEA41A60
:10039000D7ED014A33EE461A24EE056A0BEB04074B
:1003A00025EE855A02EBC70760EE026A65EEA45A95
:1003B00024EE244A97ED003AD7ED013A60EEA24AC6
:1003C00020EE822A21EE037A20EE220A61EEA30AB1
:1003D00021EE833A61EE231A76EEA42A32EE400A29
:1003E00036EE251A75EE443AC9ED002A77EE200A5A
:1003F00089ED010A73EE611A8AED001ACAED013A1D
:10040000C8ED000AC8ED011A1C446D1E06F1010674
:100410007FF472AF4FF6FF7404EA830B019B0093E5
:10042000042B7CD966464FEA9C0C4FF00008C1466D
:10043000ACF1010E4FEA480303EB080402EBC303DF
:1004400002EBC80593ED003AD3ED014A02EBC40379
:1004500095ED005AD5ED015A93ED006A93ED014AEE
:10046000D8444B4603EB0C0404EB0C0707EB0C0AD7
:1004700000EBC30500EBC70700EBC40400EBCA0A9E
:10048000D5ED003A97ED007AD4ED008A9AED008A16
:1004900095ED010AD4ED010AD7ED017ADAED011AE2
:1004A00033EEC72A70EE676A70EEE12A33EE877A80
:1004B00078EE883A30EE270A38EEC81A70EEA11AA4
:1004C00072EE227A32EE622A77EE232A70EE618A89
:1004D00036EEC18A30EE210A77EE630A31EE261A33
:1004E000C5ED002A85ED010A28EE050A67EE856A4A
:1004F00028EE258A20EE837A20EEA49A68EE831AED
:1005000062EE062A61EE063A62EE040A67EEA57A0A
:1005100068EEA48A21EE041A36EE882A00E027E06D
:1005200077EE286A71EEC91A30EE670AC4ED006AE8
:1005300032EE811AC4ED011A73EEE00A87ED002A4B
:1005400087ED010A8AED001A3344CAED010A8B4295
:1005500088D309F10109F1457FF66CAF4FF6FF73BF
:1005600003EA8B0B009B9B080093042B3FF65AAFCA
:10057000DDF8041090ED000AD0ED042A90ED025A47
:1005800090ED031AD0ED064A90ED073A30EE222A9C
:10059000D0ED011AD0ED050A75EE243A31EE034A8A
:1005A00030EE620A71EEA02A31EE431A32EE233A9F
:1005B00071EEE00A75EE641A72EE844A32EE632A36
:1005C00072EEC43A80ED003A70EE012AC0ED014AA5
:1005D00030EEE14A80ED022A30EE410AC0ED033AE6
:1005E00071EEA00AC0ED042A80ED054A80ED060AEE
:1005F000C0ED070A2030491EBCD102B0BDEC048B0F
:10060000BDE8F08F2DE9F04F4FEA910A2DED048BF4
:1006100082B00024D446A046CDF804A004EB0C051B
:1006200005EB0C0606EB0C0900EBC40700EBC60655
:1006300000EBC50500EBC909D7ED011AD6ED012A7B
:1006400095ED006AD9ED006AD7ED005A96ED007A73
:10065000D5ED010A99ED011A36EE262A71EEA23A7D
:1006600035EE873A71EEE21A30EE815A70EEC12A09
:100670004FEA480B02EBCB0E73EE020A9EED004AE6
:10068000DEED014AC7ED000A73EE850A36EE666AB2
:1006900075EEC75AC7ED010A33EE422A02EBC807CE
:1006A00031EE861A33EEC53A71EEC61A97ED006A3E
:1006B00097ED015A75EEE20A0BEB080702EBC7074C
:1006C00075EEA22AD7ED005AD7ED013A60EE866AA0
:1006D00022EE047A62EEA57A23EE044A21EE066A3F
:1006E00061EEA55A60EE850A23EE243A22EE242A12
:1006F00021EE051A61EEA31A62EEA32A76EE203AE5
:1007000037EE433A74EE020A36EEC11A85ED003A2E
:1007100077EEE11AC5ED010A35EEA22A86ED001A40
:10072000C6ED013AC9ED001A641C89ED012A98440E
:10073000BAF1010A7FF472AF4FF6FF7404EA830B3B
:10074000019B0093042B7CD966464FEA9C0C4FF02A
:100750000008C146ACF1010E4FEA480303EB080460
:1007600002EBC30302EBC805D3ED003A93ED017A27
:1007700002EBC403D5ED006AD5ED015AD3ED004A72
:1007800093ED013AD8444B4603EB0C0404EB0C0701
:1007900007EB0C0A00EBC30500EBC70700EBC40432
:1007A00000EBCA0A95ED012A97ED018A95ED001A32
:1007B000D4ED008AD4ED017A97ED009ADAED001AB3
:1007C000DAED010A32EE485A71EE492A38EEE14A72
:1007D00032EE082A37EEA08A37EEE06A78EEA11AE8
:1007E00031EE091A75EE048A72EEC67A72EE862A26
:1007F00071EE610A31EE211A35EE444A32EE489A22
:1008000085ED001A32EE081A28EEA66A27EEA65ADF
:1008100068EEA58A85ED011A20EEA31A69EE231A67
:1008200022EEA42A24EE248A67EEA57A29EE079AFE
:1008300060EE870A24EE034A62EE832A35EE685A98
:1008400000E027E036EE276A71EE497A31EEA01A11
:1008500072EE440AC4ED007A84ED011A78EE221A91
:1008600087ED005A87ED016ACAED000A3344CAEDEC
:10087000011A8B4288D309F10109F1457FF66CAF6B
:100880004FF6FF7303EA8B0B009B9B080093042B2E
:100890003FF65AAFDDF8041090ED003AD0ED044A6F
:1008A000D0ED032A90ED071A90ED024AD0ED061A1A
:1008B000D0ED013AD0ED050A33EE242A72EE815ACA
:1008C00033EE643A34EE215A73EEA04A73EEE03A06
:1008D00032EEC11A74EE610A32EE454A72EE052A12
:1008E00074EEA51A34EEE55A73EE414A33EEA02AAF
:1008F00033EE011A33EEE03A62EE805A61EE800A7E
:1009000064EE003A65EE002AC0ED005A64EE801AEB
:10091000C0ED010A22EE002AC0ED023A21EE004AA3
:10092000C0ED032A23EE001AC0ED041A80ED052A5B
:1009300080ED064A80ED071A2030491EACD102B086
:10094000BDEC048BBDE8F08F70B504460D46807891
:100950002188A389626801280ED02846FFF7C2FCCF
:10096000E078012818BF70BDE28921882846A36875
:10097000BDE8704000F066B894ED040A2846FFF721
:1009800041FEEDE710B40180234C446082704FF0CB
:10099000000CC370B1F5807F20D004DC10292FD06B
:1009A000402923D005E0B1F5806F0FD0B1F5805F0D
:1009B00004D04FF0FF3C10BC60467047012181819C
:1009C000C18116499FED160A816016E004218181DC
:1009D000C18114499FED140A81600EE010218181CC
:1009E000C18112499FED120A816006E04021818198
:1009F000C18110499FED100A816080ED040ADAE799
:100A00004FF480718181C1810C499FED0D0A816095
:100A100080ED040ACFE700002C0B03082A0303082B
:100A200000008039300303080000803A48030308BF
:100A30000000803BA80303080000803C2805030851
:100A40000000803D2DE9F0014E0801244FF0000C1C
:100A500004EB51076146A6F102082CE061452AD259
:100A600000EBCC0500EBC104D5ED000A94ED000AC3
:100A7000C4ED000A85ED000AD5ED010A94ED010AE6
:100A8000C4ED010A85ED010ACC1900EBC4050CEB9D
:100A9000070400EBC40495ED000AD4ED000AC5ED8F
:100AA000000A84ED000AD4ED010A95ED010AC5EDB6
:100AB000010A84ED010A00EBC104B44400EBCC0C44
:100AC00094ED020ADCED000A891CC4ED020A8CEDEB
:100AD000000ADCED010A94ED030AC4ED030A8CED73
:100AE000010AB3F800C089B203EB42034145B5D90E
:100AF000BDE8F00170472DE9F0074D0801244FF0E3
:100B0000000C04EB51066146A5F102082BE061459B
:100B100029D250F8314050F83C7040F8317040F81C
:100B20003C4000EBC10900EBCC04D9F80470D4F8C8
:100B300004A0C9F804A067608C190CEB060750F8F4
:100B4000349050F837A040F834A040F8379000EBCC
:100B5000C40400EBC707D4F80490D7F804A0C4F885
:100B600004A0C7F8049000EBC104AC44A76850F897
:100B70003C90C4F8089040F83C7000EBCC0CE7685F
:100B8000DCF80490C4F80C90CCF80470B3F800C002
:100B9000891C03EB42034145B9D9BDE8F007704712
:100BA0002DE9F00F01244F0804EB51084FF0000C21
:100BB0007C0804BFBDE8F00F7047014600EB8805D4
:100BC000002614E0BCEB460F11D950F82CA0D1F848
:100BD0000090C1F800A040F82C900CEB0809D5F863
:100BE00000A050F829B0C5F800B040F829A0BC44D6
:100BF00051F8049F50F82CA041F804AB40F82C9019
:100C0000B3F800C003EB4203641E05F1080506F1CA
:100C10000106D7D1BDE8F00F70470000064C074D24
:100C200006E0E06840F0010394E8070098471034BC
:100C3000AC42F6D3FFF7BEFAC48B0308E48B03087B
:100C400000BFFEE710B580211E4803F026F91E48BC
:100C50000078401CC0B21C49087004281BDA4FF60B
:100C6000FF701A49C8604FF4164018498C3108606B
:100C700017480068144909784FF4164202FB010036
:100C80001249C1F894000846D0F8880040F00100ED
:100C9000C1F8880014E0202205210C4802F0D0FCA5
:100CA00000BF0C48006800F080000028F9D1042142
:100CB000044803F0F0F80020034908700649087062
:100CC00010BD0000000C0240210000200060024026
:100CD0001C000020083C00402000002010B5082126
:100CE0000C4803F0DAF801200B49087010220021AB
:100CF0000A4802F0C4FC012803D10020084908700A
:100D000002E001200649087030220021034802F069
:100D100097FC10BD00180240C5000020006402408E
:100D2000C40000200146042900DD042100200BE05E
:100D300001EBC10202EB0112054B03EB8202125CD4
:100D4000044B1A54421CD0B26428F1DB70470000F7
:100D500036010308EA35002049F64041884200DDAB
:100D60000846B0F57A7F09DD0021104A116010496C
:100D700091FBF0F1491E121D116015E00A2809DDF2
:100D800009210A4A11600B4991FBF0F1491E121D1D
:100D9000116009E03121054A116049F6404191FB9B
:100DA000F0F1491E121D1160704700002814004028
:100DB00080841E00400D0300704700BFFEE7000066
:100DC00001B584B004981E287ED2DFE810F01E0022
:100DD00056008800B000D700F9001B014C017801D3
:100DE000A401D9011F0253028802BC02F00253037E
:100DF000B30323048404E0043B056A059805C60593
:100E0000F60531065C068706AD06F748007808B996
:100E1000012000E00020F44908700846007802F044
:100E200095F9F148007818B947F67D40EF490880F8
:100E3000102000900190EC480078801CEC4901EBF8
:100E4000401002230A2201460390EA4801F06CF99F
:100E5000102000900190E4480078801CE44901EBE8
:100E6000401002230A2201460390E34801F05CF996
:100E70004FF6FF70DD49088098E20020DA490870DB
:100E80000846007802F062F947F67D40D7490880AD
:100E9000102000900190D4480078801CD44901EBC8
:100EA000401002230A2201460390D24801F03CF987
:100EB000102000900190CC480078801CCC4901EBB8
:100EC000401002230A2200E0FEE301460390CA48D4
:100ED00001F02AF94FF6FF70C4490880CCE70120E1
:100EE000C14908700846007802F030F910200090DF
:100EF0000190BD480078801CBD4901EB40100223E1
:100F00000A2201460390BB4801F00EF91020009020
:100F10000190B5480078801CB54901EB40100223D0
:100F20000A2201460390B44801F0FEF8A4E7B34852
:100F3000007808B9012000E00020B04908701020B6
:100F40000090019008460078A94901EB4010022367
:100F50007D2201460390A74801F0E6F8102000909A
:100F60000190A6480078A24901EB401002237D229F
:100F700001460390A04801F0D7F87DE700209F4983
:100F8000087010200090019008460078984901EB05
:100F9000401002237D2201460390964801F0C4F8D8
:100FA00010200090019095480078914901EB401085
:100FB00002237D22014603908F4801F0B5F85BE7DC
:100FC00001208E490870102000900190084600789A
:100FD000874901EB401002237D220146039085489A
:100FE00001F0A2F810200090019084480078804918
:100FF00001EB401002237D22014603907E4801F060
:1010000093F839E77E48007808B9012000E0002015
:101010007B4908700846007802F046F9794878491B
:10102000097850F82100002110221423CDE9003264
:10103000CDE902101B01022296216E4800F0BAFF92
:1010400070486F49097850F82100002110221423BC
:10105000CDE90032CDE902101B010222962166483B
:1010600000F0A8FF08E700206549087008460078EE
:1010700002F01AF963486249097850F8210000210A
:1010800010221423CDE90032CDE902101B01022207
:101090009621584800F08EFF5A485949097850F86F
:1010A0002100002110221423CDE90032CDE90210E5
:1010B0001B0102229621504800F07CFFDCE6012053
:1010C0004F4908700846007802F0EEF84D484C4948
:1010D000097850F82100002110221423CDE90032B4
:1010E000CDE902101B0102229621424800F062FF66
:1010F00044484349097850F8210000211022142364
:10110000CDE90032CDE902101B01022296213A48B6
:1011100000F050FFB0E63C480078401CC0B23A49AD
:101120000870072801DD002008703748007802F0B9
:1011300055FE35480078801C324951F820000021C6
:1011400010221423CDE90032CDE902101B01022246
:10115000AF21284800F02EFF2B480078801C294939
:1011600051F82000002110221423CDE90032CDE9EE
:1011700002101B010222AF211F4800F01BFF7BE67B
:1011800021480078002804DD1F480078401E1E49D1
:1011900008701D48007802F021FE1B480078801C72
:1011A000184951F82000002110221423CDE9003203
:1011B000CDE902101B010222AF210E4800F0FAFE19
:1011C00011480078801C0F4951F82000002110229E
:1011D0001423CDE90032CDE902101B010222AF2118
:1011E000054800F0E7FE47E62A0000202600002020
:1011F000005A0008000000C0005802C02B00002068
:101200002C0000204C0000202D000020F948007820
:10121000072804DAF7480078401CF6490870F548BA
:10122000007802F0DBFDF3480078801CF24951F8A9
:101230002000002110221423CDE90032CDE9021054
:101240001B010222AF21ED4800F0B4FEE94800780E
:10125000801CE94951F82000002110221423CDE917
:101260000032CDE902101B010222AF21E44800F058
:10127000A1FE01E6E3480078401CC0B2E1490870D5
:10128000092801DD00200870DE48007802F004F82B
:10129000DC4800780A30D84951F82000002110229B
:1012A0001423CDE90032CDE902101B010222F02106
:1012B000D24800F07FFED34800780A30CE4951F87A
:1012C0002000002110221423CDE90032CDE90210C4
:1012D0001B010222F021CA4800F06CFECCE5C9488F
:1012E0000078002804DDC7480078401EC549087012
:1012F000C448007801F0D0FFC24800780A30BE49E7
:1013000051F82000002110221423CDE90032CDE94C
:1013100002101B010222F021B84800F04BFEB94830
:1013200000780A30B44951F820000021102214231B
:10133000CDE90032CDE902101B010222F021B048B4
:1013400000F038FE98E5AF480078092804DAAD4887
:101350000078401CAB490870AA48007801F09CFF57
:10136000A84800780A30A44951F820000021102232
:101370001423CDE90032CDE902101B010222F02135
:101380009E4800F017FE9F4800780A309A4951F8AD
:101390002000002110221423CDE90032CDE90210F3
:1013A0001B010222F021964800F004FEE3E3964878
:1013B00090F90000632806DA93480078401C40B298
:1013C0009149087002E09D208F4908708F4890F97C
:1013D00000008D4991F9001088424AD00820009001
:1013E00001908A4890F90000C0F1750080B2034670
:1013F00040F2371286490390804800F095FE08209D
:1014000000900190814890F90000C0F1750080B211
:10141000034640F237127E490390794800F084FE7B
:10142000794890F9000079490870082000900190EF
:10143000754890F90000C0F1750080B2034640F293
:1014400037127349083903906C4800F06DFE08208C
:10145000009001906C4890F90000C0F1750080B2D6
:10146000034640F237126A4908390390644800F095
:101470005BFE80E3644890F9000010F1630F05DD26
:1014800061480078401E40B25F4908705F4890F99B
:1014900000005D4991F9001088424AD00820009070
:1014A00001905A4890F90000C0F1750080B20346DF
:1014B00040F2371256490390504800F035FE08209C
:1014C00000900190514890F90000C0F1750080B281
:1014D000034640F237124E490390494800F024FE7B
:1014E000494890F90000494908700820009001908F
:1014F000454890F90000C0F1750080B2034640F203
:1015000037124349083903903C4800F00DFE08208B
:10151000009001903C4890F90000C0F1750080B245
:10152000034640F237123A4908390390344800F034
:10153000FBFD20E3344890F90000632805DA3248C7
:101540000078401C40B230490870304890F90000E3
:101550002D4991F9001088424AD00820009001904E
:101560002A4890F90000C0F1750080B2034640F2AD
:10157000371227490390214800F0D6FD082000903B
:101580000190224890F90000C0F1750080B2034636
:1015900040F237121E490390194800F0C5FD1A4861
:1015A00090F9000019490870082000900190164831
:1015B00090F90000C0F1750080B2034640F2371286
:1015C0001349083903900D4800F0AEFD0820009043
:1015D00001900D4890F90000C0F1750080B20346FB
:1015E00040F237120A4908390390054800F09CFD83
:1015F000C1E200002D0000204C000020000000C0CF
:10160000005802C02E0000203000002032000020D0
:1016100070570008FE4890F90000632806DAFC487D
:101620000078401C40B2FA49087002E09D20F84959
:101630000870F84890F90000F54991F900108842C7
:1016400048D0082000900190F24890F90000C0F1C5
:10165000750080B203460022EF490390EF4800F086
:1016600063FD082000900190EA4890F90000C0F165
:10167000750080B203460022E7490390E84800F075
:1016800053FDE34890F90000E249087008200090FB
:101690000190DF4890F90000C0F1750080B2034668
:1016A0000022DD4910390390DC4800F03DFD0820A0
:1016B00000900190D64890F90000C0F1750080B20A
:1016C00003460022D44900E054E210390390D44884
:1016D00000F02AFD4FE2CE4890F9000010F1630FB0
:1016E00005DDCB480078401E40B2C9490870C948A2
:1016F00090F90000C64991F90010884246D00820B0
:1017000000900190C34890F90000C0F1750080B2CC
:1017100003460022C0490390C04800F005FD0820A0
:1017200000900190BB4890F90000C0F1750080B2B4
:1017300003460022B8490390B94800F0F5FCB448CC
:1017400090F90000B3490870082000900190B0485B
:1017500090F90000C0F1750080B203460022AE4946
:1017600010390390AD4800F0DFFC08200090019094
:10177000A74890F90000C0F1750080B2034600222E
:10178000A54910390390A64800F0CEFCF3E1A0482B
:1017900090F90000632805DA9D480078401C40B2AB
:1017A0009B4908709B4890F90000994991F90010F5
:1017B000884246D0082000900190964890F9000099
:1017C000C0F1750080B2034600229349039093480C
:1017D00000F0AAFC0820009001908E4890F90000CB
:1017E000C0F1750080B2034600228B4903908C48FB
:1017F00000F09AFC864890F900008649087008209D
:1018000000900190824890F90000C0F1750080B20C
:1018100003460022804910390390804800F084FC80
:101820000820009001907A4890F90000C0F17500FE
:1018300080B203460022784910390390784800F0BE
:1018400073FC98E177480078401CC0B27549087075
:10185000052801DB0020087072480078FFF762FA63
:1018600010202021CDE900106F486E49097800EB67
:101870008110DE230A2201460390684800F054FCE0
:1018800010202021CDE9001067486649097800EB57
:101890008110DE230A2201460390614800F044FCD7
:1018A00069E160480078002804DD5E480078401E49
:1018B0005C4908705B480078FFF734FA102020215B
:1018C000CDE9001058485749097800EB8110DE2314
:1018D0000A2201460390514800F026FC10202021E6
:1018E000CDE9001050484F49097800EB8110DE2304
:1018F0000A22014603904A4800F016FC3BE14948A1
:101900000078042804DA47480078401C45490870EC
:1019100044480078FFF706FA10202021CDE9001096
:1019200041484049097800EB8110DE230A22014634
:1019300003903A4800F0F8FB10202021CDE9001078
:1019400039483849097800EB8110DE230A22014624
:101950000390334800F0E8FB0DE13448008849F675
:101960004041884206DA3148008800F57A702F49F4
:10197000088003E04FF47A702C4908802B480088D7
:10198000FFF7EAF9002010210522CDE9002102909D
:1019900026480388DE223221204800F0C1FA0020C8
:1019A00010210522CDE90021029020480388DE2283
:1019B00032211B4800F0B4FADDE01C480088B0F585
:1019C0007A7F05DD19480088A0F57A7017490880EC
:1019D00016480088FFF7C0F9002010210522CDE944
:1019E0000021029011480388DE2232210B4800F0CA
:1019F00097FA002010210522CDE9002102900B4822
:101A00000388DE223221064800F08AFAB3E00000A3
:101A10002F0000203100002070570008000000C097
:101A2000005802C038000020405800083A0000204A
:101A30005248008849F64041884205DA4F480088FC
:101A400000F57A704D4908804C480088FFF784F90A
:101A5000002010210522CDE900210290474803888B
:101A6000DE223221464800F05BFA002010210522D8
:101A7000CDE90021029041480388DE22322141480D
:101A800000F04EFA77E04048007808B9012000E005
:101A900000203D49087010202021CDE900103A486F
:101AA0000078401D394901EB8010DE236422014695
:101AB0000390334800F038FB10202021CDE90010BE
:101AC00031480078401D314901EB8010DE2364224B
:101AD000014603902B4800F027FB4CE000202A49E8
:101AE000087010202021CDE9001027480078401D03
:101AF000264901EB8010DE23642201460390204832
:101B000000F012FB10202021CDE900101E480078C3
:101B1000401D1E4901EB8010DE2364220146039024
:101B2000184800F001FB26E001201749087010203A
:101B30002021CDE9001014480078401D134901EB25
:101B40008010DE236422014603900D4800F0ECFA79
:101B500010202021CDE900100B480078401D0B49D2
:101B600001EB8010DE23642201460390054800F05B
:101B7000DBFA00E000BF00BF05B000BD3A00002066
:101B8000000000C0005802C03C000020405800087F
:101B90002DE9F04107460C4615461E462A2000F066
:101BA0007FFA384600F06CFA284600F069FA2B20DC
:101BB00000F076FA204600F063FA304600F060FA52
:101BC0002C2000F06DFABDE8F081000010B54FF454
:101BD000406003F07BF84FF40043012211461048A7
:101BE00002F065F94FF40043022200210C4802F094
:101BF00085F94FF400410A4802F04BF940F60340E2
:101C000003F064F84C2301221146064802F04FF914
:101C10004C2302220021034802F070F910BD00009D
:101C200000000240000C024010B500F01FFFFFF75B
:101C3000CDFF0821694802F02CF9642001F036FC40
:101C40000821664802F027F9642001F02FFC1120DA
:101C500000F026FA642001F029FC362000F020FA7A
:101C6000702000F016FA3A2000F01AFA052000F071
:101C700010FAB22000F014FA0C2000F00AFA0C203E
:101C800000F007FA002000F004FA332000F001FA17
:101C9000332000F0FEF9B72000F002FA352000F002
:101CA000F8F9BB2000F0FCF9352000F0F2F9C02073
:101CB00000F0F6F92C2000F0ECF9C22000F0F0F969
:101CC000012000F0E6F9C32000F0EAF9132000F04B
:101CD000E0F9C42000F0E4F9202000F0DAF9C62091
:101CE00000F0DEF90F2000F0D4F9CA2000F0D8F996
:101CF0000F2000F0CEF9C82000F0D2F9082000F043
:101D0000C8F9552000F0CCF9902000F0C2F9D0209D
:101D100000F0C6F9A42000F0BCF9A12000F0B9F948
:101D2000E02000F0BDF9D02000F0B3F9002000F071
:101D3000B0F9062000F0ADF9092000F0AAF90B2057
:101D400000F0A7F92A2000F0A4F93C2000F0A1F946
:101D5000552000F09EF94B2000F09BF9082000F080
:101D600098F9162000F095F9142000F092F9192046
:101D700000F08FF9202000F08CF9E12000F090F9BC
:101D8000D02000F086F9002000F083F9062000F052
:101D900080F9092000F07DF90B2000F07AF9292064
:101DA00000F077F9362000F074F9542000F071F952
:101DB0004B2000F06EF90D2000F06BF9162000F0BA
:101DC00068F9142000F065F9212000F062F9202064
:101DD00000F05FF9292000F063F910BD000C02400B
:101DE00010B50246012000E050430B1EA1F1010492
:101DF000E1B2F9D110BD00002DE9FF4F81B0884656
:101E000016461F460E9CB3462046E31704EB537359
:101E1000DB1021464FEAE47C04EB5C7C4FEAEC0CDF
:101E2000A4EBCC0CBCF1000F02D04FF0010C01E090
:101E30004FF0000C6344224604EBD27C4FEA6C0C5A
:101E400003FB0CF3DBB20093A7F12000C7B200251F
:101E500056E00C2C07D107EB47002C4901EB800022
:101E600010F8059014E0102C05D1294800EB07105C
:101E700010F805900CE0182C07D107EBC700254996
:101E800001EB800010F8059002E005B0BDE8F08F8E
:101E90004FF0000A2EE009F0800038B11E48038898
:101EA00032464146019800F01BF908E00F9830B91E
:101EB0001A48038832464146019800F011F94FEA6A
:101EC00049604FEA1069701C86B2F02E00DBDCE737
:101ED000A6EB0B00A04209D15E4608F101001FFAF3
:101EE00080F8B8F5A07F00DBCFE706E00AF101003B
:101EF00000F0FF0ABAF1080FCDDB00BF681CC5B2C5
:101F000000988542A5DB00BFBFE7000076E9020824
:101F1000EAED0208DAF3020826000020280000207B
:101F20002DE9FF4F83B00E469946DDE9114A109F17
:101F300000200290002538E0781B401EC1B20A2024
:101F4000FFF74EFFB9FBF0F00A21B0FBF1F201FB05
:101F500012080298B0B9781EA84213DDB8F1000F3C
:101F60000ED1A34604EBDB70401000FB056081B28C
:101F70002023CDE9004A059A0398FFF73DFF12E0C0
:101F800001200290A34604EBDB70401000FB0560CB
:101F900081B208F13000C3B2CDE9004A059A039836
:101FA000FFF72AFF00BF681CC5B2BD42C4DB07B003
:101FB000BDE8F08F2DE9FF4F82B00C4615469846DC
:101FC000DDE911A7DDE90F9604F0FF0B08EB040033
:101FD0001FFA80F809EB05001FFA80F916E0444566
:101FE00002DB5C46A81985B24D4500DB14E0CDE963
:101FF000006A3B782A4621460298FFF7FDFE3046EC
:1020000006EBD07104EB61018CB27F1C38787E281E
:1020100002DC38782028E2DA00BF06B0BDE8F08F95
:1020200010B5044612480460012012490870EF23DD
:1020300040F23F1200210846FFF7AAFD04210E4896
:1020400001F027FF4FF6FF700C49C8604FF41640AF
:102050000A498C310860064800680849C1F89400B4
:102060000846D0F8880040F00100C1F8880010BD93
:102070001C00002020000020000C024000600240F4
:1020800010B50446201200F01BF8E0B200F018F87A
:1020900010BD10B50446204600F012F810BD000037
:1020A00010B504464021054801F0F3FE204600F03B
:1020B00007F84021014801F0EEFE10BD000C02407F
:1020C00010B504460421054801F0E3FE204600F067
:1020D0000BFD0421014801F0DEFE10BD000C0240A2
:1020E00030B54FF4A07505FB021520F8153030BD52
:1020F00001460A46002004E0044B1B5C02F8013B49
:10210000401CB0F5163FF7D37047000076910008E9
:1021100010B50346002202E023F8021B521CB2F560
:10212000963FF9D310BD00002DE9F04F81460E46D1
:102130001F46DDE90958BC465CE00CEB8C0A09EB54
:10214000CA1A0AEB420011464CE016F8014B02EBAA
:10215000050B01F1080AD34522DA002319E004F047
:10216000800ABAF1000F06D0DFF894A0BAF800A0F8
:1021700020F802AB05E0DFF88CA0BAF800A020F848
:1021800002AB4FEA446A4FEA1A6403F1010A0AF00B
:10219000FF0302EB050AAAEB010A9A45DFDC1DE00A
:1021A000002319E004F0800ABAF1000F06D0DFF82E
:1021B00050A0BAF800A020F802AB05E0DFF844A078
:1021C000BAF800A020F802AB4FEA446A4FEA1A645A
:1021D00003F1010A0AF0FF03082BE3DB01F1080A0F
:1021E0001FFA8AF102EB050A8A45AEDC0CF1010AFE
:1021F0001FFA8AFC07EB080AE2459EDCBDE8F08F77
:1022000026000020280000201FB504460A2C6ED2AC
:10221000DFE804F0052D486E95BCDBFDFBFAA9480C
:10222000007818B947F67D40A74908801020009033
:102230000190A4480078801CA44A02EB40110223BC
:102240000A22A348FFF770FF1020009001909D48DC
:102250000078801C9D4A02EB401102230A229D480F
:10226000FFF762FF4FF6FF709749088027E11020C3
:102270000090019098480078944A02EB40110223A4
:102280007D229348FFF750FF102000900190924864
:1022900000788E4A02EB401102237D228D48FFF721
:1022A00043FF0CE18D488E49097850F82100002148
:1022B00010221423CDE90032CDE902101B010222C5
:1022C00096218348FFF776FE84488549097850F8BF
:1022D0002100002110221423CDE90032CDE90210A3
:1022E0001B01022296217B48FFF764FEE7E0E5E050
:1022F0007C480078801C794951F820000021102288
:102300001423CDE90032CDE902101B010222AF21D6
:102310006F48FFF74FFE73480078801C6F4951F8F3
:102320002000002110221423CDE90032CDE9021053
:102330001B010222AF216748FFF73CFEBFE06A485D
:1023400000780A30654951F820000021102214233A
:10235000CDE90032CDE902101B010222F0215C48D8
:10236000FFF728FE604800780A305C4951F82000E9
:10237000002110221423CDE90032CDE902101B0107
:102380000222F0215348FFF715FE98E00820009044
:102390000190564890F90000C0F1750083B240F2F8
:1023A000371253494A48FFF7BFFE082000900190BA
:1023B0004E4890F90000C0F1750083B240F2371228
:1023C0004B494448FFF7B0FE79E0082000900190A7
:1023D000484890F90000C0F1750083B200224449DA
:1023E00008393B48FFF7A0FE0820009001904148C3
:1023F00090F90000C0F1750083B200223C49083911
:102400003448FFF791FE5AE039E01DE0FFE7102065
:102410002021CDE900103848384A127800EB8211AB
:10242000DE230A222A48FFF77FFE10202021CDE973
:1024300000103148314A127800EB8211DE230A2263
:102440002448FFF771FE3AE0002010210522CDE973
:10245000002102902A480388DE2232211C48FFF71F
:102460005FFD002010210522CDE9002102902448C3
:102470000388DE2232211748FFF752FD1FE01020AB
:102480002021CDE900101F480078401D1A4A02EBB8
:102490008011DE2364220E48FFF746FE1020202123
:1024A000CDE9001017480078401D134A02EB801157
:1024B000DE2364220748FFF737FE00E000BF00BFBD
:1024C0001FBD00002A00002026000020005A00083E
:1024D000000000C0005802C02B0000204C0000206B
:1024E0002C0000202D0000202E00002030000020B5
:1024F000685700082F0000204058000838000020CE
:102500003A0000203C00002070B50446049D9A4229
:102510000EDA104609E0C0F1EF0606EB860604EB82
:10252000C61626F81150461CF0B29842F3DB18E0AC
:102530009A420EDD184609E0C0F1EF0606EB86066A
:1025400004EBC61626F81150461CF0B29042F3DB9D
:1025500007E0C2F1EF0606EB860604EBC61626F886
:10256000115070BD1FB5012200211E2002F0B0FAEB
:1025700041F2020002F0AAFB4FF0807002F0DCFB97
:102580000F4802F033FEC720ADF800000020ADF880
:102590000200ADF804004CF24F3002900020ADF87C
:1025A00006008DF80C006946054802F0EBFE01219B
:1025B000034802F033FF024802F0DFFE1FBD0000B7
:1025C00000080040FFB506464FF6FF70DC49088062
:1025D0001020582102231E22CDE90010D94930468F
:1025E000FFF7A2FDD848007820B14FF6FF70D4491C
:1025F000088003E047F67D40D1490880D348008831
:10260000C0EB401040004FF4D26190FBF1F0263057
:1026100087B206200B2107233A46CDE90010CC49AA
:102620003046FFF781FD002010210422CDE9002172
:102630000290C6480388DE22F0213046FFF770FC86
:102640004FF6FF70BE490880002010210522CDE919
:1026500000210290BF4890ED000ABCEEC00A10EEC7
:10266000103ADE228C213046FFF75AFC0020102160
:102670000522CDE900210290B7480388DE22BE2161
:102680003046FFF74DFC42F64200AD490880C920B4
:1026900040F22D1114230A22CDE90010AF49304633
:1026A000FFF742FDA848007800287CD1ACA00121AA
:1026B0001022F023CDE90032CDE902104FF4A073CF
:1026C000CA22A7213046FFF775FCAAA001211022DB
:1026D000F023CDE90032CDE902104FF4A0731622A9
:1026E0000A213046FFF766FCAC48008800EE100A6D
:1026F000B8EE400ADFEDAA0A60EE200A9FEDA91AA3
:1027000080EE810AF1EE040A60EE200AA648017804
:102710000120884000EE100AB8EEC01A80EE810A4F
:10272000F0EE000A20EE200AA04880ED000A012009
:1027300010210522CDE900210290984803882A2221
:1027400011463046FFF7ECFB012010210522CDE9B0
:1027500000210290954890ED000ABCEEC00A10EEF0
:10276000103A16222A213046FFF7DAFB90480088FB
:1027700000EE100AB8EE400ADFED890A60EE200A8A
:102780009FED881A80EE810AF1EE040A60EE200ABD
:10279000854801780120884000EE100AB8EEC01A82
:1027A00080EE810A00E06DE0F0EE000A20EE200AE3
:1027B0007E4880ED000A012010210522CDE900218C
:1027C00002907B4803882A2288213046FFF7A8FB25
:1027D000012010210522CDE900210290734890EDDF
:1027E000000ABCEEC00A10EE103A162288213046CC
:1027F000FFF796FB6E48008868490988401A00EE8A
:10280000100AB8EEC00ADFED660A60EE200A9FEDFE
:10281000651A80EE810AF1EE040A60EE200A624831
:1028200001780120884000EE100AB8EEC01A80EE50
:10283000810AF0EE000A20EE200A5C4880ED000AD2
:10284000012010210522CDE900210290584800887E
:1028500052490988431A2A22F0213046FFF760FBCB
:10286000012010210522CDE9002102904F4890ED72
:10287000000ABCEEC00A10EE103A1622F0213046D3
:10288000FFF74EFB4B4890F90000C0F1780000EBD9
:10289000800006EBC01000F11405002405E04FF4A1
:1028A000F8502880AD1D601C84B2652CF7DB4248CF
:1028B00090F90000C0F1780000EB800006EBC0103A
:1028C00000F11405002405E04FF6FF7028800A355A
:1028D000601C84B23D2CF7DB38480078B0B100248E
:1028E00011E04EF2FF00364F0090601C17F81030D8
:1028F000384610F8142004F10B0081B23046FFF77F
:1029000003FE601C84B2B4F5967FEADB0B240FE073
:102910004EF207002B490090601C11F81030084659
:1029200010F8142021463046FFF7EEFD601C84B2FB
:10293000B4F59B7FECDB4FF6FF7001490880FFBDCB
:1029400026000020785700082A00002034000020CC
:1029500028580008400000203E000020A073000816
:1029600068747470733A2F2F6C636B66622E636F9A
:102970006D0000006D696E3A20202020206D5620E9
:102980004D61783A20202020206D562056702D7001
:102990003A20202020206D56000000004400002036
:1029A00000401C45000080452D000020480000200C
:1029B00046000020300000202F0000203C000020B6
:1029C0006A330020EA30002000BFFEE770470000B5
:1029D00010B5002807DA0A07140E054A00F00F03A5
:1029E0001B1FD45403E00A07130E024A135410BDF0
:1029F00018ED00E000E400E07047704700B589B0D2
:102A000040F6154002F062F90521164800F0A7FDD6
:102A10004020069000200290039004904FF416404E
:102A2000079011480090012001904FF44030089029
:102A30006A4605210B4800F025FF0521094800F0F2
:102A40006EFD00220521074800F056FD10220521E9
:102A5000044800F0D6FD00221146102002F038F89C
:102A600009B000BD006002400C3C004000B587B0DA
:102A700040F6024002F02AF941F20F0002F026F976
:102A80004FF4E0520621164801F0D4F94FF4E05318
:102A900000220221124801F00AFA4FF4E053022208
:102AA00000210F4801F02AFA002001904FF48270B3
:102AB000009000200290032005904FF400700390D6
:102AC0000020069004906946064802F065F900214E
:102AD000044802F043F9034802F04BF907B000BD87
:102AE00000080240003C004010B5044600BF02212F
:102AF0000D4802F049F90028F9D021460A4802F0B1
:102B000041F900BF0121084802F03EF90028F9D040
:102B100000BF8021044802F037F90128F9D00248AB
:102B200002F02CF9C0B210BD003C004010B500F01E
:102B3000C7FC10BD08B52D48006840F470002B4953
:102B400008602B48006840F00100294908602848C7
:102B50000830006840F080002549083108600020F6
:102B6000009002E00098401C00904CF25031009818
:102B70008842F7D31E480830006840F090001C4996
:102B8000083108600020009002E00098401C00908E
:102B90004CF2503100988842F7D31548083000684D
:102BA00020F00300124908310860114800681149FB
:102BB00008400F4908600846006820F4802008603B
:102BC00000200B490831086000BF09480830006840
:102BD00000200028F9D108480549091D0860002097
:102BE00003490C31086002F06FF908BD88ED00E080
:102BF00000380240FFFFF6FE1030002410B501211E
:102C00006F4802F00FFC6F480078C0B108216E4891
:102C100001F043F900206B4908706C48007818B146
:102C20006B48FFF7FDF902E06A48FFF7F9F96748DA
:102C3000007808B9012000E00020644908701021E4
:102C4000654801F02CF930B16448007800F00200CA
:102C50006249087008E061480078022804DA5F4899
:102C60000078401C5D49087020215B4801F017F98D
:102C700030B15A48407800F002005849487008E0E6
:102C800056484078022804DA54484078401C53499A
:102C900048708021524801F002F930B14F488078E5
:102CA00000F002004D49887008E04C488078022806
:102CB00004DA4A488078401C4849887040214848D6
:102CC00001F0EDF830B14548C07800F0020043490A
:102CD000C87008E04148C078022804DA3F48C0784C
:102CE000401C3E49C87040213E4801F0D8F830B140
:102CF0003A48007900F002003849087108E0374886
:102D00000079022804DA35480079401C33490871FB
:102D10008021344801F0C3F830B13048407900F0E8
:102D200002002E49487108E02C484079022804DA54
:102D30002A484079401C294948714FF480712A483B
:102D400001F0ADF830B12548807900F00200234948
:102D5000887108E021488079022804DA1F488079C8
:102D6000401C1E4988714FF400711D4801F097F80E
:102D700030B11A48C07900F002001849C87108E063
:102D80001648C079022804DA1448C079401C134957
:102D9000C8714FF48071124801F081F830B10F48CA
:102DA000007A00F002000D49087208E00B48007A32
:102DB000022804DA0948007A401C0849087210BD4C
:102DC00000080040250000200010024024000020E0
:102DD000000000C0005802C0000C0240E03000209B
:102DE00000080240001802400000024010B5012116
:102DF000064802F01AFB012806D10121034802F01F
:102E000011FB03A000F012F810BD000000100040FC
:102E10004253505F54494D45525F49525148414ECB
:102E2000444C4552210D0A0000BFFEE7014A024909
:102E300000F013B8CD3D0008C800002002E008C82B
:102E4000121F08C1002AFAD170477047002001E024
:102E500001C1121F002AFBD170472DE9F04116462F
:102E60000F460446002503E03946B047641C6D1C3C
:102E700020780028F8D12846BDE8F081816841F02B
:102E80000801816000BF816801F008010029FAD1C2
:102E9000816841F00401816000BF816801F0040194
:102EA0000029FAD1704730B5012902D0022920D17A
:102EB0000FE06AB1102A0BD8C36A23F47003C3620F
:102EC000C36A541E4FF4700505EA04542343C362D9
:102ED00010E06AB1042A0BD8836B23F44013836398
:102EE000836B541E4FF4401505EA04542343836357
:102EF00000E000BF00BF30BD0649096821F4E021B1
:102F0000054AC2F804131146D1F804130143C2F86C
:102F100004137047042301400020014000B591B024
:102F20004FF4406001F0D2FE41F2081001F0CEFEF5
:102F30004FF4805001F0CAFE4FF0807001F0FCFEAB
:102F400040F6164001F0C2FE02230022032153483E
:102F500000F0ADFF0020ADF80400ADF80600ADF8BC
:102F60000800632003900020ADF80A008DF81000DF
:102F700001A94FF0804002F005FA0020ADF81800DA
:102F80000120ADF8140005AA0221800701F0CAFF54
:102F900031220221480702F0E8F870220221480796
:102FA00002F0B6F800220221480702F0F1F84FF0D3
:102FB000804002F0E2F90021394800F0D0FA3948A7
:102FC00008900120099038480A9000200B904FF497
:102FD00000600C9000200E904FF47A600F904FF438
:102FE0000030109008AA00212D4800F04BFC002270
:102FF00011462B4800F080FA0021294800F09FFA82
:103000000021274800F068FA18220021244800F027
:10301000F8FA00221146382001F05AFD4FF48020C2
:10302000FFF76AFF012211461E484C38FFF73BFFAD
:103030000023012219461B484C3800F094F8022264
:10304000012118484C3800F04FF84FF08062012100
:1030500014484C3800F062F8002112484C3800F057
:1030600025F800210F484C3800F0D3F80D484C38B3
:1030700000F02CF80B484C3800F023F809484C3885
:1030800000F029F8012000F011FA06484C38FFF74B
:10309000F5FE0A2000F00AFA11B000BD000002405F
:1030A000006402404C2001406036002021B182685B
:1030B00042F40062826003E0826822F4006282606F
:1030C0007047816841F4807181607047816841F484
:1030D000007181607047816801F0010119B9816850
:1030E00041F0010181607047012902D0022912D10B
:1030F00008E0836823F040538360836843EA0273E7
:10310000836009E0836823F440138360836843EAA3
:103110000253836000E000BF00BF7047012902D066
:10312000022910D107E0836823F07063836083680D
:103130001343836008E0836823F47023836083680B
:103140001343836000E000BF00BF704710B5044622
:1031500024B14FF0804002F010F903E04FF08040BE
:1031600002F006F910BDF0B51D4606290CDA436BD6
:1031700001EB81071F26BE40B34301EB810602FA33
:1031800006F63343436322E00C290EDA036B8E1FED
:1031900006EB86071F26BE40B3438E1F06EB86064E
:1031A00002FA06F63343036311E010290FDAC36A0B
:1031B000A1F10C0606EB86071F26BE40B343A1F122
:1031C0000C0606EB860602FA06F63343C3620A2AA9
:1031D0000CDA046902EB42070726BE40B44302EB57
:1031E000420605FA06F63443046111E0122A0FDCA8
:1031F000C468A2F10A0606EB46070726BE40B443A0
:10320000A2F10A0606EB460605FA06F63443C46048
:10321000F0BD426822F04072426042680A43426058
:103220007047000010B540F6054001F04FFD4FF427
:10323000806301221146164800F039FE4FF4806386
:1032400002220021124800F059FE4FF4806110481C
:1032500000F021FE40F6014001F038FD4FF4D0733C
:10326000012211460B4800F022FE4FF4D0730222D7
:103270000021084800F042FE4FF4D071054800F0EC
:103280000AFE4FF4D071034800F003FE10BD0000A9
:10329000001402400004024001218140491E4FF009
:1032A000804291627047000010B504462CB94FF47B
:1032B0008061054800F0EDFD04E04FF480610248B4
:1032C00000F0E9FD10BD00000014024000B589B017
:1032D0004FF4406001F0FAFC2023002203212B4828
:1032E00000F0E5FD41F21D0001F0F0FC00F058F89F
:1032F0001021012000F0A6F8012000F091F8002133
:10330000012000F0B9F8012000F078F8012000F069
:1033100063F8012000F04EF840F6154001F0D6FCAD
:10332000072206211A4800F0E7F81A4800901A48C8
:103330000290402006906420079001200190002018
:10334000039004904FF440300890002005906A46A6
:1033500006210F4800F096FA06210D4800F0BCF84F
:1033600041F2050001F0B2FC012209210B4802F0F4
:1033700070F8FF21094801F0D3FD2021074802F031
:1033800060F8064801F0F9FF09B000BD00000240F6
:10339000006002401C740040EA3500200014004028
:1033A00010B540F61D0001F0B5FC40F61D0001F01F
:1033B0009FFC10BD30B90749096841F48051054AA6
:1033C000116005E00349096841F08051014A11602C
:1033D000704700000074004030B90749096841F0A7
:1033E0000101054A116005E00349096841F4803193
:1033F000014A1160704700000074004030B907496D
:10340000096821F00201054A116005E003490968D5
:1034100021F40031014A116070470000007400403F
:1034200030B90749096841F00401054A116005E017
:103430000349096841F48021014A11607047000086
:103440000074004050B90B4A126822F03802094B50
:103450001A601A4612680A431A600AE0054A12689E
:1034600022F46012034B1A601A46126842EA0142C3
:103470001A6070470074004050B90B4A126822F07D
:10348000C002094B1A601A4612680A431A600AE021
:10349000054A126822F44002034B1A601A46126869
:1034A00042EA01421A607047007400400349086014
:1034B00000BF024909680029FBD1704700000020C5
:1034C0000448006820B103480068401E01490860B4
:1034D000704700000000002010B501EB4102D3004E
:1034E00000F11002D25842F0010301EB4102D40076
:1034F00000F11002135110BD30B5134601EB410429
:10350000E50000F11004625922F0606242EA436271
:1035100001EB4104E50000F11004625130BD10B52B
:1035200001EB4102D30000F11002D25822F4807363
:1035300001EB4102D40000F11002135110BD10B58F
:1035400001EB4102D30000F11002D25842F4807323
:1035500001EB4102D40000F11002135110BD10B56F
:1035600001EB4102D30000F11002D25822F0010316
:1035700001EB4102D40000F110021351002301EBD2
:103580004102D40000F11002135101EB4102D400BA
:1035900000F11402135101EB4102D40000F11802B2
:1035A000135101EB4102D40000F11C02135101EB55
:1035B0004102D40000F12002135101EB4102D4007A
:1035C00000F12402135104290CDA01EB41025300EB
:1035D000C1F3400203EB82033D229A4083681A4301
:1035E00082600DE00A1FD1B201EB41025300C1F32A
:1035F000400203EB82033D229A40C3681A43C26033
:1036000010BD30B5802A0DD001EB4103DC0000F184
:1036100010031B59134301EB4104E50000F11004B2
:1036200063510CE001EB4103DC0000F124031B5962
:10363000134301EB4104E50000F12404635130BD64
:1036400010B504290CDA01EB41035C00C1F340031F
:1036500004EB830302FA03F38468234383600DE0E1
:103660000B1FD9B201EB41035C00C1F3400304EB33
:10367000830302FA03F3C4682343C36010BDF0B5AB
:103680000346002500260C46042979DA082A34D09E
:1036900004DC012A07D0042A70D119E0102A41D095
:1036A000202A6BD153E001EB41004700C1F34000F9
:1036B00007EB800702FA07F01F6800EA070601EB34
:1036C0004100C70003F12400C05900F0800556E016
:1036D00001EB41004700C1F3400007EB800702FA0D
:1036E00007F01F6800EA070601EB4100C70003F17D
:1036F0001000C05900F0020541E001EB4100470015
:10370000C1F3400007EB800702FA07F01F6800EAE8
:10371000070601EB4100C70003F11000C05900F09B
:1037200004052CE001EB41004700C1F3400007EB2A
:10373000800702FA07F01F6800EA070601EB410064
:10374000C70003F11000C05900F0080517E001EBB5
:1037500041004700C1F3400007EB800702FA07F081
:103760001F6800EA070601EB4100C70003F11000E3
:10377000C05900F0100502E002E0FFE700BF7AE068
:10378000201FC4B2082A34D004DC012A07D0042A3E
:103790006FD119E0102A41D0202A6AD153E004EBFE
:1037A00044004700C4F3400007EB800702FA07F02B
:1037B0005F6800EA070601EB4100C70003F124003F
:1037C000C05900F0800555E004EB44004700C4F305
:1037D000400007EB800702FA07F05F6800EA07067F
:1037E00001EB4100C70003F11000C05900F00205D1
:1037F00040E004EB44004700C4F3400007EB8007BF
:1038000002FA07F05F6800EA070601EB4100C70013
:1038100003F11000C05900F004052BE004EB440054
:103820004700C4F3400007EB800702FA07F05F6827
:1038300000EA070601EB4100C70003F11000C05980
:1038400000F0080516E004EB44004700C4F3400014
:1038500007EB800702FA07F05F6800EA070601EB52
:103860004100C70003F11000C05900F0100501E04D
:10387000FFE700BF00BF16B10DB10120F0BD002071
:10388000FCE7000070B501EB4104E50000F1240401
:10389000645924F0040501EB4104E60000F124041E
:1038A000A55101EB4104E60000F118041568A5518B
:1038B00001EB4104E60000F11C049568A55101EB01
:1038C0004104E60000F11404D569A55101EB41045F
:1038D000E50000F1100463593F4C2340146944EAA9
:1038E0008404156A2C4395692C43234301EB41045E
:1038F000E50000F110046351546874B901EB410410
:10390000E50000F11004645944F4007501EB410432
:10391000E60000F11004A5511FE05468012C0ED1FF
:1039200001EB4104E50000F11004645924F4007532
:1039300001EB4104E60000F11004A5510DE001EB9C
:103940004104E50000F11004645944F4004501EB22
:103950004104E60000F11004A551D46874B901EBEC
:103960004104E50000F11004645944F4806501EB62
:103970004104E60000F11004A5510DE001EB410403
:10398000E50000F11004645924F4806501EB410462
:10399000E60000F11004A551546974B901EB41042B
:1039A000E50000F11004645944F4807501EB410412
:1039B000E60000F11004A5510DE001EB4104E50023
:1039C00000F11004645924F4807501EB4104E60011
:1039D00000F11004A55170BD3F87FCFF0246002393
:1039E000012A03D0022A01D0032A04D15001A0F1F8
:1039F000C040436C01E00548036803EA01008842C7
:103A000001D0002070470120FCE70000580100A011
:103A1000D0E90221114342681143026841EA422180
:103A2000014A116070470000500100A070B50568A0
:103A3000042D3AD1D0E908653543C6693543866916
:103A4000354346693543066945EA4625C668354328
:103A5000866845EA063546683543384E3560856ADE
:103A6000AD696D1E866A7669761E45EA0616856A18
:103A70002D696D1E46EA0526856AED686D1E46EACB
:103A80000536856A2D896D1E46EA0546856AAD882C
:103A90006D1E46EA0556856A2D786D1E46EA056557
:103AA0004FF02046C6F8485147E0244D2D6825F4D4
:103AB000F841D0E902653543466835432943D0E9EA
:103AC00008653543C66935438669354346693543DC
:103AD000066945EA06044FF02045C5F84011C5F8CF
:103AE0004441D5F84851164E05EA0602856AED684C
:103AF0006D1E2E03856AAD886D1E46EA0556856AE1
:103B00002D896D1E46EA05452A43856AAD696D1EFD
:103B1000866A7669761E45EA0616856A2D696D1EE7
:103B200046EA0526856A2D786D1E46EA05634FF044
:103B30002045C5F84821C5F84C3170BD400100A0B2
:103B4000FF0F00FF074A126843F6FE7322EA0301E3
:103B50001A4602EA40020A434FF02043C3F85421B8
:103B600070470000540100A0F0B597B0064600274A
:103B70004FF6FF744FF4606001F0A8F840F6014082
:103B800001F0A4F840F6024001F0A0F840F603402E
:103B900001F09CF840F6044001F098F840F605402A
:103BA00001F094F840F6064001F090F840F6074026
:103BB00001F08CF80D220C217F4800F03BF90D2319
:103BC000012202217C4800F072F90D23022200211B
:103BD000794800F093F94CF203720C21774800F019
:103BE00029F94CF2037301220221744800F05FF9B5
:103BF0004CF2037302220021704800F07FF94FF667
:103C000083720C216E4800F015F94FF68373012280
:103C100002216B4800F04BF94FF68373022200211A
:103C2000674800F06BF94FF63F020C21654800F041
:103C300001F94FF63F0301220221624800F037F9F3
:103C40004FF63F03022200215E4800F057F948F288
:103C500037120C215C4800F0EDF848F237130122CE
:103C60000221594800F023F948F2371302220021BB
:103C7000554800F043F9042E01D1102500E0082535
:103C800002200B9008200A90052009900720089038
:103C9000022007900320069005900C9601201590B5
:103CA0000820149010201390402012908000119052
:103CB000002010904FF400600F9001200E90400300
:103CC0000D9005A816900CA8FFF7B0FE01200490F7
:103CD000039500200290019000E0641E20213046F0
:103CE000FFF77CFE08B1002CF7D114B9002017B003
:103CF000F0BD01A8FFF78CFE0A20FFF7D7FB0220DA
:103D0000049003950020029001904FF6FF7400E0AC
:103D1000641E20213046FFF761FE08B1002CF7D168
:103D20000CB90020E3E701A8FFF772FE032004901E
:103D30000395E0200290002001904FF6FF7400E010
:103D4000641E20213046FFF749FE08B1002CF7D150
:103D50000CB90020CBE701A8FFF75AFE4FF4087713
:103D60000420049003950020029001974FF6FF7401
:103D700000E0641E20213046FFF730FE08B1002C21
:103D8000F7D10CB90020B2E701A8FFF741FE40F2DD
:103D9000F920FFF7D7FE4FF6FF7400E0641E2021E4
:103DA0003046FFF71BFE08B1002CF7D10CB90020FC
:103DB0009DE701209BE7000000080240000C024044
:103DC00000100240001402400018024070B5044682
:103DD0000D46E0B201F09CFC204670BD10B50446D3
:103DE00004F0010028B14FF48071114800F053F83D
:103DF00004E04FF480710E4800F04BF804F002002C
:103E000020B180210A4800F046F803E080210848EC
:103E100000F03FF804F0040020B12021044800F035
:103E20003AF803E02021024800F033F810BD00000A
:103E300000040240F0B503461C6A5D6A00200DE0F4
:103E40000126864016403EB187000F26BE40B4438F
:103E5000860001FA06F63443461CB0B20828EFD3B8
:103E6000082011E00126864016405EB1A0F1080648
:103E7000B7000F26BE40B543A0F10806B60001FA10
:103E800006F63543461CB0B21028EBD31C625D62C7
:103E9000F0BD8162704781617047C1627047024620
:103EA0001069084008B1012070470020FCE7F0B518
:103EB00004460D4616462168E268002019E00127F5
:103EC00087401F409FB14FEA400C032707FA0CF7C9
:103ED000B943470005FA07F739434FEA400C032777
:103EE00007FA0CF7BA43470006FA07F73A43471CAC
:103EF000B8B21028E3D32160E260F0BDF0B50C4603
:103F00001546012C03D146681E43466002E0466810
:103F10009E434660826800210DE001268E401E40CF
:103F20003EB14F000326BE40B2434E0005FA06F6EE
:103F300032434E1CB1B21029EFD38260F0BD0000B5
:103F400010B540F6034000F0C1FE40F6024000F01C
:103F5000BDFE40F6064000F0B9FE4FF4406000F0B0
:103F6000B5FE3023012200210B48FFF7A0FF4FF4DC
:103F70007073012200210948FFF799FFC023012235
:103F800000210748FFF793FF4FF4807301220021BF
:103F90000448FFF78CFF10BD000C024000080240EF
:103FA000001802400000024010B540F6034000F047
:103FB0008DFE40F6044000F089FE40F6064000F019
:103FC00085FE4FF4406000F081FE2023012211465F
:103FD0001648FFF76CFF2023022200211348FFF749
:103FE0008DFF8023012211461148FFF760FF8023D7
:103FF000022200210E48FFF781FF0823012211460B
:104000000C48FFF754FF0823022200210948FFF75C
:1040100075FF0823012211460748FFF748FF0823D0
:10402000022200210448FFF769FF10BD0000024092
:10403000000C024000100240001802404FF4A06043
:1040400000F0A8FD00F044FFFFF7AEFFFFF778FF98
:104050004FF4165001F0FEFA0420FFF785FDFDF73E
:10406000E3FDFEF7CBFCFA48FEF742F8F848FDF70F
:10407000D7FF00BFF74800780028FBD14FF400417C
:10408000F548FFF708FF4FF44870FFF70FFA0021DB
:10409000EF48FEF73DF80021F048FEF739F8FEF74B
:1040A00061FAFFF713F9EE480078FCF73BFEED48A4
:1040B0000088FCF751FEFEF731FFFFF7B3F8EA483E
:1040C0000078FFF7F1F8E9480078FFF787FEE84845
:1040D0000078FFF7E1F8012300229902E548FCF798
:1040E00051FC4FF6FF70E4490880002403E0E0B281
:1040F000FEF78AF8641C0A2CF9D34EF2FF00DE4961
:104100000880DE480078FEF77FF84FF6FF70DA4946
:1041100008804EF207000880D9480078FEF774F84E
:104120004FF6FF70D44908808BE300BFC948007880
:104130000028FBD1D348007850B10020D149087045
:104140000120D149087000BFCF4800780028FBD17A
:10415000CE48007800287DD000BFCD4800780028E8
:10416000FBD00020CA490870CA48007818B1CA4874
:10417000CA49086002E0CA48C8490860002407E04C
:10418000C648006830F81400C64921F81400641CC1
:10419000B4F5FA6FF4D3002414E0C24830F81400E8
:1041A00000EE100AB8EE400ABF4901EBC40080EDF2
:1041B000000A9FEDBE0A6000401C01EB800080ED0C
:1041C000000A641CB4F5806FE7D3B749A948FCF72F
:1041D000BBFB4FF48062B649B348FCF705F89FED8E
:1041E000B30AB34880ED000A9FEDB00AB14880EDF4
:1041F000000A0020B0490880002417E0AC4800EB1A
:10420000840090ED000AAB48D0ED000AB4EEE00A5D
:10421000F1EE10FA09DDA64800EB840090ED000AEB
:10422000A44880ED000AA4490C80641CB4F5A07F6A
:10423000E4D3A04890ED000ADFEDA00A80EE201A3A
:10424000B7EE000A31EE000ABCEEC00A10EE100A0A
:104250009B4900E0F6E20880002434E0944800EB3B
:104260008400D0ED000A9648008800EE100AB8EEEF
:10427000400A80EE801AB3EE0B0A31EE000ABDEE62
:10428000C00A10EE100A00B28E4921F81400084648
:1042900030F91400E32803DDDB2021F8140011E0DD
:1042A000884830F914001B2804DA1320854921F8C6
:1042B000140007E0834830F81400083800B2814940
:1042C00021F81400641CB4F5A07FC7D368490A78AC
:1042D000012191407C4A92FBF1F1774A128801FB5F
:1042E00002F0C11700EB9151891200EE101AB8EEDE
:1042F000C00A764981ED000A00207549088075489A
:1043000090F90000744991F90010401A4FF40061CF
:1043100001EB0010714908807148007818B3A0249F
:104320001DE05E48006830F814106C4800881938A9
:10433000814213DA0DE05948006830F814006749EB
:104340000988884204DDA4F1A0006149088003E0E7
:10435000641CB4F5487FEED300BF03E0641CB4F5E1
:10436000487FDED323E0A0241DE04C48006830F8ED
:1043700014105A4800881930814213DD0DE0474877
:10438000006830F8140055490988884204DAA4F11D
:10439000A0004F49088003E0641CB4F5487FEED3C9
:1043A00000BF03E0641CB4F5487FDED300BF48487B
:1043B0000088A8BB4FF6FF704A4908800020474993
:1043C0000880A0241CE03548006830F814004549F6
:1043D0000988884205DA3148006830F814004149FC
:1043E00008802E48006830F814003C49098888424B
:1043F00005DD2A48006830F8140038490880641C3C
:10440000B4F5487FDFD335490988364A12888818C1
:1044100000EBD071C1F34F01334A1180A0246CE04E
:104420006FE01E48006830F814002F490988884260
:1044300062DD5CE01948006830F8141029480088F3
:104440001930814252DAA4F1A0002149088051E0DC
:10445000000000C02000002000000240005802C000
:10446000380000203A0000202C0000202D00002001
:104470002E000020CC300020260000201500002057
:104480001700002010000020250000202A00002036
:10449000C5000020C40000200046002004000020C9
:1044A00060360020A0550020CC0000200000000055
:1044B000CC200020080000200C0000200000164343
:1044C0003E0000206A33002080841E00400000204F
:1044D00034000020300000202F0000204600002083
:1044E0002B0000204400002012000020641CB4F5C2
:1044F000487F9FD300BF03E0641CB4F5487F90D38E
:1045000000BF00242AE0FC4800882044FB4931F821
:1045100010000830FA4991F9001001EB2010F94918
:1045200021F81400084630F91400E32803DDDB20ED
:1045300021F8140011E0F34830F914001B2804DAC4
:104540001320F04921F8140007E0EE4830F8140079
:10455000083800B2EB4921F81400641CB4F5A07FC0
:10456000D1D3E948007818B1E848FEF72BF802E00B
:10457000E748FEF727F8E7480078022805D1102021
:10458000E44908700620FCF71BFCE248407802284A
:104590000AD11020DF494870D7480088401CDE4906
:1045A00008800020FCF70CFCDA488078022805D14E
:1045B0001020D84988701B20FCF702FCD548C07831
:1045C000022844D1D5480078E0B11020D149C87004
:1045D000D3480078FDF718FED1480078092804DA9E
:1045E000CF480078401CCE4908704EF2FF00CD49FC
:1045F0000880CB480078FDF707FE4FF6FF70C949E9
:10460000088024E0C6480078052807D0C448007810
:10461000062803D0C2480078082805D1BD48C078D4
:10462000401EBC49C87002E01020BA49C8704EF262
:10463000FF00BC490880BA49097801EB4101891C97
:10464000C8B2FCF7BDFB4FF6FF70B6490880B14811
:10465000007902280AD11020AE490871AF480078CD
:1046600008B9012000E00020AC490870A948407951
:10467000022843D1A9480078D8B11020A549487133
:10468000A7480078FDF7C0FDA548007820B1A448F0
:104690000078401EA24908704EF2FF00A149088030
:1046A0009F480078FDF7B0FD4FF6FF709D490880E8
:1046B00024E09B480078052807D099480078062810
:1046C00003D097480078082805D192484079401EC9
:1046D0009049487102E010208E4948714EF2FF0067
:1046E000904908808E49097801EB4101491CC8B204
:1046F000FCF766FB4FF6FF708A4908808548807991
:10470000022844D188480078E0B11020814988719E
:1047100086480078FDF778FD84480078092804DA97
:1047200082480078401C814908704EF207007D499C
:1047300008807E480078FDF767FD4FF6FF707949E5
:10474000088024E079480078052807D07748007869
:10475000062803D075480078082805D16D4880796F
:10476000401E6C49887102E010206A4988714EF23F
:1047700007006C4908806D49097801EB4101891CEB
:10478000C8B2FCF71DFB4FF6FF7066490880614810
:10479000C07902280AD110205E49C87162480078A9
:1047A00008B9012000E000205F4908705948007AEC
:1047B000022843D15C480078D8B1102055490872CE
:1047C0005A480078FDF720FD5848007820B1574836
:1047D0000078401E554908704EF207005149088084
:1047E00052480078FDF710FD4FF6FF704D490880E4
:1047F00024E04E480078052807D04C480078062869
:1048000003D04A480078082805D14248007A401E63
:104810004049087202E010203E4908724EF207003B
:10482000404908804149097801EB4101491CC8B25F
:10483000FCF7C6FA4FF6FF703A49088001203C4960
:10484000087035E1344800882B490988884277D0C0
:1048500029480088304908804FF6FF7035490880A4
:10486000002035490880002428E02348008820449F
:104870003249096831F810002E490988884208DA5F
:104880001D48008820442D49096831F81000294945
:1048900008801948008820442849096831F8100028
:1048A00025490988884208DD1348008820442349A7
:1048B000096831F8100020490880641CB4F5967F1F
:1048C000D3D3002450E00C48008820441B490968D9
:1048D00031F8100008300A4991F9001001EB20105E
:1048E000084921F81400084630F91400E32828DDAF
:1048F000DB2021F8140036E034000020A055002011
:104900002F000020EA30002024000020000000C01A
:10491000005802C0E03000200E00002014000020EB
:10492000150000202600002016000020170000209F
:104930001000002044000020460000200400002059
:1049400022E05C4830F914001B2804DA132059498E
:1049500021F8140007E0574830F81400083800B276
:10496000544921F81400641CB4F5A07FABD352481D
:10497000007818B15148FDF725FE02E05048FDF7D8
:1049800021FE01204F4908704F48007802280ED1BF
:104990004D480078401E4C4908704C480088B0F5DE
:1049A000D26F04DA49480088401D484908804648CB
:1049B0004078022805D11020434948700020FCF7B8
:1049C000FFF941488078022814D13F488078401E82
:1049D0003D4988703D480088052805DD3B48008832
:1049E000401F3A49088005E03848008810B100208F
:1049F000364908803448C07802280ED13248C07841
:104A0000401E3149C87031480088B0F5D26F04DAD1
:104A10002E480088401C2D4908802B480079022828
:104A200002D11020284908712748407902280CD16A
:104A300025484079401E244948712448008820B107
:104A400022480088401E214908801F48807902289A
:104A50000ED11D488079401E1B4988711B48008873
:104A6000B0F5D26F04DA19480088801C1749088015
:104A70001548C079022802D110201349C871124884
:104A8000007A022814D11048007A401E0E4908729C
:104A90000E480088022805DD0C480088801E0B495E
:104AA000088005E00948008810B100200749088007
:104AB000FFF73BBBEA30002024000020000000C0CC
:104AC000005802C010000020E03000203400002018
:104AD0002DE9F04103460D46164600240027A04666
:104AE0002A48006800F4E060B0F5E06F03D100BF31
:104AF0004FF0040830E02548006800F4E060B0F5AD
:104B0000C06F03D101274FF0030825E01F4800685C
:104B100000F4E060B0F5A06F02D10227B8461BE0B8
:104B20001A48006800F4E060B0F5806F03D10327F5
:104B30004FF0010810E01548006800F4E060B0F59F
:104B4000407F03D104274FF0000805E04FF4A06038
:104B500000F020F80227B846C7F1040005FA00F477
:104B6000C8F104010F20C840304004432401084824
:104B7000C45403F01F01012088405911890001F13C
:104B8000E021C1F80001BDE8F08100000CED00E07B
:104B900000E400E002490143024A1160704700004E
:104BA0000000FA050CED00E02DE9F04F8CB0064650
:104BB00000200A903EA090E8004CC068CDE905BEF8
:104BC000CDF810A007900FF2EC0ADAE9000ACDE95F
:104BD000020A0FF2E00ADAE9000ACDE9000A3848D1
:104BE0000068C0F381000B900B9820B1012804D01D
:104BF000022828D103E0334927E0334925E0304833
:104C0000001F006800F03F072D48001F0068C0F338
:104C1000881C2B48001F0068C0F30140401C4FEA6D
:104C200040092748001F006800F48008B8F5800F8D
:104C300001D1254B00E0234BB3FBF7F000FB0CF058
:104C4000B0FBF9F101E01F4900BF00BF1C4800683C
:104C5000C0F3031404A8055D21FA05F218480068A2
:104C6000C0F3822402A8055D22FA05F009901448D9
:104C70000068C0F342341DF8045022FA05F0089091
:104C800036B1012E06D0022E06D0032E0AD106E040
:104C90000A9108E00A9206E009980A9003E0089851
:104CA0000A9000E000BF00BF0A980CB0BDE8F08F8A
:104CB00000000000000000000102030406070809CC
:104CC000083802400024F40040787D01074A02EBD6
:104CD0009011D1F8001800F01F0301229A401143EF
:104CE000024B03EB9012C2F80018704700300240EC
:104CF000074A02EB9011D1F8001800F01F030122BF
:104D00009A409143024B03EB9012C2F8001870478F
:104D100000300240074A02EB9011D1F8001800F071
:104D20001F0301229A401143024B03EB9012C2F879
:104D300000187047003002406FF08071884205D142
:104D4000054909680140044A116004E00249096804
:104D50000143014A116070478C38024021B9426812
:104D600042F00202426003E0426842F00102426007
:104D70007047016841F04001016070470146C86812
:104D800080B27047C160704702469068084008B121
:104D9000012070470020FCE702460020106800F464
:104DA00041500B6818434B6818438B681843CB6815
:104DB00018430B6918434B6918438B6918431060FB
:104DC000D36923F40063D361704700000020002101
:104DD0003A4A126842F48032384B1A6000BF401CD5
:104DE000364A126802F4003119B94FF6FF72904248
:104DF000F5D1324A126802F400320AB900BFFEE768
:104E00002E4A4032126842F080522C4B40331A60D6
:104E10002B4A126842F44042294B1A60274A083252
:104E20001268264B08331A601A46126842F4004290
:104E30001A601A46126842F4A0521A60214A1B1FD7
:104E40001A601A1F126842F080721B1F1A6000BF9E
:104E50001A4A126802F00072002AF9D0184A126841
:104E600042F48032164B1A6000BF154A526802F4B1
:104E70008032002AF9D0124A126842F40032104BF4
:104E80001A6000BF0E4A526802F40032002AF9D0BC
:104E90000A4A0832126822F00302084B08331A60EB
:104EA0001A46126842F002021A6000BF034A083232
:104EB000126802F00802002AF8D070470038024059
:104EC000007000401964400910B5FFF77FFF10BD66
:104ED00010B5124800684FF47A71B0FBF1F4601E0F
:104EE000B0F1807F01D301200FE0601E4FF0E02180
:104EF00048610F214FF0FF30FDF76AFD00204FF0B1
:104F0000E021886107200861002008B100BFFEE7AA
:104F10000021481EFDF75CFD10BD000018000020B8
:104F2000C162704710B531B101293FD002297DD04F
:104F300003297CD1BFE0036A23F001030362836984
:104F400023F003038361036A148823430362036A23
:104F500023F002030362036A9488234303626A4BCB
:104F6000984202D0694B98421FD1036A23F0040390
:104F70000362036A548823430362036A23F008032D
:104F80000362036AD48823430362436823F4807373
:104F900043604368148923434360436823F40073E8
:104FA00043604368548923434360ABE0036A23F0C2
:104FB00010030362836923F440738361036A1488D6
:104FC00043EA04130362036A23F020030362036AC3
:104FD000948843EA041303624B4B984202D04B4B34
:104FE000984226D1036A23F040030362036A54887F
:104FF00043EA04130362036A23F080030362036A33
:10500000D48843EA04130362436823F48063436053
:105010004368148943EA84034360436823F40063CC
:1050200043604368548943EA840301E002E068E096
:10503000436067E0036A23F480730362C36923F06B
:105040000303C361036A148843EA04230362036A07
:1050500023F400730362036A948843EA042303621F
:10506000294B984202D0294B984223D1036A23F45A
:1050700080630362036A548843EA04230362036A79
:1050800023F400630362036AD48843EA04230362BF
:10509000436823F4805343604368148943EA04134C
:1050A0004360436823F4005343604368548943EAF0
:1050B0000413436026E0036A23F480530362C36948
:1050C00023F44073C361036A148843EA0433036220
:1050D000036A23F400530362036A948843EA0433A7
:1050E0000362094B984202D0084B984208D14368AA
:1050F00023F4804343604368148943EA8413436084
:1051000000E000BF00BF10BD0000014000040140EE
:1051100031B101290CD0022913D0032922D118E082
:10512000836923F0700383618369134383611AE009
:10513000836923F4E0438361836943EA0223836143
:1051400011E0C36923F07003C361C3691343C361F2
:1051500009E0C36923F4E043C361C36943EA02235E
:10516000C36100E000BF00BF704731B1012906D024
:10517000022906D0032908D105E0426306E08263D4
:1051800004E0C26302E0026400E000BF00BF7047B9
:1051900031B101290CD0022913D0032922D118E002
:1051A000836923F0080383618369134383611AE0F1
:1051B000836923F400638361836943EA0223836183
:1051C00011E0C36923F00803C361C3691343C361DA
:1051D00009E0C36923F40063C361C36943EA02239E
:1051E000C36100E000BF00BF7047000010B5044677
:1051F0005C49601A8C426FD019DC5B49A4EB01005A
:105200008C424ED009DCB4F1804F2ED05748204458
:10521000A0B3B0F5806F72D13AE0B0F5806F49D09D
:10522000B0F5006F4FD0B0F5406FF4D17BE0B0F532
:10523000923F5BD009DCB0F5806F73D0B0F5644F5E
:105240000AD0B0F5684F5AD147E0B0F5943F57D037
:10525000B0F5963F53D15CE04FF41060FFF75AFD74
:105260004FF41060FFF744FD79E04FF40060FFF762
:1052700051FD4FF40060FFF73BFD70E0FFE740F6A3
:105280000100FFF747FD40F60100FFF731FD66E042
:1052900040F60200FFF73EFD40F60200FFF728FD52
:1052A0005DE040F60300FFF735FD40F60300FFF731
:1052B0001FFD54E040F60400FFF72CFD40F604000B
:1052C000FFF716FD4BE040F60500FFF723FD40F623
:1052D0000500FFF70DFD42E02EE040F60110FFF75C
:1052E00019FD40F60110FFF703FD38E04FF411609F
:1052F000FFF710FD4FF41160FFF7FAFC2FE02DE0EF
:1053000040F61110FFF706FD40F61110FFF7F0FC14
:1053100025E040F61210FFF7FDFC40F61210FFF7F3
:10532000E7FC1CE011E040F60600FFF7F3FC40F656
:105330000600FFF7DDFC12E040F60700FFF7EAFC8D
:1053400040F60700FFF7D4FC09E040F60800FFF73D
:10535000E1FC40F60800FFF7CBFC00E000BF00BF17
:1053600010BD0000001C0040000C004000FCFFBF0E
:10537000016821F0010101607047016841F00101FD
:10538000016070470A8882621D4A90420ED0B0F1D7
:10539000804F0BD01B4A904208D01B4A904205D048
:1053A0001A4A904202D01A4A90420BD1026822F067
:1053B0007002026002684B881A43026002688B88A0
:1053C0001A4302608A68C262124A90420AD0124AA4
:1053D000904207D0026822F4407202600268CB88D3
:1053E0001A430260064A904202D0094A904201D113
:1053F0000A7B0263426942F0010242617047000089
:10540000000001400004004000080040000C004083
:10541000000401400010004000140040C2680A432C
:10542000C2607047CA43026170470246D06800EA12
:1054300001031069084010B10BB101207047002032
:10544000FCE7426822F07002426042680A43426010
:10545000704781621AB9436943F0010343617047A1
:105460002DE9F04704460D460027B846B946002608
:105470003349601A8C4235D00CDC32482044E8B104
:10548000B0F5806F1FD0B0F5006F21D0B0F5406F40
:1054900032D122E0B0F5806F29D0B0F5184F03D09B
:1054A000B0F51C4F28D104E00320FFF77DFB074631
:1054B00023E00320FFF778FB07461EE00220FFF7FA
:1054C00073FB074619E00220FFF76EFB074614E066
:1054D0000220FFF769FB07460FE00220FFF764FB9D
:1054E00007460AE00220FFF75FFB074605E00220BF
:1054F000FFF75AFB074600E000BF00BFE06800F47A
:10550000004070B1780000EB5500B0FBF5F64FF6A7
:10551000F07006EA0008C6F3420948EA0900A060F4
:105520000CE007EB5500B0FBF5F64FF6F07006EA1D
:10553000000806F00F0948EA0900A060BDE8F087FE
:105540000078004000BCFFBFC1F308024260704712
:1055500010B504463349601A8C424DD00CDC3248F9
:105560002044E0B1B0F5806F22D0B0F5006F31D0AB
:10557000B0F5406F52D136E0B0F5806F45D0B0F550
:10558000184F03D0B0F51C4F48D11AE040F6041074
:10559000FFF7C0FB40F60410FFF7AAFB3FE040F620
:1055A0001100FFF7B7FB40F61100FFF7A1FB36E053
:1055B00040F61200FFF7AEFB40F61200FFF798FB33
:1055C0002DE040F60510FFF7A5FB40F60510FFF7AC
:1055D0008FFB24E040F61300FFF79CFB40F613001E
:1055E000FFF786FB1BE040F61400FFF793FB40F645
:1055F0001400FFF77DFB12E040F61E00FFF78AFB68
:1056000040F61E00FFF774FB09E040F61F00FFF7AD
:1056100081FB40F61F00FFF76BFB00E000BF00BFFF
:1056200010BD00000078004000BCFFBFC16841F41D
:105630000051C160704710B5024602EB911000683E
:1056400001F01F040123A340184008B1012010BD40
:105650000020FCE710B504464FF44060FFF736FB2E
:105660004FF44060FFF732FB41F20410FFF72EFBCE
:105670004FF4007207212048FEF7DCFB4FF48062F4
:1056800007211D48FEF7D6FB4FF4007301220221CB
:105690001948FEF70CFC4FF48063012202211648E2
:1056A000FEF705FC4FF40073022200211248FEF7BA
:1056B00025FC4FF48063022200210F48FEF71EFCF8
:1056C0000E48FFF745FF21460C48FFF7C9FE0021B1
:1056D0000A4800F015F80021084800F039F80021C8
:1056E000064800F025F80548FFF7A0FF0821034809
:1056F00000F026F810BD000000000240001001403C
:10570000C26822F4C062C260C2680A43C2607047C5
:1057100010B5044621460548FFF716FF00BF0721D4
:105720000248FFF788FF0028F9D010BD00100140A3
:10573000026922F44052026102690A430261704721
:105740000A460021C16821F008011143C160704779
:10575000C26822F48052C260C2680A43C2607047C5
:1057600000FCFEFFFEFC0000003F7FFF7F3F0000CB
:105770000000000000000000000000000000000029
:10578000000000380000000000000000001C700055
:1057900000000000000000000E600000000000009B
:1057A000000000066000000000000000000006602D
:1057B0000000000000000000000660000000000083
:1057C000000000000661FFFFFFFFFFFFFFFFFF86F5
:1057D00061FFFFFFFFFFFFFFFFFF8660000000008B
:1057E0000000000000066000000000000000000053
:1057F00006600000000000000000000660000000DD
:105800000000000000000670000000000000000022
:10581000000E380000000000000000001C00000026
:1058200000000000000000007FC0AAA0FFE0FFE031
:10583000AAA07FC0000000000000000000000000DF
:105840007FFFFFFEC0000003803FFC0180200401B9
:1058500080200401802004018020040180200401B4
:1058600080200401802004018020040180200401A4
:10587000FFE007FF80000001C00000037FFFFFFE84
:105880007FFFFFFEC000000380200801C0300C0134
:10589000A0280A0190240901882208818421084156
:1058A000822088218120481180A028098060180565
:1058B0008020080380000001C00000037FFFFFFE7E
:1058C0007FFFFFFEC00000038010040180300C0346
:1058D0008050140580902409811044118210842185
:1058E000841104418812048190140501A018060156
:1058F000C010040180000001C00000037FFFFFFE14
:105900007FFFFFFEC000000380100001802800031D
:1059100080440005808200098101001182008021FD
:10592000840040418800208190001101A0000A01FC
:10593000C000040180000001C00000037FFFFFFEE3
:105940007FFFFFFEC00000038000000181F0000126
:10595000820C00018C02000190018001A000400136
:10596000C00020018000100180000C038000020DA7
:10597000800001F180000001C00000037FFFFFFEF6
:105980007FFFFFFEC0024003A00420059408100919
:105990008C100811842004218640024185880181F1
:1059A0008588018186480A4184280C218A141C11AB
:1059B000F1EBF7EFA0042005C00240037FFFFFFEDC
:1059C0007FFFFFFEC0000003800000018400000193
:1059D00084000001840000018400000184080001AB
:1059E0008408000184080801840808018A1414113D
:1059F000F1E3F7EF80000001C00000037FFFFFFE2E
:105A00007FFEC0038001FF8180818081808187F1DA
:105A100083E181C18081808180FF8001C0037FFE9E
:105A20007FFEC003800180FF8081808181C183E18E
:105A300087F1808180818081FF818001C0037FFEAA
:105A40007FFEC00380018C618C618C618C618C61F4
:105A50008C618C618C618C618C618001C0037FFEE4
:105A60007FFEC00382018301838183C183E183F1CF
:105A700083F183E183C1838183018201C0037FFEBF
:105A8000FFFFFFFFFFFFFFFFFFFFFFFFFFFFFFFF26
:105A9000FFFFFFFFFFFFFFFFFFFFFFFFFFFFFFE035
:105AA0008421084210842108421084210842108475
:105AB00021084210842108421084210842108420C9
:105AC0008000000000000000000000000000000452
:105AD00000000000000000000000000000000020A6
:105AE0008000000000000000000000000000000432
:105AF0000000000000000000000000000000002086
:105B0000C000004000002000001000000800000E4F
:105B10000000020000010000008000004000006062
:105B200080000000000000000000000000000004F1
:105B30000000000000000000000000000000002045
:105B400080000000000000000000000000000004D1
:105B50000000000000000000000000000000002025
:105B600080000000000000000000000000000004B1
:105B70000000000000000000000000000000002005
:105B8000C000004000002000001000000800000ECF
:105B900000000200000100000080000040000060E2
:105BA0008000000000000000000000000000000471
:105BB00000000000000000000000000000000020C5
:105BC0008000000000000000000000000000000451
:105BD00000000000000000000000000000000020A5
:105BE0008000000000000000000000000000000431
:105BF0000000000000000000000000000000002085
:105C0000C000004000002000001000000800000E4E
:105C10000000020000010000008000004000006061
:105C200080000000000000000000000000000004F0
:105C30000000000000000000000000000000002044
:105C400080000000000000000000000000000004D0
:105C50000000000000000000000000000000002024
:105C600080000000000000000000000000000004B0
:105C70000000000000000000000000000000002004
:105C8000C000004000002000001000000800000ECE
:105C900000000200000100000080000040000060E1
:105CA0008000000000000000000000000000000470
:105CB00000000000000000000000000000000020C4
:105CC0008000000000000000000000000000000450
:105CD00000000000000000000000000000000020A4
:105CE0008000000000000000000000000000000430
:105CF0000000000000000000000000000000002084
:105D0000C421084210842108421084210842108EC8
:105D10002108421084210842108421084210846026
:105D200080000000000000000000000000000004EF
:105D30000000000000000000000000000000002043
:105D400080000000000000000000000000000004CF
:105D50000000000000000000000000000000002023
:105D600080000000000000000000000000000004AF
:105D70000000000000000000000000000000002003
:105D8000C000004000002000001000000800000ECD
:105D900000000200000100000080000040000060E0
:105DA000800000000000000000000000000000046F
:105DB00000000000000000000000000000000020C3
:105DC000800000000000000000000000000000044F
:105DD00000000000000000000000000000000020A3
:105DE000800000000000000000000000000000042F
:105DF0000000000000000000000000000000002083
:105E0000C000004000002000001000000800000E4C
:105E1000000002000001000000800000400000605F
:105E200080000000000000000000000000000004EE
:105E30000000000000000000000000000000002042
:105E400080000000000000000000000000000004CE
:105E50000000000000000000000000000000002022
:105E600080000000000000000000000000000004AE
:105E70000000000000000000000000000000002002
:105E8000C000004000002000001000000800000ECC
:105E900000000200000100000080000040000060DF
:105EA000800000000000000000000000000000046E
:105EB00000000000000000000000000000000020C2
:105EC000800000000000000000000000000000044E
:105ED00000000000000000000000000000000020A2
:105EE000800000000000000000000000000000042E
:105EF0000000000000000000000000000000002082
:105F0000C000004000002000001000000800000E4B
:105F1000000002000001000000800000400000605E
:105F200080000000000000000000000000000004ED
:105F30000000000000000000000000000000002041
:105F400080000000000000000000000000000004CD
:105F50000000000000000000000000000000002021
:105F600080000000000000000000000000000004AD
:105F70000000000000000000000000000000002001
:105F8000C421084210842108421084210842108E46
:105F900021084210842108421084210842108460A4
:105FA000800000000000000000000000000000046D
:105FB00000000000000000000000000000000020C1
:105FC000800000000000000000000000000000044D
:105FD00000000000000000000000000000000020A1
:105FE000800000000000000000000000000000042D
:105FF0000000000000000000000000000000002081
:10600000C000004000002000001000000800000E4A
:10601000000002000001000000800000400000605D
:1060200080000000000000000000000000000004EC
:106030000000000000000000000000000000002040
:1060400080000000000000000000000000000004CC
:106050000000000000000000000000000000002020
:1060600080000000000000000000000000000004AC
:106070000000000000000000000000000000002000
:10608000C000004000002000001000000800000ECA
:1060900000000200000100000080000040000060DD
:1060A000800000000000000000000000000000046C
:1060B00000000000000000000000000000000020C0
:1060C000800000000000000000000000000000044C
:1060D00000000000000000000000000000000020A0
:1060E000800000000000000000000000000000042C
:1060F0000000000000000000000000000000002080
:10610000C000004000002000001000000800000E49
:10611000000002000001000000800000400000605C
:1061200080000000000000000000000000000004EB
:10613000000000000000000000000000000000203F
:1061400080000000000000000000000000000004CB
:10615000000000000000000000000000000000201F
:1061600080000000000000000000000000000004AB
:1061700000000000000000000000000000000020FF
:10618000C000004000002000001000000800000EC9
:1061900000000200000100000080000040000060DC
:1061A000800000000000000000000000000000046B
:1061B00000000000000000000000000000000020BF
:1061C000800000000000000000000000000000044B
:1061D000000000000000000000000000000000209F
:1061E000800000000000000000000000000000042B
:1061F000000000000000000000000000000000207F
:10620000C421084210842108421084210842108EC3
:106210002108421084210842108421084210846021
:1062200080000000000000000000000000000004EA
:10623000000000000000000000000000000000203E
:1062400080000000000000000000000000000004CA
:10625000000000000000000000000000000000201E
:1062600080000000000000000000000000000004AA
:1062700000000000000000000000000000000020FE
:10628000C000004000002000001000000800000EC8
:1062900000000200000100000080000040000060DB
:1062A000800000000000000000000000000000046A
:1062B00000000000000000000000000000000020BE
:1062C000800000000000000000000000000000044A
:1062D000000000000000000000000000000000209E
:1062E000800000000000000000000000000000042A
:1062F000000000000000000000000000000000207E
:10630000C000004000002000001000000800000E47
:10631000000002000001000000800000400000605A
:1063200080000000000000000000000000000004E9
:10633000000000000000000000000000000000203D
:1063400080000000000000000000000000000004C9
:10635000000000000000000000000000000000201D
:1063600080000000000000000000000000000004A9
:1063700000000000000000000000000000000020FD
:10638000C000004000002000001000000800000EC7
:1063900000000200000100000080000040000060DA
:1063A0008000000000000000000000000000000469
:1063B00000000000000000000000000000000020BD
:1063C0008000000000000000000000000000000449
:1063D000000000000000000000000000000000209D
:1063E0008000000000000000000000000000000429
:1063F000000000000000000000000000000000207D
:10640000C000004000002000001000000800000E46
:106410000000020000010000008000004000006059
:1064200080000000000000000000000000000004E8
:10643000000000000000000000000000000000203C
:1064400080000000000000000000000000000004C8
:10645000000000000000000000000000000000201C
:1064600080000000000000000000000000000004A8
:1064700000000000000000000000000000000020FC
:10648000C421084210842108421084210842108E41
:10649000210842108421084210842108421084609F
:1064A0008000000000000000000000000000000468
:1064B00000000000000000000000000000000020BC
:1064C0008000000000000000000000000000000448
:1064D000000000000000000000000000000000209C
:1064E0008000000000000000000000000000000428
:1064F000000000000000000000000000000000207C
:10650000C000004000002000001000000800000E45
:106510000000020000010000008000004000006058
:1065200080000000000000000000000000000004E7
:10653000000000000000000000000000000000203B
:1065400080000000000000000000000000000004C7
:10655000000000000000000000000000000000201B
:1065600080000000000000000000000000000004A7
:1065700000000000000000000000000000000020FB
:10658000C000004000002000001000000800000EC5
:1065900000000200000100000080000040000060D8
:1065A0008000000000000000000000000000000467
:1065B00000000000000000000000000000000020BB
:1065C0008000000000000000000000000000000447
:1065D000000000000000000000000000000000209B
:1065E0008000000000000000000000000000000427
:1065F000000000000000000000000000000000207B
:10660000C000004000002000001000000800000E44
:106610000000020000010000008000004000006057
:1066200080000000000000000000000000000004E6
:10663000000000000000000000000000000000203A
:1066400080000000000000000000000000000004C6
:10665000000000000000000000000000000000201A
:1066600080000000000000000000000000000004A6
:1066700000000000000000000000000000000020FA
:10668000C000004000002000001000000800000EC4
:1066900000000200000100000080000040000060D7
:1066A0008000000000000000000000000000000466
:1066B00000000000000000000000000000000020BA
:1066C0008000000000000000000000000000000446
:1066D000000000000000000000000000000000209A
:1066E0008421084210842108421084210842108429
:1066F000210842108421084210842108421084207D
:10670000FFFFFFFFFFFFFFFFFFFFFFFFFFFFFFFF99
:10671000FFFFFFFFFFFFFFFFFFFFFFFFFFFFFFE0A8
:1067200084210842108421084210842108421084E8
:10673000210842108421084210842108421084203C
:1067400080000000000000000000000000000004C5
:106750000000000000000000000000000000002019
:1067600080000000000000000000000000000004A5
:1067700000000000000000000000000000000020F9
:10678000C000004000002000001000000800000EC3
:1067900000000200000100000080000040000060D6
:1067A0008000000000000000000000000000000465
:1067B00000000000000000000000000000000020B9
:1067C0008000000000000000000000000000000445
:1067D0000000000000000000000000000000002099
:1067E0008000000000000000000000000000000425
:1067F0000000000000000000000000000000002079
:10680000C000004000002000001000000800000E42
:106810000000020000010000008000004000006055
:1068200080000000000000000000000000000004E4
:106830000000000000000000000000000000002038
:1068400080000000000000000000000000000004C4
:106850000000000000000000000000000000002018
:1068600080000000000000000000000000000004A4
:1068700000000000000000000000000000000020F8
:10688000C000004000002000001000000800000EC2
:1068900000000200000100000080000040000060D5
:1068A0008000000000000000000000000000000464
:1068B00000000000000000000000000000000020B8
:1068C0008000000000000000000000000000000444
:1068D0000000000000000000000000000000002098
:1068E0008000000000000000000000000000000424
:1068F0000000000000000000000000000000002078
:10690000C000004000002000001000000800000E41
:106910000000020000010000008000004000006054
:1069200080000000000000000000000000000004E3
:106930000000000000000000000000000000002037
:1069400080000000000000000000000000000004C3
:106950000000000000000000000000000000002017
:1069600080000000000000000000000000000004A3
:1069700000000000000000000000000000000020F7
:10698000C421084210842108421084210842108E3C
:10699000210842108421084210842108421084609A
:1069A0008000000000000000000000000000000463
:1069B00000000000000000000000000000000020B7
:1069C0008000000000000000000000000000000443
:1069D0000000000000000000000000000000002097
:1069E0008000000000000000000000000000000423
:1069F0000000000000000000000000000000002077
:106A0000C000004000002000001000000800000E40
:106A10000000020000010000008000004000006053
:106A200080000000000000000000000000000004E2
:106A30000000000000000000000000000000002036
:106A400080000000000000000000000000000004C2
:106A50000000000000000000000000000000002016
:106A600080000000000000000000000000000004A2
:106A700000000000000000000000000000000020F6
:106A8000C000004000002000001000000800000EC0
:106A900000000200000100000080000040000060D3
:106AA0008000000000000000000000000000000462
:106AB00000000000000000000000000000000020B6
:106AC0008000000000000000000000000000000442
:106AD0000000000000000000000000000000002096
:106AE0008000000000000000000000000000000422
:106AF0000000000000000000000000000000002076
:106B0000C000004000002000001000000800000E3F
:106B10000000020000010000008000004000006052
:106B200080000000000000000000000000000004E1
:106B30000000000000000000000000000000002035
:106B400080000000000000000000000000000004C1
:106B50000000000000000000000000000000002015
:106B600080000000000000000000000000000004A1
:106B700000000000000000000000000000000020F5
:106B8000C000004000002000001000000800000EBF
:106B900000000200000100000080000040000060D2
:106BA0008000000000000000000000000000000461
:106BB00000000000000000000000000000000020B5
:106BC0008000000000000000000000000000000441
:106BD0000000000000000000000000000000002095
:106BE0008000000000000000000000000000000421
:106BF0000000000000000000000000000000002075
:106C0000C421084210842108421084210842108EB9
:106C10002108421084210842108421084210846017
:106C200080000000000000000000000000000004E0
:106C30000000000000000000000000000000002034
:106C400080000000000000000000000000000004C0
:106C50000000000000000000000000000000002014
:106C600080000000000000000000000000000004A0
:106C700000000000000000000000000000000020F4
:106C8000C000004000002000001000000800000EBE
:106C900000000200000100000080000040000060D1
:106CA0008000000000000000000000000000000460
:106CB00000000000000000000000000000000020B4
:106CC0008000000000000000000000000000000440
:106CD0000000000000000000000000000000002094
:106CE0008000000000000000000000000000000420
:106CF0000000000000000000000000000000002074
:106D0000C000004000002000001000000800000E3D
:106D10000000020000010000008000004000006050
:106D200080000000000000000000000000000004DF
:106D30000000000000000000000000000000002033
:106D400080000000000000000000000000000004BF
:106D50000000000000000000000000000000002013
:106D6000800000000000000000000000000000049F
:106D700000000000000000000000000000000020F3
:106D8000C000004000002000001000000800000EBD
:106D900000000200000100000080000040000060D0
:106DA000800000000000000000000000000000045F
:106DB00000000000000000000000000000000020B3
:106DC000800000000000000000000000000000043F
:106DD0000000000000000000000000000000002093
:106DE000800000000000000000000000000000041F
:106DF0000000000000000000000000000000002073
:106E0000C000004000002000001000000800000E3C
:106E1000000002000001000000800000400000604F
:106E200080000000000000000000000000000004DE
:106E30000000000000000000000000000000002032
:106E400080000000000000000000000000000004BE
:106E50000000000000000000000000000000002012
:106E6000800000000000000000000000000000049E
:106E700000000000000000000000000000000020F2
:106E8000C421084210842108421084210842108E37
:106E90002108421084210842108421084210846095
:106EA000800000000000000000000000000000045E
:106EB00000000000000000000000000000000020B2
:106EC000800000000000000000000000000000043E
:106ED0000000000000000000000000000000002092
:106EE000800000000000000000000000000000041E
:106EF0000000000000000000000000000000002072
:106F0000C000004000002000001000000800000E3B
:106F1000000002000001000000800000400000604E
:106F200080000000000000000000000000000004DD
:106F30000000000000000000000000000000002031
:106F400080000000000000000000000000000004BD
:106F50000000000000000000000000000000002011
:106F6000800000000000000000000000000000049D
:106F700000000000000000000000000000000020F1
:106F8000C000004000002000001000000800000EBB
:106F900000000200000100000080000040000060CE
:106FA000800000000000000000000000000000045D
:106FB00000000000000000000000000000000020B1
:106FC000800000000000000000000000000000043D
:106FD0000000000000000000000000000000002091
:106FE000800000000000000000000000000000041D
:106FF0000000000000000000000000000000002071
:10700000C000004000002000001000000800000E3A
:10701000000002000001000000800000400000604D
:1070200080000000000000000000000000000004DC
:107030000000000000000000000000000000002030
:1070400080000000000000000000000000000004BC
:107050000000000000000000000000000000002010
:10706000800000000000000000000000000000049C
:1070700000000000000000000000000000000020F0
:10708000C000004000002000001000000800000EBA
:1070900000000200000100000080000040000060CD
:1070A000800000000000000000000000000000045C
:1070B00000000000000000000000000000000020B0
:1070C000800000000000000000000000000000043C
:1070D0000000000000000000000000000000002090
:1070E000800000000000000000000000000000041C
:1070F0000000000000000000000000000000002070
:10710000C421084210842108421084210842108EB4
:107110002108421084210842108421084210846012
:1071200080000000000000000000000000000004DB
:10713000000000000000000000000000000000202F
:1071400080000000000000000000000000000004BB
:10715000000000000000000000000000000000200F
:10716000800000000000000000000000000000049B
:1071700000000000000000000000000000000020EF
:10718000C000004000002000001000000800000EB9
:1071900000000200000100000080000040000060CC
:1071A000800000000000000000000000000000045B
:1071B00000000000000000000000000000000020AF
:1071C000800000000000000000000000000000043B
:1071D000000000000000000000000000000000208F
:1071E000800000000000000000000000000000041B
:1071F000000000000000000000000000000000206F
:10720000C000004000002000001000000800000E38
:10721000000002000001000000800000400000604B
:1072200080000000000000000000000000000004DA
:10723000000000000000000000000000000000202E
:1072400080000000000000000000000000000004BA
:10725000000000000000000000000000000000200E
:10726000800000000000000000000000000000049A
:1072700000000000000000000000000000000020EE
:10728000C000004000002000001000000800000EB8
:1072900000000200000100000080000040000060CB
:1072A000800000000000000000000000000000045A
:1072B00000000000000000000000000000000020AE
:1072C000800000000000000000000000000000043A
:1072D000000000000000000000000000000000208E
:1072E000800000000000000000000000000000041A
:1072F000000000000000000000000000000000206E
:10730000C000004000002000001000000800000E37
:10731000000002000001000000800000400000604A
:1073200080000000000000000000000000000004D9
:10733000000000000000000000000000000000202D
:1073400080000000000000000000000000000004B9
:10735000000000000000000000000000000000200D
:10736000842108421084210842108421084210849C
:1073700021084210842108421084210842108420F0
:10738000FFFFFFFFFFFFFFFFFFFFFFFFFFFFFFFF0D
:10739000FFFFFFFFFFFFFFFFFFFFFFFFFFFFFFE01C
:1073A000FFFFFFFFFFFFFFFFFFFFFFFFFFFFFFFFED
:1073B000FFFFFFFFFFFFFFFFFFFFFFFFFFFFFFFFDD
:1073C000FFFFFFFFFFF884210842108421084210CC
:1073D000842108421084210842108421084210842C
:1073E00021084210842108421084210880000000F6
:1073F000000000000000000000000000000002008B
:10740000000000000000000000000000000000007C
:1074100000088000000000000000000000000000E4
:10742000000000000200000000000000000000005A
:107430000000000000000008C00000400000200024
:107440000010000008000004000007000001000018
:1074500000800000400000200000100000188000A4
:10746000000000000000000000000000000000001C
:10747000020000000000000000000000000000000A
:107480000000000880000000000000000000000074
:1074900000000000000002000000000000000000EA
:1074A0000000000000000000000880000000000054
:1074B00000000000000000000000000002000000CA
:1074C00000000000000000000000000000000008B4
:1074D000C000004000002000001000000800000470
:1074E00000000700000100000080000040000020B4
:1074F00000001000001880000000000000000000E4
:107500000000000000000000020000000000000079
:1075100000000000000000000000000880000000E3
:107520000000000000000000000000000000020059
:10753000000000000000000000000000000000004B
:1075400000088000000000000000000000000000B3
:107550000000000002000000000000000000000029
:107560000000000000000008C000004000002000F3
:1075700000100000080000040000070000010000E7
:107580000080000040000020000010000018800073
:1075900000000000000000000000000000000000EB
:1075A00002000000000000000000000000000000D9
:1075B0000000000880000000000000000000000043
:1075C00000000000000002000000000000000000B9
:1075D0000000000000000000000880000000000023
:1075E0000000000000000000000000000200000099
:1075F0000000000000000000000000000000000883
:10760000C00000400000200000100000080000043E
:107610000000070000010000008000004000002082
:1076200000001000001880000000000000000000B2
:107630000000000000000000020000000000000048
:1076400000000000000000000000000880000000B2
:107650000000000000000000000000000000020028
:10766000000000000000000000000000000000001A
:107670000008800000000000000000000000000082
:1076800000000000020000000000000000000000F8
:107690000000000000000008C421084210842108F6
:1076A0004210842108421084210847108421084296
:1076B000108421084210842108421084211880007F
:1076C00000000000000000000000000000000000BA
:1076D00002000000000000000000000000000000A8
:1076E0000000000880000000000000000000000012
:1076F0000000000000000200000000000000000088
:1077000000000000000000000008800000000000F1
:107710000000000000000000000000000200000067
:107720000000000000000000000000000000000851
:10773000C00000400000200000100000080000040D
:107740000000070000010000008000004000002051
:107750000000100000188000000000000000000081
:107760000000000000000000020000000000000017
:107770000000000000000000000000088000000081
:1077800000000000000000000000000000000200F7
:1077900000000000000000000000000000000000E9
:1077A0000008800000000000000000000000000051
:1077B00000000000020000000000000000000000C7
:1077C0000000000000000008C00000400000200091
:1077D0000010000008000004000007000001000085
:1077E0000080000040000020000010000018800011
:1077F0000000000000000000000000000000000089
:107800000200000000000000000000000000000076
:1078100000000008800000000000000000000000E0
:107820000000000000000200000000000000000056
:1078300000000000000000000008800000000000C0
:107840000000000000000000000000000200000036
:107850000000000000000000000000000000000820
:10786000C0000040000020000010000008000004DC
:107870000000070000010000008000004000002020
:107880000000100000188000000000000000000050
:1078900000000000000000000200000000000000E6
:1078A0000000000000000000000000088000000050
:1078B00000000000000000000000000000000200C6
:1078C00000000000000000000000000000000000B8
:1078D0000008800000000000000000000000000020
:1078E0000000000002000000000000000000000096
:1078F0000000000000000008C00000400000200060
:107900000010000008000004000007000001000053
:1079100000800000400000200000100000188000DF
:107920000000000000000000000000000000000057
:107930000200000000000000000000000000000045
:1079400000000008800000000000000000000000AF
:107950000000000000000200000000000000000025
:10796000000000000000000000088000000000008F
:107970000000000000000000000000000200000005
:1079800000000000000000000000000000000008EF
:10799000C421084210842108421084210842108426
:1079A00021084710842108421084210842108421B4
:1079B0000842108421188000000000000000000030
:1079C00000000000000000000200000000000000B5
:1079D000000000000000000000000008800000001F
:1079E0000000000000000000000000000000020095
:1079F0000000000000000000000000000000000087
:107A000000088000000000000000000000000000EE
:107A10000000000002000000000000000000000064
:107A20000000000000000008C0000040000020002E
:107A30000010000008000004000007000001000022
:107A400000800000400000200000100000188000AE
:107A50000000000000000000000000000000000026
:107A60000200000000000000000000000000000014
:107A7000000000088000000000000000000000007E
:107A800000000000000002000000000000000000F4
:107A9000000000000000000000088000000000005E
:107AA00000000000000000000000000002000000D4
:107AB00000000000000000000000000000000008BE
:107AC000C00000400000200000100000080000047A
:107AD00000000700000100000080000040000020BE
:107AE00000001000001880000000000000000000EE
:107AF0000000000000000000020000000000000084
:107B000000000000000000000000000880000000ED
:107B10000000000000000000000000000000020063
:107B20000000000000000000000000000000000055
:107B300000088000000000000000000000000000BD
:107B40000000000002000000000000000000000033
:107B50000000000000000008C000004000002000FD
:107B600000100000080000040000070000010000F1
:107B7000008000004000002000001000001880007D
:107B800000000000000000000000000000000000F5
:107B900002000000000000000000000000000000E3
:107BA000000000088000000000000000000000004D
:107BB00000000000000002000000000000000000C3
:107BC000000000000000000000088000000000002D
:107BD00000000000000000000000000002000000A3
:107BE000000000000000000000000000000000088D
:107BF000C000004000002000001000000800000449
:107C0000000007000001000000800000400000208C
:107C100000001000001880000000000000000000BC
:107C20000000000000000000020000000000000052
:107C300000000000000000000000000880000000BC
:107C40000000000000000000000000000000020032
:107C50000000000000000000000000000000000024
:107C6000000880000000000000000000000000008C
:107C70000000000002000000000000000000000002
:107C80000000000000000008C42108421084210800
:107C900042108421084210842108471084210842A0
:107CA0001084210842108421084210842118800089
:107CB00000000000000000000000000000000000C4
:107CC00002000000000000000000000000000000B2
:107CD000000000088000000000000000000000001C
:107CE0000000000000000200000000000000000092
:107CF00000000000000000000008800000000000FC
:107D00000000000000000000000000000200000071
:107D1000000000000000000000000000000000085B
:107D2000C000004000002000001000000800000417
:107D3000000007000001000000800000400000205B
:107D4000000010000018800000000000000000008B
:107D50000000000000000000020000000000000021
:107D6000000000000000000000000008800000008B
:107D70000000000000000000000000000000020001
:107D800000000000000000000000000000000000F3
:107D9000000880000000000000000000000000005B
:107DA00000000000020000000000000000000000D1
:107DB0000000000000000008C0000040000020009B
:107DC000001000000800000400000700000100008F
:107DD000008000004000002000001000001880001B
:107DE0000000000000000000000000000000000093
:107DF0000200000000000000000000000000000081
:107E000000000008800000000000000000000000EA
:107E10000000000000000200000000000000000060
:107E200000000000000000000008800000000000CA
:107E30000000000000000000000000000200000040
:107E4000000000000000000000000000000000082A
:107E5000C0000040000020000010000008000004E6
:107E6000000007000001000000800000400000202A
:107E7000000010000018800000000000000000005A
:107E800000000000000000000200000000000000F0
:107E9000000000000000000000000008800000005A
:107EA00000000000000000000000000000000200D0
:107EB00000000000000000000000000000000000C2
:107EC000000880000000000000000000000000002A
:107ED00000000000020000000000000000000000A0
:107EE0000000000000000008C0000040000020006A
:107EF000001000000800000400000700000100005E
:107F000000800000400000200000100000188000E9
:107F10000000000000000000000000000000000061
:107F2000020000000000000000000000000000004F
:107F300000000008800000000000000000000000B9
:107F4000000000000000020000000000000000002F
:107F50000000000000000000000880000000000099
:107F6000000000000000000000000000020000000F
:107F700000000000000000000000000000000008F9
:107F8000C421084210842108421084210842108430
:107F900021084710842108421084210842108421BE
:107FA000084210842118800000000000000000003A
:107FB00000000000000000000200000000000000BF
:107FC0000000000000000000000000088000000029
:107FD000000000000000000000000000000002009F
:107FE0000000000000000000000000000000000091
:107FF00000088000000000000000000000000000F9
:10800000000000000200000000000000000000006E
:108010000000000000000008C00000400000200038
:10802000001000000800000400000700000100002C
:1080300000800000400000200000100000188000B8
:108040000000000000000000000000000000000030
:10805000020000000000000000000000000000001E
:108060000000000880000000000000000000000088
:1080700000000000000002000000000000000000FE
:108080000000000000000000000880000000000068
:1080900000000000000000000000000002000000DE
:1080A00000000000000000000000000000000008C8
:1080B000C000004000002000001000000800000484
:1080C00000000700000100000080000040000020C8
:1080D00000001000001880000000000000000000F8
:1080E000000000000000000002000000000000008E
:1080F00000000000000000000000000880000000F8
:10810000000000000000000000000000000002006D
:10811000000000000000000000000000000000005F
:1081200000088000000000000000000000000000C7
:10813000000000000200000000000000000000003D
:108140000000000000000008C00000400000200007
:1081500000100000080000040000070000010000FB
:108160000080000040000020000010000018800087
:1081700000000000000000000000000000000000FF
:1081800002000000000000000000000000000000ED
:108190000000000880000000000000000000000057
:1081A00000000000000002000000000000000000CD
:1081B0000000000000000000000880000000000037
:1081C00000000000000000000000000002000000AD
:1081D0000000000000000000000000000000000897
:1081E000C000004000002000001000000800000453
:1081F0000000070000010000008000004000002097
:1082000000001000001880000000000000000000C6
:10821000000000000000000002000000000000005C
:1082200000000000000000000000000880000000C6
:10823000000000000000000000000000000002003C
:10824000000000000000000000000000000000002E
:108250000008842108421084210842108421084229
:108260001084210842108421084210842108421001
:108270008421084210842108FFFFFFFFFFFFFFFF5A
:10828000FFFFFFFFFFFFFFFFFFFFFFFFFFFFFFFFFE
:10829000FFFFFFFFFFFFFFFFFFFFFFFFFFF884214E
:1082A00008421084210842108421084210842108C9
:1082B000421084210842108421084210842108427F
:1082C0001084210880000000000000000000000071
:1082D000000000000000020000000000000000009C
:1082E0000000000000000000000880000000000006
:1082F000000000000000000000000000020000007C
:108300000000000000000000000000000000000865
:10831000C000004000002000001000000800000421
:108320000000070000010000008000004000002065
:108330000000100000188000000000000000000095
:10834000000000000000000002000000000000002B
:108350000000000000000000000000088000000095
:10836000000000000000000000000000000002000B
:1083700000000000000000000000000000000000FD
:108380000008800000000000000000000000000065
:1083900000000000020000000000000000000000DB
:1083A0000000000000000008C000004000002000A5
:1083B0000010000008000004000007000001000099
:1083C0000080000040000020000010000018800025
:1083D000000000000000000000000000000000009D
:1083E000020000000000000000000000000000008B
:1083F00000000008800000000000000000000000F5
:10840000000000000000020000000000000000006A
:1084100000000000000000000008800000000000D4
:10842000000000000000000000000000020000004A
:108430000000000000000000000000000000000834
:10844000C0000040000020000010000008000004F0
:108450000000070000010000008000004000002034
:108460000000100000188000000000000000000064
:1084700000000000000000000200000000000000FA
:108480000000000000000000000000088000000064
:1084900000000000000000000000000000000200DA
:1084A00000000000000000000000000000000000CC
:1084B0000008800000000000000000000000000034
:1084C00000000000020000000000000000000000AA
:1084D0000000000000000008C00000400000200074
:1084E0000010000008000004000007000001000068
:1084F00000800000400000200000100000188000F4
:10850000000000000000000000000000000000006B
:108510000200000000000000000000000000000059
:1085200000000008800000000000000000000000C3
:108530000000000000000200000000000000000039
:1085400000000000000000000008800000000000A3
:108550000000000000000000000000000200000019
:108560000000000000000000000000000000000803
:10857000C42108421084210842108421084210843A
:1085800021084710842108421084210842108421C8
:108590000842108421188000000000000000000044
:1085A00000000000000000000200000000000000C9
:1085B0000000000000000000000000088000000033
:1085C00000000000000000000000000000000200A9
:1085D000000000000000000000000000000000009B
:1085E0000008800000000000000000000000000003
:1085F0000000000002000000000000000000000079
:108600000000000000000008C00000400000200042
:108610000010000008000004000007000001000036
:1086200000800000400000200000100000188000C2
:10863000000000000000000000000000000000003A
:108640000200000000000000000000000000000028
:108650000000000880000000000000000000000092
:108660000000000000000200000000000000000008
:108670000000000000000000000880000000000072
:1086800000000000000000000000000002000000E8
:1086900000000000000000000000000000000008D2
:1086A000C00000400000200000100000080000048E
:1086B00000000700000100000080000040000020D2
:1086C0000000100000188000000000000000000002
:1086D0000000000000000000020000000000000098
:1086E0000000000000000000000000088000000002
:1086F0000000000000000000000000000000020078
:108700000000000000000000000000000000000069
:1087100000088000000000000000000000000000D1
:108720000000000002000000000000000000000047
:108730000000000000000008C00000400000200011
:108740000010000008000004000007000001000005
:108750000080000040000020000010000018800091
:108760000000000000000000000000000000000009
:1087700002000000000000000000000000000000F7
:108780000000000880000000000000000000000061
:1087900000000000000002000000000000000000D7
:1087A0000000000000000000000880000000000041
:1087B00000000000000000000000000002000000B7
:1087C00000000000000000000000000000000008A1
:1087D000C00000400000200000100000080000045D
:1087E00000000700000100000080000040000020A1
:1087F00000001000001880000000000000000000D1
:108800000000000000000000020000000000000066
:1088100000000000000000000000000880000000D0
:108820000000000000000000000000000000020046
:108830000000000000000000000000000000000038
:1088400000088000000000000000000000000000A0
:108850000000000002000000000000000000000016
:108860000000000000000008C42108421084210814
:1088700042108421084210842108471084210842B4
:10888000108421084210842108421084211880009D
:1088900000000000000000000000000000000000D8
:1088A00002000000000000000000000000000000C6
:1088B0000000000880000000000000000000000030
:1088C00000000000000002000000000000000000A6
:1088D0000000000000000000000880000000000010
:1088E0000000000000000000000000000200000086
:1088F0000000000000000000000000000000000870
:10890000C00000400000200000100000080000042B
:10891000000007000001000000800000400000206F
:10892000000010000018800000000000000000009F
:108930000000000000000000020000000000000035
:10894000000000000000000000000008800000009F
:108950000000000000000000000000000000020015
:108960000000000000000000000000000000000007
:10897000000880000000000000000000000000006F
:1089800000000000020000000000000000000000E5
:108990000000000000000008C000004000002000AF
:1089A00000100000080000040000070000010000A3
:1089B000008000004000002000001000001880002F
:1089C00000000000000000000000000000000000A7
:1089D0000200000000000000000000000000000095
:1089E00000000008800000000000000000000000FF
:1089F0000000000000000200000000000000000075
:108A000000000000000000000008800000000000DE
:108A10000000000000000000000000000200000054
:108A2000000000000000000000000000000000083E
:108A3000C0000040000020000010000008000004FA
:108A4000000007000001000000800000400000203E
:108A5000000010000018800000000000000000006E
:108A60000000000000000000020000000000000004
:108A7000000000000000000000000008800000006E
:108A800000000000000000000000000000000200E4
:108A900000000000000000000000000000000000D6
:108AA000000880000000000000000000000000003E
:108AB00000000000020000000000000000000000B4
:108AC0000000000000000008C0000040000020007E
:108AD0000010000008000004000007000001000072
:108AE00000800000400000200000100000188000FE
:108AF0000000000000000000000000000000000076
:108B00000200000000000000000000000000000063
:108B100000000008800000000000000000000000CD
:108B20000000000000000200000000000000000043
:108B300000000000000000000008800000000000AD
:108B40000000000000000000000000000200000023
:108B5000000000000000000000000000000000080D
:108B6000C421084210842108421084210842108444
:108B700021084710842108421084210842108421D2
:108B8000084210842118800000000000000000004E
:108B900000000000000000000200000000000000D3
:108BA000000000000000000000000008800000003D
:108BB00000000000000000000000000000000200B3
:108BC00000000000000000000000000000000000A5
:108BD000000880000000000000000000000000000D
:108BE0000000000002000000000000000000000083
:108BF0000000000000000008C0000040000020004D
:108C00000010000008000004000007000001000040
:108C100000800000400000200000100000188000CC
:108C20000000000000000000000000000000000044
:108C30000200000000000000000000000000000032
:108C4000000000088000000000000000000000009C
:108C50000000000000000200000000000000000012
:108C6000000000000000000000088000000000007C
:108C700000000000000000000000000002000000F2
:108C800000000000000000000000000000000008DC
:108C9000C000004000002000001000000800000498
:108CA00000000700000100000080000040000020DC
:108CB000000010000018800000000000000000000C
:108CC00000000000000000000200000000000000A2
:108CD000000000000000000000000008800000000C
:108CE0000000000000000000000000000000020082
:108CF0000000000000000000000000000000000074
:108D000000088000000000000000000000000000DB
:108D10000000000002000000000000000000000051
:108D20000000000000000008C0000040000020001B
:108D3000001000000800000400000700000100000F
:108D4000008000004000002000001000001880009B
:108D50000000000000000000000000000000000013
:108D60000200000000000000000000000000000001
:108D7000000000088000000000000000000000006B
:108D800000000000000002000000000000000000E1
:108D9000000000000000000000088000000000004B
:108DA00000000000000000000000000002000000C1
:108DB00000000000000000000000000000000008AB
:108DC000C000004000002000001000000800000467
:108DD00000000700000100000080000040000020AB
:108DE00000001000001880000000000000000000DB
:108DF0000000000000000000020000000000000071
:108E000000000000000000000000000880000000DA
:108E10000000000000000000000000000000020050
:108E20000000000000000000000000000000000042
:108E300000088000000000000000000000000000AA
:108E40000000000002000000000000000000000020
:108E50000000000000000008C4210842108421081E
:108E600042108421084210842108471084210842BE
:108E700010842108421084210842108421188000A7
:108E800000000000000000000000000000000000E2
:108E900002000000000000000000000000000000D0
:108EA000000000088000000000000000000000003A
:108EB00000000000000002000000000000000000B0
:108EC000000000000000000000088000000000001A
:108ED0000000000000000000000000000200000090
:108EE000000000000000000000000000000000087A
:108EF000C000004000002000001000000800000436
:108F00000000070000010000008000004000002079
:108F100000001000001880000000000000000000A9
:108F2000000000000000000002000000000000003F
:108F300000000000000000000000000880000000A9
:108F4000000000000000000000000000000002001F
:108F50000000000000000000000000000000000011
:108F60000008800000000000000000000000000079
:108F700000000000020000000000000000000000EF
:108F80000000000000000008C000004000002000B9
:108F900000100000080000040000070000010000AD
:108FA0000080000040000020000010000018800039
:108FB00000000000000000000000000000000000B1
:108FC000020000000000000000000000000000009F
:108FD0000000000880000000000000000000000009
:108FE000000000000000020000000000000000007F
:108FF00000000000000000000008800000000000E9
:10900000000000000000000000000000020000005E
:109010000000000000000000000000000000000848
:10902000C000004000002000001000000800000404
:109030000000070000010000008000004000002048
:109040000000100000188000000000000000000078
:10905000000000000000000002000000000000000E
:109060000000000000000000000000088000000078
:1090700000000000000000000000000000000200EE
:1090800000000000000000000000000000000000E0
:109090000008800000000000000000000000000048
:1090A00000000000020000000000000000000000BE
:1090B0000000000000000008C00000400000200088
:1090C000001000000800000400000700000100007C
:1090D0000080000040000020000010000018800008
:1090E0000000000000000000000000000000000080
:1090F000020000000000000000000000000000006E
:1091000000000008800000000000000000000000D7
:10911000000000000000020000000000000000004D
:1091200000000000000000000008842108421084B4
:109130002108421084210842108421084210842111
:10914000084210842108421084210842108421081A
:10915000FFFFFFFFFFFFFFFFFFFFFFFFFFFFFFFF1F
:10916000FFFFFFFFFFFFFFFFFFFFFFFFFFFFFFFF0F
:10917000FFFFFFFFFFF8FFFFFFFFFFFFFFFFFFFF06
:10918000FFFFFFFFFFFFFFFFFFFFFFFFFFFFFFFFEF
:10919000FFFFFFFFFFFFFFFFFFFFFFFFFFFFFFFFDF
:1091A000FFFFFFFFFFFFFFFFFFFFFFFFFFFFFFFFCF
:1091B000FFFFFFFFFFFFFFFFFFFFFFFFFFFFFFFFBF
:020000040801F1
:1045C000FFFFFFFFFFFFF7DFF7DFFFFFFFFFFFFF4B
:1045D000FFFFFFFFFFFFFFFFFFFFFFFFFFFFFFFFEB
:1045E000FFFFFFFFFFFFFFFFFFFFFFFFFFFFFFFFDB
:1045F000FFFFFFFFFFFFFFFFFFFFFFFFFFFFFFFFCB
:10460000FFFFFFFFFFFFFFFFFFFFFFFFFFFFFFFFBA
:10484000FFFFFFFFDF9FCF5FD77FF7FFFFFFFFFF78
:10485000FFFFFFFFFFFFFFFFFFFFFFFFFFFFFFFF68
:10486000FFFFFFFFFFFFFFFFFFFFFFFFFFFFFFFF58
:10487000FFFFFFFFFFFFFFFFFFFFFFFFFFFFFFFF48
:10488000FFFFFFFFFFFFFFFFFFFFFFFFFFFFFFFF38
:10489000FFFFFFFFFFFFFFFFFFFFFFFFFFFFFFFF28
:1048A000FFFFFFFFFFFFFFFFFFFFFFFFFFFFFFFF18
:1048B000FFFFFFFFFFFFFFFFFFFFFFFFFFFFFFFF08
:1048C000FFFFFFFFFFFFFFFFFFFFFFFFFFFFFFFFF8
:1048D000FFFFFFFFFFFFFFFFFFFFFFFFFFFFFFFFE8
:1048E000FFFFFFFFFFFFFFFFFFFFFFFFFFFFFFFFD8
:1048F000FFFFFFFFFFFFFFFFFFFFFFFFFFFFFFFFC8
:10490000FFFFFFFFFFFFFFFFFFFFFFFFFFFFFFFFB7
:10491000FFFFFFFFFFFFFFFFFFFFFFFFFFFFFFFFA7
:10492000FFFFFFFFFFFFFFFFFFFFFFFFFFFFFFFF97
:10493000FFFFFFFFFFFFFFFFFFFFFFFFFFFFFFFF87
:10494000FFFFFFFFFFFFFFFFFFFFFFFFFFFFFFFF77
:10495000FFFFFFFFFFFFFFFFFFFFFFFFFFFFFFFF67
:10496000FFFFFFFFFFFFFFFFFFFFFFFFFFFFFFFF57
:10497000FFFFFFFFFFFFFFFFFFFFFFFFFFFFFFFF47
:10498000FFFFFFFFFFFFFFFFFFFFFFFFFFFFFFFF37
:10499000FFFFFFFFFFFFFFFFFFFFFFFFFFFFFFFF27
:1049A000FFFFFFFFFFFFF7FFF7FFFFFFFFFFFFFF27
:1049B000FFFFFFFFFFFFFFFFFFFFFFFFFFFFFFFF07
:1049C000FFFFFFFFFFFFFFFFFFFFFFFFFFFFFFFFF7
:1049D000FFFFFFFFFFFFFFFFFFFFFFFFFFFFFFFFE7
:1049E000FFFFFFFFFFFFFFFFFFFFFFFFFFFFFFFFD7
:1049F000FFFFFFFFFFFFFFFFFFFFFFFFFFFFFFFFC7
:104A0000FFFFFFFFFFFFFFFFFFFFFFFFFFFFFFFFB6
:104A1000FFFFFFFFFFFFFFFFFFFFFFFFFFFFFFFFA6
:104A2000FFFFFFFFFFFFFFFFFFFFFFFFFFFFFFFF96
:104A3000FFFFFFFFFFFFFFFFFFFFFFFFFFFFFFFF86
:104A4000FFFFFFFFFFFFFFFFFFFFFFFFFFFFFFFF76
:104A5000FFFFFFFFFFFFFFFFFFFFFFFFFFFFFFFF66
:104A6000FFFFFFFFFFFFFFFFFFFFFFFFFFFFFFFF56
:104A7000FFFFFFFFFFFFFFFFFFFFFFFFFFFFFFFF46
:104A8000FFFFFFFFFFFFFFFFFFFFFFFFFFFFFFFF36
:104A9000FFFFFFFFFFFFFFFFFFFFFFFFFFFFFFFF26
:104AA000FFFFFFFFFFFFFFFFFFFFFFFFFFFFFFFF16
:104AB000FFFFFFFFFFFFFFFFFFFFF7DFE79FD77F4E
:104AC000C73FBEFE9E7E8E5E9E9EEFBFFFFFFFFF36
:104AD000FFFFFFFFFFFFFFFFFFFFFFFFFFFFFFFFE6
:104AE000FFFFFFFFFFFFFFFFFFFFFFFFFFFFFFFFD6
:104AF000FFFFFFFFFFFFFFFFFFFFFFFFFFFFFFFFC6
:104B0000FFFFFFFFFFFFFFFFFFFFFFFFFFFFFFFFB5
:104B1000FFFFFFFFFFFFFFFFFFFFFFFFFFFFFFFFA5
:104B2000FFFFEFBFCF1FD77FF7DFFFFFFFFFFFFFC5
:104B3000FFFFFFFFFFFFFFFFFFFFFFFFFFFFFFFF85
:104B4000FFFFFFFFFFFFFFFFFFFFFFFFFFFFFFFF75
:104B5000FFFFFFFFFFFFFFFFFFFFFFFFFFFFFFFF65
:104B6000FFFFFFFFFFFFFFFFFFFFFFFFFFFFFFFF55
:104B7000FFFFFFFFFFFFFFFFFFFFFFFFFFFFFFFF45
:104B8000FFFFFFFFFFFFFFFFFFFFFFFFFFFFFFFF35
:104B9000FFFFFFFFFFFFFFFFFFFFFFFFFFFFFFFF25
:104BA000FFFFFFFFFFFFFFFFFFFFFFFFFFFFFFFF15
:104BB000FFFFFFFFFFFFFFFFFFFFFFFFFFFFFFFF05
:104BC000FFFFFFFFFFFFFFFFFFFFFFFFFFFFFFFFF5
:104BD000FFFFFFFFFFFFFFFFFFFFFFFFFFFFFFFFE5
:104BE000FFFFFFFFFFFFFFFFFFFFFFFFFFFFFFFFD5
:104BF000FFFFFFFFFFFFFFFFFFFFFFFFFFFFFFFFC5
:104C0000FFFFFFFFFFFFFFFFFFFFFFFFFFFFFFFFB4
:104C1000FFFFFFFFFFFFFFFFFFFFFFFFFFFFFFFFA4
:104C2000FFFFFFFFF7DFC6FFB6BEBEFFC71FCF5FA8
:104C3000D77FDF9FF7DFFFFFFFFFFFFFFFFFFFFFD4
:104C4000FFFFFFFFFFFFFFFFFFFFFFFFE79FCF3FDC
:104C5000EFBFFFFFFFFFFFFFFFFFFFFFFFFFFFFFB4
:104C6000FFFFFFFFFFFFFFFFFFFFFFFFFFFFFFFF54
:104C7000FFFFFFFFFFFFFFFFFFFFFFFFF7FFDF9FCC
:104C8000C73FC73FC73FC73FC73FC73FC73FDF9F7C
:104C9000FFFFFFFFFFFFFFFFFFFFFFFFFFFFFFFF24
:104CA000FFFFFFFFFFFFFFFFFFFFFFFFFFFFFFFF14
:104CB000FFFFFFFFFFFFFFFFFFFFFFFFFFFFFFFF04
:104CC000FFFFFFFFFFFFFFFFFFFFFFFFFFFFEFBF44
:104CD000DF7FCF5FF7DFFFFFFFFFFFFFFFFFFFFF7C
:104CE000FFFFFFFFFFFFFFFFFFFFFFFFFFFFFFFFD4
:104CF000FFFFFFFFFFFFFFFFFFFFFFFFFFFFFFFFC4
:104D0000FFFFFFFFFFFFFFFFFFFFFFFFFFFFFFFFB3
:104D1000FFFFFFFFFFFFFFFFFFFFFFFFFFFFFFFFA3
:104D2000FFFFFFFFFFFFFFFFFFFFFFFFFFFFFFFF93
:104D3000FFFFFFFFFFFFF7DFDF5FB6FE865E65DD8B
:104D4000353D24BC247C1C7C44FDDF7FFFFFFFFF3E
:104D5000FFFFFFFFFFFFFFFFFFFFFFFFFFFFFFFF63
:104D6000FFFFFFFFFFFFFFFFFFFFFFFFFFFFFFFF53
:104D7000FFFFFFFFFFFFFFFFFFFFFFFFFFFFFFFF43
:104D8000FFFFFFFFFFFFFFFFFFFFFFFFFFFFFFFF33
:104D9000FFFFFFFFFFFFFFFFFFFFFFFFFFFFFFFF23
:104DA000F7DFBEDE4CFD65BDAEDECF5FDF7FE79F88
:104DB000F7DFFFFFFFFFFFFFFFFFFFFFFFFFFFFF2B
:104DC000FFFFFFFFFFFFFFFFFFFFFFFFFFFFFFFFF3
:104DD000FFFFFFFFFFFFFFFFFFFFFFFFFFFFF7DF0B
:104DE000DF7FD77FD77FD77FD77FD77FD75FDF7F23
:104DF000F7DFFFFFFFFFFFFFFFFFFFFFFFFFFFFFEB
:104E0000FFFFFFFFFFFFFFFFFFFFFFFFFFFFFFFFB2
:104E1000FFFFFFFFFFFFFFFFFFFFFFFFFFFFFFFFA2
:104E2000FFFFFFFFFFFFFFFFFFFFFFFFFFFFFFFF92
:104E3000FFFFFFFFFFFFFFFFFFFFFFFFFFFFFFFF82
:104E4000FFFFFFFFFFFFFFFFFFFFFFFFFFFFFFFF72
:104E5000FFFFFFFFFFFFFFFFFFFFFFFFFFFFFFFF62
:104E6000FFFFFFFFFFFFFFFFFFFFFFFFFFFFFFFF52
:104E7000FFFFFFFFFFFFFFFFFFFFFFFFFFFFFFFF42
:104E8000FFFFFFFFFFFFFFFFFFFFDF9FD77FDF7FFA
:104E9000DF7FE79FEFBFEFDFF7DFFFFFFFFFFFFFE2
:104EA000FFFFFFFFD75F5CFD243C2CBC2D1D4D7D1B
:104EB0005DDD863EAEDECF1FDF5FF7DFFFFFFFFF6A
:104EC000FFFFFFFFFFFFFFFFE79FC73F8E5E555DC0
:104ED000AEBEE79FFFFFFFFFFFFFFFFFFFFFFFFFEC
:104EE000FFFFFFFFFFFFFFFFFFFFFFFFFFFFFFFFD2
:104EF000FFFFFFFFFFFFFFFFFFFFFFFFE79F8E7E2C
:104F00003D3D2D3D353D353D2D3D2CFD3D5D8E7EA0
:104F1000EFBFFFFFFFFFFFFFFFFFFFFFFFFFFFFFF1
:104F2000FFFFFFFFFFFFFFFFFFFFFFFFFFFFFFFF91
:104F3000FFFFFFFFFFFFFFFFFFFFFFFFFFFFFFFF81
:104F4000FFFFFFFFEFDFE7BFDF9FDF7FCF3F9E9ECB
:104F50006DFE559DC73FF7DFFFFFFFFFFFFFFFFF20
:104F6000FFFFFFFFFFFFFFFFFFFFFFFFFFFFFFFF51
:104F7000FFFFFFFFFFFFFFFFFFFFFFFFFFFFFFFF41
:104F8000FFFFFFFFFFFFFFFFFFFFFFFFFFFFFFFF31
:104F9000FFFFFFFFFFFFFFFFFFFFFFFFFFFFFFFF21
:104FA000FFFFFFFFFFFFFFFFFFFFFFFFFFFFFFFF11
:104FB000FFFFFFFFFFFFCF1F4CFD247C149C0C9CC8
:104FC000047C047C047C045C249CBEFEF7DFFFFFB1
:104FD000FFFFFFFFFFFFFFFFFFFFFFFFFFFFFFFFE1
:104FE000FFFFFFFFFFFFFFFFFFFFFFFFFFFFFFFFD1
:104FF000FFFFFFFFFFFFFFFFFFFFFFFFFFFFFFFFC1
:10500000FFFFFFFFFFFFFFFFFFFFFFFFFFFFFFFFB0
:10501000FFFFFFFFFFFFFFFFFFFFFFFFFFFFEFBFF0
:10502000A6BE65BD147C0C7C1C9C24BC34FD559D27
:10503000A6BEEFBFFFFFFFFFFFFFFFFFFFFFFFFF6A
:10504000FFFFFFFFFFFFFFFFFFFFFFFFFFFFFFFF70
:10505000FFFFFFFFFFFFFFFFFFFFFFFFFFFFCF1F70
:105060004D1D2CFD2D1D2D1D2D1D2CFD2CBC4D3D34
:10507000AEDEF7DFFFFFFFFFFFFFFFFFFFFFFFFFDA
:10508000FFFFFFFFF7DFF7DFF7DFF7DFF7DFF7DF20
:10509000F7DFF7DFF7DFF7DFF7DFF7DFF7DFF7DF60
:1050A000F7DFF7DFF7DFF7DFF7DFF7DFF7DFF7DF50
:1050B000F7DFF7DFF7DFF7DFF7DFF7DFF7DFF7DF40
:1050C000F7DFF7DFF7DFF7DFF7DFF7DFF7DFF7DF30
:1050D000F7DFF7DFF7DFF7DFF7DFF7DFF7DFF7DF20
:1050E000F7DFF7DFF7DFF7DFFFFFFFFFFFFFFFFF70
:1050F000FFFFFFFFFFFFFFFFFFFFFFFFFFFFFFFFC0
:10510000FFFFFFFFFFFFFFFFDF9F4D7D2CDD2CFD2D
:105110003D3D5DDD7E3E967EB6DED75FF7DFFFFF6D
:10512000FFFFFFFFBEFE34BC03FC047C047C0C9C30
:105130000C9C149C1C7C241C54DCBEFEFFFFFFFF57
:10514000FFFFFFFFE79FBEFF559D24DD147C0C5C35
:105150001CBC559DC73FFFFFFFFFFFFFFFFFFFFF89
:10516000FFFFFFFFFFFFFFFFFFFFFFFFFFFFFFFF4F
:10517000FFFFFFFFFFFFFFFFFFFFFFFFDF7F761E49
:10518000147C047C049C049C047C043C1C9C6DFEEC
:10519000E7BFFFFFFFFFFFFFFFFFFFFFFFFFFFFF77
:1051A000FFFFFFFFFFFFFFFFFFFFFFFFFFFFFFFF0F
:1051B000FFFFF7DFEFDFEFBFE7BFDF9FDF7FD75FE7
:1051C000D75FC71F8E7E65DD4D7D2CFD249C1C9C0A
:1051D000147C0C7C455DB6FFEFBFFFFFFFFFFFFFB8
:1051E000FFFFFFFFFFFFFFFFFFFFFFFFFFFFFFFFCF
:1051F000FFFFFFFFFFFFFFFFFFFFFFFFFFFFFFFFBF
:10520000FFFFFFFFFFFFFFFFFFFFFFFFFFFFFFFFAE
:10521000FFFFFFFFFFFFFFFFFFFFFFFFFFFFFFFF9E
:10522000FFFFFFFFFFFFFFFFFFFFFFFFFFFFFFFF8E
:10523000FFFFFFFFFFFFC71F34FD045C047C049CDD
:10524000049C049C049C047C149C763EDF9FFFFF1E
:10525000FFFFFFFFFFFFFFFFFFFFFFFFFFFFFFFF5E
:10526000FFFFFFFFFFFFFFFFFFFFFFFFFFFFFFFF4E
:10527000FFFFFFFFFFFFFFFFFFFFFFFFFFFFFFFF3E
:10528000FFFFFFFFFFFFFFFFFFFFFFFFFFFFFFFF2E
:10529000FFFFFFFFFFFFFFFFFFFFFFFFFFFFDF7FBE
:1052A0005D5D1C7C047C049C047C047C047C147C7C
:1052B0004CDDCF1FFFFFFFFFFFFFFFFFFFFFFFFFE3
:1052C000FFFFFFFFFFFFFFFFFFFFFFFFFFFFFFFFEE
:1052D000FFFFFFFFFFFFFFFFFFFFFFFFFFFFBEFE20
:1052E0002C7C047C049C047C047C047C041C2C9C8E
:1052F0009E9EF7DFFFFFFFFFFFFFFFFFFFFFFFFFA8
:10530000FFFFEFBFC73FC73FCF5FC75FC75FC75F45
:10531000C75FC75FC75FC75FC75FC75FC75FC75F5D
:10532000C75FC75FC75FC75FC75FC75FC75FC75F4D
:10533000C75FC75FC75FC75FC75FC75FC75FC75F3D
:10534000C75FC75FC75FC75FC75FC75FC75FC75F2D
:10535000C75FC75FC75FC75FC75FC75FC75FC75F1D
:10536000C75FCF5FC73FC73FEFBFFFFFFFFFFFFF35
:10537000FFFFFFFFFFFFFFFFFFFFFFFFFFFFFFFF3D
:10538000FFFFFFFFFFFFFFFFD75F2C9C045C047C47
:10539000047C149C24BC2CBC34BC54DDCF3FF7FFF0
:1053A000FFFFF7DF9E9E2CBD043C049C049C049CE4
:1053B000049C049C045C03DC3CBCCF3FFFFFFFFF6C
:1053C000FFFFEFBF7E3E3CDD147C047C047C047C4C
:1053D000045C149C5DDDE79FFFFFFFFFFFFFFFFF05
:1053E000FFFFFFFFFFFFFFFFFFFFFFFFFFFFFFFFCD
:1053F000FFFFFFFFFFFFFFFFFFFFFFFFDF7F761EC7
:10540000147C047C049C049C049C045C1C9C6E1E08
:10541000E7BFFFFFFFFFFFFFFFFFFFFFFFFFFFFFF4
:10542000FFFFFFFFFFFFFFFFFFFFFFFFFFFFFFFF8C
:10543000E7BFCF5FAEFE9EBE7E5E5DDD455D44FD97
:105440003CDD3CDC24BC149C0C9C047C047C047C73
:10545000049C047C149C55BD96BEEFBFFFFFFFFF6C
:10546000FFFFFFFFFFFFFFFFFFFFFFFFFFFFFFFF4C
:10547000FFFFFFFFFFFFFFFFFFFFFFFFFFFFFFFF3C
:10548000FFFFFFFFFFFFFFFFFFFFFFFFFFFFFFFF2C
:10549000FFFFFFFFFFFFFFFFFFFFFFFFFFFFFFFF1C
:1054A000FFFFFFFFFFFFFFFFFFFFFFFFFFFFFFFF0C
:1054B000FFFFFFFFFFFFCF5F4DBD0C9C049C04BCB2
:1054C000049C049C049C049C0C7C557DCF5FFFFFD6
:1054D000FFFFFFFFFFFFFFFFFFFFFFFFFFFFFFFFDC
:1054E000FFFFFFFFFFFFFFFFFFFFFFFFFFFFFFFFCC
:1054F000FFFFFFFFFFFFFFFFFFFFFFFFFFFFFFFFBC
:10550000FFFFFFFFFFFFFFFFFFFFFFFFFFFFFFFFAB
:10551000FFFFFFFFFFFFFFFFFFFFFFFFFFFFBEFEDD
:1055200034DC041C047C04BC049C049C047C045CEB
:1055300044BDCF1FFFFFFFFFFFFFFFFFFFFFFFFF88
:10554000FFFFFFFFFFFFFFFFFFFFFFFFFFFFFFFF6B
:10555000FFFFFFFFFFFFFFFFFFFFFFFFFFFFBEFE9D
:105560002C7C047C049C049C049C047C041C2CBCAB
:105570009E9EF7DFFFFFFFFFFFFFFFFFFFFFFFFF25
:10558000F7DFD75F8E3E863E8E5E865E865E865EE7
:10559000865E865E865E865E865E865E865E865EEB
:1055A000865E865E865E865E865E865E865E865EDB
:1055B000865E865E865E865E865E865E865E865ECB
:1055C000865E865E865E865E865E865E865E865EBB
:1055D000865E865E865E865E865E865E865E865EAB
:1055E000865E8E5E863E8E3ED75FF7DFFFFFFFFF53
:1055F000FFFFFFFFFFFFFFFFFFFFFFFFFFFFFFFFBB
:10560000FFFFFFFFFFFFFFFFCF1F247C045C049C14
:10561000047C045C043C043C03FC241CC6FFF7FF30
:10562000FFFFEFBF865E24BC043C049C049C049CEA
:10563000049C04BC049C041C44DDD75FFFFFFFFFF7
:10564000FFFFCF3F453D041C045C049C049C049C6C
:10565000045C045C2D1DBF1FF7DFFFFFFFFFFFFF92
:10566000FFFFFFFFFFFFFFFFFFFFFFFFFFFFFFFF4A
:10567000FFFFFFFFFFFFFFFFFFFFFFFFDF9F761E24
:10568000149C049C04BC049C049C045C1CBC6E1E06
:10569000E7BFFFFFFFFFFFFFFFFFF7FFDF7FCF3F0A
:1056A000C71FBF1FBF1FBEFFBEFEBEFEBEFEBEDECB
:1056B000A6BE8E5E6DFE5DBD3D5D1CFD047C041CC2
:1056C00003FC041C043C045C047C049C049C04BC9B
:1056D00004BC049C0C5C24DD5DBDCF5FFFFFFFFFBD
:1056E000FFFFFFFFFFFFFFFFFFFFFFFFFFFFFFFFCA
:1056F000FFFFFFFFFFFFFFFFFFFFFFFFFFFFFFFFBA
:10570000FFFFFFFFFFFFFFFFFFFFFFFFFFFFFFFFA9
:10571000FFFFFFFFFFFFFFFFFFFFFFFFFFFFFFFF99
:10572000FFFFFFFFFFFFFFFFFFFFFFFFFFFFFFFF89
:10573000FFFFFFFFFFFFE7BF969E1C9C047C04BC9D
:10574000049C049C049C049C047C2CDCBEFEFFFF97
:10575000FFFFFFFFFFFFFFFFFFFFFFFFFFFFFFFF59
:10576000FFFFFFFFFFFFFFFFFFFFFFFFFFFFFFFF49
:10577000FFFFFFFFFFFFFFFFFFFFFFFFFFFFFFFF39
:10578000FFFFFFFFFFFFFFFFFFFFFFFFFFFFFFFF29
:10579000FFFFFFFFFFFFFFFFFFFFFFFFE7BF6DFE04
:1057A0001C9C043C049C049C049C049C049C147C51
:1057B00075FEDF7FFFFFFFFFFFFFFFFFFFFFFFFF24
:1057C000FFFFFFFFFFFFFFFFFFFFFFFFFFFFFFFFE9
:1057D000FFFFFFFFFFFFFFFFFFFFFFFFFFFFBEFE1B
:1057E0002C9C047C049C049C049C049C041C2CBCE9
:1057F0009EBEF7DFFFFFFFFFFFFFFFFFFFFFFFFF83
:10580000EFBFAEBE349C1C7C1C9C1C9C1C9C1C9C36
:105810001C9C1C9C1C9C1C9C1C9C1C9C1C9C1C9CC8
:105820001C9C1C9C1C9C1C9C1C9C1C9C1C9C1C9CB8
:105830001C9C1C9C1C9C1C9C1C9C1C9C1C9C1C9CA8
:105840001C9C1C9C1C9C1C9C1C9C1C9C1C9C1C9C98
:105850001C9C1C9C1C9C1C9C1C9C1C9C1C9C1C9C88
:105860001C9C1C9C1C7C349CAEBEEFBFFFFFFFFF4A
:10587000FFFFFFFFFFFFFFFFFFFFFFFFFFFFFFFF38
:10588000FFFFFFFFFFFFEFBF969E1C9C047C049C64
:10589000049C049C049C047C047C34FDD77FFFFFA3
:1058A000FFFFE7BF6DFE1C9C045C049C049C049CF1
:1058B000049C049C047C041C44DDD75FFFFFFFFFB5
:1058C000EFBFA6BE2C9C045C049C049C049C049C1E
:1058D000049C047C0C7C5DBDC73FF7DFFFFFFFFF2E
:1058E000FFFFFFFFFFFFFFFFFFFFFFFFFFFFFFFFC8
:1058F000FFFFFFFFFFFFFFFFFFFFFFFFDF9F761EA2
:10590000149C047C049C049C049C045C1CBC6E1EC3
:10591000E7BFFFFFFFFFFFFFFFFFE79F7E5E4D7DBD
:105920002D1D2CDD2CDD2CBC2C7C2C7C2C9C249C5B
:10593000249C1C9C149C149C0C9C049C047C047C47
:10594000047C049C049C049C049C049C049C049C77
:10595000049C049C047C0C3C2CBC863EE79FFFFF0F
:10596000FFFFFFFFFFFFFFFFFFFFFFFFFFFFFFFF47
:10597000FFFFFFFFFFFFFFFFFFFFFFFFFFFFFFFF37
:10598000FFFFFFFFFFFFFFFFFFFFFFFFFFFFFFFF27
:10599000FFFFFFFFFFFFFFFFFFFFFFFFFFFFFFFF17
:1059A000FFFFFFFFFFFFFFFFFFFFFFFFFFFFFFFF07
:1059B000FFFFFFFFFFFFFFFFCF3F24BC047C049CE1
:1059C000049C049C049C049C049C1C9C967ED77F95
:1059D000F7DFFFFFFFFFFFFFFFFFFFFFFFFFFFFFFF
:1059E000FFFFFFFFFFFFFFFFFFFFFFFFFFFFFFFFC7
:1059F000FFFFFFFFFFFFFFFFFFFFFFFFFFFFFFFFB7
:105A0000FFFFFFFFFFFFFFFFFFFFFFFFFFFFFFFFA6
:105A1000FFFFFFFFFFFFFFFFFFFFF7DFBF1F2CBCF4
:105A2000047C049C049C049C049C049C049C047CB6
:105A300034FDAEBEE79FFFFFFFFFFFFFFFFFFFFF4D
:105A4000FFFFFFFFFFFFFFFFE7BFDF7FDF7FDF9F7E
:105A5000DF9FDF9FDF7FDF9FEFBFFFFFFFFFBEFE08
:105A60002C9C047C049C049C049C049C043C2CBC46
:105A70009EBEF7DFFFFFFFFFFFFFFFFFFFFFFFFF00
:105A8000EFDFA6BE1C7C047C049C049C049C049C4C
:105A9000049C049C049C049C049C049C049C049C06
:105AA000049C049C049C049C049C049C049C049CF6
:105AB000049C049C049C049C049C049C049C049CE6
:105AC000049C049C049C049C049C049C049C049CD6
:105AD000049C049C049C049C049C049C049C049CC6
:105AE000049C049C047C1C7CA6BEEFDFFFFFFFFF30
:105AF000FFFFFFFFFFFFFFFFFFFFFFFFFFFFFFFFB6
:105B0000FFFFFFFFFFFFCF3F455D047C049C049C2B
:105B1000049C049C04BC049C147C7E3EEFBFFFFFED
:105B2000FFFFDF9F457D0C9C047C049C049C049C2F
:105B3000049C049C047C047C455DDF7FFFFFFFFF29
:105B4000FFFFDF9F75FE147C047C049C049C049C76
:105B5000049C049C047C1C9C65BD9E9EE79FFFFFEB
:105B6000FFFFFFFFFFFFFFFFFFFFFFFFFFFFFFFF45
:105B7000FFFFFFFFFFFFFFFFFFFFFFFFDF9F761E1F
:105B8000149C047C049C049C049C045C1CBC6E1E41
:105B9000E7BFFFFFFFFFFFFFFFFFDF9F65FD24FD66
:105BA000047C047C049C049C047C047C047C047CB5
:105BB000049C049C049C049C049C049C049C049CE5
:105BC000049C049C049C049C049C049C049C049CD5
:105BD000049C049C049C047C045C2C9C9E9EEFBF53
:105BE000FFFFFFFFFFFFFFFFFFFFFFFFFFFFFFFFC5
:105BF000FFFFFFFFFFFFFFFFFFFFFFFFFFFFFFFFB5
:105C0000FFFFFFFFFFFFFFFFFFFFFFFFFFFFFFFFA4
:105C1000FFFFFFFFFFFFFFFFFFFFFFFFFFFFFFFF94
:105C2000FFFFFFFFFFFFFFFFFFFFFFFFFFFFFFFF84
:105C3000FFFFFFFFFFFFFFFFD77F2D1D047C047CCC
:105C4000049C049C049C049C049C149C55BD969E3E
:105C5000EFBFFFFFFFFFFFFFFFFFFFFFFFFFFFFFA4
:105C6000FFFFFFFFFFFFFFFFFFFFFFFFFFFFFFFF44
:105C7000FFFFFFFFFFFFFFFFFFFFFFFFFFFFFFFF34
:105C8000FFFFFFFFFFFFFFFFFFFFFFFFFFFFFFFF24
:105C9000FFFFFFFFFFFFFFFFFFFFCF5F55BD0C7C46
:105CA000049C049C049C049C049C049C049C049CF4
:105CB0000C7C34DD75BDE79FFFFFFFFFFFFFFFFF9B
:105CC000FFFFFFFFFFFFEFBF865E55BD4D9D55BD3A
:105CD00055BD4DBD457D55BD969EEFDFFFFFBEFE18
:105CE0002C9C047C049C049C049C049C043C2CBCC4
:105CF0009EBEF7DFFFFFFFFFFFFFFFFFFFFFFFFF7E
:105D0000EFDFAEDE1C9C047C04BC049C049C049C61
:105D1000049C049C049C049C049C049C049C049C83
:105D2000049C049C049C049C049C049C049C049C73
:105D3000049C049C049C049C049C049C049C049C63
:105D4000049C049C049C049C049C049C049C049C53
:105D5000049C049C049C049C049C049C049C049C43
:105D6000049C04BC047C1C9CAEDEEFDFFFFFFFFF45
:105D7000FFFFFFFFFFFFFFFFFFFFFFFFFFFFFFFF33
:105D8000FFFFFFFFFFFFC6FF2CBC047C049C049CAC
:105D9000049C049C049C047C249CC71FFFFFFFFF01
:105DA000FFFFDF7F2CFD047C049C049C049C049C6E
:105DB000049C049C047C1CDD5DBDDF9FFFFFFFFF96
:105DC000FFFFFFFFC73F2CFD047C047C049C049C68
:105DD000049C049C049C047C1C5C44FDAEDEF7DF48
:105DE000FFFFFFFFFFFFFFFFFFFFFFFFFFFFFFFFC3
:105DF000FFFFFFFFFFFFFFFFFFFFFFFFDF9F761E9D
:105E0000149C047C049C049C049C045C1CBC6E1EBE
:105E1000E7BFFFFFFFFFFFFFFFFFDF9F65FD24FDE3
:105E2000047C049C049C049C04BC049C049C049C72
:105E3000049C049C049C049C049C049C049C049C62
:105E4000049C049C049C049C049C04BC049C049C32
:105E5000049C047C045C041C03FC0C1C559DCF5F5B
:105E6000FFFFFFFFFFFFFFFFFFFFFFFFFFFFFFFF42
:105E7000FFFFFFFFFFFFFFFFFFFFFFFFFFFFFFFF32
:105E8000FFFFFFFFFFFFFFFFFFFFFFFFFFFFFFFF22
:105E9000FFFFFFFFFFFFFFFFFFFFFFFFFFFFFFFF12
:105EA000FFFFFFFFFFFFFFFFFFFFFFFFFFFFFFFF02
:105EB000FFFFFFFFFFFFFFFFDF9F3D7D0C9C047C8A
:105EC000049C049C049C049C047C0C5C2CFD6DFDD7
:105ED000E79FFFFFFFFFFFFFFFFFFFFFFFFFFFFF4A
:105EE000FFFFFFFFFFFFFFFFFFFFFFFFFFFFFFFFC2
:105EF000FFFFFFFFFFFFFFFFFFFFFFFFFFFFFFFFB2
:105F0000FFFFFFFFFFFFFFFFFFFFFFFFFFFFFFFFA1
:105F1000FFFFFFFFFFFFFFFFEFBFAEDE24FD047CAE
:105F2000049C049C049C049C049C049C049C049C71
:105F3000047C043C34DDAEBEF7DFFFFFFFFFFFFF54
:105F4000FFFFFFFFFFFFE79F55BD14DD0C9C14BD55
:105F500014DD0CBD049C1CDD761EEFBFFFFFBEFEF2
:105F60002C9C047C049C049C049C049C043C2CBC41
:105F70009EBEF7DFFFFFFFFFFFFFFFFFFFFFFFFFFB
:105F8000EFDFAEDE1C9C047C04BC049C049C049CDF
:105F9000049C049C049C049C049C049C049C049C01
:105FA000049C049C049C049C049C049C049C049CF1
:105FB000049C049C049C049C049C049C049C049CE1
:105FC000049C049C049C049C049C049C049C049CD1
:105FD000049C049C049C049C049C049C049C049CC1
:105FE000049C04BC047C1C9CAEDEEFDFFFFFFFFFC3
:105FF000FFFFFFFFFFFFFFFFFFFFFFFFFFFFFFFFB1
:10600000FFFFFFFFDF9F9E9E247C047C049C049C7A
:10601000049C049C049C047C2CDCDF5FFFFFFFFFDE
:10602000FFFFD75F2CBC047C049C049C049C049C54
:10603000049C049C0C9C353D761EE79FFFFFFFFFF0
:10604000FFFFFFFFE79F5DDD149C043C047C049C84
:10605000049C049C049C047C03DC2C7C9E9EF7DF47
:10606000FFFFFFFFFFFFFFFFFFFFFFFFFFFFFFFF40
:10607000FFFFFFFFFFFFFFFFFFFFFFFFDF9F761E1A
:10608000149C047C049C049C049C045C1CBC6E1E3C
:10609000E7BFFFFFFFFFFFFFFFFFDF9F65FD251D40
:1060A0000C7C049C049C049C049C049C049C049C08
:1060B000049C049C049C049C049C049C049C049CE0
:1060C000049C049C049C049C049C047C047C047C30
:1060D000047C047C1C9C34BC3CDD451D65FED77FE4
:1060E000FFFFFFFFFFFFFFFFFFFFFFFFFFFFFFFFC0
:1060F000FFFFFFFFFFFFFFFFFFFFFFFFFFFFFFFFB0
:10610000FFFFFFFFFFFFFFFFFFFFFFFFFFFFFFFF9F
:10611000FFFFFFFFFFFFFFFFFFFFFFFFFFFFFFFF8F
:10612000FFFFFFFFFFFFFFFFFFFFFFFFFFFFFFFF7F
:10613000FFFFFFFFFFFFFFFFEFBF7E3E1CBC043CE5
:10614000049C049C0C9C14BC1CBC2C9C34BC659D05
:10615000DF7FFFFFFFFFFFFFFFFFFFFFFFFFFFFFEF
:10616000FFFFFFFFFFFFFFFFFFFFFFFFFFFFFFFF3F
:10617000FFFFFFFFFFFFFFFFFFFFFFFFFFFFFFFF2F
:10618000FFFFFFFFFFFFFFFFFFFFFFFFFFFFFFFF1F
:10619000FFFFFFFFFFFFEFBFA6BE65BD149C049C81
:1061A000049C049C049C049C049C049C049C049CEF
:1061B000049C045C0C7C3D3DC73FF7DFFFFFFFFF05
:1061C000FFFFFFFFFFFFDF9F457D0C7C045C047C2D
:1061D000047C047C043C149C65FEE7BFFFFFBEFE0C
:1061E0002C9C047C049C049C049C049C043C2CBCBF
:1061F0009EBEF7DFFFFFFFFFFFFFFFFFFFFFFFFF79
:10620000EFDFAEBE1C9C047C049C049C049C049C9C
:10621000049C049C049C049C049C049C049C049C7E
:10622000049C049C049C049C049C049C049C049C6E
:10623000049C049C049C049C049C049C049C049C5E
:10624000049C049C049C049C049C049C049C049C4E
:10625000049C049C049C049C049C049C049C049C3E
:10626000049C049C047C1C9CAEBEEFDFFFFFFFFF80
:10627000FFFFFFFFFFFFFFFFFFFFFFFFFFFFFFFF2E
:10628000FFFFE7BF8E5E4D5D0C7C049C049C049C6C
:10629000049C049C045C149C559DE79FFFFFFFFF3A
:1062A000FFFFD75F24BC047C049C049C049C049CDA
:1062B000049C049C149C5DBD9EBEEFBFFFFFFFFFCE
:1062C000FFFFFFFFFFFFC71F555D1C9C047C049C64
:1062D000049C049C047C147C249C553DBEFEF7FF6A
:1062E000FFFFFFFFFFFFFFFFFFFFFFFFFFFFFFFFBE
:1062F000FFFFFFFFFFFFFFFFFFFFFFFFDF9F761E98
:10630000149C047C049C049C049C045C1CBC761EB1
:10631000EFBFFFFFFFFFFFFFFFFFDF9F65FD251DB5
:106320000C7C049C049C049C049C049C049C049C85
:10633000049C049C049C049C049C049C047C047C9D
:10634000047C047C047C0C9C149C1C9C249C249C3D
:106350002CBC353D761EAEDEC71FD75FDF9FF7DF53
:10636000FFFFFFFFFFFFFFFFFFFFFFFFFFFFFFFF3D
:10637000FFFFFFFFFFFFFFFFFFFFFFFFFFFFFFFF2D
:10638000FFFFFFFFFFFFFFFFFFFFFFFFFFFFFFFF1D
:10639000FFDFE77FD75FD75FD75FD75FD75FD75F75
:1063A000D75FD75FD75FD75FD75FD75FD75FD75F3D
:1063B000D75FD75FD75FD75FD75FA69E34DC043C3B
:1063C000047C0CBC2D3D559D863EAE9EAEBEBEDE11
:1063D000D73FD75FD75FD75FD75FD75FD75FD75F2D
:1063E000D75FD75FD75FD75FD75FD75FD75FD75FFD
:1063F000D75FDF5FEFBFFFFFFFFFFFFFFFFFFFFF85
:10640000FFFFFFFFFFFFFFFFFFFFFFFFFFFFFFFF9C
:10641000FFFFFFFFFFFFBEFE44FD143C047C049C15
:10642000049C049C049C049C049C049C049C049C6C
:10643000049C049C047C047C3D5DB6FFEFBFFFFF21
:10644000FFFFFFFFFFFFDF9F457D0C9C047C049C4A
:10645000049C049C045C149C6DFEE7BFFFFFBEFE21
:106460002C9C047C049C049C049C049C043C2CBC3C
:106470009EBEF7DFFFFFFFFFFFFFFFFFFFFFFFFFF6
:10648000EFDFA6BE1C7C045C049C047C047C047CC2
:10649000047C047C047C049C049C049C049C049C5C
:1064A000049C049C049C049C049C049C049C047C0C
:1064B000047C047C047C047C047C047C047C047CDC
:1064C000049C049C049C049C049C049C049C049CCC
:1064D000049C049C049C049C047C047C047C047C3C
:1064E000047C049C045C1C7CA6BEEFDFFFFFFFFF66
:1064F000FFFFFFFFFFFFFFFFFFFFFFFFFFFFFFFFAC
:10650000FFFFC73F44FD0C3C047C049C049C049C9E
:10651000049C049C041C3CDDBF1FFFFFFFFFFFFF2A
:10652000F7DFBEFE249C047C049C049C049C049C19
:10653000049C049C1C9C8E5ECF7FF7DFFFFFFFFF57
:10654000FFFFFFFFFFFFFFFFE79FAE9E3CDD047CE8
:10655000049C0C7C2C9C75FEBF1FDF7FF7DFFFFFC8
:10656000FFFFFFFFFFFFFFFFFFFFFFFFFFFFFFFF3B
:10657000EFDFE7BFE79FE7BFE79FE7BFCF5F761E8D
:10658000149C049C049C049C049C045C1CBC6E1E17
:10659000D77FE79FE79FE79FE7BFDF7F65FD251D6B
:1065A0000C7C049C049C049C049C049C049C049C03
:1065B0000C9C149C149C1C9C1C9C249C249C2C7C3B
:1065C0002C9C2CFD3D5D5DBD6E1E969EC71FD75F4A
:1065D000D75FDF7FEFBFF7DFFFFFFFFFFFFFFFFFAB
:1065E000FFFFFFFFFFFFFFFFFFFFFFFFFFFFFFFFBB
:1065F000FFFFFFFFFFFFFFFFFFFFFFFFFFFFFFFFAB
:10660000FFFFFFFFFFFFFFFFFFFFFFFFFFFFFFFF9A
:10661000E77F753D447C44BC44DD44DD44DD44DD1E
:1066200044DD44DD44DD44DD44DD44DD44DD44DD62
:1066300044DD44DD44DD44DD44DD34DD149C047C74
:10664000049C049C14BC1CDD34FD3CFD44FD44DD75
:1066500044DD44DD44DD44DD44DD44DD44DD44DD32
:1066600044DD44DD44DD44DD44DD44DD44DD44DD22
:1066700044BD4CDDA69EEFBFFFFFFFFFFFFFFFFF06
:10668000FFFFFFFFFFFFFFFFFFFFFFFFFFFFFFFF1A
:10669000FFFFFFFFE77F551D147C047C049C049CD6
:1066A000049C049C049C049C047C049C04BC049CEA
:1066B000049C049C049C047C149C4D9D8E9EE7BF0E
:1066C000FFFFFFFFFFFFDF9F459D0C9C047C049CA8
:1066D000049C049C045C1C9C6DFEE7BFFFFFBEFE97
:1066E0002C9C047C049C049C049C049C043C2CBCBA
:1066F0009EBEF7DFFFFFFFFFFFFFFFFFFFFFFFFF74
:10670000EFDFAEBE1C9C047C049C049C049C049C97
:10671000049C049C04BC0CBC0CBC049C049C049C09
:10672000049C049C049C049C049C049C0CBC04BC21
:10673000049C049C049C049C049C049C049C04BC39
:1067400004BC04BC049C049C049C049C049C049C09
:10675000049C049C049C0CBC049C049C049C049C11
:10676000049C049C047C1C9CAEBEEFDFFFFFFFFF7B
:10677000FFFFFFFFFFFFFFFFFFFFFFFFFFFFFFFF29
:10678000EFBF865E24BC043C049C049C049C049CD7
:10679000049C049C24DD65BDDF9FFFFFFFFFFFFF1E
:1067A000EFBF9E9E1C9C047C04BC049C049C049C27
:1067B000049C049C24BCB6DEF7DFFFFFFFFFFFFF55
:1067C000FFFFFFFFFFFFFFFFFFFFEFBFA67E249C41
:1067D00014BD457DAEBEDF7FF7DFFFFFFFFFFFFF8C
:1067E000FFFFFFFFFFFFFFFFFFFFFFFFFFFFF7DFE1
:1067F000B6FE7E5E761E7E3E7E5E867E763E3D5D8B
:106800000C9C049C049C049C049C047C0C9C3D5D9E
:106810007E3E7E5E7E5E763E7E5EC73F65FD251DCA
:106820000C9C049C049C049C049C049C049C14DD0F
:10683000457D55BD65DD75FE863EA69EBEDEBEFE6F
:10684000BEFEC71FC73FD77FDF7FE7BFF7FFFFFF52
:10685000FFFFFFFFFFFFFFFFFFFFFFFFFFFFFFFF48
:10686000FFFFFFFFFFFFFFFFFFFFFFFFFFFFFFFF38
:10687000FFFFFFFFFFFFFFFFFFFFFFFFFFFFFFFF28
:10688000FFFFFFFFFFFFFFFFFFFFFFFFFFFFFFFF18
:10689000D75F447C037B03DC03FC03FC03FC03FCA9
:1068A00003FC03FC03FC03FC03FC03FC03FC03FCF0
:1068B00003FC03FC03FC03FC03FC043C047C049C7D
:1068C000049C049C049C047C045C041C041C041CA8
:1068D00003FC03FC03FC03FC03FC03FC03FC03FCC0
:1068E00003FC03FC03FC03FC03FC03FC03FC03FCB0
:1068F00003DC13FC863EE79FFFFFFFFFFFFFFFFF68
:10690000FFFFFFFFFFFFFFFFFFFFFFFFFFFFFFFF97
:10691000FFFFEFDFAEBE1C7C045C049C049C049C67
:10692000049C049C049C049C0C9C049C049C049C5F
:10693000049C049C049C049C045C1CDD55BDC73F66
:10694000FFFFFFFFFFFFDF9F459D0C9C047C049C25
:10695000049C049C045C1C9C6DFEE7BFFFFFBEFE14
:106960002C9C047C049C049C049C049C043C2CBC37
:106970009EBEF7DFFFFFFFFFFFFFFFFFFFFFFFFFF1
:10698000F7DFBF1F557D457D459D457D457D457D97
:10699000457D457D459D4D9D3D5D0CBC049C049C05
:1069A000049C049C049C049C049C14DC3D7D459D3B
:1069B000457D457D457D457D457D457D457D459DA7
:1069C000459D355D0C9C049C049C049C049C049C8B
:1069D000049C049C14DD3D7D459D457D457D457DA4
:1069E000457D459D457D557DBF1FF7DFFFFFFFFFBF
:1069F000FFFFFFFFFFFFFFFFFFFFFFFFFFFFFFFFA7
:106A0000E79F559D149C045C049C049C049C049C7E
:106A1000049C0C9C2D1D5DDEB6FFCF5FCF5FCF5F6A
:106A2000B71F75FE149C049C04BC049C049C049C2D
:106A3000049C049C24BC9E9ECF5FCF5FCF5FCF5F42
:106A4000CF5FCF5FCF5FCF5FCF5FC75FA6BE24BCF6
:106A50002CFD5DDEB6FFCF5FCF5FCF5FCF5FCF5F37
:106A6000C73FCF5FEFBFFFFFFFFFFFFFFFFFEFBF9E
:106A70008E7E455D351D3D5D3D5D457D3D5D1CFD6D
:106A8000049C049C049C049C049C049C049C1CFD8D
:106A90003D5D3D5D3D5D353D455DBF1F65FD251D92
:106AA0000C9C049C049C049C049C049C04BC2D3DF4
:106AB0007E5E969EA6DEB6FEC73FE7BFFFFFFFFFE6
:106AC000FFFFFFFFFFFFFFFFFFFFFFFFFFFFFFFFD6
:106AD000FFFFFFFFFFFFFFFFFFFFFFFFFFFFFFFFC6
:106AE000FFFFFFFFFFFFFFFFFFFFFFFFFFFFFFFFB6
:106AF000FFFFFFFFFFFFFFFFFFFFFFFFFFFFFFFFA6
:106B0000FFFFFFFFFFFFFFFFFFFFFFFFFFFFFFFF95
:106B1000D75F44FD041C045C047C047C047C047C7E
:106B2000047C047C047C047C047C047C047C047C65
:106B3000047C047C047C047C047C049C049C049CF5
:106B4000049C049C049C049C049C047C047C047CA5
:106B5000047C047C047C047C047C047C047C047C35
:106B6000047C047C047C047C047C047C047C049C05
:106B7000045C1C7C967EE7BFFFFFFFFFFFFFFFFF6B
:106B8000FFFFFFFFFFFFFFFFFFFFFFFFFFFFFFFF15
:106B9000E79FAEDE3D3D047C049C049C049C049C69
:106BA000049C049C049C1CBC455D14BC045C049CBB
:106BB000049C049C049C049C047C045C24BC7E1EF9
:106BC000E79FFFFFFFFFDF9F459D0C9C047C049C1B
:106BD000049C049C045C1C9C6DFEE7BFFFFFBEFE92
:106BE0002C9C047C049C049C049C049C043C2CBCB5
:106BF0009EBEF7DFFFFFFFFFFFFFFFFFFFFFFFFF6F
:106C0000FFFFF7DFDF7FDF7FDF7FDF7FDF7FDF7F7C
:106C1000DF7FDF7FDF7FDF7FA6BE24FD047C049C57
:106C2000049C049C049C047C047C353DB71FDF7FDE
:106C3000DF7FDF7FDF7FDF7FDF7FDF7FDF7FDF7F64
:106C4000DF7FA69E249C047C049C049C049C049CE2
:106C5000049C04BC3D7DBF1FDF7FDF7FDF7FDF7FC4
:106C6000DF7FDF7FDF7FDF7FF7DFFFFFFFFFFFFFDC
:106C7000FFFFFFFFFFFFFFFFFFFFFFFFFFFFEFBF74
:106C8000BEFE2CBC047C049C049C049C049C049CC0
:106C9000049C049C1CFD353D457D457D457D4D9DF9
:106CA0003D7D1CFD049C049C049C049C049C049C51
:106CB000049C049C0C9C3D5D4D9D457D457D457D22
:106CC000457D457D457D457D457D4D9D457D1CDC56
:106CD0003D5D4D9D4D9D457D457D457D457D457D7C
:106CE000353D4D9DB6FEF7DFFFFFFFFFFFFFE7BF1E
:106CF0006DFD1C9C0C3C0C7C0C7C0C9C0C9C049C2A
:106D0000049C049C049C049C049C049C049C049C83
:106D10000C9C0C9C0C9C0C5C2C9CBEFE6DFE2D1DDA
:106D20000C9C049C049C049C049C049C14DC4D9DC1
:106D3000CF3FEFBFEFDFEFDFF7DFFFFFFFFFFFFF2B
:106D4000FFFFFFFFFFFFFFFFFFFFFFFFFFFFFFFF53
:106D5000FFFFFFFFFFFFFFFFFFFFFFFFFFFFFFFF43
:106D6000FFFFFFFFFFFFFFFFFFFFFFFFFFFFFFFF33
:106D7000FFFFFFFFFFFFFFFFFFFFFFFFFFFFFFFF23
:106D8000FFFFFFFFFFFFFFFFFFFFFFFFFFFFFFFF13
:106D9000D75F44FD043C047C049C049C049C049C3C
:106DA000049C049C049C049C049C049C049C049CE3
:106DB000049C049C049C049C049C049C049C049CD3
:106DC000049C049C049C049C049C049C049C049CC3
:106DD000049C049C049C049C049C049C049C049CB3
:106DE000049C049C049C049C049C049C049C04BC83
:106DF000047C1C9C969EE7BFFFFFFFFFFFFFFFFF89
:106E0000FFFFFFFFFFFFFFFFFFFFFFFFFFFFC73F8A
:106E100055BD1CFD047C049C049C049C049C049CA7
:106E2000049C047C147C6DFDB6FF5DBD24FD047CD8
:106E3000049C049C049C049C049C049C047C2C9C4A
:106E4000A69EEFBFFFFFDF9F459D0C9C047C049C2A
:106E5000049C049C045C1C9C6DFEE7BFFFFFBEFE0F
:106E60002C9C047C049C049C049C049C043C2CBC32
:106E70009EBEF7DFFFFFFFFFFFFFFFFFFFFFFFFFEC
:106E8000FFFFFFFFFFFFFFFFFFFFFFFFFFFFFFFF12
:106E9000FFFFFFFFFFFFFFFFBF1F2CFD047C049CD3
:106EA000049C049C049C049C047C453DD77FFFFF0C
:106EB000FFFFFFFFFFFFFFFFFFFFFFFFFFFFFFFFE2
:106EC000FFFFBEFF2CBC047C049C049C049C049C1F
:106ED000047C049C459DDF7FFFFFFFFFFFFFFFFF5A
:106EE000FFFFFFFFFFFFFFFFFFFFFFFFFFFFFFFFB2
:106EF000FFFFFFFFFFFFFFFFFFFFF7DFC73F8E5ED4
:106F000034DD047C049C049C049C049C049C049C30
:106F1000049C049C049C049C0C9C049C049C0C9C61
:106F2000049C049C049C049C049C049C049C049C61
:106F3000049C049C049C049C0C9C049C049C049C49
:106F4000049C049C049C049C049C049C0C9C049C39
:106F50000C9C0C9C0C9C049C049C049C049C047C39
:106F6000041C2CBC9E9EF7DFFFFFFFFFFFFFE7BF67
:106F70006DFE1C9C045C049C049C049C049C049C6E
:106F8000049C049C049C049C049C049C049C049C01
:106F9000049C049C049C045C2C9CBEFE6DFE2D1D78
:106FA0000C9C049C049C049C049C047C14DC55BD37
:106FB000DF9FFFFFFFFFFFFFFFFFFFFFFFFFFFFF61
:106FC000FFFFFFFFFFFFFFFFFFFFFFFFFFFFFFFFD1
:106FD000FFFFFFFFFFFFFFFFFFFFFFFFFFFFFFFFC1
:106FE000FFFFFFFFFFFFFFFFFFFFFFFFFFFFFFFFB1
:106FF000FFFFFFFFFFFFFFFFFFFFFFFFFFFFFFFFA1
:10700000FFFFFFFFFFFFFFFFFFFFFFFFFFFFFFFF90
:10701000D75F44FD043C047C049C049C049C049CB9
:10702000049C049C049C049C049C049C049C049C60
:10703000049C049C049C049C049C049C049C049C50
:10704000049C049C049C049C049C049C049C049C40
:10705000049C049C049C049C049C049C049C049C30
:10706000049C049C049C049C049C049C049C04BC00
:10707000047C1C9C969EE7BFFFFFFFFFFFFFFFFF06
:10708000FFFFFFFFFFFFFFFFFFFFF7DFC73F3D5D94
:107090000C7C045C049C049C049C049C049C049C48
:1070A000047C0C7C3D1DCF3FF7DFE79FAEBE3CFD6F
:1070B000047C049C049C049C049C049C049C047C10
:1070C00034BDAE9EE77FDF7F459D0C9C047C049C15
:1070D000049C049C045C1C9C6DFEE7BFFFFFBEFE8D
:1070E0002C9C047C049C049C049C049C043C2CBCB0
:1070F0009EBEF7DFFFFFFFFFFFFFFFFFFFFFFFFF6A
:10710000FFFFFFFFFFFFFFFFFFFFFFFFFFFFFFFF8F
:10711000FFFFFFFFFFFFFFFFBF1F2CFD047C049C50
:10712000049C049C049C049C047C453DD77FFFFF89
:10713000FFFFFFFFFFFFFFFFFFFFFFFFFFFFFFFF5F
:10714000FFFFBEFF2CBC047C049C049C049C049C9C
:10715000047C049C457DDF7FFFFFFFFFFFFFFFFFF7
:10716000FFFFFFFFFFFFFFFFFFFFFFFFFFFFFFFF2F
:10717000FFFFFFFFFFFFFFFFFFFFE79F763E353D6D
:107180000C7C049C049C049C049C049C049C049C17
:10719000049C049C049C049C049C049C049C049CEF
:1071A000049C049C049C049C049C049C049C049CDF
:1071B000049C049C049C049C049C049C049C049CCF
:1071C000049C049C049C049C049C049C049C049CBF
:1071D000049C049C049C049C049C049C049C049CAF
:1071E000041C2CBC9E9EF7DFFFFFFFFFFFFFE7BFE5
:1071F0006DFE1CBC045C049C049C049C049C049CCC
:10720000049C049C049C049C049C049C049C049C7E
:10721000049C049C049C047C2C9CBEFE6DFE2D1DD5
:107220000C9C049C049C049C049C049C14DC4D9DBC
:10723000BF1ED77FD77FD77FD77FD77FD77FD77F17
:10724000D77FD77FD77FD77FD77FD77FD77FD75FAE
:10725000D75FDF7FE79FF7DFF7DFFFFFFFFFFFFF6E
:10726000FFFFFFFFFFFFFFFFFFFFFFFFFFFFFFFF2E
:10727000FFFFFFFFFFFFFFFFFFFFFFFFFFFFFFFF1E
:10728000FFFFFFFFFFFFFFFFFFFFFFFFFFFFFFFF0E
:10729000D75F451D043C049C049C049C049C049CF6
:1072A000049C049C049C049C049C049C049C049CDE
:1072B000049C049C049C049C049C049C049C049CCE
:1072C000049C049C049C049C049C049C049C049CBE
:1072D000049C049C049C049C049C049C049C049CAE
:1072E000049C049C049C049C049C049C049C04BC7E
:1072F000047C1C9C969EE7BFFFFFFFFFFFFFFFFF84
:10730000FFFFFFFFFFFFFFFFFFFFCF5F559D0C7CDF
:10731000047C049C049C049C049C049C049C047CAD
:1073200003FC347CAEBEF7DFFFFFFFFFEFBFAE9E76
:107330001C5C045C049C049C049C049C049C049CB5
:107340000C7C34BC759DC71F459D0C9C047C049C23
:10735000049C049C045C1C9C6DFEE7BFFFFFBEFE0A
:107360002C9C047C049C049C049C049C043C2CBC2D
:107370009EBEF7DFFFFFFFFFFFFFFFFFFFFFFFFFE7
:10738000FFFFFFFFFFFFFFFFFFFFFFFFFFFFFFFF0D
:10739000FFFFFFFFFFFFFFFFBF1F2CFD047C049CCE
:1073A000049C049C049C049C047C453DD77FFFFF07
:1073B000FFFFFFFFFFFFFFFFFFFFFFFFFFFFFFFFDD
:1073C000FFFFBEFF2CBC047C049C049C049C049C1A
:1073D000047C049C457DDF7FFFFFFFFFFFFFFFFF75
:1073E000FFFFFFFFFFFFFFFFFFFFFFFFFFFFFFFFAD
:1073F000FFFFFFFFFFFFFFFFFFFFF7DFC75F863ED7
:107400001C9C049C049C049C049C049C049C049C64
:10741000049C049C049C049C049C049C049C049C6C
:10742000049C049C049C049C049C049C049C049C5C
:10743000049C049C049C049C049C049C049C049C4C
:10744000049C049C049C049C049C049C049C049C3C
:10745000049C049C049C049C049C049C049C049C2C
:10746000043C2CBC9E9EF7DFFFFFFFFFFFFFE7BF42
:107470006DFE1CBC045C049C049C049C049C049C49
:10748000049C049C049C049C049C049C049C049CFC
:10749000049C04BC049C047C2C9CBEFE6DFE2D1D33
:1074A0000C9C049C049C049C049C049C049C14BDA3
:1074B000351D451D451D451D451D451D451D451DCC
:1074C000451D451D451D451D451D451D451D44DDED
:1074D00044BD4D3D7E3EB71ED77FF7FFFFFFFFFF48
:1074E000FFFFFFFFFFFFFFFFFFFFFFFFFFFFFFFFAC
:1074F000FFFFFFFFFFFFFFFFFFFFFFFFFFFFFFFF9C
:10750000FFFFFFFFFFFFFFFFFFFFFFFFFFFFFFFF8B
:10751000D75F44FD041C047C049C049C049C049CD4
:10752000049C049C049C049C049C049C049C049C5B
:10753000049C049C049C049C049C049C049C049C4B
:10754000049C049C049C049C049C049C049C049C3B
:10755000049C049C049C049C049C049C049C049C2B
:10756000049C049C049C049C049C049C049C049C1B
:10757000047C1C7C967EE7BFFFFFFFFFFFFFFFFF41
:10758000FFFFFFFFFFFFF7DFCF3F8E5E1CDD045CD8
:10759000049C04BC049C049C049C049C049C0C7CE3
:1075A000247C655DDF7FFFFFFFFFFFFFFFFFDF7FC5
:1075B0004CFD0C5C047C049C049C049C049C049C7A
:1075C000047C041C34BC967E4D9D149C047C049C5D
:1075D000049C049C045C1C9C6DFEE7BFFFFFBEFE88
:1075E0002C9C047C049C049C049C049C043C2CBCAB
:1075F0009EBEF7DFFFFFFFFFFFFFFFFFFFFFFFFF65
:10760000FFFFFFFFFFFFFFFFFFFFFFFFFFFFFFFF8A
:10761000FFFFFFFFFFFFFFFFBF1F2CFD047C049C4B
:10762000049C049C049C049C047C453DD77FFFFF84
:10763000FFFFFFFFFFFFFFFFFFFFFFFFFFFFFFFF5A
:10764000FFFFBEFF2CBC047C049C049C049C049C97
:10765000047C049C457DDF7FFFFFFFFFFFFFFFFFF2
:10766000FFFFFFFFFFFFFFFFFFFFFFFFFFFFFFFF2A
:10767000FFFFFFFFFFFFFFFFFFFFFFFFF7DFB6DEAC
:10768000249C047C049C049C049C049C049C049CFA
:10769000049C049C049C049C049C049C049C049CEA
:1076A000049C049C049C049C049C049C049C049CDA
:1076B000049C049C049C049C049C049C049C049CCA
:1076C000049C049C049C049C049C049C049C049CBA
:1076D000049C049C049C049C049C049C049C049CAA
:1076E000043C2CBC9E9EF7DFFFFFFFFFFFFFE7BFC0
:1076F0006DFD149C043C047C047C047C049C049C70
:10770000049C049C049C049C049C049C049C049C79
:10771000047C049C047C045C2C9CBEFE6DFE2D1D30
:107720000C9C049C049C049C049C049C049C047C71
:10773000043C043C043C043C043C043C043C043C49
:10774000043C043C043C043C043C043C043C03FC7A
:1077500003FC0C5C3D3D75FE967EC6FEF7DFFFFF29
:10776000FFFFFFFFFFFFFFFFFFFFFFFFFFFFFFFF29
:10777000FFFFFFFFFFFFFFFFFFFFFFFFFFFFFFFF19
:10778000FFFFFFFFFFFFFFFFFFFFFFFFFFFFFFFF09
:10779000DF5F44FD041C0C7C0C9C0C9C0C9C0C9C22
:1077A0000C9C0C9C0C9C0C9C0C7C0C9C0C9C0C9CB9
:1077B0000C9C0C9C0C9C0C9C0C9C0C9C0C9C0C9C89
:1077C0000C9C0C9C0C9C0C9C0C9C0C9C0C9C0C9C79
:1077D0000C9C0C9C0C9C0C9C0C9C0C9C0C7C0C9C89
:1077E0000C9C0C9C0C9C0C9C0C9C0C9C0C9C0C9C59
:1077F0000C7C1C7C967EE7BFFFFFFFFFFFFFFFFFB7
:10780000FFFFFFFFEFBFC6FE555D1C9C047C049C80
:10781000049C049C049C049C049C049C047C2C9C60
:107820008E3ECF3FF7DFFFFFFFFFFFFFFFFFF7DFDA
:10783000A69E34DD0C3C047C049C049C049C049CAB
:10784000049C045C149C457D457D14BC047C049C14
:10785000049C049C045C1C9C6DFEE7BFFFFFBEFE05
:107860002C9C047C049C049C049C049C043C2CBC28
:107870009EBEF7DFFFFFFFFFFFFFFFFFFFFFFFFFE2
:10788000FFFFFFFFFFFFFFFFFFFFFFFFFFFFFFFF08
:10789000FFFFFFFFFFFFFFFFBF1F2CFD047C049CC9
:1078A000049C049C049C049C047C453DD77FFFFF02
:1078B000FFFFFFFFFFFFFFFFFFFFFFFFFFFFFFFFD8
:1078C000FFFFBEFF2CBC047C049C049C049C049C15
:1078D000047C049C457DDF7FFFFFFFFFFFFFFFFF70
:1078E000FFFFFFFFFFFFFFFFFFFFFFFFFFFFFFFFA8
:1078F000FFFFFFFFFFFFFFFFFFFFFFFFFFFFC71FB0
:10790000351D047C049C049C049C049C049C049CE5
:10791000049C049C049C049C049C049C049C049C67
:10792000049C049C049C049C049C049C049C049C57
:10793000049C049C049C049C049C049C049C049C47
:10794000049C049C049C049C049C049C049C049C37
:10795000049C049C049C049C049C049C049C047C47
:10796000041C2CBC9E9EF7DFFFFFFFFFFFFFE7BF5D
:107970006DFE249C145C149C149C1C9C149C049C04
:10798000049C049C049C049C049C049C049C0C9CEF
:10799000149C149C149C145C349CBEFE6DFE2D1D26
:1079A0000C9C049C049C049C049C049C049C049CCF
:1079B000047C047C047C047C047C047C047C047CC7
:1079C000047C047C047C047C047C047C047C047CB7
:1079D000047C047C0C7C1C7C247C4D1DDF7FFFFF21
:1079E000FFFFFFFFFFFFFFFFFFFFFFFFFFFFFFFFA7
:1079F000FFFFFFFFFFFFFFFFFFFFFFFFFFFFFFFF97
:107A0000FFFFFFFFFFFFFFFFFFFFFFFFFFFFFFFF86
:107A1000E79F6DFE3D5D4D9D559D559D559D559D29
:107A2000559D559D559D55BD559D55BD55BD5DBD3E
:107A300055BD559D4D9D4D9D559D559D559D559DA6
:107A4000559D559D559D559D559D559D559D559DA6
:107A5000559D55BD55BD5DBD5DBD55BD559D55BDC6
:107A600055BD559D559D559D559D559D559D55BD46
:107A70004D9D559DB6FFEFDFFFFFFFFFFFFFFFFFAF
:107A8000FFFFEFBF965E34BC0C7C047C049C049C1E
:107A9000049C049C049C049C049C047C249C863EC2
:107AA000DF7FFFFFFFFFFFFFFFFFFFFFFFFFFFFF86
:107AB000E79F8E5E4D7D149C049C049C049C049C5A
:107AC000049C049C047C0C7C14BC0C9C049C049CB6
:107AD000049C049C045C1C9C6DFEE7BFFFFFBEFE83
:107AE0002C9C047C049C049C049C049C043C2CBCA6
:107AF0009EBEF7DFFFFFFFFFFFFFFFFFFFFFFFFF60
:107B0000FFFFFFFFFFFFFFFFFFFFFFFFFFFFFFFF85
:107B1000FFFFFFFFFFFFFFFFBF1F2CFD047C049C46
:107B2000049C049C049C049C047C453DD77FFFFF7F
:107B3000FFFFFFFFFFFFFFFFFFFFFFFFFFFFFFFF55
:107B4000FFFFBEFF2CBC047C049C049C049C049C92
:107B5000047C049C457DDF7FFFFFFFFFFFFFFFFFED
:107B6000FFFFFFFFFFFFFFFFFFFFFFFFFFFFFFFF25
:107B7000FFFFFFFFFFFFFFFFFFFFFFFFFFFFDF9F95
:107B80007E3E147C047C049C049C0C9C0C9C149CE9
:107B90000C9C0C9C0C9C0C9C149C149C0C9C049C9D
:107BA000049C049C049C049C049C049C049C049CD5
:107BB000049C0C9C0C9C149C0C9C0C9C0C9C0C9C85
:107BC0000C9C0C9C0C9C0C9C0C9C0C9C0C9C0C9C75
:107BD0000C9C0C9C0C9C0C9C0C9C0C9C0C9C0C7C85
:107BE0000C1C34BC9E9EF7DFFFFFFFFFFFFFF7DF9B
:107BF000B6FE865E7E1E863E865E967E761E1CDD08
:107C0000049C049C049C049C049C047C0C9C353DBA
:107C1000865E865E865E7E3E865ECF3F65FD251D66
:107C20000C9C049C049C049C049C049C049C049C4C
:107C3000049C049C049C049C049C049C049C049C44
:107C4000049C049C049C049C049C049C049C049C34
:107C5000049C049C049C045C047C3D3DDF7FFFFF8E
:107C6000FFFFFFFFFFFFFFFFFFFFFFFFFFFFFFFF24
:107C7000FFFFFFFFFFFFFFFFFFFFFFFFFFFFFFFF14
:107C8000FFFFFFFFFFFFFFFFFFFFFFFFFFFFFFFF04
:107C9000F7DFD77FC75FCF5FCF5FCF5FCF5FCF5FAC
:107CA000CF5FCF5FCF5FCF5FCF5FD75FC73FA6DE2E
:107CB0006E1EBF1FCF5FCF5FCF5FCF5FCF5FCF5F46
:107CC000CF5FCF5FCF5FCF5FCF5FCF5FCF5FCF5F44
:107CD000CF5FCF5FB71FAEFEB6FECF5FCF5FCF5F88
:107CE000CF5FCF5FCF5FCF5FCF5FCF5FCF5FCF5F24
:107CF000CF5FCF5FEFBFFFFFFFFFFFFFFFFFFFFF84
:107D0000FFFFDF7F44FD043C047C049C049C049C36
:107D1000049C049C049C049C045C149C65BDD75F7B
:107D2000F7FFFFFFFFFFFFFFFFFFFFFFFFFFFFFF6B
:107D3000FFFFE79FA6DE353D049C049C049C049C49
:107D4000049C047C047C0C9C2D1D0CBC047C049CB9
:107D5000049C049C045C1C9C6DFEE7BFFFFFBEFE00
:107D60002C9C047C049C049C049C049C043C2CBC23
:107D70009EBEF7DFFFFFFFFFFFFFFFFFFFFFFFFFDD
:107D8000FFFFFFFFFFFFFFFFFFFFFFFFFFFFFFFF03
:107D9000FFFFFFFFFFFFFFFFBF1F2CFD047C049CC4
:107DA000049C049C049C049C047C453DD77FFFFFFD
:107DB000FFFFFFFFFFFFFFFFFFFFFFFFFFFFFFFFD3
:107DC000FFFFBEFF2CBC047C049C049C049C049C10
:107DD000047C049C457DDF7FFFFFFFFFFFFFFFFF6B
:107DE000FFFFFFFFFFFFFFFFFFFFFFFFFFFFFFFFA3
:107DF000FFFFFFFFFFFFFFFFFFFFFFFFFFFFF7FF9B
:107E0000C6FF243C03FC045C1CDD3D5D4D9D4D9D87
:107E10004D7D4D7D4D7D4D7D4D9D559D2D1D0C9C6C
:107E2000047C049C049C049C049C049C049C047C92
:107E30000C9C2D1D4D9D4D9D4D7D4D7D4D7D4D7D54
:107E40004D7D4D7D4D7D4D7D4D7D4D7D4D7D4D7DE2
:107E50004D7D4D7D4D7D4D7D4D7D4D7D4D7D457DDA
:107E60003D3D5D9DB6FEF7DFFFFFFFFFFFFFFFFF1C
:107E7000EFBFE79FDF9FDF9FE79FE7BFAEDE24DC1A
:107E8000049C049C049C049C049C049C047C34FD81
:107E9000C73FE79FE79FDF9FDF9FDF7F65FD251DD2
:107EA0000C7C049C049C049C049C049C049C049CEA
:107EB000049C049C049C049C049C049C049C049CC2
:107EC000049C049C049C049C049C049C049C049CB2
:107ED000049C049C049C045C149C55BDE79FFFFF1C
:107EE000FFFFFFFFFFFFFFFFFFFFFFFFFFFFFFFFA2
:107EF000FFFFFFFFFFFFFFFFFFFFFFFFFFFFFFFF92
:107F0000FFFFFFFFFFFFFFFFFFFFFFFFFFFFFFFF81
:107F1000FFFFFFFFFFFFFFFFFFFFFFFFFFFFFFFF71
:107F2000F7DFEFBFDF9FCF5FC71FBEFEB6DE8E5EFF
:107F30005DBDDF7FFFFFFFFFFFFFFFFFFFFFFFFFD5
:107F4000FFFFFFFFFFFFFFFFFFFFFFFFFFFFFFFF41
:107F5000FFFFEFDFB6FF9E9E9E9EBEDEC71FC73FA0
:107F6000CF5FD77FEFBFFFFFFFFFFFFFFFFFFFFFE9
:107F7000FFFFFFFFFFFFFFFFFFFFFFFFFFFFFFFF11
:107F8000FFFFE77F553D0C7C047C049C049C049C13
:107F9000049C049C049C049C045C24DD7E3EC73F3E
:107FA000D77FD77FD77FD77FD77FD77FD77FD77F21
:107FB000D77FD77FAEFE457D049C049C049C049C27
:107FC000049C045C149C355D3D7D14BC047C049CC5
:107FD000049C049C045C1C9C6DFEE7BFFFFFBEFE7E
:107FE0002C9C047C049C049C049C049C043C2CBCA1
:107FF0009EBEF7DFFFFFFFFFFFFFFFFFFFFFFFFF5B
:10800000FFFFFFFFFFFFFFFFFFFFFFFFFFFFFFFF80
:10801000FFFFFFFFFFFFFFFFBF1F2CFD047C049C41
:10802000049C049C049C049C047C453DD77FFFFF7A
:10803000FFFFFFFFFFFFFFFFFFFFFFFFFFFFFFFF50
:10804000FFFFBEFF2CBC047C049C049C049C049C8D
:10805000047C049C457DDF7FFFFFFFFFFFFFFFFFE8
:10806000FFFFFFFFFFFFFFFFFFFFFFFFFFFFFFFF20
:10807000FFFFFFFFFFFFFFFFFFFFFFFFFFFFFFFF10
:10808000DF5F44DD34BC453D5DBD7E5E8E7E8E7E11
:108090008E7E8E7E8E7E8E7E8E7E867E3D5D0C9C5E
:1080A000047C049C049C049C049C049C049C043C50
:1080B0001C9C5DDE8E7E8E7E8E7E8E7E8E7E8E7E85
:1080C0008E7E8E7E8E7E8E7E8E7E8E7E8E7E8E7E50
:1080D0008E7E8E7E8E7E8E7E8E7E8E7E8E7E867E48
:1080E0007E5E8E9ECF5FFFFFFFFFFFFFFFFFFFFF64
:1080F000FFFFFFFFFFFFFFFFFFFFFFFFBEFE24BCF0
:10810000049C049C049C049C049C049C047C1C9C77
:10811000AEDEF7DFFFFFFFFFFFFFDF9F65FD251DE1
:108120000C7C049C049C049C049C049C049C049C67
:10813000049C049C049C049C049C049C049C049C3F
:10814000049C049C049C049C049C049C049C049C2F
:10815000049C049C049C045C149C65FEE7BFFFFF28
:10816000FFFFFFFFFFFFFFFFFFFFFFFFFFFFFFFF1F
:10817000FFFFFFFFFFFFFFFFFFFFFFFFFFFFFFFF0F
:10818000FFFFFFFFFFFFFFFFFFFFFFFFFFFFFFFFFF
:10819000FFFFFFFFFFFFFFFFFFFFFFFFFFFFF7DF17
:1081A000C73F9E9E7E3E4D9D2CDD2C9C249C1C9C9E
:1081B0002C9CBEFFF7DFFFFFFFFFFFFFFFFFFFFF6E
:1081C000FFFFFFFFFFFFFFFFFFFFFFFFFFFFFFFFBF
:1081D000FFFFDF9F5DBD24DD249C249C2CDC353D0E
:1081E000457D6DFEA6BEC73FDF7FFFFFFFFFFFFFA0
:1081F000FFFFFFFFFFFFFFFFFFFFFFFFFFFFFFFF8F
:10820000FFFFFFFFC71F3D5D0C7C045C049C049CCA
:10821000049C049C049C049C049C1CDD5DBD65DDE9
:108220005DDD5DDD5DDD5DDD5DDD5DDD5DDD5DDD7E
:108230005DDD65DD5DDD457D0C9C049C049C049C3E
:10824000047C1CBC557DA6BE4D9D0C9C047C049CEE
:10825000049C049C045C1C9C6DFEE7BFFFFFBEFEFB
:108260002C9C047C049C049C049C049C043C2CBC1E
:108270009EBEF7DFFFFFFFFFFFFFFFFFFFFFFFFFD8
:10828000FFFFFFFFFFFFFFFFFFFFFFFFFFFFFFFFFE
:10829000FFFFFFFFFFFFFFFFBF1F2CFD047C049CBF
:1082A000049C049C049C049C047C453DD77FFFFFF8
:1082B000FFFFFFFFFFFFFFFFFFFFFFFFFFFFFFFFCE
:1082C000FFFFBEFF2CBC047C049C049C049C049C0B
:1082D000047C049C457DDF7FFFFFFFFFFFFFFFFF66
:1082E000FFFFFFFFFFFFFFFFFFFFFFFFFFFFFFFF9E
:1082F000FFFFFFFFFFFFFFFFFFFFFFFFFFFFFFFF8E
:10830000EFBF9E7EBF1EDF7FDF9FE7BFE7BFE7BFF8
:10831000E7BFE7BFE7BFE7BFE7BFCF3F353D049CFF
:10832000047C049C049C049C049C049C047C041C0D
:108330003CDDBF1FE7BFE7BFE7BFE7BFE7BFE7BF62
:10834000E7BFE7BFE7BFE7BFE7BFE7BFE7BFE7BFFD
:10835000E7BFE7BFE7BFE7BFE7BFE7BFE7BFE7BFED
:10836000E7BFE7BFF7DFFFFFFFFFFFFFFFFFFFFFF5
:10837000FFFFFFFFFFFFFFFFF7FFD77F9E7E249CDD
:10838000049C049C049C049C049C049C049C047C0D
:10839000457DD77FFFFFFFFFFFFFDF9F65FD251DA9
:1083A0000C7C049C049C049C049C049C049C049CE5
:1083B000049C049C049C049C049C049C049C047CDD
:1083C000047C047C047C049C049C049C049C049C0D
:1083D000049C049C049C043C24BC865EEFBFFFFF0D
:1083E000FFFFFFFFFFFFFFFFFFFFFFFFFFFFFFFF9D
:1083F000FFFFFFFFFFFFFFFFFFFFFFFFFFFFFFFF8D
:10840000FFFFFFFFFFFFFFFFFFFFFFFFFFFFFFFF7C
:10841000FFFFFFFFFFFFFFFFFFFFFFFFFFFFE79FE4
:108420005DBD249C145C0C7C047C047C049C047C5A
:10843000147C761EDF7FFFFFFFFFFFFFFFFFFFFFC4
:10844000FFFFFFFFFFFFFFFFFFFFFFFFFFFFFFFF3C
:10845000FFFFD77F453D045C047C047C047C047CE6
:10846000049C0C7C1C7C34FD6DDDE79FFFFFFFFF4F
:10847000FFFFFFFFFFFFFFFFFFFFFFFFFFFFFFFF0C
:10848000FFFFFFFFFFFFC73F559D1CDD047C049CE1
:10849000049C049C049C049C049C049C149C0C9CC4
:1084A0000C7C0C7C0C7C0C7C0C7C0C7C0C7C0C7C8C
:1084B0000C7C0C9C0C9C0C9C049C049C049C047CDC
:1084C000353DAEDEE79FDF7F459D0C9C047C049C20
:1084D000049C049C045C1C9C6DFEE7BFFFFFBEFE79
:1084E0002C9C047C049C049C049C049C043C2CBC9C
:1084F0009EBEF7DFFFFFFFFFFFFFFFFFFFFFFFFF56
:10850000FFFFFFFFFFFFFFFFFFFFFFFFFFFFFFFF7B
:10851000FFFFFFFFFFFFFFFFBF1F2CFD047C049C3C
:10852000049C049C049C047C047C455DD77FFFFF75
:10853000FFFFFFFFFFFFFFFFFFFFFFFFFFFFFFFF4B
:10854000FFFFBEFE24BC047C049C049C049C049C91
:10855000047C049C459DD77FFFFFFFFFFFFFFFFFCB
:10856000FFFFFFFFFFFFFFFFFFFFFFFFFFFFFFFF1B
:10857000FFFFFFFFFFFFFFFFFFFFFFFFFFFFFFFF0B
:10858000FFFFF7DFFFFFFFFFFFFFFFFFFFFFFFFF23
:10859000FFFFFFFFFFFFFFFFFFFFC71F249C047CBF
:1085A000049C049C049C049C049C049C049C14BC9B
:1085B0004D9DCF5FEFBFEFDFEFDFEFDFEFDFEFDFEF
:1085C000EFDFEFDFEFDFEFDFEFDFEFDFEFDFEFBF5B
:1085D000E79FE79FF7DFFFFFFFFFFFFFFFFFFFFFC3
:1085E000FFFFFFFFFFFFFFFFFFFFFFFFFFFFFFFF9B
:1085F000FFFFFFFFFFFFFFFFE7BF865E457D0C9C8F
:10860000049C049C049C049C049C049C049C047C8A
:108610001C7C967EE7BFFFFFFFFFDF9F65DD24FD2B
:10862000047C049C049C049C049C049C049C049C6A
:10863000049C049C049C049C049C049C24BC2CBCB2
:108640002CBC2CBC24BC24DC1CBC049C049C049CC2
:10865000049C049C049C041C34BCB6FEFFFFFFFF7A
:10866000FFFFFFFFFFFFFFFFFFFFFFFFFFFFFFFF1A
:10867000FFFFFFFFFFFFFFFFFFFFFFFFFFFFFFFF0A
:10868000FFFFFFFFFFFFFFFFFFFFFFFFFFFFFFFFFA
:10869000FFFFFFFFFFFFFFFFFFFFFFFFFFFFEFBF3A
:1086A000865E249C041C047C049C049C049C049C06
:1086B000049C3D5DC73FFFFFFFFFFFFFFFFFFFFF84
:1086C000FFFFFFFFFFFFFFFFFFFFFFFFFFFFFFFFBA
:1086D000FFFFD75F44FD041C047C04BC049C049C85
:1086E000049C047C0C7C4D7D8E5EE7BFFFFFFFFF8A
:1086F000FFFFFFFFFFFFFFFFFFFFFFFFFFFFFFFF8A
:10870000FFFFFFFFFFFFF7DFCF5F8E5E1CBC047C27
:10871000049C049C049C049C049C049C049C049C59
:10872000049C049C049C049C049C049C049C049C49
:10873000049C049C049C049C049C04BC049C149C09
:108740007E3EDF9FFFFFDF9F459D0C9C047C049CC9
:10875000049C049C045C1C9C6DFEE7BFFFFFBEFEF6
:108760002C9C047C049C049C049C049C043C2CBC19
:108770009EBEF7DFFFFFFFFFFFFFFFFFFFFFE7BF2B
:10878000DF9FDF9FDF9FDF9FDF9FDF9FDF9FDF9FF9
:10879000DF9FDF9FE7BFF7DFBF1F251D047C049C21
:1087A000049C049C049C047C047C3D5DCF5FE7BF7B
:1087B000DF9FDF9FDF9FDF9FDF9FDF9FDF9FE7BFA1
:1087C000E7BFAEDE24BC049C049C049C049C049C77
:1087D000049C04BC459DD77FE79FDF9FDF9FDF9F01
:1087E000DF9FDF9FDF9FDF9FDF9FE7BFEFDFFFFFA1
:1087F000FFFFFFFFFFFFFFFFFFFFFFFFFFFFFFFF89
:10880000FFFFFFFFFFFFFFFFFFFFFFFFFFFFFFFF78
:10881000FFFFFFFFFFFFFFFFEFBF763E149C047CCE
:10882000049C049C049C049C049C049C0C9C2D3D76
:108830005DDDA6DEAEFEAEDEAEDEAEDEAEDEAEDE12
:10884000AEDEAEDEAEDEAEDEAEDEAEDEAEDE9EBEF8
:108850006DFE763EC73FFFFFFFFFFFFFFFFFFFFFFD
:10886000FFFFFFFFFFFFFFFFFFFFFFFFFFFFFFFF18
:10887000FFFFFFFFFFFFFFFFDF7F557D149C047CA0
:10888000049C049C049C049C049C049C049C049CE8
:10889000047C44FDCF1FFFFFFFFFDF7F4D9D0CBC1D
:1088A000047C049C049C049C049C049C049C049CE8
:1088B000049C049C049C049C049C1CDCA69EBEFF9F
:1088C000BEFFBEFFBEFFAEDE7E1E1C9C049C049C51
:1088D000049C049C047C03FC3CBDD73FFFFFFFFFCE
:1088E000FFFFFFFFFFFFFFFFFFFFFFFFFFFFFFFF98
:1088F000FFFFFFFFFFFFFFFFFFFFFFFFFFFFFFFF88
:10890000FFFFFFFFFFFFFFFFFFFFFFFFFFFFFFFF77
:10891000FFFFFFFFFFFFFFFFFFFFFFFFFFFFF7DF8F
:10892000AEDE34DD043C049C049C049C049C049C4A
:10893000047C2CFDBF1FFFFFFFFFFFFFFFFFFFFFBA
:10894000FFFFFFFFFFFFFFFFFFFFFFFFFFFFFFFF37
:10895000FFFFCF3F3CDD041C047C049C049C049C72
:10896000049C049C1C9C7E1EBF1FF7DFFFFFFFFFC3
:10897000FFFFFFFFFFFFFFFFFFFFFFFFFFFFFFFF07
:10898000FFFFFFFFFFFFFFFFFFFFCF5F557D0C7C69
:10899000047C049C049C049C049C049C049C049CF7
:1089A000049C049C049C049C049C049C049C049CC7
:1089B000049C049C049C049C049C04BC047C1C9C9F
:1089C000969EEFBFFFFFDF9F459D0C9C047C049C9F
:1089D000049C049C045C1C9C6DFEE7BFFFFFBEFE74
:1089E0002C9C047C049C049C049C049C043C2CBC97
:1089F0009EBEF7DFFFFFFFFFFFFFFFFFF7DFB6FEC3
:108A00009E9E9E7E9E9E9E9E9E9E9E9E9E9E9E9EA6
:108A10009E9E9E9EA69EB6DE8E5E1CDC049C049CE2
:108A2000049C049C049C049C047C2D1D9E7EA69E9C
:108A30009E9E9E9E9E9E9E9E9E9E9E9E9E9EA69E4E
:108A4000A69E7E1E1CBC049C049C049C049C049C4E
:108A5000049C049C353D9E9EA69E9E9E9E9E9E9E30
:108A60009E9E9E9E9E9E9E9E9E9EAEDECF5FF7DF4A
:108A7000FFFFFFFFFFFFFFFFFFFFFFFFFFFFFFFF06
:108A8000FFFFFFFFFFFFFFFFFFFFFFFFFFFFFFFFF6
:108A9000FFFFFFFFFFFFFFFFDF9F4D7D0C7C049C6E
:108AA000049C049C049C049C049C049C0C9C251D1C
:108AB000457D6DFD6DFD6DFD6DFD6DFD6DFD6DFD0E
:108AC0006DFD6DFD6DFD6DFD6DFD6DFD6DFE5DBDA5
:108AD0002D1D353D863EBF1FDF9FEFDFFFFFFFFFF0
:108AE000FFFFFFFFFFFFFFFFFFFFFFFFFFFFFFFF96
:108AF000FFFFFFFFFFFFFFFFD75F3D1D043C047C2E
:108B0000049C049C049C049C049C049C049C049C65
:108B1000047C1C7C967ED77FF7DFDF7F4D9D0CBCED
:108B2000047C049C049C049C049C049C049C049C65
:108B3000049C049C049C049C047C2CDDD77FFFFFD8
:108B4000FFFFFFFFF7DFC73F865E1C9C049C049C71
:108B5000049C049C047C03FC44DDD75FFFFFFFFF03
:108B6000FFFFFFFFFFFFFFFFFFFFFFFFFFFFFFFF15
:108B7000FFFFFFFFFFFFFFFFFFFFFFFFFFFFFFFF05
:108B8000FFFFFFFFFFFFFFFFFFFFFFFFFFFFFFFFF5
:108B9000FFFFFFFFFFFFFFFFFFFFFFFFFFFFFFFFE5
:108BA000CF3F3CFD041C047C049C049C049C049C5E
:108BB000047C249CBEDEFFFFFFFFFFFFFFFFFFFFE3
:108BC000FFFFFFFFFFFFFFFFFFFFFFFFFFFFFFFFB5
:108BD000F7DFA6BE2CBD043C049C049C049C049CB2
:108BE000049C049C249CAEBEEFDFFFFFFFFFFFFF51
:108BF000FFFFFFFFFFFFFFFFFFFFFFFFFFFFFFFF85
:108C0000FFFFFFFFFFFFFFFFFFFFF7DFC71F3CFD79
:108C10000C9C049C049C049C049C049C049C049C4C
:108C2000049C049C049C049C049C049C049C049C44
:108C3000049C049C049C049C049C04BC047C1C9C1C
:108C4000969EE7BFFFFFDF9F459D0C9C047C049C24
:108C5000049C049C045C1C9C6DFEE7BFFFFFBEFEF1
:108C60002C9C047C049C049C049C049C043C2CBC14
:108C70009EBEF7DFFFFFFFFFFFFFFFFFDF7F5D9D72
:108C800024BC247C249C249C249C249C249C249CE4
:108C9000249C249C249C249C1C9C049C049C049C3C
:108CA000049C049C049C049C049C0C9C1C9C249C84
:108CB000249C249C249C249C249C249C249C249CB4
:108CC000249C1C9C049C049C049C049C049C049C6C
:108CD000049C049C0C9C249C249C249C249C249CEC
:108CE000249C249C249C249C2C9C455D7E5EE7BF98
:108CF000FFFFFFFFFFFFFFFFFFFFFFFFFFFFFFFF84
:108D0000FFFFFFFFFFFFFFFFFFFFFFFFFFFFFFFF73
:108D1000FFFFFFFFFFFFFFFFCF3F2CBC047C049C45
:108D2000049C049C049C049C049C049C049C0C9C3B
:108D30000C9C149C149C149C149C149C149C149CBB
:108D4000149C149C149C149C149C149C149C149CA3
:108D50000C9C0C7C1C9C3D1D7E3EAEBED75FFFFF75
:108D6000FFFFFFFFFFFFFFFFFFFFFFFFFFFFFFFF13
:108D7000FFFFFFFFFFFFFFFFBF1F34DD041C047C6C
:108D8000049C049C049C049C049C049C049C049CE3
:108D9000049C0C7C2CFD65DEDF7FDF7F4D9D0CBCD1
:108DA000049C049C049C049C049C049C049C049CC3
:108DB000049C049C049C049C047C24BCCF3FFFFFC7
:108DC000FFFFFFFFE79F7E3E3D5D0C9C049C049CE3
:108DD000049C049C047C0C5C453DDF7FFFFFFFFF8F
:108DE000FFFFFFFFFFFFFFFFFFFFFFFFFFFFFFFF93
:108DF000FFFFFFFFFFFFFFFFFFFFFFFFFFFFFFFF83
:108E0000FFFFFFFFFFFFFFFFFFFFFFFFFFFFFFFF72
:108E1000FFFFFFFFFFFFFFFFFFFFFFFFFFFFFFFF62
:108E2000DF7F455D047C047C049C049C049C049CC2
:108E3000049C1C9C8E5ECF5FF7DFFFFFFFFFFFFFF0
:108E4000FFFFFFFFFFFFFFFFFFFFFFFFFFFFFFFF32
:108E5000E7BF65FE149C045C049C049C049C049C79
:108E6000049C047C2CBDC71FFFFFFFFFFFFFFFFF1B
:108E7000FFFFFFFFFFFFFFFFFFFFFFFFFFFFFFFF02
:108E8000FFFFFFFFFFFFFFFFFFFFFFFFFFFFBEFE34
:108E9000351D045C047C049C049C049C049C049C80
:108EA000049C049C047C047C047C047C047C049C62
:108EB000049C049C049C049C049C04BC047C1C9C9A
:108EC0009E9EEFBFFFFFDF9F459D0C9C047C049C92
:108ED000049C049C045C1C9C6DFEE7BFFFFFBEFE6F
:108EE0002C9C047C049C049C049C049C043C2CBC92
:108EF0009EBEF7DFFFFFFFFFFFFFFFFFDF7F4D9D00
:108F00000C9C047C047C049C049C049C049C049C99
:108F1000049C049C049C049C049C049C049C049C51
:108F2000049C049C049C049C049C049C049C049C41
:108F3000049C049C049C049C049C049C049C049C31
:108F4000049C049C049C049C049C049C049C049C21
:108F5000049C049C049C049C049C049C049C049C11
:108F6000049C049C049C047C0C7C3D5D7E5EE79F1D
:108F7000FFFFFFFFFFFFFFFFFFFFFFFFFFFFFFFF01
:108F8000FFFFFFFFFFFFFFFFFFFFFFFFFFFFFFFFF1
:108F9000FFFFFFFFFFFFDF7F75FE149C049C049C16
:108FA000049C049C049C049C049C049C049C049CC1
:108FB000049C049C049C049C049C049C049C049CB1
:108FC000049C049C049C049C049C049C049C049CA1
:108FD000049C049C047C047C147C1C7C44FDDF5FAA
:108FE000FFFFFFFFFFFFFFFFFFFFFFFFFFFFFFFF91
:108FF000FFFFFFFFFFFFEFBF75FE1C9C045C049C9E
:10900000049C049C049C049C049C049C049C049C60
:10901000049C047C043C2CBCA69ECF3F455D047C94
:10902000049C049C049C049C049C049C0C9C0C9C30
:10903000049C049C049C049C049C149C8E7EE7BFAE
:10904000FFFFFFFFDF7F4D5D0C7C047C049C049CD4
:10905000049C049C0C9C353D761EE79FFFFFFFFFA0
:10906000FFFFFFFFFFFFFFFFFFFFFFFFFFFFFFFF10
:10907000FFFFFFFFFFFFFFFFFFFFFFFFFFFFFFFF00
:10908000FFFFFFFFFFFFFFFFFFFFFFFFFFFFFFFFF0
:10909000FFFFFFFFFFFFFFFFFFFFFFFFFFFFFFFFE0
:1090A000DF9F65DD24FD049C049C049C049C049CBF
:1090B000049C149C5DBD9EBEEFBFFFFFFFFFFFFF42
:1090C000FFFFFFFFFFFFFFFFFFFFFFFFFFFFFFFFB0
:1090D000DF7F355D049C047C049C049C049C049C00
:1090E000049C047C455DCF3FFFFFFFFFFFFFFFFFB8
:1090F000FFFFFFFFFFFFFFFFFFFFFFFFFFFFFFFF80
:10910000FFFFFFFFFFFFFFFFFFFFFFFFFFFFD77F17
:10911000453D045C047C049C049C049C049C049CCD
:10912000045C041C03FC03FC03FC03DC03DC03FC05
:10913000049C049C049C049C049C04BC047C1C9C17
:10914000AEDEEFDFFFFFDF9F459D0C9C047C049C9F
:10915000049C049C045C1C9C6DFEE7BFFFFFBEFEEC
:109160002C9C047C049C049C049C049C043C2CBC0F
:109170009EBEF7DFFFFFFFFFFFFFFFFFDF7F4D9D7D
:109180000CBC049C049C049C049C049C049C049CB7
:10919000049C049C049C049C049C049C049C049CCF
:1091A000049C049C049C049C049C049C049C049CBF
:1091B000049C049C049C049C049C049C049C049CAF
:1091C000049C049C049C049C049C049C049C049C9F
:1091D000049C049C049C049C049C049C049C049C8F
:1091E000049C049C049C049C0C9C455D865EE7BF2B
:1091F000FFFFFFFFFFFFFFFFFFFFFFFFFFFFFFFF7F
:10920000FFFFFFFFFFFFFFFFFFFFFFFFFFFFFFFF6E
:10921000FFFFFFFFFFFFC71F3CDD047C049C049C95
:10922000049C049C049C049C049C049C049C049C3E
:10923000049C049C049C049C049C049C049C049C2E
:10924000049C049C049C049C049C049C049C049C1E
:10925000049C049C049C049C047C045C2C9CD75FB0
:10926000FFFFFFFFFFFFFFFFFFFFFFFFFFFFFFFF0E
:10927000FFFFFFFFFFFFDF7F3CFD047C047C049CBD
:10928000049C049C049C049C049C049C049C049CDE
:10929000049C049C047C0C7C4D1DB6DE451D043CE6
:1092A000049C049C049C049C049C0C9C2D1D2D1D62
:1092B0000C9C049C049C049C049C0C7C4D9DCF5FE6
:1092C000FFFFFFFFD75F3CFD041C047C049C049C53
:1092D000049C049C149C6DDDA6DEEFBFFFFFFFFF26
:1092E000FFFFFFFFFFFFFFFFFFFFFFFFFFFFFFFF8E
:1092F000FFFFFFFFFFFFFFFFFFFFFFFFFFFFFFFF7E
:10930000FFFFFFFFFFFFFFFFFFFFFFFFFFFFFFFF6D
:10931000FFFFFFFFFFFFFFFFFFFFFFFFFFFFFFFF5D
:10932000E79F7E5E3D5D0C9C049C049C049C049C19
:10933000049C0C9C353D763EE79FFFFFFFFFFFFF3F
:10934000FFFFFFFFFFFFFFFFFFFFFFFFFFFFFFFF2D
:10935000D77F2CFD047C049C049C049C049C049CEE
:10936000049C0C9C65DDD77FFFFFFFFFFFFFFFFF25
:10937000FFFFFFFFFFFFFFFFFFFFFFFFFFFFFFFFFD
:10938000FFFFFFFFFFFFFFFFFFFFFFFFFFFFD77F95
:10939000453D045C047C049C049C049C049C0C9C43
:1093A00024DD34DD3CBD44BD44BD44BD44BD34BDBD
:1093B0000C9C049C049C049C049C04BC047C1C9C8D
:1093C000B6DEF7DFFFFFDF9F459D0C9C047C049C0D
:1093D000049C049C045C1C9C6DFEE7BFFFFFBEFE6A
:1093E0002C9C047C049C049C049C049C043C2CBC8D
:1093F0009EBEF7DFFFFFFFFFFFFFFFFFDF7F4D9DFB
:109400000CBC049C049C049C049C049C049C049C34
:10941000049C049C049C049C049C049C049C049C4C
:10942000049C049C049C049C049C049C049C049C3C
:10943000049C049C049C049C049C049C049C049C2C
:10944000049C049C049C049C049C049C049C049C1C
:10945000049C049C049C049C049C049C049C049C0C
:10946000049C049C049C049C0C9C3D5D7E5EE7BFB8
:10947000FFFFFFFFFFFFFFFFFFFFFFFFFFFFFFFFFC
:10948000FFFFFFFFFFFFFFFFFFFFFFFFFFFFFFFFEC
:10949000FFFFF7FFDF7F9E7E247C047C049C049CFE
:1094A000049C049C049C049C049C049C049C049CBC
:1094B000049C049C049C049C049C049C049C049CAC
:1094C000049C049C049C049C049C049C049C049C9C
:1094D000049C049C049C049C049C047C3CFDDF7F55
:1094E000FFFFFFFFFFFFFFFFFFFFFFFFFFFFFFFF8C
:1094F000FFFFFFFFFFFFCF3F249C047C049C049CE4
:10950000049C049C049C049C049C049C049C049C5B
:10951000049C049C049C047C247C965E34FD043CE6
:10952000049C049C049C049C049C149C4D9D4D9D97
:10953000149C049C049C049C049C047C351DC73F23
:10954000FFFFFFFFB6FF34BD041C047C049C049C99
:10955000049C049C1C9C8E5ECF5FF7DFFFFFFFFF27
:10956000FFFFFFFFFFFFFFFFFFFFFFFFFFFFFFFF0B
:10957000FFFFFFFFFFFFFFFFFFFFFFFFFFFFFFFFFB
:10958000FFFFFFFFFFFFFFFFFFFFFFFFFFFFFFFFEB
:10959000FFFFFFFFFFFFFFFFFFFFFFFFFFFFFFFFDB
:1095A000EFDFB6FF75FE149C049C049C049C049C95
:1095B000049C047C0C9C4D9DDF7FFFFFFFFFFFFFA1
:1095C000FFFFFFFFFFFFFFFFFFFFFFFFFFFFFFFFAB
:1095D000D75F24BC047C049C049C049C049C049CD5
:1095E000047C1C9C9E9EEFBFFFFFFFFFFFFFFFFF61
:1095F000FFFFFFFFFFFFFFFFFFFFFFFFFFFFFFFF7B
:10960000FFFFFFFFFFFFFFFFFFFFFFFFFFFFD77F12
:10961000453D045C047C049C049C049C049C1C9CB0
:109620007E1EB6FED73FD75FD75FD75FD75FB6DE68
:10963000249C047C049C049C049C04BC047C249C0A
:10964000BF1EF7DFFFFFDF9F459D0C9C047C049C41
:10965000049C049C045C1C9C6DFEE7BFFFFFBEFEE7
:109660002C9C047C049C049C049C049C043C2CBC0A
:109670009EBEF7DFFFFFFFFFFFFFFFFFDF7F4D9D78
:109680000CBC049C049C049C049C049C049C049CB2
:10969000049C049C049C049C049C049C049C049CCA
:1096A000049C049C049C049C049C049C049C049CBA
:1096B000049C049C049C049C049C049C049C049CAA
:1096C000049C049C049C049C049C049C049C049C9A
:1096D000049C049C049C049C049C049C049C049C8A
:1096E000049C049C049C049C0C9C3D5D7E5EE7BF36
:1096F000FFFFFFFFFFFFFFFFFFFFFFFFFFFFFFFF7A
:10970000FFFFFFFFFFFFFFFFFFFFFFFFFFFFFFFF69
:10971000FFFFE79F7E1E3D3D0C7C049C049C049C47
:10972000049C049C049C049C049C049C049C049C39
:10973000049C049C049C049C049C049C049C049C29
:10974000049C049C049C049C049C049C049C049C19
:10975000049C049C049C049C045C1C9C761EEFBF2F
:10976000FFFFFFFFFFFFFFFFFFFFFFFFFFFFFFFF09
:10977000FFFFFFFFEFBFA6BE1C9C047C049C049C63
:10978000049C049C049C049C049C049C049C049CD9
:10979000049C049C049C047C147C4D9D1CDC047C77
:1097A000049C049C049C049C049C1CBC967E967E99
:1097B00024DC049C049C049C049C047C249CB6DE55
:1097C000F7DFE7BF6DFE1C9C045C049C049C049CBA
:1097D000049C047C249CB6DEF7DFFFFFFFFFFFFF45
:1097E000FFFFFFFFFFFFFFFFFFFFFFFFFFFFFFFF89
:1097F000FFFFFFFFFFFFFFFFFFFFFFFFFFFFFFFF79
:10980000FFFFFFFFFFFFFFFFFFFFFFFFFFFFFFFF68
:10981000FFFFFFFFFFFFFFFFFFFFFFFFFFFFFFFF58
:10982000FFFFEFDFAEBE249C047C049C049C049CE0
:10983000049C047C041C3CDDD75FFFFFFFFFFFFF9F
:10984000FFFFFFFFFFFFFFFFFFFFFFFFFFFFF7DF50
:10985000AEDE1C9C047C049C049C049C049C049C24
:10986000047C249CCF3FFFFFFFFFFFFFFFFFFFFFB4
:10987000FFFFFFFFFFFFFFFFFFFFFFFFFFFFFFFFF8
:10988000FFFFFFFFFFFFFFFFFFFFFFFFFFFFD77F90
:10989000453D045C047C049C049C049C049C1C9C2E
:1098A000863EC73FF7DFFFFFFFFFFFFFFFFFD75FEA
:1098B0002CBC047C049C049C049C04BC047C249C60
:1098C000CF3FFFFFFFFFDF9F459D0C9C047C049C66
:1098D000049C049C045C1C9C6DFEE7BFFFFFBEFE65
:1098E0002C9C047C049C049C049C049C043C2CBC88
:1098F0009EBEF7DFFFFFFFFFFFFFFFFFDF7F459DFE
:109900000C9C047C047C047C047C047C047C047C2F
:10991000047C047C047C049C049C049C049C049CA7
:10992000049C049C049C049C049C049C047C047C77
:10993000047C047C047C047C047C047C047C047C27
:10994000049C049C049C049C049C049C049C049C17
:10995000049C049C049C049C047C047C047C047C87
:10996000047C047C047C047C0C7C3D5D7E3EE79F93
:10997000FFFFFFFFFFFFFFFFFFFFFFFFFFFFFFFFF7
:10998000FFFFFFFFFFFFFFFFFFFFFFFFFFFFFFFFE7
:10999000FFFFBEFE3CDD041C047C049C049C049C74
:1099A000049C049C049C049C049C049C049C049CB7
:1099B000047C047C047C047C047C047C047C047CA7
:1099C000047C047C049C049C049C049C049C049CD7
:1099D000049C049C049C047C043C3CFDC73FFFFFAA
:1099E000FFFFFFFFFFFFFFFFFFFFFFFFFFFFFFFF87
:1099F000FFFFFFFFCF3F455D047C049C049C049C5B
:109A0000049C049C049C049C049C049C0C9C14DDFD
:109A1000049C049C049C047C149C4D7D1CDC047CF4
:109A2000049C049C049C049C049C249CBEFEC73F94
:109A30003D5D049C049C049C049C049C149C6DFE51
:109A4000AEFECF3F34FD047C049C049C049C049C2B
:109A5000049C047C351DC71FFFFFFFFFFFFFFFFFB6
:109A6000FFFFFFFFFFFFFFFFFFFFFFFFFFFFFFFF06
:109A7000FFFFFFFFFFFFFFFFFFFFFFFFFFFFFFFFF6
:109A8000FFFFFFFFFFFFFFFFFFFFFFFFFFFFFFFFE6
:109A9000FFFFFFFFFFFFFFFFFFFFFFFFFFFFFFFFD6
:109AA000FFFFFFFFBEFE2CBC047C049C049C049CB6
:109AB000049C049C041C3CBCC71FFFFFFFFFFFFF6E
:109AC000FFFFFFFFFFFFFFFFFFFFFFFFFFFFDF9F26
:109AD0007E3E149C047C049C049C049C049C049C7A
:109AE000047C2CFDD77FFFFFFFFFFFFFFFFFFFFF81
:109AF000FFFFFFFFFFFFFFFFFFFFFFFFFFFFFFFF76
:109B0000FFFFFFFFFFFFFFFFFFFFFFFFFFFFD77F0D
:109B1000453D045C047C049C049C049C049C1C9CAB
:109B20007E3EBF3FF7DFFFFFFFFFFFFFFFFFD75F77
:109B3000249C047C049C049C049C049C047C249C25
:109B4000D75FFFFFFFFFDF9F459D0C9C047C049CBB
:109B5000049C049C045C1C9C6DFEE7BFFFFFBEFEE2
:109B60002C9C047C049C049C049C049C043C2CBC05
:109B70009EBEF7DFFFFFFFFFFFFFFFFFDF7F455DBB
:109B8000045C041C043C043C043C043C043C043CD5
:109B9000043C043C043C047C047C049C049C049C25
:109BA000049C049C049C049C047C045C043C043CD5
:109BB000043C043C043C043C043C043C043C043CA5
:109BC000043C045C049C049C049C049C049C049C35
:109BD000049C049C047C043C043C043C043C043C85
:109BE000043C043C043C043C0C1C2D1D6E1EE79FF1
:109BF000FFFFFFFFFFFFFFFFFFFFFFFFFFFFFFFF75
:109C0000FFFFFFFFFFFFFFFFFFFFFFFFFFFFFFFF64
:109C1000E79F555D147C045C049C049C049C049C9C
:109C2000049C049C049C049C049C049C049C047C54
:109C3000045C043C043C043C043C043C043C043C04
:109C4000043C045C049C049C049C049C049C049CB4
:109C5000049C049C049C047C14BC559DDF7FFFFF86
:109C6000FFFFFFFFFFFFFFFFFFFFFFFFFFFFFFFF04
:109C7000FFFFFFFFC6FE2CBC047C049C049C049CDC
:109C8000049C049C049C049C049C045C24DC5DBD3A
:109C9000149C049C047C047C24DD967E34DD043C0E
:109CA000047C049C049C049C047C2C9CBEFEDF7FF2
:109CB0006DFE0C9C049C04BC049C049C047C1CFD58
:109CC0005DDDB6FE2CBC047C049C049C049C04BC9E
:109CD000049C0C9C65DED77FFFFFFFFFFFFFFFFFAB
:109CE000FFFFFFFFFFFFFFFFFFFFFFFFFFFFFFFF84
:109CF000FFFFFFFFFFFFFFFFFFFFFFFFFFFFFFFF74
:109D0000FFFFFFFFFFFFFFFFFFFFFFFFFFFFFFFF63
:109D1000FFFFFFFFFFFFFFFFFFFFFFFFFFFFFFFF53
:109D2000FFFFFFFFC71F2CDD047C049C049C049CE8
:109D3000049C049C041C2CBCAEDEF7DFFFFFFFFF7D
:109D4000FFFFFFFFFFFFFFFFFFFFFFFFFFFFD75FEB
:109D500055BD0C9C049C049C049C049C049C047CA9
:109D60000C9C3D7DDF9FFFFFFFFFFFFFFFFFFFFF1D
:109D7000FFFFFFFFFFFFFFFFFFFFFFFFFFFFFFFFF3
:109D8000FFFFFFFFFFFFFFFFFFFFFFFFFFFFD77F8B
:109D9000453D045C047C049C049C049C049C1C9C29
:109DA0007E3EBF3FF7DFFFFFFFFFFFFFFFFFC73F25
:109DB000249C047C049C049C049C049C047C2C9C9B
:109DC000D75FFFFFFFFFDF9F459D0C9C047C049C39
:109DD000049C049C045C1C9C6DFEE7BFFFFFBEFE60
:109DE0002C9C047C049C049C049C049C043C2CBC83
:109DF0009EBEF7DFFFFFFFFFFFFFFFFFE79F75FD41
:109E0000453D44FD451D451D451D451D451D451D43
:109E1000451D451D3CFD24FD14BC049C049C049C74
:109E2000049C049C049C049C24DC34FD3CFD451DE6
:109E3000451D451D451D451D451D451D451D451D12
:109E4000451D34FD0C9C049C049C049C049C049CB7
:109E5000049C049C14BC34FD451D451D451D451D39
:109E6000451D451D451D44FD44FD65BD8E9EEFBF4E
:109E7000FFFFFFFFFFFFFFFFFFFFFFFFFFFFFFFFF2
:109E8000FFFFFFFFFFFFFFFFFFFFFFFFFFFFF7DF0A
:109E9000B6FF24BC047C049C049C049C049C049C8D
:109EA000049C049C049C049C049C049C0C9C34FD19
:109EB000453D451D451D451D451D451D451D451D72
:109EC000451D3D1D14DD049C049C049C049C049CC5
:109ED000049C049C049C0C7C457D865EE7BFFFFFD0
:109EE000FFFFFFFFFFFFFFFFFFFFFFFFFFFFFFFF82
:109EF000F7DFD77F965E1C7C047C049C049C049C4A
:109F0000049C049C049C049C049C045C2CDC761E35
:109F10002CFD047C043C147C559DAEDE3CDD041C11
:109F2000047C049C049C049C047C2C9CBEFEE7BF27
:109F3000967E1C9C047C04BC049C049C049C049C95
:109F4000353D865E1C9C047C049C049C049C04BCE3
:109F5000047C149C8E7EE7BFFFFFFFFFFFFFFFFF27
:109F6000FFFFFFFFFFFFFFFFFFFFFFFFFFFFFFFF01
:109F7000FFFFFFFFFFFFFFFFFFFFFFFFFFFFFFFFF1
:109F8000FFFFFFFFFFFFFFFFFFFFFFFFFFFFFFFFE1
:109F9000FFFFFFFFFFFFFFFFFFFFFFFFFFFFFFFFD1
:109FA000FFFFFFFFC73F3D5D047C049C049C049CB5
:109FB000049C049C045C1CBC7E3EEFBFFFFFFFFFC3
:109FC000FFFFFFFFFFFFFFFFFFFFFFFFFFFFC71FB9
:109FD00034FD047C049C049C049C049C049C043C70
:109FE00024BC865EEFBFFFFFFFFFFFFFFFFFFFFF09
:109FF000FFFFFFFFFFFFFFFFFFFFFFFFFFFFFFFF71
:10A00000FFFFFFFFFFFFFFFFFFFFFFFFFFFFD77F08
:10A01000453D045C047C049C049C049C049C1C9CA6
:10A02000863EBF3FF7DFFFFFFFFFFFFFEFDFA6BE6C
:10A030001C9C047C04BC049C049C049C047C2CBCE0
:10A04000D75FFFFFFFFFDF9F459D0C9C047C049CB6
:10A05000049C049C045C1C9C6DFEE7BFFFFFBEFEDD
:10A060002C9C047C049C049C049C049C043C2CBC00
:10A070009EBEF7DFFFFFFFFFFFFFFFFFFFFFE79F32
:10A08000D77FD75FD75FD75FD75FD75FD75FD75F00
:10A09000D75FD75FC71F6E1E3D3D0C9C049C049C80
:10A0A000049C049C049C149C6DFDA6BECF3FD75F0E
:10A0B000D75FD75FD75FD75FD75FD75FD75FD75FF0
:10A0C000D75FA69E24BC049C049C049C049C049C16
:10A0D000049C04BC3D5DB6FED75FD75FD75FD75FFA
:10A0E000D75FD75FD75FD75FDF5FDF9FEFBFFFFF30
:10A0F000FFFFFFFFFFFFFFFFFFFFFFFFFFFFFFFF70
:10A10000FFFFFFFFFFFFFFFFFFFFFFFFF7DFCF5F57
:10A1100065BD0C7C049C049C049C049C049C049CD5
:10A12000049C049C049C049C049C049C1C9C861E13
:10A13000BEFED75FD77FD77FD77FD77FD77FD77F29
:10A14000D75FAEDE3D5D049C049C049C049C049C93
:10A15000049C049C047C249CA6BEE7BFFFFFFFFF79
:10A16000FFFFFFFFFFFFFFFFFFFFFFFFFFFFFFFFFF
:10A17000DF9F65DE2CFD0C7C049C049C049C049CED
:10A18000049C049C049C049C049C045C24DD7E3E92
:10A190005DBD147C1C5C553DB6FEA6BE2CDD043CAA
:10A1A000049C049C049C049C047C2CBCBEFFFFFF0C
:10A1B000CF3F249C047C049C049C049C049C047C51
:10A1C0000C9C1CFD049C049C049C049C049C049C0E
:10A1D000047C249CC73FFFFFFFFFFFFFFFFFFFFF43
:10A1E000FFFFFFFFFFFFFFFFFFFFFFFFFFFFFFFF7F
:10A1F000FFFFFFFFFFFFFFFFFFFFFFFFFFFFFFFF6F
:10A20000FFFFFFFFFFFFFFFFFFFFFFFFFFFFFFFF5E
:10A21000FFFFFFFFFFFFFFFFFFFFFFFFFFFFFFFF4E
:10A22000FFFFFFFFD77F6DFE0C9C049C049C049CE9
:10A23000049C049C047C0C9C457DDF9FFFFFFFFF7A
:10A24000FFFFFFFFFFFFFFFFFFFFFFFFF7DFB6DEB0
:10A25000249C047C049C049C049C049C047C041C9E
:10A260003CFDCF3FFFFFFFFFFFFFFFFFFFFFFFFFB3
:10A27000FFFFFFFFFFFFFFFFFFFFFFFFFFFFFFFFEE
:10A28000FFFFFFFFFFFFFFFFFFFFFFFFFFFFD77F86
:10A29000453D045C047C049C049C049C049C1C9C24
:10A2A000863EBF1FD75FDF7FDF7FDF7FB6FE4D9D1E
:10A2B0000C9C049C049C049C049C049C047C2CFD2D
:10A2C000DF7FFFFFFFFFDF9F459D0C9C047C049C0C
:10A2D000049C049C045C1C9C6DFEE7BFFFFFBEFE5B
:10A2E0002C9C047C049C049C049C049C043C2CBC7E
:10A2F0009EBEF7DFFFFFFFFFFFFFFFFFFFFFFFFF38
:10A30000FFFFFFFFFFFFFFFFFFFFFFFFFFFFFFFF5D
:10A31000FFFFFFFFDF7F4D7D0C9C047C049C049CB1
:10A32000049C049C049C249CA69EE79FFFFFFFFFC7
:10A33000FFFFFFFFFFFFFFFFFFFFFFFFFFFFFFFF2D
:10A34000FFFFBEFF2CBC047C049C049C049C049C6A
:10A35000047C049C459DDF7FFFFFFFFFFFFFFFFFA5
:10A36000FFFFFFFFFFFFFFFFFFFFFFFFFFFFFFFFFD
:10A37000FFFFFFFFFFFFFFFFFFFFFFFFFFFFFFFFED
:10A38000FFFFFFFFFFFFFFFFFFFFEFBFB6FE75FE02
:10A390001C9C047C049C049C049C049C049C049CC5
:10A3A000049C049C049C049C049C049C047C1C9CB5
:10A3B000557DC71FFFFFFFFFFFFFFFFFFFFFFFFFF1
:10A3C000D77F761E1C9C049C049C049C049C049CCB
:10A3D000049C049C0C7C559DD75FFFFFFFFFFFFF93
:10A3E000FFFFFFFFFFFFFFFFFFFFFFFFFFFFF7DFA5
:10A3F000AEDE34BD041C047C049C049C049C049CC0
:10A40000049C049C049C049C049C045C1CBC7E3E38
:10A41000AEBE4CBC9E5EDF7FE79F7E3E1CBC043C14
:10A42000049C049C049C049C049C2CFDC71FFFFFFF
:10A43000DF7F351D047C047C049C049C049C049CEC
:10A44000049C049C049C049C049C049C049C047C2C
:10A45000047C3D3DDF7FFFFFFFFFFFFFFFFFFFFFAE
:10A46000FFFFFFFFFFFFFFFFFFFFFFFFFFFFFFFFFC
:10A47000FFFFFFFFFFFFFFFFFFFFFFFFFFFFFFFFEC
:10A48000FFFFFFFFFFFFFFFFFFFFFFFFFFFFFFFFDC
:10A49000FFFFFFFFFFFFFFFFFFFFFFFFFFFFFFFFCC
:10A4A000FFFFFFFFEFBF9E9E1C9C047C04BC049C2E
:10A4B000049C049C049C047C2CFDDF7FFFFFFFFFB9
:10A4C000FFFFFFFFFFFFFFFFFFFFEFDFAEFE6DFEB1
:10A4D000149C049C049C049C049C049C047C0C9C84
:10A4E0004D7DDF7FFFFFFFFFFFFFFFFFFFFFFFFF50
:10A4F000FFFFFFFFFFFFFFFFFFFFFFFFFFFFFFFF6C
:10A50000FFFFFFFFFFFFFFFFFFFFFFFFFFFFD77F03
:10A51000453D045C047C049C049C049C049C1C9CA1
:10A52000865E967E451D2CFD3D5D2D1D24DD0C9C1B
:10A53000049C049C049C049C049C047C049C3D5D41
:10A54000DF9FFFFFFFFFDF9F459D0C9C047C049C69
:10A55000049C049C045C1C9C6DFEE7BFFFFFBEFED8
:10A560002C9C047C049C049C049C049C043C2CBCFB
:10A570009EBEF7DFFFFFFFFFFFFFFFFFFFFFFFFFB5
:10A58000FFFFFFFFFFFFFFFFFFFFFFFFFFFFFFFFDB
:10A59000FFFFFFFFC73F3CDD041C047C049C049CC0
:10A5A000049C049C047C249CBEFEFFFFFFFFFFFF75
:10A5B000FFFFFFFFFFFFFFFFFFFFFFFFFFFFFFFFAB
:10A5C000FFFFBEFF2CBC047C049C049C049C049CE8
:10A5D000047C049C457DDF7FFFFFFFFFFFFFFFFF43
:10A5E000FFFFFFFFFFFFFFFFFFFFFFFFFFFFFFFF7B
:10A5F000FFFFFFFFFFFFFFFFFFFFFFFFFFFFFFFF6B
:10A60000FFFFFFFFFFFFFFFFF7DFB6DE44FD145C37
:10A61000047C049C049C049C049C049C049C049C5A
:10A62000049C049C049C049C049C049C049C045C6A
:10A630000C7C457DC73FF7DFFFFFFFFFEFBFBF1E6D
:10A64000861E24BC047C049C049C049C049C049CE6
:10A65000049C047C34BCC71FF7FFFFFFFFFFFFFF14
:10A66000FFFFFFFFFFFFFFFFFFFFFFFFF7DFC73F1A
:10A670003D1D0C7C047C049C049C049C049C0CDC10
:10A68000049C049C049C049C049C045C1CBC761EDE
:10A69000CF5F9E7EDF7FFFFFE79F559D0C9C047C74
:10A6A000049C049C049C049C047C3D5DC73FFFFF0C
:10A6B000EFBF863E249C043C049C049C049C049CA8
:10A6C000049C049C049C049C049C049C049C043CEA
:10A6D0002CBC967EF7DFFFFFFFFFFFFFFFFFFFFFB2
:10A6E000FFFFFFFFFFFFFFFFFFFFFFFFFFFFFFFF7A
:10A6F000FFFFFFFFFFFFFFFFFFFFFFFFFFFFFFFF6A
:10A70000FFFFFFFFFFFFFFFFFFFFFFFFFFFFFFFF59
:10A71000FFFFFFFFFFFFFFFFFFFFFFFFFFFFFFFF49
:10A72000FFFFFFFFFFFFCF3F249C047C04BC049C81
:10A73000049C049C049C047C2CBCD75FFFFFFFFF9F
:10A74000FFFFFFFFFFFFFFFFFFFFDF9F6E1E2D1DBF
:10A750000C9C049C049C049C049C049C0C9C457DC7
:10A76000865EE7BFFFFFFFFFFFFFFFFFFFFFFFFF6B
:10A77000FFFFFFFFFFFFFFFFFFFFFFFFFFFFFFFFE9
:10A78000FFFFFFFFFFFFFFFFFFFFFFFFFFFFD77F81
:10A79000453D045C047C049C049C049C049C24BCF7
:10A7A000A69EAEFE4D5D0C7C047C049C047C049C47
:10A7B000049C049C049C049C049C045C149C5DDD2F
:10A7C000E79FFFFFFFFFDF9F459D0C9C047C049CDF
:10A7D000049C049C045C1C9C6DFEE7BFFFFFBEFE56
:10A7E0002C9C047C049C049C049C049C043C2CBC79
:10A7F0009EBEF7DFFFFFFFFFFFFFFFFFFFFFFFFF33
:10A80000FFFFFFFFFFFFFFFFFFFFFFFFFFFFFFFF58
:10A81000FFFFEFDF8E7E24BC043C049C049C049C60
:10A82000049C049C047C2CDDBF1FFFFFFFFFFFFF87
:10A83000FFFFFFFFFFFFFFFFFFFFFFFFFFFFFFFF28
:10A84000FFFFBEFF2CBC047C049C049C049C049C65
:10A85000047C049C457DDF7FFFFFFFFFFFFFFFFFC0
:10A86000FFFFFFFFFFFFFFFFFFFFFFFFFFFFFFFFF8
:10A87000FFFFFFFFFFFFFFFFFFFFFFFFFFFFFFFFE8
:10A88000FFFFFFFFFFFFFFFFE77F551D0C7C047CF0
:10A89000049C049C049C049C049C049C049C047CD8
:10A8A000045C045C049C049C049C049C049C049C28
:10A8B000047C147C65DED77FFFFFFFFFCF3F5D5D2B
:10A8C000247C047C049C049C049C049C049C049CA8
:10A8D000043C1C7C75DDEFBFFFFFFFFFFFFFFFFFA8
:10A8E000FFFFFFFFFFFFFFFFFFFFFFFFD77F65DEDB
:10A8F0000C7C047C049C049C049C047C1CBD457D55
:10A900000C9C049C049C049C049C045C1CBC6E1E5B
:10A91000E79FE7BFF7DFFFFFDF7F353D047C047C67
:10A92000049C049C049C049C0C7C55BDD75FFFFFD9
:10A93000FFFFC71F3CBC03FC047C049C049C049CDC
:10A94000049C049C049C049C049C049C047C041CA7
:10A950003CFDCF3FFFFFFFFFFFFFFFFFFFFFFFFFBC
:10A96000FFFFFFFFFFFFFFFFFFFFFFFFFFFFFFFFF7
:10A97000FFFFFFFFFFFFFFFFFFFFFFFFFFFFFFFFE7
:10A98000FFFFFFFFFFFFFFFFFFFFFFFFFFFFFFFFD7
:10A99000FFFFFFFFFFFFFFFFFFFFFFFFFFFFFFFFC7
:10A9A000FFFFFFFFFFFFD75F2C9C047C04BC049CCF
:10A9B000049C049C049C047C249CCF3FFFFFFFFF6D
:10A9C000FFFFFFFFFFFFFFFFFFFFDF7F4D7D0C9CC1
:10A9D000047C049C049C049C049C049C1C9C761E8B
:10A9E000B71FF7DFFFFFFFFFFFFFFFFFFFFFFFFFC7
:10A9F000FFFFFFFFFFFFFFFFFFFFFFFFFFFFFFFF67
:10AA0000FFFFFFFFFFFFFFFFFFFFFFFFFFFFD77FFE
:10AA1000453D045C047C049C049C049C049C249C94
:10AA2000A6BEC73F761E147C047C047C049C049C58
:10AA3000049C049C049C049C049C043C249C865E12
:10AA4000EFBFFFFFFFFFDF9F459D0C9C047C049C34
:10AA5000049C049C045C1C9C6DFEE7BFFFFFBEFED3
:10AA60002C9C047C049C049C049C049C043C2CBCF6
:10AA70009EBEF7DFFFFFFFFFFFFFFFFFFFFFFFFFB0
:10AA8000FFFFFFFFFFFFFFFFFFFFFFFFFFFFFFFFD6
:10AA9000FFFFE79F65BD149C045C049C049C049C20
:10AAA000049C049C047C353DC73FFFFFFFFFFFFF74
:10AAB000FFFFFFFFFFFFFFFFFFFFFFFFFFFFFFFFA6
:10AAC000FFFFBEFF2CBC047C049C049C049C049CE3
:10AAD000047C049C457DDF7FFFFFFFFFFFFFFFFF3E
:10AAE000FFFFFFFFFFFFFFFFFFFFFFFFFFFFFFFF76
:10AAF000FFFFFFFFFFFFFFFFFFFFFFFFFFFFFFFF66
:10AB0000FFFFFFFFFFFFEFBFAE9E1C5C045C049CD9
:10AB1000049C049C049C049C049C049C049C049C35
:10AB200014BC2CDD0C9C049C049C049C049C049C84
:10AB3000047C045C2D1D9E9ED77FE79F9E5E2C9C0F
:10AB4000041C047C049C049C049C049C049C047CC5
:10AB5000043C2CBC9EBEF7DFFFFFFFFFFFFFFFFFA3
:10AB6000FFFFFFFFFFFFFFFFFFFFFFFFD75F55BDA9
:10AB70000C5C047C04BC049C049C0C9C2D1D65DDB9
:10AB8000149C049C049C049C049C045C1CBC6E1ED1
:10AB9000E7BFFFFFFFFFFFFFD77F2CDD047C049C96
:10ABA000049C049C049C049C149C6DFEDF7FFFFFAE
:10ABB000FFFFDF5F44FD041C047C049C049C049C98
:10ABC000049C049C049C049C049C049C047C149C95
:10ABD000557DDF7FFFFFFFFFFFFFFFFFFFFFFFFF51
:10ABE000FFFFFFFFFFFFFFFFFFFFFFFFFFFFFFFF75
:10ABF000FFFFFFFFFFFFFFFFFFFFFFFFFFFFFFFF65
:10AC0000FFFFFFFFFFFFFFFFFFFFFFFFFFFFFFFF54
:10AC1000FFFFFFFFFFFFFFFFFFFFFFFFFFFFFFFF44
:10AC2000FFFFFFFFFFFFD75F2C9C047C049C049C6C
:10AC3000049C049C04BC047C1C9CAEDEEFDFFFFF84
:10AC4000FFFFFFFFFFFFFFFFFFFFCF3F3CDD041CC7
:10AC5000047C049C049C049C049C047C249CB6DE20
:10AC6000F7DFFFFFFFFFFFFFFFFFFFFFFFFFFFFF1C
:10AC7000FFFFFFFFFFFFFFFFFFFFFFFFFFFFFFFFE4
:10AC8000FFFFFFFFFFFFFFFFFFFFFFFFFFFFD77F7C
:10AC9000453D045C047C049C049C049C049C1C9C1A
:10ACA000967EC75FB6DE249C047C049C049C049CB6
:10ACB000049C049C049C049C047C041C3CDDBF1F7D
:10ACC000FFFFFFFFFFFFDF9F457D0C7C045C047CE2
:10ACD000049C047C043C149C65DDE7BFFFFFBEFEC2
:10ACE0002C9C047C049C049C049C049C043C2CBC74
:10ACF0009EBEF7DFFFFFFFFFFFFFFFFFFFFFFFFF2E
:10AD0000FFFFFFFFFFFFFFFFFFFFFFFFFFFFFFFF53
:10AD1000FFFFCF5F34DD047C049C049C049C049CF6
:10AD2000049C049C0C9C6DFDD77FFFFFFFFFFFFF81
:10AD3000FFFFFFFFFFFFFFFFFFFFFFFFFFFFFFFF23
:10AD4000FFFFBEFF2CBC047C049C049C049C049C60
:10AD5000047C049C457DDF7FFFFFFFFFFFFFFFFFBB
:10AD6000FFFFFFFFFFFFFFFFFFFFFFFFFFFFFFFFF3
:10AD7000FFFFFFFFFFFFFFFFFFFFFFFFFFFFFFFFE3
:10AD8000FFFFEFBFD75F9E7E3CDD047C049C049CEC
:10AD9000049C049C049C049C049C049C0C7C2D3D01
:10ADA00065DD8E7E249C047C049C049C049C049C95
:10ADB000049C047C0C9C2D1D5DDD967E34DC0C7C9B
:10ADC000047C049C049C049C049C049C049C047CC3
:10ADD0001CDD5DBDD75FFFFFFFFFFFFFFFFFFFFF34
:10ADE000FFFFFFFFFFFFFFFFFFFFFFFFE7BF967EB5
:10ADF0001C9C047C049C049C0C9C353D5DDD761EF3
:10AE00001C9C047C049C049C049C045C1CBC6E1E66
:10AE1000E7BFFFFFFFFFFFFFD73F249C047C049C9C
:10AE2000049C049C04BC047C1C9C969EEFBFFFFF0A
:10AE3000FFFFE79F75FE351D0C7C049C049C049C61
:10AE4000049C049C049C049C049C049C147C5DBD98
:10AE50009EBEEFBFFFFFFFFFFFFFFFFFFFFFFFFFF4
:10AE6000FFFFFFFFFFFFFFFFFFFFFFFFFFFFFFFFF2
:10AE7000FFFFFFFFFFFFFFFFFFFFFFFFFFFFFFFFE2
:10AE8000FFFFFFFFFFFFFFFFFFFFFFFFFFFFFFFFD2
:10AE9000FFFFFFFFFFFFFFFFFFFFFFFFFFFFFFFFC2
:10AEA000FFFFFFFFFFFFDF7F2D1D047C047C049C60
:10AEB000049C049C049C047C147C761EDF9FFFFF92
:10AEC000FFFFFFFFFFFFFFFFF7DF969E2CBC043C58
:10AED000049C049C049C049C049C049C353DC73F3A
:10AEE000FFFFFFFFFFFFFFFFFFFFFFFFFFFFFFFF72
:10AEF000FFFFFFFFFFFFFFFFFFFFFFFFFFFFFFFF62
:10AF0000FFFFFFFFFFFFFFFFFFFFFFFFFFFFD77FF9
:10AF1000453D045C047C049C049C049C049C1C9C97
:10AF2000863EC73FCF3F24BC047C049C049C049C09
:10AF3000049C049C049C047C149C2CFD65FDDF9FF8
:10AF4000FFFFFFFFFFFFDF9F4D9D2C9C247C249C77
:10AF5000249C249C245C349C6DFEE7BFFFFFBEFE56
:10AF60002C9C047C049C049C049C049C043C2CBCF1
:10AF70009EBEF7DFFFFFFFFFFFFFFFFFFFFFFFFFAB
:10AF8000FFFFFFFFFFFFFFFFFFFFFFFFFFFFFFFFD1
:10AF9000E79F863E147C047C049C049C049C049CD7
:10AFA000049C049C1C9CB6DEF7DFFFFFFFFFFFFF45
:10AFB000FFFFFFFFFFFFFFFFFFFFFFFFFFFFFFFFA1
:10AFC000FFFFBEFF2CBC047C049C049C049C049CDE
:10AFD000047C049C457DDF7FFFFFFFFFFFFFFFFF39
:10AFE000FFFFFFFFFFFFFFFFFFFFFFFFFFFFFFFF71
:10AFF000FFFFFFFFFFFFFFFFFFFFFFFFFFFFF7FF69
:10B00000D77F8E5E44DD1C5C047C049C049C049C05
:10B01000049C049C049C049C049C047C3CFDAEDECB
:10B02000E7BFD77F4D9D0C7C045C049C049C049C72
:10B03000049C049C049C049C0C9C1C9C049C049CF0
:10B04000049C049C049C049C049C049C047C3CDDA7
:10B05000AEBEE79FFFFFFFFFFFFFFFFFFFFFFFFF0A
:10B06000FFFFFFFFFFFFFFFFFFFFFFFFFFFFD75FB8
:10B07000351D047C047C047C1C9C967EB71E7E3EA1
:10B08000149C047C049C049C049C045C1CBC6E1EEC
:10B09000E7BFFFFFFFFFEFDFAEBE1C9C047C04BCDC
:10B0A000049C049C04BC047C249CC71FFFFFFFFF7E
:10B0B000FFFFFFFFE7BFA6BE24BC047C049C049CEA
:10B0C000049C049C049C049C049C047C3CFDBEFEEB
:10B0D000EFDFFFFFFFFFFFFFFFFFFFFFFFFFFFFFB0
:10B0E000FFFFFFFFFFFFFFFFFFFFFFFFFFFFFFFF70
:10B0F000FFFFFFFFFFFFFFFFFFFFFFFFFFFFFFFF60
:10B10000FFFFFFFFFFFFFFFFFFFFFFFFFFFFFFFF4F
:10B11000FFFFFFFFFFFFFFFFFFFFFFFFFFFFFFFF3F
:10B12000FFFFFFFFFFFFDF9F459D0C9C047C049CFD
:10B1300004BC049C049C047C043C3D5DC73FFFFFB1
:10B14000FFFFFFFFFFFFFFFFE79F55BD0C9C045C67
:10B15000049C049C049C049C049C149C6DFEDF7F56
:10B16000FFFFFFFFFFFFFFFFFFFFFFFFFFFFFFFFEF
:10B17000FFFFFFFFFFFFFFFFFFFFFFFFFFFFFFFFDF
:10B18000FFFFFFFFFFFFFFFFFFFFFFFFFFFFD77F77
:10B19000453D045C047C049C049C049C049C1C9C15
:10B1A000863EBF3FCF3F2CBC043C043C045C045CA7
:10B1B000043C043C041C0C3C455D65FE8E9EE7BFD0
:10B1C000FFFFFFFFFFFFF7DFC73FB6DEB6DEBEDEE5
:10B1D000BEDEBEDEB6DEBEDECF5FF7DFFFFFBEFE49
:10B1E0002C9C047C049C049C049C049C043C2CBC6F
:10B1F0009EBEF7DFFFFFFFFFFFFFFFFFFFFFFFFF29
:10B20000FFFFFFFFFFFFFFFFFFFFFFFFFFFFFFFF4E
:10B21000CF1F44FD047C049C049C049C049C049C5F
:10B22000049C047C249CD75FFFFFFFFFFFFFFFFF10
:10B23000FFFFFFFFFFFFFFFFFFFFFFFFFFFFFFFF1E
:10B24000FFFFBEFF2CBC047C049C049C049C049C5B
:10B25000047C049C457DDF7FFFFFFFFFFFFFFFFFB6
:10B26000FFFFFFFFFFFFFFFFFFFFFFFFFFFFFFFFEE
:10B27000FFFFFFFFFFFFFFFFFFFFFFFFFFFFD77F86
:10B280006DFE2CBC0C7C047C049C049C049C049CE3
:10B29000049C049C049C049C047C1C7CAEBEEFBFFC
:10B2A000FFFFF7DFB6DE34DD043C047C049C049C25
:10B2B000049C049C049C049C049C049C049C049C8E
:10B2C000049C049C049C049C049C045C1C5CAE9E3A
:10B2D000EFBFFFFFFFFFFFFFFFFFFFFFFFFFFFFFCE
:10B2E000FFFFFFFFFFFFFFFFFFFFFFFFFFFFEFBFBE
:10B2F0007E1E1C9C043C047C249CBEDED77F761EF4
:10B30000149C047C049C049C049C045C1CBC6E1E69
:10B31000E7BFFFFFFFFFDF9F761E149C047C049CA9
:10B32000049C049C049C047C249CD75FFFFFFFFFCB
:10B33000FFFFFFFFFFFFBF1F2D1D049C049C049C0B
:10B34000049C049C049C04BC049C1C9C965EE79F8B
:10B35000FFFFFFFFFFFFFFFFFFFFFFFFFFFFFFFFFD
:10B36000FFFFFFFFFFFFFFFFFFFFFFFFFFFFFFFFED
:10B37000FFFFFFFFFFFFFFFFFFFFFFFFFFFFFFFFDD
:10B38000FFFFFFFFFFFFFFFFFFFFFFFFFFFFFFFFCD
:10B39000FFFFFFFFFFFFFFFFFFFFFFFFFFFFFFFFBD
:10B3A000FFFFFFFFFFFFE79F5DDD149C045C047C53
:10B3B000047C047C047C047C1C9C4D9DCF5FFFFFBF
:10B3C000FFFFFFFFFFFFFFFFDF7F353D047C047CB5
:10B3D000049C049C049C049C049C1C9C9E9EEFBFAB
:10B3E000FFFFFFFFFFFFFFFFFFFFFFFFFFFFFFFF6D
:10B3F000FFFFFFFFFFFFFFFFFFFFFFFFFFFFFFFF5D
:10B40000FFFFFFFFFFFFFFFFFFFFFFFFFFFFD77FF4
:10B41000453D045C047C049C049C049C049C1C9C92
:10B420007E3EBF3FCF5F451D1C9C1C9C1C9C1C9CF2
:10B4300024BC2CBC34BC4CFD761E65BD75DEB6DE6E
:10B44000E79FF7FFFFFFFFFFFFFFF7FFF7FFFFFF9C
:10B45000FFFFFFFFF7FFF7FFFFFFFFFFFFFFBEFE4E
:10B460002C9C047C049C049C049C049C043C2CBCEC
:10B470009EBEF7DFFFFFFFFFFFFFFFFFFFFFFFFFA6
:10B48000FFFFFFFFFFFFFFFFFFFFFFFFF7DFD77F9C
:10B49000965E1C7C047C049C049C049C049C049C80
:10B4A000049C047C3CFDDF7FFFFFFFFFFFFFFFFFED
:10B4B000FFFFFFFFFFFFFFFFFFFFFFFFFFFFFFFF9C
:10B4C000FFFFBEFF2CBC047C049C049C049C049CD9
:10B4D000047C049C457DDF7FFFFFFFFFFFFFFFFF34
:10B4E000FFFFFFFFFFFFFFFFFFFFFFFFFFFFFFFF6C
:10B4F000FFFFFFFFFFFFFFFFFFFFEFBFCF3F967E86
:10B50000351D043C047C04BC049C049C049C049CE9
:10B51000049C049C049C049C0C7C553DE77FFFFF2D
:10B52000FFFFFFFFE79F75DD34DD0C7C049C049C6E
:10B53000049C049C049C049C049C04BC049C049CEB
:10B54000049C049C049C049C047C0C7C4D1DE77FA3
:10B55000FFFFFFFFFFFFFFFFFFFFFFFFFFFFFFFFFB
:10B56000FFFFFFFFFFFFFFFFFFFFFFFFFFFFF7DF13
:10B57000A6BE2CBD041C047C3CFDC71FDF9F761EAD
:10B58000149C047C049C049C049C045C1CBC6E1EE7
:10B59000E7BFFFFFFFFFCF5F55BD0C9C049C049CE1
:10B5A000049C049C049C047C2CDDDF5FFFFFFFFFF8
:10B5B000FFFFFFFFE7BFA6DE24FD047C049C049C84
:10B5C000049C049C049C04BC049C1C9C969EE7BFA9
:10B5D000FFFFFFFFFFFFFFFFFFFFFFFFFFFFFFFF7B
:10B5E000FFFFFFFFFFFFFFFFFFFFFFFFFFFFFFFF6B
:10B5F000FFFFFFFFFFFFFFFFFFFFFFFFFFFFFFFF5B
:10B60000FFFFFFFFFFFFFFFFFFFFFFFFFFFFFFFF4A
:10B61000FFFFFFFFFFFFFFFFFFFFFFFFFFFFFFFF3A
:10B62000FFFFFFFFFFFFEFBF7E1E1C9C043C147C4E
:10B63000249C24BC2CFD3D5D6DFEB6FFEFBFFFFFDB
:10B64000FFFFFFFFFFFFFFFFCF3F2CBC047C049CEC
:10B65000049C049C049C049C047C2CBCCF3FFFFFF6
:10B66000FFFFFFFFFFFFFFFFFFFFFFFFFFFFFFFFEA
:10B67000FFFFFFFFFFFFFFFFFFFFFFFFFFFFFFFFDA
:10B68000FFFFFFFFFFFFFFFFFFFFFFFFFFFFD77F72
:10B69000453D045C047C049C049C049C049C1C9C10
:10B6A0007E3EBF3FDF9F969E761E761E761E761EDE
:10B6B0008E7E9EBEB6DED75FC6FF4CBC1BFC34DC64
:10B6C000863EC71FD75FDF7FEFDFFFFFFFFFFFFF74
:10B6D000FFFFFFFFFFFFFFFFFFFFFFFFFFFFBEFEBC
:10B6E0002C9C047C049C049C049C049C043C2CBC6A
:10B6F0009EBEF7DFFFFFFFFFFFFFFFFFFFFFFFFF24
:10B70000FFFFFFFFFFFFFFFFFFFFFFFFD77F65DEAC
:10B7100024FD0C7C049C049C049C049C049C04BCA0
:10B72000049C149C75FEEFBFFFFFFFFFFFFFFFFFB0
:10B73000FFFFFFFFFFFFFFFFFFFFFFFFFFFFFFFF19
:10B74000FFFFBEFF2CBC047C049C049C049C049C56
:10B75000047C049C457DDF7FFFFFFFFFFFFFFFFFB1
:10B76000FFFFFFFFFFFFFFFFFFFFFFFFFFFFFFFFE9
:10B77000FFFFFFFFFFFFF7DFDF7FAEBE4D3D249CE5
:10B780000C7C047C049C049C049C049C049C049CF1
:10B79000049C049C047C0C7C3CDDC6FEFFDFFFFFA8
:10B7A000FFFFFFFFFFFFE79FA6BE34FD049C049C44
:10B7B000049C049C049C049C049C049C049C049C89
:10B7C000049C049C049C049C145C44FDAEBEF7DF06
:10B7D000FFFFFFFFFFFFFFFFFFFFFFFFFFFFFFFF79
:10B7E000FFFFFFFFFFFFFFFFFFFFFFFFFFFFFFFF69
:10B7F000CF5F451D0C3C145C6DFDDF7FDF9F761E27
:10B80000149C047C049C049C049C045C1CBC6E1E64
:10B81000E7BFFFFFFFFFC71F34FD047C049C049CAF
:10B82000049C049C047C0C9C3D5DDF9FFFFFFFFF9C
:10B83000FFFFDF7F8E7E559D149C049C049C049C1E
:10B84000049C049C049C049C049C049C3D5DAEDE12
:10B85000E79FFFFFFFFFFFFFFFFFFFFFFFFFFFFF70
:10B86000FFFFFFFFFFFFFFFFFFFFFFFFFFFFFFFFE8
:10B87000FFFFFFFFFFFFFFFFFFFFFFFFFFFFFFFFD8
:10B88000FFFFFFFFFFFFFFFFFFFFFFFFFFFFEFBF18
:10B89000EFBFEFBFEFBFEFBFEFBFEFBFEFBFEFBF38
:10B8A000EFBFEFBFEFBFE79F9E9E451D34FD6DDDEF
:10B8B000AEBEC71FC73FCF5FD77FE79FEFBFEFBFCA
:10B8C000EFBFEFBFF7DFDF7F865E149C047C04BC14
:10B8D000049C049C049C049C0C9C457DD75FEFBF9A
:10B8E000EFBFEFBFEFBFEFBFEFBFEFBFEFBFEFBFE8
:10B8F000EFBFEFBFEFBFEFBFEFDFF7FFFFFFFFFFD0
:10B90000FFFFFFFFFFFFFFFFFFFFFFFFFFFFD77FEF
:10B91000453D045C047C049C049C049C049C1C9C8D
:10B92000863EC73FEFDFEFDFE7BFEFBFEFBFEFBF01
:10B93000EFDFF7DFF7DFFFFFD75F3CDD03FC047CC1
:10B94000149C249C2CBC3D5D9EBEEFBFFFFFFFFFFF
:10B95000FFFFFFFFFFFFFFFFFFFFFFFFFFFFBEFE39
:10B960002C9C047C049C049C049C049C043C2CBCE7
:10B970009EBEF7DFFFFFFFFFFFFFFFFFFFFFFFFFA1
:10B98000FFFFFFFFFFFFFFFFFFFFE79F7E1E24BCBF
:10B99000043C047C049C049C049C049C049C049C27
:10B9A000047C2CBDCF3FFFFFFFFFFFFFFFFFFFFF2A
:10B9B000FFFFFFFFFFFFFFFFFFFFFFFFFFFFFFFF97
:10B9C000FFFFBEFF2CBC047C049C049C049C049CD4
:10B9D000047C049C457DDF7FFFFFFFFFFFFFFFFF2F
:10B9E000FFFFFFFFFFFFFFFFFFFFFFFFFFFFFFFF67
:10B9F000FFFFF7FFDF9FA6DE4D7D249C0C7C047CBF
:10BA0000049C049C049C049C049C049C049C049C36
:10BA1000049C047C1C5C551DC6FFFFFFFFFFFFFF5D
:10BA2000FFFFFFFFEFBFDF7FBEFE65DD0C9C049CC8
:10BA3000049C049C049C049C049C049C049C049C06
:10BA4000049C049C049C0C9C4D5D7E1EC73FEFBF74
:10BA5000FFFFFFFFFFFFFFFFFFFFFFFFFFFFFFFFF6
:10BA6000FFFFFFFFFFFFFFFFFFFFFFFFFFFFFFFFE6
:10BA7000E79F7E3E3D1D349CC71FFFFFDF9F761E64
:10BA8000149C047C049C049C049C045C1CBC6E1EE2
:10BA9000E7BFFFFFE7BFA6BE249C047C049C049C78
:10BAA000049C049C043C1CBC7E3EEFBFFFFFF7FFE0
:10BAB000D75F75FE2CBC0C5C047C049C049C049C2D
:10BAC000049C049C049C049C049C049C047C1CFD1D
:10BAD00055BDC71FFFFFFFFFFFFFFFFFFFFFFFFF7A
:10BAE000FFFFFFFFFFFFFFFFFFFFFFFFFFFFFFFF66
:10BAF000FFFFFFFFFFFFFFFFFFFFFFFFFFFFFFFF56
:10BB0000FFFFFFFFFFFFFFFFFFFFFFFFE79FA6DE37
:10BB1000A6DEA6DEA6DEA6DEA6DEA6DEA6DEA6DE05
:10BB2000A6DEA6DEA6DEA6DE9EBE967E967EA6BE1D
:10BB3000AEFEAEDEA6DEA6DEA6DEA6DEA6DEA6DEB5
:10BB4000A6DEAEDEBF1F9E9E353D049C049C049C79
:10BB5000049C049C049C049C0C9C55BDA6DEAEDE9B
:10BB6000A6DEA6DEA6DEA6DEA6DEA6DEA6DEA6DEB5
:10BB7000A6DEA6DEA6DE9EBEA6DEDF7FFFFFFFFFFF
:10BB8000FFFFFFFFFFFFFFFFFFFFFFFFFFFFD77F6D
:10BB9000453D045C047C049C049C049C049C1C9C0B
:10BBA000863EC73FF7DFFFFFFFFFFFFFFFFFFFFFFF
:10BBB000FFFFFFFFFFFFFFFFBF1F34DD041C047CFE
:10BBC000047C047C045C147C6DFEDF7FFFFFFFFFC0
:10BBD000FFFFFFFFFFFFFFFFFFFFFFFFFFFFBEFEB7
:10BBE0002C9C047C049C049C049C049C043C2CBC65
:10BBF0009EBEF7DFFFFFFFFFFFFFFFFFFFFFFFFF1F
:10BC0000FFFFFFFFFFFFFFFFEFDFB6DE34DC0C7C42
:10BC1000047C049C049C049C049C049C049C045C84
:10BC20000C7C4D7DE79FFFFFFFFFFFFFFFFFFFFF46
:10BC3000FFFFFFFFFFFFFFFFFFFFFFFFFFFFFFFF14
:10BC4000FFFFBEFF2CBC047C049C049C049C049C51
:10BC5000047C049C457DDF7FFFFFFFFFFFFFFFFFAC
:10BC6000FFFFFFFFFFFFFFFFFFFFFFFFFFFFFFFFE4
:10BC7000FFFFEFBF969E559D143C045C049C049C02
:10BC8000049C049C049C049C049C049C04BC049C94
:10BC9000047C1C5C8E1ECF1FF7DFFFFFFFFFFFFF42
:10BCA000FFFFF7DF9EBE5D7D3CFD24BC049C049C31
:10BCB000049C049C049C049C049C049C049C049C84
:10BCC000049C049C049C049C1CBC2CDC4D5D9EBE0E
:10BCD000E7BFFFFFFFFFFFFFFFFFFFFFFFFFFFFFCC
:10BCE000FFFFFFFFFFFFFFFFFFFFFFFFFFFFFFFF64
:10BCF000F7DFC73F865E557DDF7FFFFFDF9F761E44
:10BD0000149C047C049C049C049C045C1CBC6E1E5F
:10BD1000E7BFEFBF969E559D149C049C049C049C19
:10BD2000049C047C041C34BDBEFFFFFFFFFFD77FD3
:10BD30006DFE249C047C047C049C049C049C049C58
:10BD4000049C049C049C049C049C049C049C047C13
:10BD5000147C555DE79FFFFFFFFFFFFFFFFFFFFF25
:10BD6000FFFFFFFFFFFFFFFFFFFFFFFFFFFFFFFFE3
:10BD7000FFFFFFFFFFFFFFFFFFFFFFFFFFFFFFFFD3
:10BD8000FFFFFFFFFFFFFFFFFFFFFFFFD75F6DDD3F
:10BD900065DD65DD65DD65DD65DD65DD65DD65DD93
:10BDA00065DD65DD65DD65DD75FE865E8E5E865E64
:10BDB000761E6DFE65DD65DD65DD65DD65DD65DDF8
:10BDC00065DD6DDD7E1E5DBD14DC049C049C049C61
:10BDD000049C049C049C049C0C9C457D6DFD6DFDA5
:10BDE00065DD65DD65DD65DD65DD65DD65DD65DD43
:10BDF00065DD65DD65DD5D9D75FDBF1EF7DFFFFF60
:10BE0000FFFFFFFFFFFFFFFFFFFFFFFFFFFFD77FEA
:10BE1000453D045C047C049C049C049C049C1C9C88
:10BE20007E1EBF1FF7DFFFFFFFFFFFFFFFFFFFFFCC
:10BE3000FFFFFFFFFFFFF7DF9EBE2CBC043C049C0E
:10BE400004BC049C047C145C6DFEDF7FFFFFFFFFDD
:10BE5000FFFFFFFFFFFFFFFFFFFFFFFFFFFFBEFE34
:10BE60002C9C047C049C049C049C049C043C2CBCE2
:10BE70009EBEF7DFFFFFFFFFFFFFFFFFFFFFFFFF9C
:10BE8000FFFFFFFFFFFFEFBFCF5F7DFE145C047C71
:10BE900004BC049C049C049C049C049C049C043CE2
:10BEA0001C9C7E1EEFBFFFFFFFFFFFFFFFFFFFFF9A
:10BEB000FFFFFFFFFFFFFFFFFFFFFFFFFFFFFFFF92
:10BEC000FFFFBEFF2CBC047C049C049C049C049CCF
:10BED000047C049C457DDF7FFFFFFFFFFFFFFFFF2A
:10BEE000FFFFFFFFFFFFFFFFFFFFFFFFFFFFFFFF62
:10BEF000FFFFEFBF9EBE65DD349C047C049C049C68
:10BF0000049C049C049C049C049C049C049C047C51
:10BF10000C7C551DCF3FFFFFFFFFFFFFEFBFD77F1B
:10BF2000C73FB6DE5DBD1C9C043C045C049C049CC5
:10BF3000049C049C049C049C049C049C049C049C01
:10BF4000049C049C049C049C045C043C0C9C5DBD0F
:10BF5000A69EBEFFC73FDF9FF7DFFFFFFFFFFFFF8C
:10BF6000FFFFFFFFFFFFFFFFFFFFFFFFFFFFFFFFE1
:10BF7000FFFFE79FBF1E867EE7BFFFFFDF9F761EA6
:10BF8000149C047C049C049C049C045C1CBC6E1EDD
:10BF9000E7BFDF9F65DD24FD0C7C049C049C049CB2
:10BFA000049C047C03FC3CDDD75FF7DFCF3F967E2B
:10BFB000351D045C047C04BC049C049C049C049C0F
:10BFC000049C049C049C049C049C049C049C047C91
:10BFD000045C1C9CA69EDF7FEFDFFFFFFFFFFFFFDF
:10BFE000FFFFFFFFFFFFFFFFFFFFFFFFFFFFFFFF61
:10BFF000FFFFFFFFFFFFFFFFFFFFFFFFFFFFFFFF51
:10C00000FFFFFFFFFFFFFFFFFFFFFFFFC6FE347CC8
:10C01000147C149C149C149C149C149C149C149CC0
:10C02000149C149C149C149C149C1C9C1CBC1C9C58
:10C030001C9C149C149C149C149C149C149C149C78
:10C04000149C149C1C9C149C049C049C049C049CA8
:10C05000049C049C049C049C049C0C9C149C149CB8
:10C06000149C149C149C149C149C149C149C149C50
:10C07000149C149C147C141C34BC9E9EF7DFFFFFA0
:10C08000FFFFFFFFFFFFFFFFFFFFFFFFFFFFD77F68
:10C09000455D047C049C049C049C049C049C149CAE
:10C0A0005DBD969EDF7FEFBFEFBFEFBFEFBFEFBF7E
:10C0B000EFBFEFBFEFBFCF5F5DBD149C045C049C7E
:10C0C000049C04BC047C1C9C969ED77FEFBFEFBFF2
:10C0D000EFBFF7DFF7DFF7DFF7DFF7DFE79FA69EBA
:10C0E000249C049C049C049C049C049C043C2CBC48
:10C0F0009EBEF7DFFFFFFFFFFFFFFFFFFFFFFFFF1A
:10C10000FFFFFFFFDF7FA6BE75DD2C9C047C049C37
:10C11000049C049C049C049C049C049C047C145C6F
:10C120004D1DCF3FFFFFFFFFFFFFFFFFFFFFFFFFA3
:10C13000FFFFFFFFFFFFFFFFFFFFFFFFFFFFFFFF0F
:10C14000FFFFBEFF2CBC047C049C049C049C049C4C
:10C15000047C049C457DDF7FFFFFFFFFFFFFFFFFA7
:10C16000FFFFFFFFFFFFFFFFFFFFFFFFFFFFFFFFDF
:10C17000FFFFFFFFEFBFD75F965E2C9C047C049C03
:10C18000049C049C049C049C049C047C0C7C147CF7
:10C190003D1DBEFEE79FE7BFDF7FD75F9E9E5DDD53
:10C1A0003D3D2C9C147C047C047C049C049C049CDD
:10C1B000049C049C049C049C049C049C049C049C7F
:10C1C000049C049C049C049C049C049C047C149C7F
:10C1D000247C2C9C353D7E3EB6FECF3FD75FDF7F73
:10C1E000E7BFEFBFF7DFFFFFFFFFFFFFFFFFFFFF2F
:10C1F000FFFFFFFFF7DFE7BFFFFFFFFFDF9F761EB9
:10C20000149C047C049C049C049C045C1CBC6E1E5A
:10C21000E7BFCF3F451D0C3C047C049C049C049C60
:10C22000049C047C0C5C453DBF1FB6DE553D249C40
:10C230000C7C049C049C049C049C049C049C049C16
:10C24000049C049C049C049C049C049C049C049CEE
:10C25000049C047C34BC7DFDA6BED75FF7DFFFFFE6
:10C26000FFFFFFFFFFFFFFFFFFFFFFFFFFFFFFFFDE
:10C27000FFFFFFFFFFFFFFFFFFFFFFFFFFFFFFFFCE
:10C28000FFFFFFFFFFFFFFFFFFFFFFFFBEFE2C7C56
:10C29000047C049C049C049C049C049C049C049CBE
:10C2A000049C049C049C049C049C049C049C049C8E
:10C2B000049C049C049C049C049C049C049C049C7E
:10C2C000049C049C049C049C049C049C049C049C6E
:10C2D000049C049C049C049C049C049C049C049C5E
:10C2E000049C049C049C049C049C049C049C049C4E
:10C2F000049C049C047C041C2CBC9E9EF7DFFFFF66
:10C30000FFFFFFFFFFFFFFFFFFFFFFFFFFFFDF7FDD
:10C31000457D049C047C049C049C049C049C049C1B
:10C32000149C2CFD6DFD863E7E3E7E3E7E3E7E3E16
:10C330007E3E865E7E3E5DBD149C047C049C049C17
:10C34000049C04BC047C249CB6DE8E7E761E7E3E5D
:10C35000865E969E969E969E9E9E969E5DDD353D41
:10C360000C9C049C049C049C049C049C043C2CBCDD
:10C37000A6BEF7DFFFFFFFFFFFFFFFFFFFFFFFFF8F
:10C38000F7DFCF3F5DBD24BC145C047C049C049C9F
:10C39000049C049C049C049C049C047C249C861E99
:10C3A000C71FF7DFFFFFFFFFFFFFFFFFFFFFFFFFDD
:10C3B000FFFFFFFFFFFFFFFFFFFFFFFFFFFFFFFF8D
:10C3C000FFFFBEFF2CBC047C049C049C049C049CCA
:10C3D000047C049C457DDF7FFFFFFFFFFFFFFFFF25
:10C3E000FFFFFFFFFFFFFFFFFFFFFFFFFFFFFFFF5D
:10C3F000FFFFFFFFFFFFFFFFE7BF8E5E2CBC0C3C83
:10C40000047C049C049C049C047C249C4D7D761E2E
:10C41000AEDEBEFE967E6DFE3D3D24BC1C9C0C9C9B
:10C42000047C047C049C049C049C049C049C049C4C
:10C43000049C049C049C049C047C049C049C049C1C
:10C44000049C049C049C049C049C049C049C049CEC
:10C45000047C047C047C149C249C249C2CBC3D5DAA
:10C4600065DD7E3E9E9ECF3FF7DFFFFFFFFFFFFFB4
:10C47000FFFFFFFFFFFFFFFFFFFFFFFFDF9F761EB6
:10C48000149C047C049C049C049C045C1CBC6E1ED8
:10C49000D77F7E1E1C9C043C049C049C049C049C32
:10C4A000049C0C9C3D5D559D559D24BC0C7C047CDE
:10C4B000049C049C049C049C049C049C049C049C7C
:10C4C0000C9C0C9C049C049C049C049C049C049C5C
:10C4D000049C049C047C147C1C9C3D3DAEDED75F18
:10C4E000E79FFFFFFFFFFFFFFFFFFFFFFFFFFFFFD4
:10C4F000FFFFFFFFFFFFFFFFFFFFFFFFFFFFFFFF4C
:10C50000FFFFFFFFFFFFFFFFFFFFFFFFBEFE2C7CD3
:10C51000047C049C049C049C049C049C049C049C3B
:10C52000049C049C049C049C049C049C049C049C0B
:10C53000049C049C049C049C049C049C049C049CFB
:10C54000049C049C049C049C049C049C049C049CEB
:10C55000049C049C049C049C049C049C049C049CDB
:10C56000049C049C049C049C049C049C049C049CCB
:10C57000049C049C049C043C2CBC9E9EF7DFFFFFA3
:10C58000FFFFFFFFFFFFFFFFFFFFFFFFFFFFDF7F5B
:10C59000559D14BC047C049C049C049C049C049C39
:10C5A000047C049C1CBC24BC1CBC1CBC1CBC1CBC53
:10C5B0001CBC24BC1CBC149C049C049C049C049CBB
:10C5C000049C049C047C2C9CB6DE55BD1CDD1C9C8C
:10C5D00024BC2CBC2CBC2CBC2CBC2CBD149C0C9C9A
:10C5E000049C049C049C049C049C049C041C34DC5B
:10C5F000B6DEF7DFFFFFFFFFFFFFFFFFFFFFF7DF05
:10C60000C71F557D149C047C047C049C049C049CE2
:10C61000049C049C049C049C049C045C455DBF1F1A
:10C62000F7DFFFFFFFFFFFFFFFFFFFFFFFFFFFFF42
:10C63000FFFFFFFFFFFFFFFFFFFFFFFFFFFFFFFF0A
:10C64000FFFFBEFF2CBC047C049C049C049C049C47
:10C65000047C049C457DDF7FFFFFFFFFFFFFFFFFA2
:10C66000FFFFFFFFFFFFFFFFFFFFFFFFFFFFFFFFDA
:10C67000FFFFFFFFFFFFFFFFFFFFCF5F65DD2CFD2B
:10C680000C7C049C045C043C1C7C8E3EC73FB6FFC3
:10C6900065DD3CBC24BC1CBC049C047C047C049C68
:10C6A000049C049C049C049C049C049C049C049C8A
:10C6B000049C049C049C043C041C043C045C049CFA
:10C6C000049C049C049C049C049C049C049C049C6A
:10C6D000049C049C049C049C047C047C047C049CBA
:10C6E000149C1C7C3C9C965EEFDFFFFFFFFFFFFF6E
:10C6F000FFFFFFFFFFFFFFFFFFFFFFFFDF9F761E34
:10C70000149C047C049C049C049C045C1CBC761E4D
:10C71000C71F3CFD0C7C047C049C049C049C049C72
:10C72000049C047C149C1CBC149C047C049C049CF1
:10C73000049C049C049C049C049C049C047C1CDDC0
:10C740002D1D2D1D0C7C049C049C049C049C049CAD
:10C75000049C049C049C047C047C0C7C34BC3D1D27
:10C7600075FEE79FFFFFFFFFFFFFFFFFFFFFFFFFDC
:10C77000FFFFFFFFFFFFFFFFFFFFFFFFFFFFFFFFC9
:10C78000FFFFFFFFFFFFFFFFFFFFFFFFBEFE2C7C51
:10C79000047C049C049C049C049C049C049C049CB9
:10C7A000049C049C049C049C049C049C049C049C89
:10C7B000049C049C049C049C049C049C049C049C79
:10C7C000049C049C049C049C049C049C049C049C69
:10C7D000049C049C049C049C049C049C049C049C59
:10C7E000049C049C049C049C049C049C049C049C49
:10C7F000049C049C049C043C2CBC9E9EF7DFFFFF21
:10C80000FFFFFFFFFFFFFFFFFFFFFFFFFFFFE79FB0
:10C810006DFE2D1D0C7C049C049C049C049C049CBB
:10C82000049C049C045C043C043C043C043C043C28
:10C83000043C043C045C045C049C049C049C049C38
:10C84000049C049C047C34DDBEFF6DFE2CFD0C3C7E
:10C85000043C043C043C043C043C043C045C047C78
:10C86000049C049C049C049C049C049C041C34DCD8
:10C87000BF1EFFFFFFFFFFFFFFFFFFFFF7DFCF5FE1
:10C880008E5E1C9C045C049C049C049C049C049C84
:10C89000049C049C049C049C047C147C761EDF9FF6
:10C8A000FFFFFFFFFFFFFFFFFFFFFFFFFFFFFFFF98
:10C8B000FFFFFFFFFFFFFFFFFFFFFFFFFFFFFFFF88
:10C8C000FFFFBEFF2CBC047C049C049C049C049CC5
:10C8D000047C049C457DDF7FFFFFFFFFFFFFFFFF20
:10C8E000FFFFFFFFFFFFFFFFFFFFFFFFFFFFFFFF58
:10C8F000FFFFFFFFFFFFFFFFFFFFEFBF9EBE5DBD1E
:10C90000147C045C147C249C553DCF3FF7FFD77FFB
:10C910005DBD0BFC041C045C047C049C049C049C16
:10C92000049C049C049C049C049C049C049C049C07
:10C93000049C047C047C24BC34DD34FD149C047C05
:10C94000047C049C049C049C049C049C049C049C07
:10C95000049C049C049C04BC049C049C049C047CD7
:10C96000043C041C245C967EEFDFFFFFFFFFFFFF0B
:10C97000FFFFFFFFFFFFFFFFFFFFFFFFDF9F761EB1
:10C98000149C047C049C049C049C045C1CBC761ECB
:10C99000A6BE249C047C049C049C049C049C049CD3
:10C9A000049C049C045C045C045C049C049C049C47
:10C9B000049C049C049C049C049C047C149C4D9D3D
:10C9C0006E1E65DE149C047C049C049C049C049CE8
:10C9D000049C049C049C049C049C045C0C1C34DD9E
:10C9E00075FEE79FFFFFFFFFFFFFFFFFFFFFFFFF5A
:10C9F000FFFFFFFFFFFFFFFFFFFFFFFFFFFFFFFF47
:10CA0000FFFFFFFFFFFFFFFFFFFFFFFFBEFE2C7CCE
:10CA1000047C049C049C049C049C049C049C049C36
:10CA2000049C049C049C049C049C049C049C049C06
:10CA3000049C049C049C049C049C049C049C049CF6
:10CA4000049C049C049C049C049C049C049C049CE6
:10CA5000049C049C049C049C049C049C049C049CD6
:10CA6000049C049C049C049C049C049C049C049CC6
:10CA7000049C049C049C043C2CBC9E9EF7DFFFFF9E
:10CA8000FFFFFFFFFFFFFFFFFFFFFFFFFFFFEFBF06
:10CA9000A6DE65DD147C049C049C049C049C049C20
:10CAA000049C049C049C049C049C049C049C049C86
:10CAB000049C049C049C049C049C049C049C049C76
:10CAC000049C045C149C65DDDF7FD77F967E1C9CF4
:10CAD000047C049C049C049C049C049C049C049C76
:10CAE000049C049C049C049C049C047C03FC3CDD8E
:10CAF000D75FFFFFFFFFFFFFFFFFFFFFEFBF969E28
:10CB00005DBD2C9C047C049C049C049C049C049CA3
:10CB1000049C049C049C045C0C7C3D3DCF3FF7FFCF
:10CB2000FFFFFFFFFFFFFFFFFFFFFFFFFFFFFFFF15
:10CB3000FFFFFFFFFFFFFFFFFFFFFFFFFFFFFFFF05
:10CB4000FFFFBEFF2CBC047C049C049C049C049C42
:10CB5000047C049C457DDF7FFFFFFFFFFFFFFFFF9D
:10CB6000FFFFFFFFFFFFFFFFFFFFFFFFFFFFFFFFD5
:10CB7000FFFFFFFFFFFFFFFFFFFFFFFFEFBFB6FE5F
:10CB8000453D2C9C557D7E3ECF3FF7DFFFFFF7DF15
:10CB9000C71F3CFD0C7C047C049C049C049C049CEE
:10CBA000049C049C049C049C049C049C047C047CC5
:10CBB000047C1C9C3CFD8E3EB6FEBF1F65DD34BC74
:10CBC000247C0C7C047C049C049C049C049C049C9D
:10CBD000049C049C049C049C049C049C049C047C75
:10CBE000043C1C9C6DDDDF7FFFFFFFFFFFFFFFFFAD
:10CBF000FFFFFFFFFFFFFFFFFFFFFFFFDF9F761E2F
:10CC0000149C047C049C049C049C045C24BC761E40
:10CC10005DBD147C047C049C049C049C049C049CCA
:10CC20000C9C2D1D353D24FD0C7C049C049C049C17
:10CC3000049C049C049C049C047C149C4D9DB71F84
:10CC4000E79FC73F455D0C7C045C047C049C049C0E
:10CC5000049C049C049C049C049C047C3CFDAEBE8F
:10CC6000E79FFFFFFFFFFFFFFFFFFFFFFFFFFFFF4C
:10CC7000FFFFFFFFFFFFFFFFFFFFFFFFFFFFFFFFC4
:10CC8000FFFFFFFFFFFFFFFFFFFFFFFFBEFE2C7C4C
:10CC9000047C049C049C049C049C049C049C049CB4
:10CCA000049C049C049C049C049C049C049C049C84
:10CCB000049C049C049C049C049C049C049C049C74
:10CCC000049C049C049C049C049C049C049C049C64
:10CCD000049C049C049C049C049C049C049C049C54
:10CCE000049C049C049C049C049C049C049C049C44
:10CCF000049C049C047C041C2C9C9E9EF7DFFFFF7C
:10CD0000FFFFFFFFFFFFFFFFFFFFFFFFFFFFFFFF33
:10CD1000F7DFBEDE3CDC047C049C049C049C049C89
:10CD2000049C049C049C049C049C049C049C049C03
:10CD3000049C049C049C049C049C049C049C049CF3
:10CD4000047C143C4CFDC71FFFFFFFFFC71F34FDD1
:10CD5000047C049C049C049C049C049C049C049CF3
:10CD6000049C049C049C049C049C047C1CBC5DBD31
:10CD7000DF7FFFFFFFFFFFFFFFFFFFFFFFFFEFBFB3
:10CD8000D77FAEBE3CBC0C7C047C049C049C049C01
:10CD9000049C049C047C1C9C557DC71FFFFFFFFF67
:10CDA000FFFFFFFFFFFFFFFFFFFFFFFFFFFFFFFF93
:10CDB000FFFFFFFFFFFFFFFFFFFFFFFFFFFFFFFF83
:10CDC000FFFFBEFF2CBC047C049C049C049C049CC0
:10CDD000047C049C457DDF7FFFFFFFFFFFFFFFFF1B
:10CDE000FFFFFFFFFFFFFFFFFFFFFFFFFFFFFFFF53
:10CDF000FFFFFFFFFFFFFFFFFFFFFFFFFFFFF7DF6B
:10CE0000DF7FD73FDF9FEFBFFFFFFFFFFFFFFFFF8A
:10CE1000F7FFB6DE3CBC041C047C049C049C049C10
:10CE2000049C049C049C047C047C0C7C1C9C24BC02
:10CE3000453D967ED75FEFBFFFFFFFFFE79FDF7F98
:10CE4000B6DE5DBD2C9C147C047C047C047C049CBC
:10CE5000049C049C049C049C049C049C049C047CF2
:10CE60001C9C557DCF3FFFFFFFFFFFFFFFFFFFFF34
:10CE7000FFFFFFFFFFFFFFFFFFFFFFFFDF9F761EAC
:10CE8000149C047C049C049C049C045C24BC65DE0F
:10CE90003D3D1C7C047C047C049C049C049C047C20
:10CEA0001C9C9E9ED75FAEBE34BC047C049C049C3C
:10CEB000049C049C047C0C7C2C9C75FED75FF7DFE3
:10CEC000FFFFFFFFC73F65DE351D147C047C049C1B
:10CED000049C049C049C049C0C7C3CDDC6FEF7DF97
:10CEE000FFFFFFFFFFFFFFFFFFFFFFFFFFFFFFFF52
:10CEF000FFFFFFFFFFFFFFFFFFFFFFFFFFFFFFFF42
:10CF0000FFFFFFFFFFFFFFFFFFFFFFFFBEDE2C1C49
:10CF100003FC041C041C041C041C041C041C041C32
:10CF2000041C041C041C041C041C041C041C041C01
:10CF3000041C041C041C041C041C041C041C041CF1
:10CF4000041C041C041C041C041C041C041C041CE1
:10CF5000041C041C041C041C041C041C041C041CD1
:10CF6000041C041C041C041C041C041C041C041CC1
:10CF7000041C041C03FC039C243C965EEFDFFFFFB3
:10CF8000FFFFFFFFFFFFFFFFFFFFFFFFFFFFFFFFB1
:10CF9000FFFFEFBFA67E1C3C041C045C047C049CC9
:10CFA000049C049C049C049C049C049C049C049C81
:10CFB000049C049C049C049C049C049C047C045CD1
:10CFC000143C6D9DAEBEEFBFFFFFFFFFD75F5DBDA1
:10CFD0000C9C049C049C049C049C049C049C049C49
:10CFE000049C04BC049C049C045C1C5C8E3ECF5FCF
:10CFF000F7DFFFFFFFFFFFFFFFFFFFFFFFFFFFFF69
:10D00000FFFFEFBFAE9E349C041C047C049C04BC58
:10D01000049C045C1CDD8E7ECF5FF7DFFFFFFFFF0B
:10D02000FFFFFFFFFFFFFFFFFFFFFFFFFFFFFFFF10
:10D03000FFFFFFFFFFFFFFFFFFFFFFFFFFFFFFFF00
:10D04000FFFFBEFF2CBC047C049C049C049C049C3D
:10D05000049C049C459DDF7FFFFFFFFFFFFFFFFF58
:10D06000FFFFFFFFFFFFFFFFFFFFFFFFFFFFFFFFD0
:10D07000FFFFFFFFFFFFFFFFFFFFFFFFFFFFFFFFC0
:10D08000FFFFFFFFFFFFFFFFFFFFFFFFFFFFFFFFB0
:10D09000FFFFDF7F559D14BC047C049C04BC049CF2
:10D0A000049C047C043C03FC043C2D1D8E5EB6DE17
:10D0B000CF3FE7BFFFFFFFFFFFFFFFFFFFFFFFFFC8
:10D0C000F7DFD75FAEBE557D149C043C041C045CA6
:10D0D000047C049C049C04BC049C049C047C1C5C98
:10D0E0008E3ECF5FF7DFFFFFFFFFFFFFFFFFFFFF7A
:10D0F000FFFFFFFFFFFFFFFFFFFFFFFFDF9F761E2A
:10D10000149C049C04BC049C049C045C1CBC6DFE2C
:10D11000AEDE7E1E249C041C045C049C049C047CE7
:10D1200024BCCF5FFFFFE79F861E147C047C04BCF9
:10D13000049C045C041C2C9C9E7EDF7FFFFFFFFF91
:10D14000FFFFFFFFF7DFD77FAEDE5D9D0C3C045C89
:10D15000049C049C049C041C249C965EEFBFFFFF6F
:10D16000FFFFFFFFFFFFFFFFFFFFFFFFFFFFFFFFCF
:10D17000FFFFFFFFFFFFFFFFFFFFFFFFFFFFFFFFBF
:10D18000FFFFFFFFFFFFFFFFFFFFFFFFCEFF54BDCD
:10D1900034BC3CDC3CDC3CDC3CDC3CDC3CDC3CDCF7
:10D1A0003CDC3CDC3CDC3CDC3CDC3CDC3CDC3CDCBF
:10D1B0003CDC3CDC3CDC3CDC3CDC3CDC3CDC3CDCAF
:10D1C0003CDC3CDC3CDC3CDC3CDC3CDC3CDC3CDC9F
:10D1D0003CDC3CDC3CDC3CDC3CDC3CDC3CDC3CDC8F
:10D1E0003CDC3CDC3CDC3CDC3CDC3CDC3CDC3CDC7F
:10D1F0003CDC3CDC3CBC347C54FDA6BEF7DFFFFFCE
:10D20000FFFFFFFFFFFFFFFFFFFFFFFFFFFFFFFF2E
:10D21000FFFFFFFFDF5F551D249C149C047C047CF2
:10D22000047C047C047C047C047C047C047C047CFE
