:020000040800F2
:1000000080680020C50100088D130008110E00084B
:1000100089130008410C0008751600080000000054
:10002000000000000000000000000000BB130008FA
:10003000B90D000800000000B91300080D150008F4
:10004000DF010008DF010008DF010008DF01000810
:10005000DF010008DF010008BD0D0008DF01000816
:10006000DF010008DF010008DF010008DF010008F0
:10007000DF010008DF010008DF010008DF010008E0
:10008000450C0008DF010008DF010008DF0100085F
:10009000DF010008DF010008DF010008DF010008C0
:1000A000DF010008DF010008DF010008DF010008B0
:1000B000DF010008DF010008DD150008DF0100088E
:1000C000DF010008DF010008DF010008DF01000890
:1000D000DF010008DF010008DF010008DF01000880
:1000E000DF010008DF010008DF010008DF01000870
:1000F000DF010008DF010008DF010008DF01000860
:10010000DF010008DF010008DF010008DF0100084F
:10011000DF010008DF01000839160008DF010008D0
:10012000DD0C0008DF010008DF010008DF01000826
:10013000DF010008DF010008DF010008DF0100081F
:10014000DF010008DF010008DF010008DF0100080F
:10015000DF010008DF010008DF010008DF010008FF
:10016000DF010008DF010008DF010008DF010008EF
:10017000DF010008DF010008DF01000800000000C7
:10018000DF010008DF010008DF010008DF010008CF
:10019000DF010008DF010008DF01000800000000A7
:1001A000DF010008DF010008DF010008DFF810D0E0
:1001B00000F034FD004800474D290008AFF30080EF
:1001C000806800200648804706480047FEE7FEE7B3
:1001D000FEE7FEE7FEE7FEE7FEE7FEE7FEE7FEE7F7
:1001E00015150008AD0100089FED3D0A5FEA920C6D
:1001F00057D000BFD0ED000A90ED011A0B1D60EE44
:10020000A00A083041EE010AF5EEC00AF1EE10FA3C
:10021000A6BFB1EEE01A81ED001A81ED000AD0ED23
:10022000000A90ED011A191D60EEA00A083041EE97
:10023000010AF5EEC00AF1EE10FAA6BFB1EEE01A1F
:1002400083ED001A83ED000AD0ED000A90ED011A4B
:100250000B1D60EEA00A083041EE010AF5EEC00A5F
:10026000F1EE10FAA6BFB1EEE01A81ED001A81EDB1
:10027000000A90ED001AD0ED010A191D21EE011AB5
:10028000083000EEA01AB5EEC01AF1EE10FAA6BFC3
:10029000F1EEC10AC3ED000A83ED000ABCF1010CC6
:1002A000A8D112F0030208BF704700BFD0ED000ACA
:1002B00090ED011A0B4660EEA00A091D083041EED0
:1002C000010AF5EEC00AF1EE10FAA6BFB1EEE01A8F
:1002D00083ED001A83ED000A521EE7D1704700003B
:1002E000000000002DE9F04F8D082DED048B82B049
:1002F0000026AC463446019506EB0C0909EB0C0AC6
:100300000AEB0C0800EBC60700EBC90900EBCA0AB0
:1003100000EBC80897ED003AD9ED003ADAED006A33
:1003200098ED006A97ED010ADAED014A33EE265A9C
:1003300073EE860A99ED014AD8ED015A30EE241A7F
:100340004FEA440B02EBCB0E70EE644A74EE251AB2
:1003500035EE200A9EED002ADEED012A87ED000A27
:1003600031EE210A73EEC63A34EE656A87ED010A72
:1003700035EE600A33EE663A71EE610A02EBC407AD
:1003800074EEE35A33EE064A97ED005A73EEA41A60
:10039000D7ED014A33EE461A24EE056A0BEB04074B
:1003A00025EE855A02EBC70760EE026A65EEA45A95
:1003B00024EE244A97ED003AD7ED013A60EEA24AC6
:1003C00020EE822A21EE037A20EE220A61EEA30AB1
:1003D00021EE833A61EE231A76EEA42A32EE400A29
:1003E00036EE251A75EE443AC9ED002A77EE200A5A
:1003F00089ED010A73EE611A8AED001ACAED013A1D
:10040000C8ED000AC8ED011A1C446D1E06F1010674
:100410007FF472AF4FF6FF7404EA830B019B0093E5
:10042000042B7CD966464FEA9C0C4FF00008C1466D
:10043000ACF1010E4FEA480303EB080402EBC303DF
:1004400002EBC80593ED003AD3ED014A02EBC40379
:1004500095ED005AD5ED015A93ED006A93ED014AEE
:10046000D8444B4603EB0C0404EB0C0707EB0C0AD7
:1004700000EBC30500EBC70700EBC40400EBCA0A9E
:10048000D5ED003A97ED007AD4ED008A9AED008A16
:1004900095ED010AD4ED010AD7ED017ADAED011AE2
:1004A00033EEC72A70EE676A70EEE12A33EE877A80
:1004B00078EE883A30EE270A38EEC81A70EEA11AA4
:1004C00072EE227A32EE622A77EE232A70EE618A89
:1004D00036EEC18A30EE210A77EE630A31EE261A33
:1004E000C5ED002A85ED010A28EE050A67EE856A4A
:1004F00028EE258A20EE837A20EEA49A68EE831AED
:1005000062EE062A61EE063A62EE040A67EEA57A0A
:1005100068EEA48A21EE041A36EE882A00E027E06D
:1005200077EE286A71EEC91A30EE670AC4ED006AE8
:1005300032EE811AC4ED011A73EEE00A87ED002A4B
:1005400087ED010A8AED001A3344CAED010A8B4295
:1005500088D309F10109F1457FF66CAF4FF6FF73BF
:1005600003EA8B0B009B9B080093042B3FF65AAFCA
:10057000DDF8041090ED000AD0ED042A90ED025A47
:1005800090ED031AD0ED064A90ED073A30EE222A9C
:10059000D0ED011AD0ED050A75EE243A31EE034A8A
:1005A00030EE620A71EEA02A31EE431A32EE233A9F
:1005B00071EEE00A75EE641A72EE844A32EE632A36
:1005C00072EEC43A80ED003A70EE012AC0ED014AA5
:1005D00030EEE14A80ED022A30EE410AC0ED033AE6
:1005E00071EEA00AC0ED042A80ED054A80ED060AEE
:1005F000C0ED070A2030491EBCD102B0BDEC048B0F
:10060000BDE8F08F2DE9F04F4FEA910A2DED048BF4
:1006100082B00024D446A046CDF804A004EB0C051B
:1006200005EB0C0606EB0C0900EBC40700EBC60655
:1006300000EBC50500EBC909D7ED011AD6ED012A7B
:1006400095ED006AD9ED006AD7ED005A96ED007A73
:10065000D5ED010A99ED011A36EE262A71EEA23A7D
:1006600035EE873A71EEE21A30EE815A70EEC12A09
:100670004FEA480B02EBCB0E73EE020A9EED004AE6
:10068000DEED014AC7ED000A73EE850A36EE666AB2
:1006900075EEC75AC7ED010A33EE422A02EBC807CE
:1006A00031EE861A33EEC53A71EEC61A97ED006A3E
:1006B00097ED015A75EEE20A0BEB080702EBC7074C
:1006C00075EEA22AD7ED005AD7ED013A60EE866AA0
:1006D00022EE047A62EEA57A23EE044A21EE066A3F
:1006E00061EEA55A60EE850A23EE243A22EE242A12
:1006F00021EE051A61EEA31A62EEA32A76EE203AE5
:1007000037EE433A74EE020A36EEC11A85ED003A2E
:1007100077EEE11AC5ED010A35EEA22A86ED001A40
:10072000C6ED013AC9ED001A641C89ED012A98440E
:10073000BAF1010A7FF472AF4FF6FF7404EA830B3B
:10074000019B0093042B7CD966464FEA9C0C4FF02A
:100750000008C146ACF1010E4FEA480303EB080460
:1007600002EBC30302EBC805D3ED003A93ED017A27
:1007700002EBC403D5ED006AD5ED015AD3ED004A72
:1007800093ED013AD8444B4603EB0C0404EB0C0701
:1007900007EB0C0A00EBC30500EBC70700EBC40432
:1007A00000EBCA0A95ED012A97ED018A95ED001A32
:1007B000D4ED008AD4ED017A97ED009ADAED001AB3
:1007C000DAED010A32EE485A71EE492A38EEE14A72
:1007D00032EE082A37EEA08A37EEE06A78EEA11AE8
:1007E00031EE091A75EE048A72EEC67A72EE862A26
:1007F00071EE610A31EE211A35EE444A32EE489A22
:1008000085ED001A32EE081A28EEA66A27EEA65ADF
:1008100068EEA58A85ED011A20EEA31A69EE231A67
:1008200022EEA42A24EE248A67EEA57A29EE079AFE
:1008300060EE870A24EE034A62EE832A35EE685A98
:1008400000E027E036EE276A71EE497A31EEA01A11
:1008500072EE440AC4ED007A84ED011A78EE221A91
:1008600087ED005A87ED016ACAED000A3344CAEDEC
:10087000011A8B4288D309F10109F1457FF66CAF6B
:100880004FF6FF7303EA8B0B009B9B080093042B2E
:100890003FF65AAFDDF8041090ED003AD0ED044A6F
:1008A000D0ED032A90ED071A90ED024AD0ED061A1A
:1008B000D0ED013AD0ED050A33EE242A72EE815ACA
:1008C00033EE643A34EE215A73EEA04A73EEE03A06
:1008D00032EEC11A74EE610A32EE454A72EE052A12
:1008E00074EEA51A34EEE55A73EE414A33EEA02AAF
:1008F00033EE011A33EEE03A62EE805A61EE800A7E
:1009000064EE003A65EE002AC0ED005A64EE801AEB
:10091000C0ED010A22EE002AC0ED023A21EE004AA3
:10092000C0ED032A23EE001AC0ED041A80ED052A5B
:1009300080ED064A80ED071A2030491EACD102B086
:10094000BDEC048BBDE8F08F70B504460D46807891
:100950002188A389626801280ED02846FFF7C2FCCF
:10096000E078012818BF70BDE28921882846A36875
:10097000BDE8704000F066B894ED040A2846FFF721
:1009800041FEEDE710B40180234C446082704FF0CB
:10099000000CC370B1F5807F20D004DC10292FD06B
:1009A000402923D005E0B1F5806F0FD0B1F5805F0D
:1009B00004D04FF0FF3C10BC60467047012181819C
:1009C000C18116499FED160A816016E004218181DC
:1009D000C18114499FED140A81600EE010218181CC
:1009E000C18112499FED120A816006E04021818198
:1009F000C18110499FED100A816080ED040ADAE799
:100A00004FF480718181C1810C499FED0D0A816095
:100A100080ED040ACFE700002C4300082C3B0008BF
:100A200000008039323B00080000803A4A3B000851
:100A30000000803BAA3B00080000803C2A3D0008E3
:100A40000000803D2DE9F0014E0801244FF0000C1C
:100A500004EB51076146A6F102082CE061452AD259
:100A600000EBCC0500EBC104D5ED000A94ED000AC3
:100A7000C4ED000A85ED000AD5ED010A94ED010AE6
:100A8000C4ED010A85ED010ACC1900EBC4050CEB9D
:100A9000070400EBC40495ED000AD4ED000AC5ED8F
:100AA000000A84ED000AD4ED010A95ED010AC5EDB6
:100AB000010A84ED010A00EBC104B44400EBCC0C44
:100AC00094ED020ADCED000A891CC4ED020A8CEDEB
:100AD000000ADCED010A94ED030AC4ED030A8CED73
:100AE000010AB3F800C089B203EB42034145B5D90E
:100AF000BDE8F00170472DE9F0074D0801244FF0E3
:100B0000000C04EB51066146A5F102082BE061459B
:100B100029D250F8314050F83C7040F8317040F81C
:100B20003C4000EBC10900EBCC04D9F80470D4F8C8
:100B300004A0C9F804A067608C190CEB060750F8F4
:100B4000349050F837A040F834A040F8379000EBCC
:100B5000C40400EBC707D4F80490D7F804A0C4F885
:100B600004A0C7F8049000EBC104AC44A76850F897
:100B70003C90C4F8089040F83C7000EBCC0CE7685F
:100B8000DCF80490C4F80C90CCF80470B3F800C002
:100B9000891C03EB42034145B9D9BDE8F007704712
:100BA0002DE9F00F01244F0804EB51084FF0000C21
:100BB0007C0804BFBDE8F00F7047014600EB8805D4
:100BC000002614E0BCEB460F11D950F82CA0D1F848
:100BD0000090C1F800A040F82C900CEB0809D5F863
:100BE00000A050F829B0C5F800B040F829A0BC44D6
:100BF00051F8049F50F82CA041F804AB40F82C9019
:100C0000B3F800C003EB4203641E05F1080506F1CA
:100C10000106D7D1BDE8F00F70470000064C074D24
:100C200006E0E06840F0010394E8070098471034BC
:100C3000AC42F6D3FFF7BEFA2CC300084CC3000841
:100C400000BFFEE710B580211E4801F0BCFD1E4824
:100C50000078401CC0B21C49087004281BDA4FF60B
:100C6000FF701A49C8604FF4164018498C3108606B
:100C700017480068144909784FF4164202FB010036
:100C80001249C1F894000846D0F8880040F00100ED
:100C9000C1F8880014E0202205210C4801F0E8F892
:100CA00000BF0C48006800F080000028F9D1042142
:100CB000044801F086FD00200349087006490870C9
:100CC00010BD0000000C024019000020006002402E
:100CD00014000020083C00401800002010B5082136
:100CE0000C4801F070FD01200B4908701022002112
:100CF0000A4801F0DCF8012803D1002008490870F7
:100D000002E001200649087030220021034801F06A
:100D1000AFF810BD001802401D0000200064024022
:100D20001C0000200146042900DD042100200BE006
:100D300001EBC10202EB0112054B03EB8202125CD4
:100D4000044B1A54421CD0B26428F1DB70470000F7
:100D500038390008383500204CF25031884200DD27
:100D60000846B0F57A7F09DD0021104A116010496C
:100D700091FBF0F1491E121D116015E00A2809DDF2
:100D800009210A4A11600B4991FBF0F1491E121D1D
:100D9000116009E03121054A116049F6404191FB9B
:100DA000F0F1491E121D1160704700002814004028
:100DB00080841E00400D03007047000010B5012024
:100DC00001F088FC01280FD10121084801F0FDFC49
:100DD000012803D106A000F04FFC02E008A000F0BB
:100DE0004BFC012001F070FC10BD0000000002402F
:100DF0006B6579207072657373210D0A0000000025
:100E00006B65792072656C65617365210D0A000060
:100E100000BFFEE72DE9F04107460C4615461E4689
:100E20002A2000F0A9F9384600F096F9284600F08B
:100E300093F92B2000F0A0F9204600F08DF9304600
:100E400000F08AF92C2000F097F9BDE8F08100004D
:100E50002DE9F04706460F4614461D46DDF8208072
:100E6000681E83B2601E82B239463046FFF7D2FF59
:100E70000421144801F0A3FCB94613E0B2460BE08C
:100E80004FEA282000F032FB08F0FF0000F02EFBB4
:100E90000AF101001FFA80FAA245F1DB09F1010015
:100EA0001FFA80F9A945E9DB00BF8021064802F05E
:100EB00005F80128F9D00421024801F082FCBDE8C0
:100EC000F0870000000C0240003C004010B54FF4D9
:100ED000406001F095FF4FF4004301221146104895
:100EE00001F07BFC4FF40043022200210C4801F08A
:100EF0009BFC4FF400410A4801F061FC40F60340BE
:100F000001F07EFF4C2301221146064801F065FCEA
:100F10004C2302220021034801F086FC10BD000092
:100F200000000240000C024010B500F07FFAFFF70D
:100F3000CDFF08216E4801F042FC642000F0CEFE97
:100F400008216B4801F03DFC642000F0C7FE4FF41F
:100F50000041684801F035FC4FF4FA7000F0BEFE25
:100F6000112000F009F9642000F0B8FE362000F0EE
:100F700003F9702000F0F9F83A2000F0FDF80520A0
:100F800000F0F3F8B22000F0F7F80C2000F0EDF8D4
:100F90000C2000F0EAF8002000F0E7F8332000F021
:100FA000E4F8332000F0E1F8B72000F0E5F8352050
:100FB00000F0DBF8BB2000F0DFF8352000F0D5F8BA
:100FC000C02000F0D9F82C2000F0CFF8C22000F0AB
:100FD000D3F8012000F0C9F8C32000F0CDF81320A9
:100FE00000F0C3F8C42000F0C7F8202000F0BDF8DE
:100FF000C62000F0C1F80F2000F0B7F8CA2000F0BA
:10100000BBF80F2000F0B1F8C82000F0B5F80820B8
:1010100000F0ABF8552000F0AFF8902000F0A5F8F4
:10102000D02000F0A9F8A42000F09FF8A12000F043
:101030009CF8E02000F0A0F8D02000F096F8002006
:1010400000F093F8062000F090F8092000F08DF8E9
:101050000B2000F08AF82A2000F087F83C2000F0EE
:1010600084F8552000F081F84B2000F07EF808202D
:1010700000F07BF8162000F078F8142000F075F8E6
:10108000192000F072F8202000F06FF8E12000F045
:1010900073F8D02000F069F8002000F066F8062010
:1010A00000F063F8092000F060F80B2000F05DF814
:1010B000292000F05AF8362000F057F8542000F0AC
:1010C00054F84B2000F051F80D2000F04EF8162097
:1010D00000F04BF8142000F048F8212000F045F80B
:1010E000202000F042F8292000F046F810BD000052
:1010F000000C02400000024010B504461248046093
:10110000012012490870EF2340F23F1200210846E7
:10111000FFF780FE04210E4801F051FB4FF6FF70EF
:101120000C49C8604FF416400A498C3108600648E3
:1011300000680849C1F894000846D0F8880040F0DB
:101140000100C1F8880010BD140000201800002024
:10115000000C02400060024010B50446201200F06E
:101160001BF8E0B200F018F810BD10B50446204698
:1011700000F012F810BD000010B5044640210548EB
:1011800001F01DFB204600F007F84021014801F066
:1011900018FB10BD000C024010B5044604210548A0
:1011A00001F00DFB204600F07FF90421014801F019
:1011B00008FB10BD000C024070B50446049DF02AE7
:1011C00000DBEF22F02B00DBEF239A420EDA104611
:1011D00009E0C0F1EF0606EB860604EBC61626F81A
:1011E0001150461CF0B29842F3DB18E09A420EDD33
:1011F000184609E0C0F1EF0606EB860604EBC616BA
:1012000026F81150461CF0B29042F3DB07E0C2F121
:10121000EF0606EB860604EBC61626F8115070BDE5
:10122000F8B507463D46002404E0002025F8020BEF
:10123000601C84B2B4F5A07FF7DB01262BE0002010
:1012400025F8020B142096FBF0F100FB116058B951
:10125000012405E043F2840025F8020B601C84B2EF
:10126000B4F5A07FF6DB14E001240FE0192094FB15
:10127000F0F100FB114020B943F2840025F8020B85
:1012800002E0002025F8020B601C84B2B4F5A07FB8
:10129000ECDB701C86B2F02ED1DB00240FE04EF2A6
:1012A00007001F490090601C11F81030084610F824
:1012B000142021463846FFF77FFF601C84B2B4F546
:1012C0009F7FECDD4EF207000090154890F87E32CB
:1012D00090F87E2221463846FFF76EFF00240FE08B
:1012E0004EF2FF000F490090601C11F810300846C4
:1012F00010F8142021463846FFF75EFF601C84B2C8
:10130000B4F59F7FECDD4EF2FF000090054890F8A9
:101310007E3290F87E2221463846FFF74DFFF8BD19
:1013200038300020B83200201FB5012200211E20D5
:1013300001F068FC41F2020001F062FD4FF08070A4
:1013400001F094FD0F4802F041F8C720ADF800000D
:101350000020ADF80200ADF804004CF24F300290CE
:101360000020ADF806008DF80C006946054802F033
:10137000F5F80121034802F03DF9024802F0E8F8CF
:101380001FBD00000008004000BFFEE770470000DE
:1013900010B5002807DA0A07140E054A00F00F03FB
:1013A0001B1FD45403E00A07130E024A135410BD46
:1013B00018ED00E000E400E07047704700B589B028
:1013C00040F6154001F01CFD0521164800F0DFFC39
:1013D0004020069000200290039004904FF41640A5
:1013E000079011480090012001904FF44030089080
:1013F0006A4605210B4800F05DFE0521094800F012
:10140000A6FC00220521074800F08EFC10220521D1
:10141000044800F00EFD00221146102001F0F2FBFE
:1014200009B000BD006002400C3C004000B587B030
:1014300040F6024001F0E4FC41F20F0001F0E0FC54
:101440004FF4E0520621164801F08AF94FF4E053B8
:1014500000220221124801F0C0F94FF4E0530222A9
:1014600000210F4801F0E0F9002001904FF4827054
:10147000009000200290032005904FF4007003902C
:101480000020069004906946064801F01FFD0021E7
:10149000044801F0FDFC034801F005FD07B000BD64
:1014A00000080240003C004010B5044600BF022185
:1014B0000D4801F003FD0028F9D021460A4801F04B
:1014C000FBFC00BF0121084801F0F8FC0028F9D01E
:1014D00000BF8021044801F0F1FC0128F9D0024846
:1014E00001F0E6FCC0B210BD003C004010B504465F
:1014F00000BF0221044801F0E1FC0028F9D0214698
:10150000014801F0D9FC10BD003C004010B500F0CE
:10151000EFFB10BD08B52D48006840F470002B4962
:1015200008602B48006840F00100294908602848FD
:101530000830006840F0800025490831086000202C
:10154000009002E00098401C00904CF2503100984E
:101550008842F7D31E480830006840F090001C49CC
:10156000083108600020009002E00098401C0090C4
:101570004CF2503100988842F7D315480830006883
:1015800020F0030012490831086011480068114931
:1015900008400F4908600846006820F48020086071
:1015A00000200B490831086000BF09480830006876
:1015B00000200028F9D108480549091D08600020CD
:1015C00003490C31086001F06FFD08BD88ED00E0B3
:1015D00000380240FFFFF6FE1030002410B5012154
:1015E0000F4802F00BF80F480078C0B108210E48F0
:1015F00001F0E9F800200B4908700C48007818B198
:101600000B48FFF779FD02E00A48FFF775FD074830
:10161000007808B9012000E000200449087010BDDE
:10162000000800401B000020001002401A000020AB
:10163000000000C0005802C010B50121064801F0AA
:10164000E0FF012806D10121034801F0D7FF03A0E4
:1016500000F012F810BD0000001000404253505F2F
:1016600054494D45525F49525148414E444C4552B0
:10167000210D0A0000BFFEE7014A024900F013B83D
:10168000F92600082000002002E008C8121F08C147
:10169000002AFAD170477047002001E001C1121FF3
:1016A000002AFBD170472DE9F04116460F4604464B
:1016B000002503E03946B047641C6D1C20780028E3
:1016C000F8D12846BDE8F081816841F008018160C9
:1016D00000BF816801F008010029FAD1816841F05A
:1016E0000401816000BF816801F004010029FAD182
:1016F000704730B5012902D0022920D10FE06AB12C
:10170000102A0BD8C36A23F47003C362C36A541E41
:101710004FF4700505EA04542343C36210E06AB134
:10172000042A0BD8836B23F440138363836B541E0A
:101730004FF4401505EA04542343836300E000BFDF
:1017400000BF30BD0649096821F4E021054AC2F80E
:1017500004131146D1F804130143C2F8041370476F
:10176000042301400020014000B591B04FF44060D7
:1017700001F046FB41F2081001F042FB4FF48050AB
:1017800001F03EFB4FF0807001F070FB40F6164018
:1017900001F036FB022300220321534801F01DF81B
:1017A0000020ADF80400ADF80600ADF80800632095
:1017B00003900020ADF80A008DF8100001A94FF049
:1017C000804001F0CBFE0020ADF818000120ADF8FC
:1017D000140005AA0221800701F094FC31220221A5
:1017E000480701F0B2FD70220221480701F080FD98
:1017F00000220221480701F0BBFD4FF0804001F0BC
:10180000A7FE0021394800F0C2FA394808900120AB
:10181000099038480A9000200B904FF400600C901B
:1018200000200E904FF47A600F904FF4003010902B
:1018300008AA00212D4800F03DFC002211462B484B
:1018400000F072FA0021294800F091FA002127489F
:1018500000F05AFA18220021244800F0EAFA002287
:101860001146382001F0CEF94FF48020FFF76AFFCF
:10187000012211461E484C38FFF73BFF002301228E
:1018800019461B484C3800F087F8022201211848FD
:101890004C3800F04FF84FF08062012114484C386A
:1018A00000F062F8002112484C3800F025F80021C1
:1018B0000F484C3800F0C6F80D484C3800F02CF8B2
:1018C0000B484C3800F023F809484C3800F029F850
:1018D000012000F003FA06484C38FFF7F5FE0A2015
:1018E00000F0FCF911B000BD0000024000640240AD
:1018F0004C200140A035002021B1826842F40062F2
:10190000826003E0826822F400628260704781682E
:1019100041F4807181607047816841F40071816099
:101920007047816801F0010119B9816841F0010136
:1019300081607047012902D0022912D108E0836832
:1019400023F040538360836843EA0273836009E0B5
:10195000836823F440138360836843EA02538360FF
:1019600000E000BF00BF7047012902D0022910D15A
:1019700007E0836823F070638360836813438360A8
:1019800008E0836823F470238360836813438360D3
:1019900000E000BF00BF7047F0B51D4606290CDA15
:1019A000436B01EB81071F26BE40B34301EB810669
:1019B00002FA06F63343436322E00C290EDA036B86
:1019C0008E1F06EB86071F26BE40B3438E1F06EB15
:1019D000860602FA06F63343036311E010290FDA94
:1019E000C36AA1F10C0606EB86071F26BE40B3436F
:1019F000A1F10C0606EB860602FA06F63343C36233
:101A00000A2A0CDA046902EB42070726BE40B443F7
:101A100002EB420605FA06F63443046111E0122A8D
:101A20000FDCC468A2F10A0606EB46070726BE4093
:101A3000B443A2F10A0606EB460605FA06F634435D
:101A4000C460F0BD426822F04072426042680A43BE
:101A50004260704710B540F6054001F0D1F94FF4EF
:101A6000806301221146164800F0B7FE4FF48063F0
:101A700002220021124800F0D7FE4FF48061104886
:101A800000F09FFE40F6014001F0BAF94FF4D07328
:101A9000012211460B4800F0A0FE4FF4D073022241
:101AA0000021084800F0C0FE4FF4D071054800F056
:101AB00088FE4FF4D071034800F081FE10BD000095
:101AC000001402400004024001218140491E4FF0F1
:101AD000804291627047000010B504462CB94FF463
:101AE0008061054800F06BFE04E04FF4806102481D
:101AF00000F067FE10BD00000014024000B589B080
:101B00004FF4406001F07CF92023002203212B4890
:101B100000F063FE41F21D0001F072F900F058F888
:101B20001021012000F0A6F8012000F091F800211A
:101B3000012000F0B9F8012000F078F8012000F051
:101B400063F8012000F04EF840F6154001F058F916
:101B5000072206211A4800F0E7F81A4800901A48B0
:101B60000290402006906420079001200190002000
:101B7000039004904FF440300890002005906A468E
:101B800006210F4800F096FA06210D4800F0BCF837
:101B900041F2050001F034F9012209210B4801F05E
:101BA00044FDFF21094801F0ABFA2021074801F06C
:101BB00034FD064801F0CCFC09B000BD0000024035
:101BC000006002401C7400403835002000140040C2
:101BD00010B540F61D0001F037F940F61D0001F088
:101BE00021F910BD30B90749096841F48051054A0F
:101BF000116005E00349096841F08051014A116014
:101C0000704700000074004030B90749096841F08E
:101C10000101054A116005E00349096841F480317A
:101C2000014A1160704700000074004030B9074954
:101C3000096821F00201054A116005E003490968BD
:101C400021F40031014A1160704700000074004027
:101C500030B90749096841F00401054A116005E0FF
:101C60000349096841F48021014A1160704700006E
:101C70000074004050B90B4A126822F03802094B38
:101C80001A601A4612680A431A600AE0054A126886
:101C900022F46012034B1A601A46126842EA0142AB
:101CA0001A6070470074004050B90B4A126822F065
:101CB000C002094B1A601A4612680A431A600AE009
:101CC000054A126822F44002034B1A601A46126851
:101CD00042EA01421A6070470074004003490860FC
:101CE00000BF024909680029FBD1704700000020AD
:101CF0000448006820B103480068401E014908609C
:101D0000704700000000002010B501EB4102D30035
:101D100000F11002D25842F0010301EB4102D4005D
:101D200000F11002135110BD30B5134601EB410410
:101D3000E50000F11004625922F0606242EA436259
:101D400001EB4104E50000F11004625130BD10B513
:101D500001EB4102D30000F11002D25822F480734B
:101D600001EB4102D40000F11002135110BD10B577
:101D700001EB4102D30000F11002D25842F480730B
:101D800001EB4102D40000F11002135110BD10B557
:101D900001EB4102D30000F11002D25822F00103FE
:101DA00001EB4102D40000F110021351002301EBBA
:101DB0004102D40000F11002135101EB4102D400A2
:101DC00000F11402135101EB4102D40000F118029A
:101DD000135101EB4102D40000F11C02135101EB3D
:101DE0004102D40000F12002135101EB4102D40062
:101DF00000F12402135104290CDA01EB41025300D3
:101E0000C1F3400203EB82033D229A4083681A43E8
:101E100082600DE00A1FD1B201EB41025300C1F311
:101E2000400203EB82033D229A40C3681A43C2601A
:101E300010BD30B5802A0DD001EB4103DC0000F16C
:101E400010031B59134301EB4104E50000F110049A
:101E500063510CE001EB4103DC0000F124031B594A
:101E6000134301EB4104E50000F12404635130BD4C
:101E700010B504290CDA01EB41035C00C1F3400307
:101E800004EB830302FA03F38468234383600DE0C9
:101E90000B1FD9B201EB41035C00C1F3400304EB1B
:101EA000830302FA03F3C4682343C36010BDF0B593
:101EB0000346002500260C46042979DA082A34D086
:101EC00004DC012A07D0042A70D119E0102A41D07D
:101ED000202A6BD153E001EB41004700C1F34000E1
:101EE00007EB800702FA07F01F6800EA070601EB1C
:101EF0004100C70003F12400C05900F0800556E0FE
:101F000001EB41004700C1F3400007EB800702FAF4
:101F100007F01F6800EA070601EB4100C70003F164
:101F20001000C05900F0020541E001EB41004700FC
:101F3000C1F3400007EB800702FA07F01F6800EAD0
:101F4000070601EB4100C70003F11000C05900F083
:101F500004052CE001EB41004700C1F3400007EB12
:101F6000800702FA07F01F6800EA070601EB41004C
:101F7000C70003F11000C05900F0080517E001EB9D
:101F800041004700C1F3400007EB800702FA07F069
:101F90001F6800EA070601EB4100C70003F11000CB
:101FA000C05900F0100502E002E0FFE700BF7AE050
:101FB000201FC4B2082A34D004DC012A07D0042A26
:101FC0006FD119E0102A41D0202A6AD153E004EBE6
:101FD00044004700C4F3400007EB800702FA07F013
:101FE0005F6800EA070601EB4100C70003F1240027
:101FF000C05900F0800555E004EB44004700C4F3ED
:10200000400007EB800702FA07F05F6800EA070666
:1020100001EB4100C70003F11000C05900F00205B8
:1020200040E004EB44004700C4F3400007EB8007A6
:1020300002FA07F05F6800EA070601EB4100C700FB
:1020400003F11000C05900F004052BE004EB44003C
:102050004700C4F3400007EB800702FA07F05F680F
:1020600000EA070601EB4100C70003F11000C05968
:1020700000F0080516E004EB44004700C4F34000FC
:1020800007EB800702FA07F05F6800EA070601EB3A
:102090004100C70003F11000C05900F0100501E035
:1020A000FFE700BF00BF16B10DB10120F0BD002059
:1020B000FCE7000070B501EB4104E50000F12404E9
:1020C000645924F0040501EB4104E60000F1240406
:1020D000A55101EB4104E60000F118041568A55173
:1020E00001EB4104E60000F11C049568A55101EBE9
:1020F0004104E60000F11404D569A55101EB410447
:10210000E50000F1100463593F4C2340146944EA90
:102110008404156A2C4395692C43234301EB410445
:10212000E50000F110046351546874B901EB4104F7
:10213000E50000F11004645944F4007501EB41041A
:10214000E60000F11004A5511FE05468012C0ED1E7
:1021500001EB4104E50000F11004645924F400751A
:1021600001EB4104E60000F11004A5510DE001EB84
:102170004104E50000F11004645944F4004501EB0A
:102180004104E60000F11004A551D46874B901EBD4
:102190004104E50000F11004645944F4806501EB4A
:1021A0004104E60000F11004A5510DE001EB4104EB
:1021B000E50000F11004645924F4806501EB41044A
:1021C000E60000F11004A551546974B901EB410413
:1021D000E50000F11004645944F4807501EB4104FA
:1021E000E60000F11004A5510DE001EB4104E5000B
:1021F00000F11004645924F4807501EB4104E600F9
:1022000000F11004A55170BD3F87FCFF024600237A
:10221000012A03D0022A01D0032A04D15001A0F1DF
:10222000C040436C01E00548036803EA01008842AE
:1022300001D0002070470120FCE70000580100A0F9
:10224000D0E90221114342681143026841EA422168
:10225000014A116070470000500100A070B5056888
:10226000042D3AD1D0E908653543C66935438669FE
:10227000354346693543066945EA4625C668354310
:10228000866845EA063546683543384E3560856AC6
:10229000AD696D1E866A7669761E45EA0616856A00
:1022A0002D696D1E46EA0526856AED686D1E46EAB3
:1022B0000536856A2D896D1E46EA0546856AAD8814
:1022C0006D1E46EA0556856A2D786D1E46EA05653F
:1022D0004FF02046C6F8485147E0244D2D6825F4BC
:1022E000F841D0E902653543466835432943D0E9D2
:1022F00008653543C66935438669354346693543C4
:10230000066945EA06044FF02045C5F84011C5F8B6
:102310004441D5F84851164E05EA0602856AED6833
:102320006D1E2E03856AAD886D1E46EA0556856AC8
:102330002D896D1E46EA05452A43856AAD696D1EE5
:10234000866A7669761E45EA0616856A2D696D1ECF
:1023500046EA0526856A2D786D1E46EA05634FF02C
:102360002045C5F84821C5F84C3170BD400100A09A
:10237000FF0F00FF074A126843F6FE7322EA0301CB
:102380001A4602EA40020A434FF02043C3F85421A0
:1023900070470000540100A0F0B597B00646002732
:1023A0004FF6FF744FF4606000F02AFD40F60140E4
:1023B00000F026FD40F6024000F022FD40F603400A
:1023C00000F01EFD40F6044000F01AFD40F6054006
:1023D00000F016FD40F6064000F012FD40F6074002
:1023E00000F00EFD0D220C217F4800F0B9F90D23FD
:1023F000012202217C4800F0F0F90D230222002185
:10240000794800F011FA4CF203720C21774800F081
:10241000A7F94CF2037301220221744800F0DDF9A0
:102420004CF2037302220021704800F0FDF94FF6D0
:1024300083720C216E4800F093F94FF683730122EA
:1024400002216B4800F0C9F94FF683730222002184
:10245000674800F0E9F94FF63F020C21654800F0AB
:102460007FF94FF63F0301220221624800F0B5F9DF
:102470004FF63F03022200215E4800F0D5F948F2F2
:1024800037120C215C4800F06BF948F23713012237
:102490000221594800F0A1F948F237130222002125
:1024A000554800F0C1F9042E01D1102500E008259F
:1024B00002200B9008200A90052009900720089020
:1024C000022007900320069005900C96012015909D
:1024D000082014901020139040201290800011903A
:1024E000002010904FF400600F9001200E904003E8
:1024F0000D9005A816900CA8FFF7B0FE01200490DF
:10250000039500200290019000E0641E20213046D7
:10251000FFF77CFE08B1002CF7D114B9002017B0EA
:10252000F0BD01A8FFF78CFE0A20FFF7D7FB0220C1
:10253000049003950020029001904FF6FF7400E094
:10254000641E20213046FFF761FE08B1002CF7D150
:102550000CB90020E3E701A8FFF772FE0320049006
:102560000395E0200290002001904FF6FF7400E0F8
:10257000641E20213046FFF749FE08B1002CF7D138
:102580000CB90020CBE701A8FFF75AFE4FF40877FB
:102590000420049003950020029001974FF6FF74E9
:1025A00000E0641E20213046FFF730FE08B1002C09
:1025B000F7D10CB90020B2E701A8FFF741FE40F2C5
:1025C000F920FFF7D7FE4FF6FF7400E0641E2021CC
:1025D0003046FFF71BFE08B1002CF7D10CB90020E4
:1025E0009DE701209BE7000000080240000C02402C
:1025F00000100240001402400018024010B52D4B9C
:102600001B6883432B4C2360231D1B688343241DBD
:102610002360231D1B688343241D2360231D1B6827
:102620008343241D236011B101290ED105E0214B04
:102630001B6803431F4C236008E01E4B1B1D1B68D7
:1026400003431C4C241D236000E000BF00BF32B1D7
:10265000012A11D0022A1CD0032A27D127E0154BCA
:1026600008331B680343134C08342360231D1B6885
:102670008343241D23601BE00E4B08331B688343F8
:102680000C4C08342360231D1B680343241D236066
:102690000EE0084B08331B680343064C08342360E4
:1026A000231D1B680343241D236001E000BF00BFFE
:1026B00000BF10BD003C0140024909680143014AC6
:1026C00011607047003C01400149086070470000FC
:1026D000143C014001460748006800EA0102054831
:1026E0001438006800EA010312B10BB101207047F1
:1026F0000020FCE7143C014070B504460D46E0B2F2
:1027000001F0F2F8204670BD10B5044604F0010057
:1027100028B14FF48071114800F053F804E04FF4F1
:1027200080710E4800F04BF804F0020020B18021C7
:102730000A4800F046F803E08021084800F03FF81E
:1027400004F0040020B12021044800F03AF803E02E
:102750002021024800F033F810BD000000040240C0
:10276000F0B503461C6A5D6A00200DE00126864034
:1027700016403EB187000F26BE40B443860001FAE2
:1027800006F63443461CB0B20828EFD3082011E007
:102790000126864016405EB1A0F10806B7000F265C
:1027A000BE40B543A0F10806B60001FA06F635436F
:1027B000461CB0B21028EBD31C625D62F0BD816292
:1027C000704781617047C1627047024610690840D6
:1027D00008B1012070470020FCE7F0B504460D4623
:1027E00016462168E268002019E0012787401F4053
:1027F0009FB14FEA400C032707FA0CF7B943470093
:1028000005FA07F739434FEA400C032707FA0CF79C
:10281000BA43470006FA07F73A43471CB8B21028F4
:10282000E3D32160E260F0BDF0B50C461546012C03
:1028300003D146681E43466002E046689E434660F8
:10284000826800210DE001268E401E403EB14F00FF
:102850000326BE40B2434E0005FA06F632434E1C34
:10286000B1B21029EFD38260F0BD000010B54FF473
:10287000406000F0C5FA41F20E1000F0C1FA0123E9
:10288000022200210B48FFF7A8FF03221146062071
:1028900000F0B8F90021084600F032FB02220021C6
:1028A0000120FFF7ABFE0120FFF706FF0120FFF735
:1028B0000BFF10BD0000024010B540F6034000F0D1
:1028C0009FFA40F6044000F09BFA40F6064000F004
:1028D00097FA4FF4406000F093FA2023012211464A
:1028E0001648FFF77AFF2023022200211348FFF742
:1028F0009BFF8023012211461148FFF76EFF8023C2
:10290000022200210E48FFF78FFF08230122114603
:102910000C48FFF762FF0823022200210948FFF755
:1029200083FF0823012211460748FFF756FF0823BB
:10293000022200210448FFF777FF10BD000002408B
:10294000000C0240001002400018024008B54FF48D
:10295000A06000F0B9F900F0ABFBFFF7ADFFFFF7A7
:1029600085FF4FF4165000F061FF0420FFF714FDBF
:10297000FEF7DAFA4FF6FF70F0234FF4A072002151
:1029800000900846FEF764FAFEF718FDFEF7CCFC4F
:10299000FFF7B4F80420FEF7C5F942F21070FEF715
:1029A000DBF9FEF7E1FEFFF755F80020FFF794F89A
:1029B0000120FFF7A9FE0220FFF786F8012300227D
:1029C00099027C48FDF7DEFFF2E000BF7A4800780C
:1029D0000028FBD101207949087000BF77480078B2
:1029E0000028FBD100BF764800780028FBD00020EB
:1029F000734908707348007818B1734873490860C8
:102A000002E0734871490860002407E06F480068DD
:102A100030F814006F4921F81400641CB4F5FA6F03
:102A2000F4D3002423E06B4830F814000830001180
:102A3000694921F81400084630F91400E32803DD41
:102A4000DB2021F8140011E0634830F914001B2842
:102A500004DA1320604921F8140007E05E4830F8DA
:102A60001400083800B25C4921F81400641CB4F565
:102A7000A07FD8D3002414E0564830F8140000EEAC
:102A8000100AB8EE400A554901EBC40080ED000A77
:102A90009FED530A6000401C01EB800080ED000AAE
:102AA000641CB4F5806FE7D34C494248FDF74CFFF6
:102AB0004FF480624B494948FDF796FB9FED480A69
:102AC000484880ED000A9FED460A474880ED000A1D
:102AD000002415E0434800EB840090ED000A4248D2
:102AE000D0ED000AB4EEE00AF1EE10FA07DD3D4841
:102AF00000EB840090ED000A3B4880ED000A641C66
:102B0000B4F5A07FE6D3384890ED000A9FED371A60
:102B1000C0EE010AB7EE000A30EE800ABCEEC00A31
:102B200010EE100A32490880002434E02D4800EBF2
:102B30008400D0ED000A2E48008800EE100AB8EE9E
:102B4000400A80EE801AB3EE0B0A31EE000ABDEEA9
:102B5000C00A10EE100A00B2264921F814000846F7
:102B600030F91400E32803DDDB2021F8140011E024
:102B7000204830F914001B2804DA13201D4921F8DD
:102B8000140007E01B4830F81400083800B2194957
:102B900021F81400641CB4F5A07FC7D31648007850
:102BA00018B11648FEF73CFB02E01548FEF738FB6B
:102BB0000BE7000024300020180000201B0000203C
:102BC0001D0000201C0000204045002004000020C3
:102BD000A0350020E05400203830002024000020E0
:102BE0000000000024200020080000200000164300
:102BF0000C000020B83200201A000020000000C0A5
:102C0000005802C02DE9F04103460D461646002447
:102C10000027A0462A48006800F4E060B0F5E06FA5
:102C200003D100BF4FF0040830E02548006800F4ED
:102C3000E060B0F5C06F03D101274FF0030825E035
:102C40001F48006800F4E060B0F5A06F02D10227D1
:102C5000B8461BE01A48006800F4E060B0F5806FE9
:102C600003D103274FF0010810E01548006800F475
:102C7000E060B0F5407F03D104274FF0000805E085
:102C80004FF4A06000F020F80227B846C7F1040016
:102C900005FA00F4C8F104010F20C8403040044395
:102CA00024010848C45403F01F0101208840591131
:102CB000890001F1E021C1F80001BDE8F0810000C8
:102CC0000CED00E000E400E002490143024A11601B
:102CD000704700000000FA050CED00E02DE9F04F10
:102CE0008CB0064600200A903EA090E8004CC068D8
:102CF000CDE905BECDF810A007900FF2EC0ADAE995
:102D0000000ACDE9020A0FF2E00ADAE9000ACDE989
:102D1000000A38480068C0F381000B900B9820B17E
:102D2000012804D0022828D103E0334927E03349A1
:102D300025E03048001F006800F03F072D48001FC5
:102D40000068C0F3881C2B48001F0068C0F30140D6
:102D5000401C4FEA40092748001F006800F4800823
:102D6000B8F5800F01D1254B00E0234BB3FBF7F002
:102D700000FB0CF0B0FBF9F101E01F4900BF00BF00
:102D80001C480068C0F3031404A8055D21FA05F28D
:102D900018480068C0F3822402A8055D22FA05F0F5
:102DA000099014480068C0F342341DF8045022FA18
:102DB00005F0089036B1012E06D0022E06D0032E63
:102DC0000AD106E00A9108E00A9206E009980A9002
:102DD00003E008980A9000E000BF00BF0A980CB01A
:102DE000BDE8F08F000000000000000001020304B5
:102DF00006070809083802400024F40040787D01E5
:102E0000074A02EB9011D1F8001800F01F030122CD
:102E10009A401143024B03EB9012C2F8001870471E
:102E200000300240074A02EB9011D1F8001800F080
:102E30001F0301229A409143024B03EB9012C2F808
:102E40000018704700300240074A02EB9011D1F899
:102E5000001800F01F0301229A401143024B03EBBC
:102E60009012C2F800187047003002406FF0807175
:102E7000884205D1054909680140044A116004E00F
:102E8000024909680143014A116070478C380240C9
:102E900021B9426842F00202426003E0426842F017
:102EA000010242607047016841F0400101607047D3
:102EB0000146C86880B27047C1607047024690689A
:102EC000084008B1012070470020FCE702460020BE
:102ED000106800F441500B6818434B6818438B6826
:102EE0001843CB6818430B6918434B6918438B6927
:102EF00018431060D36923F40063D3617047000066
:102F000070B504460B46CD1701EB9575AD10A1EBDE
:102F10008505AE000F25B540E843CD1701EB95754B
:102F2000AD10A1EB8505AD0004FA05F2CD1701EB5C
:102F30009575AD1035B1012D0ED0022D18D0032D91
:102F40002ED121E0184B1B680340174D2B602B46F8
:102F50001B6813432B6024E0134B1B1D1B680340AD
:102F6000114D2D1D2B602B461B6813432B6018E061
:102F70000D4B08331B6803400B4D08352B602B4667
:102F80001B6813432B600CE0074B0C331B6803409A
:102F9000054D0C352B602B461B6813432B6000E05E
:102FA00000BF00BF70BD00000838014000200021B4
:102FB0003A4A126842F48032384B1A6000BF401C13
:102FC000364A126802F4003119B94FF6FF72904286
:102FD000F5D1324A126802F400320AB900BFFEE7A6
:102FE0002E4A4032126842F080522C4B40331A6015
:102FF0002B4A126842F44042294B1A60274A083291
:103000001268264B08331A601A46126842F40042CE
:103010001A601A46126842F4A0521A60214A1B1F15
:103020001A601A1F126842F080721B1F1A6000BFDC
:103030001A4A126802F00072002AF9D0184A12687F
:1030400042F48032164B1A6000BF154A526802F4EF
:103050008032002AF9D0124A126842F40032104B32
:103060001A6000BF0E4A526802F40032002AF9D0FA
:103070000A4A0832126822F00302084B08331A6029
:103080001A46126842F002021A6000BF034A083270
:10309000126802F00802002AF8D070470038024097
:1030A000007000401964400910B5FFF77FFF10BDA4
:1030B00010B5124800684FF47A71B0FBF1F4601E4D
:1030C000B0F1807F01D301200FE0601E4FF0E021BE
:1030D00048610F214FF0FF30FEF75AF900204FF002
:1030E000E021886107200861002008B100BFFEE7E9
:1030F0000021481EFEF74CF910BD00001000002012
:10310000C162704710B531B101293FD002297DD08D
:1031100003297CD1BFE0036A23F0010303628369C2
:1031200023F003038361036A148823430362036A61
:1031300023F002030362036A9488234303626A4B09
:10314000984202D0694B98421FD1036A23F00403CE
:103150000362036A548823430362036A23F008036B
:103160000362036AD48823430362436823F48073B1
:1031700043604368148923434360436823F4007326
:1031800043604368548923434360ABE0036A23F000
:1031900010030362836923F440738361036A148814
:1031A00043EA04130362036A23F020030362036A01
:1031B000948843EA041303624B4B984202D04B4B72
:1031C000984226D1036A23F040030362036A5488BD
:1031D00043EA04130362036A23F080030362036A71
:1031E000D48843EA04130362436823F48063436092
:1031F0004368148943EA84034360436823F400630B
:1032000043604368548943EA840301E002E068E0D4
:10321000436067E0036A23F480730362C36923F0A9
:103220000303C361036A148843EA04230362036A45
:1032300023F400730362036A948843EA042303625D
:10324000294B984202D0294B984223D1036A23F498
:1032500080630362036A548843EA04230362036AB7
:1032600023F400630362036AD48843EA04230362FD
:10327000436823F4805343604368148943EA04138A
:103280004360436823F4005343604368548943EA2E
:103290000413436026E0036A23F480530362C36986
:1032A00023F44073C361036A148843EA043303625E
:1032B000036A23F400530362036A948843EA0433E5
:1032C0000362094B984202D0084B984208D14368E8
:1032D00023F4804343604368148943EA84134360C2
:1032E00000E000BF00BF10BD00000140000401402D
:1032F00031B101290CD0022913D0032922D118E0C1
:10330000836923F0700383618369134383611AE047
:10331000836923F4E0438361836943EA0223836181
:1033200011E0C36923F07003C361C3691343C36130
:1033300009E0C36923F4E043C361C36943EA02239C
:10334000C36100E000BF00BF704731B1012906D062
:10335000022906D0032908D105E0426306E0826312
:1033600004E0C26302E0026400E000BF00BF7047F7
:1033700031B101290CD0022913D0032922D118E040
:10338000836923F0080383618369134383611AE02F
:10339000836923F400638361836943EA02238361C1
:1033A00011E0C36923F00803C361C3691343C36118
:1033B00009E0C36923F40063C361C36943EA0223DC
:1033C000C36100E000BF00BF7047000010B50446B5
:1033D0005C49601A8C426FD019DC5B49A4EB010098
:1033E0008C424ED009DCB4F1804F2ED05748204497
:1033F000A0B3B0F5806F72D13AE0B0F5806F49D0DC
:10340000B0F5006F4FD0B0F5406FF4D17BE0B0F570
:10341000923F5BD009DCB0F5806F73D0B0F5644F9C
:103420000AD0B0F5684F5AD147E0B0F5943F57D075
:10343000B0F5963F53D15CE04FF41060FFF704FD08
:103440004FF41060FFF7EEFC79E04FF40060FFF7F7
:10345000FBFC4FF40060FFF7E5FC70E0FFE740F68F
:103460000100FFF7F1FC40F60100FFF7DBFC66E02E
:1034700040F60200FFF7E8FC40F60200FFF7D2FC3E
:103480005DE040F60300FFF7DFFC40F60300FFF7C6
:10349000C9FC54E040F60400FFF7D6FC40F60400F7
:1034A000FFF7C0FC4BE040F60500FFF7CDFC40F60F
:1034B0000500FFF7B7FC42E02EE040F60110FFF7F1
:1034C000C3FC40F60110FFF7ADFC38E04FF411608B
:1034D000FFF7BAFC4FF41160FFF7A4FC2FE02DE0DA
:1034E00040F61110FFF7B0FC40F61110FFF79AFC00
:1034F00025E040F61210FFF7A7FC40F61210FFF788
:1035000091FC1CE011E040F60600FFF79DFC40F640
:103510000600FFF787FC12E040F60700FFF794FC77
:1035200040F60700FFF77EFC09E040F60800FFF7D1
:103530008BFC40F60800FFF775FC00E000BF00BF01
:1035400010BD0000001C0040000C004000FCFFBF4C
:10355000016841F001010160704700000A88826241
:103560001D4A90420ED0B0F1804F0BD01B4A9042C2
:1035700008D01B4A904205D01A4A904202D01A4AFB
:1035800090420BD1026822F07002026002684B8800
:103590001A43026002688B881A4302608A68C2621A
:1035A000124A90420AD0124A904207D0026822F48E
:1035B000407202600268CB881A430260064A904259
:1035C00002D0094A904201D10A7B0263426942F06B
:1035D0000102426170470000000001400004004009
:1035E00000080040000C00400004014000100040B2
:1035F00000140040C2680A43C2607047CA430261B7
:1036000070470246D06800EA01031069084010B113
:103610000BB1012070470020FCE7426822F07002E5
:10362000426042680A434260704781621AB9436946
:1036300043F00103436170472DE9F04704460D460E
:103640000027B846B94600263349601A8C4235D067
:103650000CDC32482044E8B1B0F5806F1FD0B0F5E3
:10366000006F21D0B0F5406F32D122E0B0F5806F0D
:1036700029D0B0F5184F03D0B0F51C4F28D104E085
:103680000320FFF72BFB074623E00320FFF726FB71
:1036900007461EE00220FFF721FB074619E0022043
:1036A000FFF71CFB074614E00220FFF717FB074655
:1036B0000FE00220FFF712FB07460AE00220FFF7A7
:1036C0000DFB074605E00220FFF708FB074600E078
:1036D00000BF00BFE06800F4004070B1780000EB6C
:1036E0005500B0FBF5F64FF6F07006EA0008C6F399
:1036F000420948EA0900A0600CE007EB5500B0FB66
:10370000F5F64FF6F07006EA000806F00F0948EAF1
:103710000900A060BDE8F0870078004000BCFFBF52
:10372000C1F308024260704710B504463349601A7D
:103730008C424DD00CDC32482044E0B1B0F5806FB3
:1037400022D0B0F5006F31D0B0F5406F52D136E0E5
:10375000B0F5806F45D0B0F5184F03D0B0F51C4FD1
:1037600048D11AE040F60410FFF76EFB40F6041053
:10377000FFF758FB3FE040F61100FFF765FB40F60E
:103780001100FFF74FFB36E040F61200FFF75CFB3D
:1037900040F61200FFF746FB2DE040F60510FFF75C
:1037A00053FB40F60510FFF73DFB24E040F6130005
:1037B000FFF74AFB40F61300FFF734FB1BE040F62F
:1037C0001400FFF741FB40F61400FFF72BFB12E05B
:1037D00040F61E00FFF738FB40F61E00FFF722FB05
:1037E00009E040F61F00FFF72FFB40F61F00FFF730
:1037F00019FB00E000BF00BF10BD000000780040D2
:1038000000BCFFBFC16841F40051C160704710B5F2
:10381000024602EB9110006801F01F040123A3404F
:10382000184008B1012010BD0020FCE710B5044687
:103830004FF44060FFF7E4FA4FF44060FFF7E0FA1E
:1038400041F20410FFF7DCFA4FF400720721204820
:10385000FEF786FF4FF4806207211D48FEF780FFC8
:103860004FF40073012202211948FEF7B6FF4FF40E
:103870008063012202211648FEF7AFFF4FF4007368
:10388000022200211248FEF7CFFF4FF4806302228C
:1038900000210F48FEF7C8FF0E48FFF745FF2146FD
:1038A0000C48FFF7C9FE00210A4800F015F8002176
:1038B000084800F039F80021064800F025F80548CE
:1038C000FFF7A0FF0821034800F026F810BD000014
:1038D0000000024000100140C26822F4C062C260D1
:1038E000C2680A43C260704710B5044621460548C5
:1038F000FFF716FF00BF07210248FFF788FF0028E7
:10390000F9D010BD00100140026922F4405202615A
:1039100002690A43026170470A460021C16821F02A
:1039200008011143C1607047C26822F48052C2602E
:10393000C2680A43C2607047000000000000000037
:103940000000000000000000000000000000000077
:103950000000000000000000000000000000000067
:1039600000000000000000000000FFFFFFFFFFFF5D
:10397000FFFFFFFFFFFFFFFFFFFFFFFFFFFFFFFF57
:10398000FFFFFFFFFFFFFFFFFFFFFFFFFFFFFFFF47
:10399000FFFFFFFFFFFFFFFFFFFFFFFFFFFCFAF747
:1039A000F5F2F0EDEBE8E6E3E0DEDBD9D6D4D1CFFB
:1039B000CCC9C7C4C2BFBDBAB8B5B3B0ADABA8A679
:1039C000A3A19E9C999694918F8C8A878582807DF5
:1039D0007A787573706E6B696663615E5C59575473
:1039E000524F4D4A474542403D3B383633302E2BEF
:1039F000292624211F1C1A1714120F0D0A0805036B
:103A0000000305080A0D0F1215171A1C1F21242781
:103A1000292C2E313436393B3E404346484B4D50DD
:103A20005255585A5D5F6264676A6C6F717476793B
:103A30007C7E818386898B8E909395989B9DA0A296
:103A4000A5A7AAADAFB2B4B7B9BCBFC1C4C6C9CBF4
:103A5000CED1D3D6D8DBDEE0E3E5E8EAEDF0F2F54F
:103A6000F7FAFCFF00050A0F141A1F24292E333819
:103A70003D42474D52575C61666B70757A80858A0E
:103A80008F94999EA3A8ADB3B8BDC2C7CCD1D6DBE5
:103A9000E0E6EBF0F5FAFFFAF5F0EBE6E0DBD6D185
:103AA000CCC7C2BDB8B3ADA8A39E99948F8A8580B8
:103AB0007A75706B66615C57524D47423D38332EC4
:103AC00029241F1A140F0A0580889098A0A8AFB661
:103AD000BEC5CBD2D8DDE3E8ECF0F4F7FAFCFEFE8D
:103AE000FFFFFFFEFEFCFAF7F4F0ECE8E3DDD8D2CE
:103AF000CBC5BEB6AFA8A098908880787068605893
:103B0000514A423B352E28231D1814100C09060477
:103B1000020100000001020406090C1014181D2304
:103B2000282E353B424A51586068707800040002E4
:103B300000060001000500030007800080048002E9
:103B40008006800180058003800740004004400219
:103B500040064001400540034007C000C004C002C9
:103B6000C006C001C005C003C00720002004200219
:103B700020062001200520032007A000A004A002A9
:103B8000A006A001A005A003A007600060046002D9
:103B900060066001600560036007E000E004E00289
:103BA000E006E001E005E003E00710001004100269
:103BB00010061001100510031007900090049002E9
:103BC0009006900190059003900750005004500219
:103BD00050065001500550035007D000D004D002C9
:103BE000D006D001D005D003D00730003004300219
:103BF00030063001300530033007B000B004B002A9
:103C0000B006B001B005B003B007700070047002D8
:103C100070067001700570037007F000F004F00288
:103C2000F006F001F005F003F007080008040802B0
:103C300008060801080508030807880088048802A8
:103C400088068801880588038807480048044802D8
:103C500048064801480548034807C800C804C80288
:103C6000C806C801C805C803C807280028042802D8
:103C700028062801280528032807A800A804A80268
:103C8000A806A801A805A803A80768006804680298
:103C900068066801680568036807E800E804E80248
:103CA000E806E801E805E803E80718001804180228
:103CB00018061801180518031807980098049802A8
:103CC00098069801980598039807580058045802D8
:103CD00058065801580558035807D800D804D80288
:103CE000D806D801D805D803D807380038043802D8
:103CF00038063801380538033807B800B804B80268
:103D0000B806B801B805B803B80778007804780297
:103D100078067801780578037807F800F804F80247
:103D2000F806F801F805F803F80704000404040293
:103D300004060401040504030407840084048402C7
:103D400084068401840584038407440044044402F7
:103D500044064401440544034407C400C404C402A7
:103D6000C406C401C405C403C407240024042402F7
:103D700024062401240524032407A400A404A40287
:103D8000A406A401A405A403A407640064046402B7
:103D900064066401640564036407E400E404E40267
:103DA000E406E401E405E403E40714001404140247
:103DB00014061401140514031407940094049402C7
:103DC00094069401940594039407540054045402F7
:103DD00054065401540554035407D400D404D402A7
:103DE000D406D401D405D403D407340034043402F7
:103DF00034063401340534033407B400B404B40287
:103E0000B406B401B405B403B407740074047402B6
:103E100074067401740574037407F400F404F40266
:103E2000F406F401F405F403F4070C000C040C028E
:103E30000C060C010C050C030C078C008C048C0286
:103E40008C068C018C058C038C074C004C044C02B6
:103E50004C064C014C054C034C07CC00CC04CC0266
:103E6000CC06CC01CC05CC03CC072C002C042C02B6
:103E70002C062C012C052C032C07AC00AC04AC0246
:103E8000AC06AC01AC05AC03AC076C006C046C0276
:103E90006C066C016C056C036C07EC00EC04EC0226
:103EA000EC06EC01EC05EC03EC071C001C041C0206
:103EB0001C061C011C051C031C079C009C049C0286
:103EC0009C069C019C059C039C075C005C045C02B6
:103ED0005C065C015C055C035C07DC00DC04DC0266
:103EE000DC06DC01DC05DC03DC073C003C043C02B6
:103EF0003C063C013C053C033C07BC00BC04BC0246
:103F0000BC06BC01BC05BC03BC077C007C047C0275
:103F10007C067C017C057C037C07FC00FC04FC0225
:103F2000FC06FC01FC05FC03FC0702000204020283
:103F300002060201020502030207820082048202D5
:103F40008206820182058203820742004204420205
:103F500042064201420542034207C200C204C202B5
:103F6000C206C201C205C203C20722002204220205
:103F700022062201220522032207A200A204A20295
:103F8000A206A201A205A203A207620062046202C5
:103F900062066201620562036207E200E204E20275
:103FA000E206E201E205E203E20712001204120255
:103FB00012061201120512031207920092049202D5
:103FC0009206920192059203920752005204520205
:103FD00052065201520552035207D200D204D202B5
:103FE000D206D201D205D203D20732003204320205
:103FF00032063201320532033207B200B204B20295
:10400000B206B201B205B203B207720072047202C4
:1040100072067201720572037207F200F204F20274
:10402000F206F201F205F203F2070A000A040A029C
:104030000A060A010A050A030A078A008A048A0294
:104040008A068A018A058A038A074A004A044A02C4
:104050004A064A014A054A034A07CA00CA04CA0274
:10406000CA06CA01CA05CA03CA072A002A042A02C4
:104070002A062A012A052A032A07AA00AA04AA0254
:10408000AA06AA01AA05AA03AA076A006A046A0284
:104090006A066A016A056A036A07EA00EA04EA0234
:1040A000EA06EA01EA05EA03EA071A001A041A0214
:1040B0001A061A011A051A031A079A009A049A0294
:1040C0009A069A019A059A039A075A005A045A02C4
:1040D0005A065A015A055A035A07DA00DA04DA0274
:1040E000DA06DA01DA05DA03DA073A003A043A02C4
:1040F0003A063A013A053A033A07BA00BA04BA0254
:10410000BA06BA01BA05BA03BA077A007A047A0283
:104110007A067A017A057A037A07FA00FA04FA0233
:10412000FA06FA01FA05FA03FA070600060406027F
:1041300006060601060506030607860086048602B3
:1041400086068601860586038607460046044602E3
:1041500046064601460546034607C600C604C60293
:10416000C606C601C605C603C607260026042602E3
:1041700026062601260526032607A600A604A60273
:10418000A606A601A605A603A607660066046602A3
:1041900066066601660566036607E600E604E60253
:1041A000E606E601E605E603E60716001604160233
:1041B00016061601160516031607960096049602B3
:1041C00096069601960596039607560056045602E3
:1041D00056065601560556035607D600D604D60293
:1041E000D606D601D605D603D607360036043602E3
:1041F00036063601360536033607B600B604B60273
:10420000B606B601B605B603B607760076047602A2
:1042100076067601760576037607F600F604F60252
:10422000F606F601F605F603F6070E000E040E027A
:104230000E060E010E050E030E078E008E048E0272
:104240008E068E018E058E038E074E004E044E02A2
:104250004E064E014E054E034E07CE00CE04CE0252
:10426000CE06CE01CE05CE03CE072E002E042E02A2
:104270002E062E012E052E032E07AE00AE04AE0232
:10428000AE06AE01AE05AE03AE076E006E046E0262
:104290006E066E016E056E036E07EE00EE04EE0212
:1042A000EE06EE01EE05EE03EE071E001E041E02F2
:1042B0001E061E011E051E031E079E009E049E0272
:1042C0009E069E019E059E039E075E005E045E02A2
:1042D0005E065E015E055E035E07DE00DE04DE0252
:1042E000DE06DE01DE05DE03DE073E003E043E02A2
:1042F0003E063E013E053E033E07BE00BE04BE0232
:10430000BE06BE01BE05BE03BE077E007E047E0261
:104310007E067E017E057E037E07FE00FE04FE0211
:10432000FE06FE01FE05FE03FE0701000000803FC1
:1043300000000000ECFF7F3FD40FC93AB1FF7F3F80
:10434000C70F493B4EFF7F3FC1CB963BC4FE7F3F2B
:10435000890FC93B13FE7F3F3053FB3B39FD7F3F45
:1043600059CB163C39FC7F3F02ED2F3C11FB7F3FC0
:10437000900E493CC1F97F3F0030623C4AF87F3FD4
:104380004B517B3CACF67F3F38398A3CE6F47F3FAB
:10439000B6C9963CF8F27F3F1C5AA33CE3F07F3F3E
:1043A00069EAAF3CA7EE7F3F9B7ABC3C43EC7F3F82
:1043B000B00AC93CB8E97F3FA69AD53C05E77F3FE4
:1043C0007B2AE23C2BE47F3F2DBAEE3C29E17F3F84
:1043D000B949FB3C00DE7F3F90EC033DAFDA7F3F05
:1043E0002F340A3D37D77F3FB87B103D98D37F3FAE
:1043F0002CC3163DD1CF7F3F880A1D3DE2CB7F3FC6
:10440000CC51233DCCC77F3FF698293D8FC37F3FDA
:1044100007E02F3D2ABF7F3FFC26363D9EBA7F3FF7
:10442000D56D3C3DEAB57F3F91B4423D0FB17F3F32
:104430002FFB483D0DAC7F3FAF414F3DE3A67F3F93
:104440000E88553D91A17F3F4CCE5B3D189C7F3F30
:104450006814623D78967F3F625A683DB1907F3F15
:1044600038A06E3DC28A7F3FE9E5743DAB847F3F53
:10447000742B7B3D6D7E7F3F6CB8803D08787F3F1D
:104480000ADB833D7B717F3F94FD863DC76A7F3F9A
:104490000A208A3DEC637F3F6A428D3DE95C7F3FA5
:1044A000B464903DBF557F3FE786933D6D4E7F3F9F
:1044B00005A9963DF4467F3F0ACB993D543F7F3F87
:1044C000F9EC9C3D8D377F3FCF0EA03D9D2F7F3F68
:1044D0008C30A33D87277F3F3052A63D491F7F3F49
:1044E000BA73A93DE4167F3F2B95AC3D580E7F3F34
:1044F00080B6AF3DA4057F3FBBD7B23DC9FC7E3F30
:10450000DAF8B53DC7F37E3FDD19B93D9DEA7E3F40
:10451000C33ABC3D4CE17E3F8D5BBF3DD4D77E3F6F
:10452000397CC23D34CE7E3FC69CC53D6DC47E3FC6
:1045300036BDC83D7FBA7E3F86DDCB3D69B07E3F4C
:10454000B7FDCE3D2DA67E3FC81DD23DC99B7E3F07
:10455000B93DD53D3D917E3F895DD83D8B867E3FFF
:10456000377DDB3DB17B7E3FC49CDE3DB0707E3F3E
:104570002EBCE13D88657E3F76DBE43D385A7E3FC8
:104580009AFAE73DC14E7E3F9A19EB3D23437E3FA9
:104590007638EE3D5E377E3F2E57F13D722B7E3FE3
:1045A000C075F43D5E1F7E3F2C94F73D24137E3F83
:1045B00073B2FA3DC2067E3F92D0FD3D38FA7D3F90
:1045C0004577003E88ED7D3F2E06023EB1E07D3FFF
:1045D0000295033EB2D37D3FC223053E8CC67D3F8C
:1045E0006EB2063E40B97D3F0541083ECCAB7D3FF3
:1045F00086CF093E309E7D3FF35D0B3E6E907D3F42
:104600004AEC0C3E85827D3F8B7A0E3E74747D3F72
:10461000B708103E3D667D3FCC96113EDE577D3F8C
:10462000CA24133E59497D3FB2B2143EAC3A7D3F95
:104630008340163ED82B7D3F3DCE173EDD1C7D3F8F
:10464000E05B193EBC0D7D3F6BE91A3E73FE7C3F7B
:10465000DE761C3E03EF7C3F38041E3E6CDF7C3F61
:104660007B911F3EAECF7C3FA51E213EC9BF7C3F44
:10467000B6AB223EBDAF7C3FAD38243E8A9F7C3F27
:104680008CC5253E318F7C3F5152273EB07E7C3F0A
:10469000FCDE283E086E7C3F8D6B2A3E3A5D7C3FF7
:1046A00004F82B3E444C7C3F61842D3E283B7C3FEC
:1046B000A2102F3EE5297C3FC99C303E7A187C3FF2
:1046C000D428323EE9067C3FC4B4333E31F57B3F0B
:1046D0009840353E53E37B3F50CC363E4DD17B3F37
:1046E000EC57383E20BF7B3F6CE3393ECDAC7B3F7F
:1046F000CF6E3B3E539A7B3F15FA3C3EB2877B3FE1
:104700003E853E3EEA747B3F4910403EFC617B3F64
:10471000379B413EE74E7B3F0726433EAB3B7B3F0B
:10472000B9B0443E48287B3F4D3B463EBE147B3FDC
:10473000C2C5473E0E017B3F1850493E37ED7A3FD8
:104740004FDA4A3E3AD97A3F67644C3E16C57A3F03
:1047500060EE4D3ECBB07A3F38784F3E599C7A3F61
:10476000F101513EC1877A3F898B523E02737A3FF5
:104770000115543E1C5E7A3F589E553E10497A3FC3
:104780008F27573EDD337A3FA4B0583E841E7A3FD0
:1047900097395A3E04097A3F6AC25B3E5EF3793F1D
:1047A0001A4B5D3E91DD793FA8D35E3E9DC7793FB0
:1047B000135C603E83B1793F5CE4613E439B793F8B
:1047C000836C633EDC84793F86F4643E4E6E793FB1
:1047D000667C663E9A57793F2204683EC040793F26
:1047E000BA8B693EBF29793F2F136B3E9812793FF0
:1047F0007F9A6C3E4AFB783FAB216E3ED6E3783F12
:10480000B2A86F3E3BCC783F942F713E7BB4783F8B
:1048100051B6723E939C783FE83C743E8684783F64
:104820005AC3753E526C783FA649773EF853783F9D
:10483000CCCF783E773B783FCB557A3ED122783F3C
:10484000A4DB7B3E040A783F56617D3E10F1773F42
:10485000E1E67E3EF7D7773F2236803EB7BE773F10
:10486000C0F8803E51A5773F4ABB813EC58B773F5C
:10487000C07D823E1372773F2240833E3A58773F95
:104880007002843E3C3E773FAAC4843E1724773FA3
:10489000CE86853ECC09773FDF48863E5BEF763F8C
:1048A000DA0A873EC4D4763FC1CC873E07BA763F4A
:1048B000938E883E249F763F5050893E1B84763FDE
:1048C000F8118A3EEC68763F8AD38A3E974D763F50
:1048D00007958B3E1B32763F6E568C3E7A16763F9E
:1048E000C0178D3EB3FA753FFCD88D3EC6DE753FCE
:1048F000229A8E3EB3C2753F325B8F3E7BA6753FD8
:104900002C1C903E1C8A753F10DD903E976D753FC4
:10491000DD9D913EED50753F945E923E1D34753F96
:10492000351F933E2717753FBFDF933E0BFA743F49
:1049300031A0943EC9DC743F8D60953E62BF743FE8
:10494000D220963ED5A1743F00E1963E2284743F6A
:1049500017A1973E4966743F1661983E4B48743FD5
:10496000FE20993E272A743FCEE0993EDD0B743F2E
:1049700086A09A3E6EED733F27609B3ED9CE733F73
:10498000AF1F9C3E1FB0733F20DF9C3E3F91733FA3
:10499000789E9D3E3972733FB85D9E3E0E53733FC5
:1049A000DF1C9F3EBE33733FEEDB9F3E4714733FD9
:1049B000E59AA03EACF4723FC259A13EEBD4723FDF
:1049C0008718A23E04B5723F33D7A23EF894723FD7
:1049D000C595A33EC774723F3F54A43E7054723FC6
:1049E0009F12A53EF433723FE5D0A53E5213723FAD
:1049F000128FA63E8CF2713F254DA73E9FD1713F8D
:104A00001F0BA83E8EB0713FFEC8A83E578F713F66
:104A1000C486A93EFB6D713F6F44AA3E7A4C713F3C
:104A20000102AB3ED42A713F77BFAB3E0809713F0C
:104A3000D47CAC3E17E7703F153AAD3E02C5703FDF
:104A40003CF7AD3EC6A2703F49B4AE3E6680703FB3
:104A50003A71AF3EE15D703F102EB03E373B703F84
:104A6000CBEAB03E6718703F6BA7B13E73F56F3F5E
:104A7000EF63B23E5AD26F3F5820B33E1BAF6F3F39
:104A8000A5DCB33EB88B6F3FD698B43E30686F3F1D
:104A9000EC54B53E83446F3FE610B63EB0206F3F06
:104AA000C3CCB63EBAFC6E3F8488B73E9ED86E3FFC
:104AB0002A44B83E5DB46E3FB2FFB83EF88F6E3FF9
:104AC0001EBBB93E6D6B6E3F6E76BA3EBE466E3F04
:104AD000A031BB3EEB216E3FB6ECBB3EF2FC6D3F1E
:104AE000AFA7BC3ED5D76D3F8B62BD3E93B26D3F45
:104AF0004A1DBE3E2D8D6D3FEBD7BE3EA1676D3F7B
:104B00006F92BF3EF2416D3FD54CC03E1D1C6D3FC4
:104B10001E07C13E24F66C3F48C1C13E07D06C3F22
:104B2000557BC23EC5A96C3F4435C33E5E836C3F96
:104B300015EFC33ED45C6C3FC8A8C43E24366C3F1E
:104B40005C62C53E500F6C3FD21BC63E58E86B3FBF
:104B500029D5C63E3BC16B3F628EC73EFB996B3F7A
:104B60007C47C83E95726B3F7700C93E0C4B6B3F4C
:104B700053B9C93E5E236B3F1072CA3E8CFB6A3F3D
:104B8000AE2ACB3E95D36A3F2CE3CB3E7BAB6A3F4C
:104B90008B9BCC3E3C836A3FCA53CD3ED95A6A3F79
:104BA000EA0BCE3E52326A3FEAC3CE3EA7096A3FC5
:104BB000CA7BCF3ED7E0693F8A33D03EE4B7693F36
:104BC0002AEBD03ECC8E693FAAA2D13E9165693FC7
:104BD000095AD23E323C693F4811D33EAE12693F7A
:104BE00067C8D33E07E9683F647FD43E3CBF683F57
:104BF0004136D53E4C95683FFDECD53E396B683F5C
:104C000099A3D63E0341683F135AD73EA816683F82
:104C10006B10D83E2AEC673FA3C6D83E87C1673FDA
:104C2000B97CD93EC196673FAD32DA3ED86B673F5B
:104C300080E8DA3ECA40673F319EDB3E9915673F08
:104C4000C153DC3E45EA663F2E09DD3ECCBE663FE1
:104C500079BEDD3E3093663FA273DE3E7167663FEC
:104C6000A928DF3E8E3B663F8DDDDF3E880F663F25
:104C70004F92E03E5EE3653FEE46E13E10B7653F92
:104C80006AFBE13EA08A653FC4AFE23E0B5E653F32
:104C9000FA63E33E5431653F0E18E43E7904653F04
:104CA000FECBE43E7BD7643FCB7FE53E59AA643F11
:104CB0007533E63E147D643FFBE6E63EAC4F643F51
:104CC0005D9AE73E2122643F9C4DE83E73F4633FCA
:104CD000B700E93EA1C6633FAEB3E93EAC98633F7F
:104CE0008166EA3E956A633F3019EB3E5A3C633F6A
:104CF000BBCBEB3EFC0D633F217EEC3E7BDF623F96
:104D00006330ED3ED7B0623F80E2ED3E1082623FFD
:104D10007994EE3E2653623F4C46EF3E1A24623FA2
:104D2000FBF7EF3EEAF4613F85A9F03E98C5613F8D
:104D3000EA5AF13E2296613F290CF23E8A66613FB3
:104D400043BDF23ED036613F386EF33EF206613F1E
:104D5000071FF43EF2D6603FB1CFF43ECFA6603FCE
:104D60003580F53E8976603F9330F63E2146603FC0
:104D7000CBE0F63E9615603FDC90F73EE9E45F3FFE
:104D8000C840F83E19B45F3F8EF0F83E27835F3F7E
:104D90002DA0F93E12525F3FA54FFA3EDB205F3F48
:104DA000F7FEFA3E81EF5E3F22AEFB3E05BE5E3F60
:104DB000275DFC3E678C5E3F040CFD3EA65A5E3FBD
:104DC000BBBAFD3EC3285E3F4A69FE3EBEF65D3F6C
:104DD000B217FF3E97C45D3FF3C5FF3E4D925D3F66
:104DE000063A003FE15F5D3FFF90003F532D5D3F7E
:104DF000E4E7003FA3FA5C3FB53E013FD1C75C3F0B
:104E00007395013FDD945C3F1CEC013FC7615C3F43
:104E1000B142023F8E2E5C3F3299023F34FB5B3F32
:104E20009FEF023FB8C75B3FF845033F1A945B3FD3
:104E30003D9C033F5A605B3F6DF2033F792C5B3F23
:104E40008948043F75F85A3F919E043F50C45A3F29
:104E500084F4043F09905A3F624A053FA05B5A3FE1
:104E60002CA0053F16275A3FE2F5053F6AF2593F4D
:104E7000824B063F9CBD593F0EA1063FAD88593F6E
:104E800086F6063F9C53593FE84B073F6A1E593F41
:104E900036A1073F17E9583F6FF6073FA1B3583FC8
:104EA000924B083F0B7E583FA1A0083F5348583F04
:104EB0009BF5083F7912583F7F4A093F7FDC573FF7
:104EC0004E9F093F63A6573F09F4093F2670573F9D
:104ED000AD480A3FC739573F3D9D0A3F4803573FFA
:104EE000B7F10A3FA7CC563F1C460B3FE595563F0E
:104EF0006B9A0B3F025F563FA5EE0B3FFE27563FD6
:104F0000C9420C3FD9F0553FD7960C3F93B9553F56
:104F1000D0EA0C3F2C82553FB33E0D3FA44A553F8B
:104F200081920D3FFB12553F38E60D3F31DB543F78
:104F3000DA390E3F47A3543F658D0E3F3B6B543F1C
:104F4000DBE00E3F0F33543F3B340F3FC3FA533F78
:104F500084870F3F55C2533FB8DA0F3FC789533F8D
:104F6000D52D103F1851533FDC80103F4918533F57
:104F7000CDD3103F59DF523FA726113F49A6523FDC
:104F80006B79113F186D523F19CC113FC633523F18
:104F9000B01E123F54FA513F3071123FC2C0513F10
:104FA0009AC3123F1087513FEE15133F3D4D513FBD
:104FB0002A68133F4A13513F50BA133F37D9503F25
:104FC0005F0C143F039F503F585E143FAF64503F47
:104FD00039B0143F3B2A503F0402153FA8EF4F3F22
:104FE000B753153FF4B44F3F54A5153F1F7A4F3FB9
:104FF000D9F6153F2B3F4F3F4748163F17044F3F09
:105000009F99163FE4C84E3FDFEA163F908D4E3F12
:10501000073C173F1C524E3F188D173F89164E3FD5
:1050200012DE173FD5DA4D3FF52E183F029F4D3F58
:10503000C07F183F10634D3F73D0183FFD264D3F92
:105040000F21193FCBEA4C3F9471193F79AE4C3F89
:1050500000C2193F08724C3F55121A3F78354C3F39
:1050600093621A3FC7F84B3FB8B21A3FF8BB4B3FA9
:10507000C6021B3F097F4B3FBB521B3FFA414B3FD0
:1050800099A21B3FCC044B3F5FF21B3F7FC74A3FB7
:105090000C421C3F138A4A3FA2911C3F874C4A3F57
:1050A0001FE11C3FDC0E4A3F84301D3F12D1493FB7
:1050B000D17F1D3F2993493F06CF1D3F2155493FD1
:1050C000221E1E3FFA16493F266D1E3FB3D8483FA9
:1050D00012BC1E3F4E9A483FE50A1F3FCA5B483F3D
:1050E0009F591F3F271D483F41A81F3F65DE473F8F
:1050F000CBF61F3F849F473F3B45203F8560473F9E
:105100009393203F6721473FD2E1203F2AE2463F69
:10511000F92F213FCEA2463F067E213F5463463FF2
:10512000FBCB213FBB23463FD719223F03E4453F3A
:105130009967223F2DA4453F43B5223F3964453F3F
:10514000D302233F2624453F4B50233FF5E3443F02
:10515000A99D233FA5A3443FEEEA233F3763443F85
:105160001A38243FAB22443F2C85243F00E2433FC2
:1051700025D2243F38A1433F041F253F5160433FC0
:10518000CB6B253F4C1F433F77B8253F29DE423F7D
:105190000A05263FE89C423F8451263F895B423FF7
:1051A000E39D263F0B1A423F2AEA263F70D8413F33
:1051B0005636273FB796413F6882273FE154413F2B
:1051C00061CE273FEC12413F401A283FDAD0403FE2
:1051D0000566283FA98E403FB0B1283F5C4C403F58
:1051E00041FD283FF009403FB848293F67C73F3F8E
:1051F0001594293FC0843F3F57DF293FFC413F3F83
:10520000802A2A3F1BFF3E3F8E752A3F1BBC3E3F34
:1052100082C02A3FFF783E3F5B0B2B3FC5353E3FA8
:105220001B562B3F6EF23D3FBFA02B3FF9AE3D3FDB
:105230004AEB2B3F676B3D3FB9352C3FB8273D3FCD
:105240000F802C3FECE33C3F49CA2C3F03A03C3F7E
:1052500069142D3FFC5B3C3F6F5E2D3FD9173C3FEF
:1052600059A82D3F98D33B3F29F22D3F3B8F3B3F21
:10527000DE3B2E3FC14A3B3F78852E3F29063B3F10
:10528000F7CE2E3F75C13A3F5B182F3FA47C3A3FC3
:10529000A5612F3FB7373A3FD3AA2F3FACF2393F32
:1052A000E6F32F3F85AD393FDE3C303F4268393F62
:1052B000BB85303FE122393F7CCE303F65DD383F52
:1052C0002217313FCB97383FAD5F313F1652383F01
:1052D0001DA8313F430C383F71F0313F55C6373F71
:1052E000AA38323F4A80373FC780323F233A373FA0
:1052F000C9C8323FDFF3363FAF10333F7FAD363F93
:105300007A58333F0467363F29A0333F6C20363F3D
:10531000BCE7333FB8D9353F342F343FE792353FB0
:105320008F76343FFB4B353FCFBD343FF304353FE1
:10533000F304353FCFBD343FFB4B353F8F76343FD1
:10534000E792353F342F343FB8D9353FBCE7333F80
:105350006C20363F29A0333F0467363F7A58333FED
:105360007FAD363FAF10333FDFF3363FC9C8323F22
:10537000233A373FC780323F4A80373FAA38323F0F
:1053800055C6373F71F0313F430C383F1DA8313FC0
:105390001652383FAD5F313FCB97383F2217313F30
:1053A00065DD383F7CCE303FE122393FBB85303F61
:1053B0004268393FDE3C303F85AD393FE6F32F3F51
:1053C000ACF2393FD3AA2F3FB7373A3FA5612F3F01
:1053D000A47C3A3F5B182F3F75C13A3FF7CE2E3F72
:1053E00029063B3F78852E3FC14A3B3FDE3B2E3F9F
:1053F0003B8F3B3F29F22D3F98D33B3F59A82D3F90
:10540000D9173C3F6F5E2D3FFC5B3C3F69142D3F3D
:1054100003A03C3F49CA2C3FECE33C3F0F802C3FAC
:10542000B8273D3FB9352C3F676B3D3F4AEB2B3FDB
:10543000F9AE3D3FBFA02B3F6EF23D3F1B562B3FC9
:10544000C5353E3F5B0B2B3FFF783E3F82C02A3F76
:105450001BBC3E3F8E752A3F1BFF3E3F802A2A3FE2
:10546000FC413F3F57DF293FC0843F3F1594293F10
:1054700067C73F3FB848293FF009403F41FD283FFB
:105480005C4C403FB0B1283FA98E403F0566283FA5
:10549000DAD0403F401A283FEC12413F61CE273F0F
:1054A000E154413F6882273FB796413F5636273F38
:1054B00070D8413F2AEA263F0B1A423FE39D263F20
:1054C000895B423F8451263FE89C423F0A05263FC4
:1054D00029DE423F77B8253F4C1F433FCB6B253F2A
:1054E0005160433F041F253F38A1433F25D2243F4D
:1054F00000E2433F2C85243FAB22443F1A38243F2F
:105500003763443FEEEA233FA5A3443FA99D233FD1
:10551000F5E3443F4B50233F2624453FD302233F2E
:105520003964453F43B5223F2DA4453F9967223F4B
:1055300003E4453FD719223FBB23463FFBCB213F26
:105540005463463F067E213FCEA2463FF92F213FBE
:105550002AE2463FD2E1203F6721473F9393203F15
:105560008560473F3B45203F849F473FCBF61F3F29
:1055700065DE473F41A81F3F271D483F9F591F3FFA
:10558000CA5B483FE50A1F3F4E9A483F12BC1E3F88
:10559000B3D8483F266D1E3FFA16493F221E1E3FD4
:1055A0002155493F06CF1D3F2993493FD17F1D3FDC
:1055B00012D1493F84301D3FDC0E4A3F1FE11C3FA2
:1055C000874C4A3FA2911C3F138A4A3F0C421C3F22
:1055D0007FC74A3F5FF21B3FCC044B3F99A21B3F62
:1055E000FA414B3FBB521B3F097F4B3FC6021B3F5B
:1055F000F8BB4B3FB8B21A3FC7F84B3F93621A3F14
:1056000078354C3F55121A3F08724C3F00C2193F83
:1056100079AE4C3F9471193FCBEA4C3F0F21193FB3
:10562000FD264D3F73D0183F10634D3FC07F183F9C
:10563000029F4D3FF52E183FD5DA4D3F12DE173F42
:1056400089164E3F188D173F1C524E3F073C173F9F
:10565000908D4E3FDFEA163FE4C84E3F9F99163FBC
:1056600017044F3F4748163F2B3F4F3FD9F6153F92
:105670001F7A4F3F54A5153FF4B44F3FB753153F22
:10568000A8EF4F3F0402153F3B2A503F39B0143F6B
:10569000AF64503F585E143F039F503F5F0C143F70
:1056A00037D9503F50BA133F4A13513F2A68133F2E
:1056B0003D4D513FEE15133F1087513F9AC3123FA6
:1056C000C2C0513F3071123F54FA513FB01E123FD9
:1056D000C633523F19CC113F186D523F6B79113FC1
:1056E00049A6523FA726113F59DF523FCDD3103F65
:1056F0004918533FDC80103F1851533FD52D103FC0
:10570000C789533FB8DA0F3F55C2533F84870F3FD5
:10571000C3FA533F3B340F3F0F33543FDBE00E3FA0
:105720003B6B543F658D0E3F47A3543FDA390E3F24
:1057300031DB543F38E60D3FFB12553F81920D3F60
:10574000A44A553FB33E0D3F2C82553FD0EA0C3F53
:1057500093B9553FD7960C3FD9F0553FC9420C3FFE
:10576000FE27563FA5EE0B3F025F563F6B9A0B3F5D
:10577000E595563F1C460B3FA7CC563FB7F10A3F75
:105780004803573F3D9D0A3FC739573FAD480A3F41
:105790002670573F09F4093F63A6573F4E9F093FC4
:1057A0007FDC573F7F4A093F7912583F9BF5083FFE
:1057B0005348583FA1A0083F0B7E583F924B083FEB
:1057C000A1B3583F6FF6073F17E9583F36A1073F8F
:1057D0006A1E593FE84B073F9C53593F86F6063FE8
:1057E000AD88593F0EA1063F9CBD593F824B063FF5
:1057F0006AF2593FE2F5053F16275A3F2CA0053FB4
:10580000A05B5A3F624A053F09905A3F84F4043F27
:1058100050C45A3F919E043F75F85A3F8948043F4F
:10582000792C5B3F6DF2033F5A605B3F3D9C033F29
:105830001A945B3FF845033FB8C75B3F9FEF023FB9
:1058400034FB5B3F3299023F8E2E5C3FB142023FF8
:10585000C7615C3F1CEC013FDD945C3F7395013FE9
:10586000D1C75C3FB53E013FA3FA5C3FE4E7003F90
:10587000532D5D3FFF90003FE15F5D3F063A003FE3
:105880004D925D3FF3C5FF3E97C45D3FB217FF3EAB
:10589000BEF65D3F4A69FE3EC3285E3FBBBAFD3E91
:1058A000A65A5E3F040CFD3E678C5E3F275DFC3EC2
:1058B00005BE5E3F22AEFB3E81EF5E3FF7FEFA3E45
:1058C000DB205F3FA54FFA3E12525F3F2DA0F93E0D
:1058D00027835F3F8EF0F83E19B45F3FC840F83E23
:1058E000E9E45F3FDC90F73E9615603FCBE0F63E83
:1058F0002146603F9330F63E8976603F3580F53E25
:10590000CFA6603FB1CFF43EF2D6603F071FF43E12
:10591000F206613F386EF33ED036613F43BDF23E42
:105920008A66613F290CF23E2296613FEA5AF13EB7
:1059300098C5613F85A9F03EEAF4613FFBF7EF3E71
:105940001A24623F4C46EF3E2653623F7994EE3E66
:105950001082623F80E2ED3ED7B0623F6330ED3EA1
:105960007BDF623F217EEC3EFC0D633FBBCBEB3E19
:105970005A3C633F3019EB3E956A633F8166EA3ECD
:10598000AC98633FAEB3E93EA1C6633FB700E93EC2
:1059900073F4633F9C4DE83E2122643F5D9AE73EED
:1059A000AC4F643FFBE6E63E147D643F7533E63E54
:1059B00059AA643FCB7FE53E7BD7643FFECBE43EF4
:1059C0007904653F0E18E43E5431653FFA63E33EC7
:1059D0000B5E653FC4AFE23EA08A653F6AFBE13ED5
:1059E00010B7653FEE46E13E5EE3653F4F92E03E15
:1059F000880F663F8DDDDF3E8E3B663FA928DF3E88
:105A00007167663FA273DE3E3093663F79BEDD3E2E
:105A1000CCBE663F2E09DD3E45EA663FC153DC3E03
:105A20009915673F319EDB3ECA40673F80E8DA3E0A
:105A3000D86B673FAD32DA3EC196673FB97CD93E3D
:105A400087C1673FA3C6D83E2AEC673F6B10D83E9C
:105A5000A816683F135AD73E0341683F99A3D63E24
:105A6000396B683FFDECD53E4C95683F4136D53EDD
:105A70003CBF683F647FD43E07E9683F67C8D33EB8
:105A8000AE12693F4811D33E323C693F095AD23EBB
:105A90009165693FAAA2D13ECC8E693F2AEBD03EE8
:105AA000E4B7693F8A33D03ED7E0693FCA7BCF3E37
:105AB000A7096A3FEAC3CE3E52326A3FEA0BCE3EA6
:105AC000D95A6A3FCA53CD3E3C836A3F8B9BCC3E3A
:105AD0007BAB6A3F2CE3CB3E95D36A3FAE2ACB3EED
:105AE0008CFB6A3F1072CA3E5E236B3F53B9C93EBE
:105AF0000C4B6B3F7700C93E95726B3F7C47C83EAD
:105B0000FB996B3F628EC73E3BC16B3F29D5C63EBA
:105B100058E86B3FD21BC63E500F6C3F5C62C53EDF
:105B200024366C3FC8A8C43ED45C6C3F15EFC33E1E
:105B30005E836C3F4435C33EC5A96C3F557BC23E76
:105B400007D06C3F48C1C13E24F66C3F1E07C13EE2
:105B50001D1C6D3FD54CC03EF2416D3F6F92BF3E64
:105B6000A1676D3FEBD7BE3E2D8D6D3F4A1DBE3EFA
:105B700093B26D3F8B62BD3ED5D76D3FAFA7BC3EA4
:105B8000F2FC6D3FB6ECBB3EEB216E3FA031BB3E5D
:105B9000BE466E3F6E76BA3E6D6B6E3F1EBBB93E23
:105BA000F88F6E3FB2FFB83E5DB46E3F2A44B83EF8
:105BB0009ED86E3F8488B73EBAFC6E3FC3CCB63EDB
:105BC000B0206F3FE610B63E83446F3FEC54B53EC5
:105BD00030686F3FD698B43EB88B6F3FA5DCB33EBC
:105BE0001BAF6F3F5820B33E5AD26F3FEF63B23EB8
:105BF00073F56F3F6BA7B13E6718703FCBEAB03EBD
:105C0000373B703F102EB03EE15D703F3A71AF3EC2
:105C10006680703F49B4AE3EC6A2703F3CF7AD3ED1
:105C200002C5703F153AAD3E17E7703FD47CAC3EDD
:105C30000809713F77BFAB3ED42A713F0102AB3EEA
:105C40007A4C713F6F44AA3EFB6D713FC486A93EFA
:105C5000578F713FFEC8A83E8EB0713F1F0BA83E04
:105C60009FD1713F254DA73E8CF2713F128FA63E0A
:105C70005213723FE5D0A53EF433723F9F12A53E0A
:105C80007054723F3F54A43EC774723FC595A33E03
:105C9000F894723F33D7A23E04B5723F8718A23EF4
:105CA000EBD4723FC259A13EACF4723FE59AA03EDC
:105CB0004714733FEEDB9F3EBE33733FDF1C9F3EB6
:105CC0000E53733FB85D9E3E3972733F789E9D3E82
:105CD0003F91733F20DF9C3E1FB0733FAF1F9C3E40
:105CE000D9CE733F27609B3E6EED733F86A09A3EF0
:105CF000DD0B743FCEE0993E272A743FFE20993E8B
:105D00004B48743F1661983E4966743F17A1973E11
:105D10002284743F00E1963ED5A1743FD220963E86
:105D200062BF743F8D60953EC9DC743F31A0943EE4
:105D30000BFA743FBFDF933E2717753F351F933E25
:105D40001D34753F945E923EED50753FDD9D913E52
:105D5000976D753F10DD903E1C8A753F2C1C903E60
:105D60007BA6753F325B8F3EB3C2753F229A8E3E53
:105D7000C6DE753FFCD88D3EB3FA753FC0178D3E29
:105D80007A16763F6E568C3E1B32763F07958B3ED9
:105D9000974D763F8AD38A3EEC68763FF8118A3E6B
:105DA0001B84763F5050893E249F763F938E883ED9
:105DB00007BA763FC1CC873EC4D4763FDA0A873E25
:105DC0005BEF763FDF48863ECC09773FCE86853E47
:105DD0001724773FAAC4843E3C3E773F7002843E3E
:105DE0003A58773F2240833E1372773FC07D823E10
:105DF000C58B773F4ABB813E51A5773FC0F8803EB7
:105E0000B7BE773F2236803EF7D7773FE1E67E3E4A
:105E100010F1773F56617D3E040A783FA4DB7B3E5C
:105E2000D122783FCB557A3E773B783FCCCF783E36
:105E3000F853783FA649773E526C783F5AC3753E77
:105E40008684783FE83C743E939C783F51B6723E1E
:105E50007BB4783F942F713E3BCC783FB2A86F3E25
:105E6000D6E3783FAB216E3E4AFB783F7F9A6C3E8B
:105E70009812793F2F136B3EBF29793FBA8B693E49
:105E8000C040793F2204683E9A57793F667C663E5F
:105E90004E6E793F86F4643EDC84793F836C633ECA
:105EA000439B793F5CE4613E83B1793F135C603E84
:105EB0009DC7793FA8D35E3E91DD793F1A4B5D3E89
:105EC0005EF3793F6AC25B3E04097A3F97395A3ED6
:105ED000841E7A3FA4B0583EDD337A3F8F27573E69
:105EE00010497A3F589E553E1C5E7A3F0115543E3C
:105EF00002737A3F898B523EC1877A3FF101513E4E
:105F0000599C7A3F38784F3ECBB07A3F60EE4D3E99
:105F100016C57A3F67644C3E3AD97A3F4FDA4A3E1B
:105F200037ED7A3F1850493E0E017B3FC2C5473ED0
:105F3000BE147B3F4D3B463E48287B3FB9B0443EB4
:105F4000AB3B7B3F0726433EE74E7B3F379B413EC3
:105F5000FC617B3F4910403EEA747B3F3E853E3EFC
:105F6000B2877B3F15FA3C3E539A7B3FCF6E3B3E58
:105F7000CDAC7B3F6CE3393E20BF7B3FEC57383ED6
:105F80004DD17B3F50CC363E53E37B3F9840353E6E
:105F900031F57B3FC4B4333EE9067C3FD428323E22
:105FA0007A187C3FC99C303EE5297C3FA2102F3EE9
:105FB000283B7C3F61842D3E444C7C3F04F82B3EC3
:105FC0003A5D7C3F8D6B2A3E086E7C3FFCDE283EAE
:105FD000B07E7C3F5152273E318F7C3F8CC5253EA1
:105FE0008A9F7C3FAD38243EBDAF7C3FB6AB223E9E
:105FF000C9BF7C3FA51E213EAECF7C3F7B911F3E9B
:106000006CDF7C3F38041E3E03EF7C3FDE761C3E97
:1060100073FE7C3F6BE91A3EBC0D7D3FE05B193E91
:10602000DD1C7D3F3DCE173ED82B7D3F8340163E85
:10603000AC3A7D3FB2B2143E59497D3FCA24133E6B
:10604000DE577D3FCC96113E3D667D3FB708103E42
:1060500074747D3F8B7A0E3E85827D3F4AEC0C3E08
:106060006E907D3FF35D0B3E309E7D3F86CF093EB7
:10607000CCAB7D3F0541083E40B97D3F6EB2063E48
:106080008CC67D3FC223053EB2D37D3F0295033EC1
:10609000B1E07D3F2E06023E88ED7D3F4577003E14
:1060A00038FA7D3F92D0FD3DC2067E3F73B2FA3D85
:1060B00024137E3F2C94F73D5E1F7E3FC075F43D58
:1060C000722B7E3F2E57F13D5E377E3F7638EE3D98
:1060D00023437E3F9A19EB3DC14E7E3F9AFAE73D3E
:1060E000385A7E3F76DBE43D88657E3F2EBCE13D3D
:1060F000B0707E3FC49CDE3DB17B7E3F377DDB3D93
:106100008B867E3F895DD83D3D917E3FB93DD53D33
:10611000C99B7E3FC81DD23D2DA67E3FB7FDCE3D1B
:1061200069B07E3F86DDCB3D7FBA7E3F36BDC83D40
:106130006DC47E3FC69CC53D34CE7E3F397CC23D9A
:10614000D4D77E3F8D5BBF3D4CE17E3FC33ABC3D23
:106150009DEA7E3FDD19B93DC7F37E3FDAF8B53DD4
:10616000C9FC7E3FBBD7B23DA4057F3F80B6AF3DA3
:10617000580E7F3F2B95AC3DE4167F3FBA73A93D87
:10618000491F7F3F3052A63D87277F3F8C30A33D7C
:106190009D2F7F3FCF0EA03D8D377F3FF9EC9C3D7B
:1061A000543F7F3F0ACB993DF4467F3F05A9963D7A
:1061B0006D4E7F3FE786933DBF557F3FB464903D72
:1061C000E95C7F3F6A428D3DEC637F3F0A208A3D58
:1061D000C76A7F3F94FD863D7B717F3F0ADB833D2D
:1061E00008787F3F6CB8803D6D7E7F3F742B7B3D90
:1061F000AB847F3FE9E5743DC28A7F3F38A06E3DA6
:10620000B1907F3F625A683D78967F3F6814623D47
:10621000189C7F3F4CCE5B3D91A17F3F0E88553D42
:10622000E3A67F3FAF414F3D0DAC7F3F2FFB483D85
:106230000FB17F3F91B4423DEAB57F3FD56D3C3D04
:106240009EBA7F3FFC26363D2ABF7F3F07E02F3DA9
:106250008FC37F3FF698293DCCC77F3FCC51233D6C
:10626000E2CB7F3F880A1D3DD1CF7F3F2CC3163D37
:1062700098D37F3FB87B103D37D77F3F2F340A3DFF
:10628000AFDA7F3F90EC033D00DE7F3FB949FB3C36
:1062900029E17F3F2DBAEE3C2BE47F3F7B2AE23C95
:1062A00005E77F3FA69AD53CB8E97F3FB00AC93CD5
:1062B00043EC7F3F9B7ABC3CA7EE7F3F69EAAF3C53
:1062C000E3F07F3F1C5AA33CF8F27F3FB6C9963CEF
:1062D000E6F47F3F38398A3CACF67F3F4B517B3C3C
:1062E0004AF87F3F0030623CC1F97F3F900E493C45
:1062F00011FB7F3F02ED2F3C39FC7F3F59CB163C11
:1063000039FD7F3F3053FB3B13FE7F3F890FC93B75
:10631000C4FE7F3FC1CB963B4EFF7F3FC70F493B3B
:10632000B1FF7F3FD40FC93AECFF7F3F0000000070
:106330000000803FD40FC9BAECFF7F3FC70F49BBB5
:10634000B1FF7F3FC1CB96BB4EFF7F3F890FC9BBDB
:10635000C4FE7F3F3053FBBB13FE7F3F59CB16BCBF
:1063600039FD7F3F02ED2FBC39FC7F3F900E49BCC9
:1063700011FB7F3F003062BCC1F97F3F4B517BBCBA
:106380004AF87F3F38398ABCACF67F3FB6C996BC25
:10639000E6F47F3F1C5AA3BCF8F27F3F69EAAFBC2A
:1063A000E3F07F3F9B7ABCBCA7EE7F3FB00AC9BC3D
:1063B00043EC7F3FA69AD5BCB8E97F3F7B2AE2BC7D
:1063C00005E77F3F2DBAEEBC2BE47F3FB949FBBC0C
:1063D00029E17F3F90EC03BD00DE7F3F2F340ABDF3
:1063E000AFDA7F3FB87B10BD37D77F3F2CC316BDD8
:1063F00098D37F3F880A1DBDD1CF7F3FCC5123BDAD
:10640000E2CB7F3FF69829BDCCC77F3F07E02FBD89
:106410008FC37F3FFC2636BD2ABF7F3FD56D3CBD75
:106420009EBA7F3F91B442BDEAB57F3F2FFB48BD86
:106430000FB17F3FAF414FBD0DAC7F3F0E8855BDC3
:10644000E3A67F3F4CCE5BBD91A17F3F681462BD48
:10645000189C7F3F625A68BD78967F3F38A06EBD1A
:10646000B1907F3FE9E574BDC28A7F3F742B7BBD4D
:10647000AB847F3F6CB880BD6D7E7F3F0ADB83BD00
:1064800008787F3F94FD86BD7B717F3F0A208ABDDF
:10649000C76A7F3F6A428DBDEC637F3FB46490BDA5
:1064A000E95C7F3FE78693BDBF557F3F05A996BD59
:1064B0006D4E7F3F0ACB99BDF4467F3FF9EC9CBD02
:1064C000543F7F3FCF0EA0BD8D377F3F8C30A3BDA3
:1064D0009D2F7F3F3052A6BD87277F3FBA73A9BD4E
:1064E000491F7F3F2B95ACBDE4167F3F80B6AFBD03
:1064F000580E7F3FBBD7B2BDA4057F3FDAF8B5BDCC
:10650000C9FC7E3FDD19B9BDC7F37E3FC33ABCBDB0
:106510009DEA7E3F8D5BBFBD4CE17E3F397CC2BDB5
:10652000D4D77E3FC69CC5BD34CE7E3F36BDC8BDE8
:106530006DC47E3F86DDCBBD7FBA7E3FB7FDCEBD4D
:1065400069B07E3FC81DD2BD2DA67E3FB93DD5BDE9
:10655000C99B7E3F895DD8BD3D917E3F377DDBBDC8
:106560008B867E3FC49CDEBDB17B7E3F2EBCE1BDF1
:10657000B0707E3F76DBE4BD88657E3F9AFAE7BD6A
:10658000385A7E3F9A19EBBDC14E7E3F7638EEBD3C
:1065900023437E3F2E57F1BD5E377E3FC075F4BD6D
:1065A000722B7E3F2C94F7BD5E1F7E3F73B2FABD07
:1065B00024137E3F92D0FDBDC2067E3F457700BECC
:1065C00038FA7D3F2E0602BE88ED7D3F029503BE60
:1065D000B1E07D3FC22305BEB2D37D3F6EB206BEA1
:1065E0008CC67D3F054108BE40B97D3F86CF09BEC0
:1065F000CCAB7D3FF35D0BBE309E7D3F4AEC0CBEC5
:106600006E907D3F8B7A0EBE85827D3FB70810BEAF
:1066100074747D3FCC9611BE3D667D3FCA2413BE87
:10662000DE577D3FB2B214BE59497D3F834016BE4E
:10663000AC3A7D3F3DCE17BED82B7D3FE05B19BE07
:10664000DD1C7D3F6BE91ABEBC0D7D3FDE761CBEB6
:1066500073FE7C3F38041EBE03EF7C3F7B911FBE60
:106660006CDF7C3FA51E21BEAECF7C3FB6AB22BE09
:10667000C9BF7C3FAD3824BEBDAF7C3F8CC525BEB5
:106680008A9F7C3F515227BE318F7C3FFCDE28BE63
:10669000B07E7C3F8D6B2ABE086E7C3F04F82BBE1B
:1066A0003A5D7C3F61842DBE444C7C3FA2102FBEDE
:1066B000283B7C3FC99C30BEE5297C3FD42832BEB4
:1066C0007A187C3FC4B433BEE9067C3F984035BE9F
:1066D00031F57B3F50CC36BE53E37B3FEC5738BEA1
:1066E0004DD17B3F6CE339BE20BF7B3FCF6E3BBEBD
:1066F000CDAC7B3F15FA3CBE539A7B3F3E853EBEF8
:10670000B2877B3F491040BEEA747B3F379B41BE56
:10671000FC617B3F072643BEE74E7B3FB9B044BEDA
:10672000AB3B7B3F4D3B46BE48287B3FC2C547BE87
:10673000BE147B3F185049BE0E017B3F4FDA4ABE64
:1067400037ED7A3F67644CBE3AD97A3F60EE4DBE72
:1067500016C57A3F38784FBECBB07A3FF10151BEB3
:10676000599C7A3F898B52BEC1877A3F011554BE2E
:1067700002737A3F589E55BE1C5E7A3F8F2757BEE4
:1067800010497A3FA4B058BEDD337A3F97395ABEDC
:10679000841E7A3F6AC25BBE04097A3F1A4B5DBE13
:1067A0005EF3793FA8D35EBE91DD793F135C60BE96
:1067B0009DC7793F5CE461BE83B1793F836C63BE62
:1067C000439B793F86F464BEDC84793F667C66BE79
:1067D0004E6E793F220468BE9A57793FBA8B69BEE4
:1067E000C040793F2F136BBEBF29793F7F9A6CBEA3
:1067F0009812793FAB216EBE4AFB783FB2A86FBEBC
:10680000D6E3783F942F71BE3BCC783F51B672BE31
:106810007BB4783FE83C74BE939C783F5AC375BE06
:106820008684783FA64977BE526C783FCCCF78BE3D
:10683000F853783FCB557ABE773B783FA4DB7BBEDD
:10684000D122783F56617DBE040A783FE1E67EBEE4
:1068500010F1773F223680BEF7D7773FC0F880BE71
:10686000B7BE773F4ABB81BE51A5773FC07D82BE90
:10687000C58B773F224083BE1372773F700284BE80
:106880003A58773FAAC484BE3C3E773FCE8685BE49
:106890001724773FDF4886BECC09773FDA0A87BEE8
:1068A0005BEF763FC1CC87BEC4D4763F938E88BE63
:1068B00007BA763F505089BE249F763FF8118ABEB2
:1068C0001B84763F8AD38ABEEC68763F07958BBEE1
:1068D000974D763F6E568CBE1B32763FC0178DBEED
:1068E0007A16763FFCD88DBEB3FA753F229A8EBEDB
:1068F000C6DE753F325B8FBEB3C2753F2C1C90BEA7
:106900007BA6753F10DD90BE1C8A753FDD9D91BE54
:10691000976D753F945E92BEED50753F351F93BEE7
:106920001D34753FBFDF93BE2717753F31A094BE5E
:106930000BFA743F8D6095BEC9DC743FD22096BEC1
:1069400062BF743F00E196BED5A1743F17A197BE08
:106950002284743F166198BE4966743FFE2099BE3A
:106960004B48743FCEE099BE272A743F86A09ABE5A
:10697000DD0B743F27609BBE6EED733FAF1F9CBE67
:10698000D9CE733F20DF9CBE1FB0733F789E9DBE63
:106990003F91733FB85D9EBE3972733FDF1C9FBE4F
:1069A0000E53733FEEDB9FBEBE33733FE59AA0BE2E
:1069B0004714733FC259A1BEACF4723F8718A2BE00
:1069C000EBD4723F33D7A2BE04B5723FC595A3BEC8
:1069D000F894723F3F54A4BEC774723F9F12A5BE85
:1069E0007054723FE5D0A5BEF433723F128FA6BE3D
:1069F0005213723F254DA7BE8CF2713F1F0BA8BEEC
:106A00009FD1713FFEC8A8BE8EB0713FC486A9BE9B
:106A1000578F713F6F44AABEFB6D713F0102ABBE41
:106A20007A4C713F77BFABBED42A713FD47CACBEE9
:106A30000809713F153AADBE17E7703F3CF7ADBE90
:106A400002C5703F49B4AEBEC6A2703F3A71AFBE38
:106A50006680703F102EB0BEE15D703FCBEAB0BEE5
:106A6000373B703F6BA7B1BE6718703FEF63B2BE94
:106A700073F56F3F5820B3BE5AD26F3FA5DCB3BE4B
:106A80001BAF6F3FD698B4BEB88B6F3FEC54B5BE0A
:106A900030686F3FE610B6BE83446F3FC3CCB6BECE
:106AA000B0206F3F8488B7BEBAFC6E3F2A44B8BEA0
:106AB0009ED86E3FB2FFB8BE5DB46E3F1EBBB9BE7E
:106AC000F88F6E3F6E76BABE6D6B6E3FA031BBBE67
:106AD000BE466E3FB6ECBBBEEB216E3FAFA7BCBE61
:106AE000F2FC6D3F8B62BDBED5D76D3F4A1DBEBE69
:106AF00093B26D3FEBD7BEBE2D8D6D3F6F92BFBE83
:106B0000A1676D3FD54CC0BEF2416D3F1E07C1BEAF
:106B10001D1C6D3F48C1C1BE24F66C3F557BC2BEF3
:106B200007D06C3F4435C3BEC5A96C3F15EFC3BE4B
:106B30005E836C3FC8A8C4BED45C6C3F5C62C5BEBB
:106B400024366C3FD21BC6BE500F6C3F29D5C6BE43
:106B500058E86B3F628EC7BE3BC16B3F7C47C8BEE7
:106B6000FB996B3F7700C9BE95726B3F53B9C9BEA5
:106B70000C4B6B3F1072CABE5E236B3FAE2ACBBE7E
:106B80008CFB6A3F2CE3CBBE95D36A3F8B9BCCBE7C
:106B90007BAB6A3FCA53CDBE3C836A3FEA0BCEBE95
:106BA000D95A6A3FEAC3CEBE52326A3FCA7BCFBED1
:106BB000A7096A3F8A33D0BED7E0693F2AEBD0BE2F
:106BC000E4B7693FAAA2D1BECC8E693F095AD2BEB2
:106BD0009165693F4811D3BE323C693F67C8D3BE57
:106BE000AE12693F647FD4BE07E9683F4136D5BE27
:106BF0003CBF683FFDECD5BE4C95683F99A3D6BE1F
:106C0000396B683F135AD7BE0341683F6B10D8BE3B
:106C1000A816683FA3C6D8BE2AEC673FB97CD9BE88
:106C200087C1673FAD32DABEC196673F80E8DABE02
:106C3000D86B673F319EDBBECA40673FC153DCBEA5
:106C40009915673F2E09DDBE45EA663F79BEDDBE78
:106C5000CCBE663FA273DEBE3093663FA928DFBE7E
:106C60007167663F8DDDDFBE8E3B663F4F92E0BEB3
:106C7000880F663FEE46E1BE5EE3653F6AFBE1BE1C
:106C800010B7653FC4AFE2BEA08A653FFA63E3BEBA
:106C90000B5E653F0E18E4BE5431653FFECBE4BE8B
:106CA0007904653FCB7FE5BE7BD7643F7533E6BE95
:106CB00059AA643FFBE6E6BE147D643F5D9AE7BED9
:106CC000AC4F643F9C4DE8BE2122643FB700E9BE53
:106CD00073F4633FAEB3E9BEA1C6633F8166EABE0B
:106CE000AC98633F3019EBBE956A633FBBCBEBBEFC
:106CF0005A3C633F217EECBEFC0D633F6330EDBE2A
:106D00007BDF623F80E2EDBED7B0623F7994EEBE9A
:106D10001082623F4C46EFBE2653623FFBF7EFBE48
:106D20001A24623F85A9F0BEEAF4613FEA5AF1BE37
:106D300098C5613F290CF2BE2296613F43BDF2BE69
:106D40008A66613F386EF3BED036613F071FF4BEDE
:106D5000F206613FB1CFF4BEF2D6603F3580F5BE9A
:106D6000CFA6603F9330F6BE8976603FCBE0F6BE9B
:106D70002146603FDC90F7BE9615603FC840F8BEE4
:106D8000E9E45F3F8EF0F8BE19B45F3F2DA0F9BE75
:106D900027835F3FA54FFABE12525F3FF7FEFABE50
:106DA000DB205F3F22AEFBBE81EF5E3F275DFCBE76
:106DB00005BE5E3F040CFDBE678C5E3FBBBAFDBEE8
:106DC000A65A5E3F4A69FEBEC3285E3FB217FFBEA9
:106DD000BEF65D3FF3C5FFBE97C45D3F063A00BFF8
:106DE0004D925D3FFF9000BFE15F5D3FE4E700BF74
:106DF000532D5D3FB53E01BFA3FA5C3F739501BFC4
:106E0000D1C75C3F1CEC01BFDD945C3FB14202BFC7
:106E1000C7615C3F329902BF8E2E5C3F9FEF02BF7D
:106E200034FB5B3FF84503BFB8C75B3F3D9C03BFE6
:106E30001A945B3F6DF203BF5A605B3F894804BF01
:106E4000792C5B3F919E04BF75F85A3F84F404BFD0
:106E500050C45A3F624A05BF09905A3F2CA005BF53
:106E6000A05B5A3FE2F505BF16275A3F824B06BF8B
:106E70006AF2593F0EA106BF9CBD593F86F606BF78
:106E8000AD88593FE84B07BF9C53593F36A107BF18
:106E90006A1E593F6FF607BF17E9583F924B08BF6C
:106EA000A1B3583FA1A008BF0B7E583F9BF508BF78
:106EB0005348583F7F4A09BF7912583F4E9F09BF38
:106EC0007FDC573F09F409BF63A6573FAD480ABFAF
:106ED0002670573F3D9D0ABFC739573FB7F10ABFDC
:106EE0004803573F1C460BBFA7CC563F6B9A0BBFBE
:106EF000E595563FA5EE0BBF025F563FC9420CBF5A
:106F0000FE27563FD7960CBFD9F0553FD0EA0CBFAD
:106F100093B9553FB33E0DBF2C82553F81920DBFB3
:106F2000A44A553F38E60DBFFB12553FDA390EBF74
:106F300031DB543F658D0EBF47A3543FDBE00EBFEE
:106F40003B6B543F3B340FBF0F33543F84870FBF1D
:106F5000C3FA533FB8DA0FBF55C2533FD52D10BF08
:106F6000C789533FDC8010BF1851533FCDD310BFAA
:106F70004918533FA72611BF59DF523F6B7911BF04
:106F800049A6523F19CC11BF186D523FB01E12BF17
:106F9000C633523F307112BF54FA513F9AC312BFE9
:106FA000C2C0513FEE1513BF1087513F2A6813BF6F
:106FB0003D4D513F50BA13BF4A13513F5F0C14BFB0
:106FC00037D9503F585E14BF039F503F39B014BFAC
:106FD000AF64503F040215BF3B2A503FB75315BF63
:106FE000A8EF4F3F54A515BFF4B44F3FD9F615BFD6
:106FF0001F7A4F3F474816BF2B3F4F3F9F9916BF01
:1070000017044F3FDFEA16BFE4C84E3F073C17BFE7
:10701000908D4E3F188D17BF1C524E3F12DE17BF8A
:1070200089164E3FF52E18BFD5DA4D3FC07F18BFE9
:10703000029F4D3F73D018BF10634D3F0F2119BF02
:10704000FD264D3F947119BFCBEA4C3F00C219BFDA
:1070500079AE4C3F55121ABF08724C3F93621ABF6B
:1070600078354C3FB8B21ABFC7F84B3FC6021BBFBA
:10707000F8BB4B3FBB521BBF097F4B3F99A21BBFC5
:10708000FA414B3F5FF21BBFCC044B3F0C421CBF8D
:107090007FC74A3FA2911CBF138A4A3F1FE11CBF12
:1070A000874C4A3F84301DBFDC0E4A3FD17F1DBF55
:1070B00012D1493F06CF1DBF2993493F221E1EBF53
:1070C0002155493F266D1EBFFA16493F12BC1EBF0F
:1070D000B3D8483FE50A1FBF4E9A483F9F591FBF8C
:1070E000CA5B483F41A81FBF271D483FCBF61FBFC3
:1070F00065DE473F3B4520BF849F473F939320BFBA
:107100008560473FD2E120BF6721473FF92F21BF6C
:107110002AE2463F067E21BFCEA2463FFBCB21BFDF
:107120005463463FD71922BFBB23463F996722BF0E
:1071300003E4453F43B522BF2DA4453FD30223BFFF
:107140003964453F4B5023BF2624453FA99D23BFAB
:10715000F5E3443FEEEA23BFA5A3443F1A3824BF1A
:107160003763443F2C8524BFAB22443F25D224BF44
:1071700000E2433F041F25BF38A1433FCB6B25BF2F
:107180005160433F77B825BF4C1F433F0A0526BFD8
:1071900029DE423F845126BFE89C423FE39D26BF43
:1071A000895B423F2AEA26BF0B1A423F563627BF69
:1071B00070D8413F688227BFB796413F61CE27BF55
:1071C000E154413F401A28BFEC12413F056628BFF9
:1071D000DAD0403FB0B128BFA98E403F41FD28BF63
:1071E0005C4C403FB84829BFF009403F159429BF87
:1071F00067C73F3F57DF29BFC0843F3F802A2ABF70
:10720000FC413F3F8E752ABF1BFF3E3F82C02ABF15
:107210001BBC3E3F5B0B2BBFFF783E3F1B562BBF7B
:10722000C5353E3FBFA02BBF6EF23D3F4AEB2BBFA3
:10723000F9AE3D3FB9352CBF676B3D3F0F802CBF8A
:10724000B8273D3F49CA2CBFECE33C3F69142DBF32
:1072500003A03C3F6F5E2DBFFC5B3C3F59A82DBF98
:10726000D9173C3F29F22DBF98D33B3FDE3B2EBFC1
:107270003B8F3B3F78852EBFC14A3B3FF7CE2EBFA9
:1072800029063B3F5B182FBF75C13A3FA5612FBF51
:10729000A47C3A3FD3AA2FBFB7373A3FE6F32FBFBC
:1072A000ACF2393FDE3C30BF85AD393FBB8530BFE6
:1072B0004268393F7CCE30BFE122393F221731BFCF
:1072C00065DD383FAD5F31BFCB97383F1DA831BF7B
:1072D0001652383F71F031BF430C383FAA3832BFE5
:1072E00055C6373FC78032BF4A80373FC9C832BF13
:1072F000233A373FAF1033BFDFF3363F7A5833BFFF
:107300007FAD363F29A033BF0467363FBCE733BFAC
:107310006C20363F342F34BFB8D9353F8F7634BF19
:10732000E792353FCFBD34BFFB4B353FF30435BF4C
:10733000F304353FFB4B35BFCFBD343FE79235BF3C
:107340008F76343FB8D935BF342F343F6C2036BFE9
:10735000BCE7333F046736BF29A0333F7FAD36BF5C
:107360007A58333FDFF336BFAF10333F233A37BF8E
:10737000C9C8323F4A8037BFC780323F55C637BF82
:10738000AA38323F430C38BF71F0313F165238BF34
:107390001DA8313FCB9738BFAD5F313F65DD38BFAA
:1073A0002217313FE12239BF7CCE303F426839BFDE
:1073B000BB85303F85AD39BFDE3C303FACF239BFD5
:1073C000E6F32F3FB7373ABFD3AA2F3FA47C3ABF8B
:1073D000A5612F3F75C13ABF5B182F3F29063BBF00
:1073E000F7CE2E3FC14A3BBF78852E3F3B8F3BBF38
:1073F000DE3B2E3F98D33BBF29F22D3FD9173CBF30
:1074000059A82D3FFC5B3CBF6F5E2D3F03A03CBFE6
:1074100069142D3FECE33CBF49CA2C3FB8273DBF60
:107420000F802C3F676B3DBFB9352C3FF9AE3DBF98
:107430004AEB2B3F6EF23DBFBFA02B3FC5353EBF91
:107440001B562B3FFF783EBF5B0B2B3F1BBC3EBF49
:1074500082C02A3F1BFF3EBF8E752A3FFC413FBFC3
:10746000802A2A3FC0843FBF57DF293F67C73FBFFD
:107470001594293FF00940BFB848293F5C4C40BFF4
:1074800041FD283FA98E40BFB0B1283FDAD040BFB0
:107490000566283FEC1241BF401A283FE15441BF26
:1074A00061CE273FB79641BF6882273F70D841BF62
:1074B0005636273F0B1A42BF2AEA263F895B42BF56
:1074C000E39D263FE89C42BF8451263F29DE42BF10
:1074D0000A05263F4C1F43BF77B8253F516043BF85
:1074E000CB6B253F38A143BF041F253F00E243BFBC
:1074F00025D2243FAB2244BF2C85243F376344BFB1
:107500001A38243FA5A344BFEEEA233FF5E344BF66
:10751000A99D233F262445BF4B50233F396445BFD7
:10752000D302233F2DA445BF43B5223F03E445BF0B
:107530009967223FBB2346BFD719223F546346BFFA
:10754000FBCB213FCEA246BF067E213F2AE246BFAB
:10755000F92F213F672147BFD2E1203F856047BF18
:107560009393203F849F47BF3B45203F65DE47BF45
:10757000CBF61F3F271D48BF41A81F3FCA5B48BF2E
:107580009F591F3F4E9A48BFE50A1F3FB3D848BFD7
:1075900012BC1E3FFA1649BF266D1E3F215549BF3A
:1075A000221E1E3F299349BF06CF1D3F12D149BF5E
:1075B000D17F1D3FDC0E4ABF84301D3F874C4ABF40
:1075C0001FE11C3F138A4ABFA2911C3F7FC74ABFDD
:1075D0000C421C3FCC044BBF5FF21B3FFA414BBF38
:1075E00099A21B3F097F4BBFBB521B3FF8BB4BBF50
:1075F000C6021B3FC7F84BBFB8B21A3F78354CBF25
:1076000093621A3F08724CBF55121A3F79AE4CBFB5
:1076100000C2193FCBEA4CBF9471193FFD264DBF04
:107620000F21193F10634DBF73D0183F029F4DBF0C
:10763000C07F183FD5DA4DBFF52E183F89164EBFD3
:1076400012DE173F1C524EBF188D173F908D4EBF54
:10765000073C173FE4C84EBFDFEA163F17044FBF91
:107660009F99163F2B3F4FBF4748163F1F7A4FBF8A
:10767000D9F6153FF4B44FBF54A5153FA8EF4FBF3F
:10768000B753153F3B2A50BF0402153FAF6450BFAC
:1076900039B0143F039F50BF585E143F37D950BFD5
:1076A0005F0C143F4A1351BF50BA133F3D4D51BFB9
:1076B0002A68133F108751BFEE15133FC2C051BF58
:1076C0009AC3123F54FA51BF3071123FC63352BFB2
:1076D000B01E123F186D52BF19CC113F49A652BFC0
:1076E0006B79113F59DF52BFA726113F491853BF8D
:1076F000CDD3103F185153BFDC80103FC78953BF13
:10770000D52D103F55C253BFB8DA0F3FC3FA53BF50
:1077100084870F3F0F3354BF3B340F3F3B6B54BF45
:10772000DBE00E3F47A354BF658D0E3F31DB54BFF6
:10773000DA390E3FFB1255BF38E60D3FA44A55BF5C
:1077400081920D3F2C8255BFB33E0D3F93B955BF7B
:10775000D0EA0C3FD9F055BFD7960C3FFE2756BF55
:10776000C9420C3F025F56BFA5EE0B3FE59556BFE1
:107770006B9A0B3FA7CC56BF1C460B3F480357BF25
:10778000B7F10A3FC73957BF3D9D0A3F267057BF23
:10779000AD480A3F63A657BF09F4093F7FDC57BFD6
:1077A0004E9F093F791258BF7F4A093F534858BF3F
:1077B0009BF5083F0B7E58BFA1A0083FA1B358BF5F
:1077C000924B083F17E958BF6FF6073F6A1E59BF33
:1077D00036A1073F9C5359BFE84B073FAD8859BFBF
:1077E00086F6063F9CBD59BF0EA1063F6AF259BFFF
:1077F000824B063F16275ABFE2F5053FA05B5ABFF2
:107800002CA0053F09905ABF624A053F50C45ABF99
:1078100084F4043F75F85ABF919E043F792C5BBFF6
:107820008948043F5A605BBF6DF2033F1A945BBF07
:107830003D9C033FB8C75BBFF845033F34FB5BBFCC
:107840009FEF023F8E2E5CBF3299023FC7615CBF43
:10785000B142023FDD945CBF1CEC013FD1C75CBF6D
:107860007395013FA3FA5CBFB53E013F532D5DBF49
:10787000E4E7003FE15F5DBFFF90003F4D925DBFD9
:10788000063A003F97C45DBFF3C5FF3EBEF65DBF3D
:10789000B217FF3EC3285EBF4A69FE3EA65A5EBFCE
:1078A000BBBAFD3E678C5EBF040CFD3E05BE5EBFED
:1078B000275DFC3E81EF5EBF22AEFB3EDB205FBF5B
:1078C000F7FEFA3E12525FBFA54FFA3E27835FBF15
:1078D0002DA0F93E19B45FBF8EF0F83EE9E45FBF1A
:1078E000C840F83E961560BFDC90F73E214660BF69
:1078F000CBE0F63E897660BF9330F63ECFA660BF00
:107900003580F53EF2D660BFB1CFF43EF20661BFDE
:10791000071FF43ED03661BF386EF33E8A6661BF02
:1079200043BDF23E229661BF290CF23E98C561BF6D
:10793000EA5AF13EEAF461BF85A9F03E1A2462BF1B
:10794000FBF7EF3E265362BF4C46EF3E108262BF0C
:107950007994EE3ED7B062BF80E2ED3E7BDF62BF3E
:107960006330ED3EFC0D63BF217EEC3E5A3C63BFAD
:10797000BBCBEB3E956A63BF3019EB3EAC9863BF5F
:107980008166EA3EA1C663BFAEB3E93E73F463BF4E
:10799000B700E93E212264BF9C4DE83EAC4F64BF76
:1079A0005D9AE73E147D64BFFBE6E63E59AA64BFDC
:1079B0007533E63E7BD764BFCB7FE53E790465BF78
:1079C000FECBE43E543165BF0E18E43E0B5E65BF4E
:1079D000FA63E33EA08A65BFC4AFE23E10B765BF5D
:1079E0006AFBE13E5EE365BFEE46E13E880F66BF9F
:1079F0004F92E03E8E3B66BF8DDDDF3E716766BF16
:107A0000A928DF3E309366BFA273DE3ECCBE66BFC0
:107A100079BEDD3E45EA66BF2E09DD3E991567BF9A
:107A2000C153DC3ECA4067BF319EDB3ED86B67BFA7
:107A300080E8DA3EC19667BFAD32DA3E87C167BFE4
:107A4000B97CD93E2AEC67BFA3C6D83EA81668BF4A
:107A50006B10D83E034168BF135AD73E396B68BFDD
:107A600099A3D63E4C9568BFFDECD53E3CBF68BFA0
:107A70004136D53E07E968BF647FD43EAE1269BF88
:107A800067C8D33E323C69BF4811D33E916569BF98
:107A9000095AD23ECC8E69BFAAA2D13EE4B769BFD3
:107AA0002AEBD03ED7E069BF8A33D03EA7096ABF30
:107AB000CA7BCF3E52326ABFEAC3CE3ED95A6ABFB2
:107AC000EA0BCE3E3C836ABFCA53CD3E7BAB6ABF56
:107AD0008B9BCC3E95D36ABF2CE3CB3E8CFB6ABF1D
:107AE000AE2ACB3E5E236BBF1072CA3E0C4B6BBFFF
:107AF00053B9C93E95726BBF7700C93EFB996BBF06
:107B00007C47C83E3BC16BBF628EC73E58E86BBF27
:107B100029D5C63E500F6CBFD21BC63E24366CBF63
:107B20005C62C53ED45C6CBFC8A8C43E5E836CBFBB
:107B300015EFC33EC5A96CBF4435C33E07D06CBF2B
:107B4000557BC23E24F66CBF48C1C13E1D1C6DBFB3
:107B50001E07C13EF2416DBFD54CC03EA1676DBF4F
:107B60006F92BF3E2D8D6DBFEBD7BE3E93B26DBF02
:107B70004A1DBE3ED5D76DBF8B62BD3EF2FC6DBFC8
:107B8000AFA7BC3EEB216EBFB6ECBB3EBE466EBFA0
:107B9000A031BB3E6D6B6EBF6E76BA3EF88F6EBF86
:107BA0001EBBB93E5DB46EBFB2FFB83E9ED86EBF7D
:107BB0002A44B83EBAFC6EBF8488B73EB0206FBF7F
:107BC000C3CCB63E83446FBFE610B63E30686FBF8D
:107BD000EC54B53EB88B6FBFD698B43E1BAF6FBFA9
:107BE000A5DCB33E5AD26FBF5820B33E73F56FBFCA
:107BF000EF63B23E671870BF6BA7B13E373B70BFF3
:107C0000CBEAB03EE15D70BF102EB03E668070BF23
:107C10003A71AF3EC6A270BF49B4AE3E02C570BF56
:107C20003CF7AD3E17E770BF153AAD3E080971BF8E
:107C3000D47CAC3ED42A71BF77BFAB3E7A4C71BFC7
:107C40000102AB3EFB6D71BF6F44AA3E578F71BFFF
:107C5000C486A93E8EB071BFFEC8A83E9FD171BF39
:107C60001F0BA83E8CF271BF254DA73E521372BF69
:107C7000128FA63EF43372BFE5D0A53E705472BF9A
:107C80009F12A53EC77472BF3F54A43EF89472BFC2
:107C9000C595A33E04B572BF33D7A23EEBD472BFE5
:107CA0008718A23EACF472BFC259A13E471473BFFD
:107CB000E59AA03EBE3373BFEEDB9F3E0E5373BF0B
:107CC000DF1C9F3E397273BFB85D9E3E3F9173BF0C
:107CD000789E9D3E1FB073BF20DF9C3ED9CE73BF00
:107CE000AF1F9C3E6EED73BF27609B3EDD0B74BFE4
:107CF00086A09A3E272A74BFCEE0993E4B4874BFB7
:107D0000FE20993E496674BF1661983E228474BF76
:107D100017A1973ED5A174BF00E1963E62BF74BF24
:107D2000D220963EC9DC74BF8D60953E0BFA74BFBD
:107D300031A0943E271775BFBFDF933E1D3475BF3A
:107D4000351F933EED5075BF945E923E976D75BFA3
:107D5000DD9D913E1C8A75BF10DD903E7BA675BFF0
:107D60002C1C903EB3C275BF325B8F3EC6DE75BF22
:107D7000229A8E3EB3FA75BFFCD88D3E7A1676BF36
:107D8000C0178D3E1B3276BF6E568C3E974D76BF28
:107D900007958B3EEC6876BF8AD38A3E1B8476BFFC
:107DA000F8118A3E249F76BF5050893E07BA76BFAD
:107DB000938E883EC4D476BFC1CC873E5BEF76BF3E
:107DC000DA0A873ECC0977BFDF48863E172477BFA3
:107DD000CE86853E3C3E77BFAAC4843E3A5877BFE4
:107DE0007002843E137277BF2240833EC58B77BFFB
:107DF000C07D823E51A577BF4ABB813EB7BE77BFEB
:107E0000C0F8803EF7D777BF2236803E10F177BFAB
:107E1000E1E67E3E040A78BF56617D3ED12278BFFE
:107E2000A4DB7B3E773B78BFCB557A3EF85378BFD7
:107E3000CCCF783E526C78BFA649773E868478BF17
:107E40005AC3753E939C78BFE83C743E7BB478BFC0
:107E500051B6723E3BCC78BF942F713ED6E378BFCB
:107E6000B2A86F3E4AFB78BFAB216E3E981279BF35
:107E70007F9A6C3EBF2979BF2F136B3EC04079BFFC
:107E8000BA8B693E9A5779BF2204683E4E6E79BF1D
:107E9000667C663EDC8479BF86F4643E439B79BF92
:107EA000836C633E83B179BF5CE4613E9DC779BF5B
:107EB000135C603E91DD79BFA8D35E3E5EF379BF6F
:107EC0001A4B5D3E04097ABF6AC25B3E841E7ABFCC
:107ED00097395A3EDD337ABFA4B0583E10497ABF75
:107EE0008F27573E1C5E7ABF589E553E02737ABF5D
:107EF0000115543EC1877ABF898B523E599C7ABF87
:107F0000F101513ECBB07ABF38784F3E16C57ABFEB
:107F100060EE4D3E3AD97ABF67644C3E37ED7ABF8A
:107F20004FDA4A3E0E017BBF1850493EBE147BBF5C
:107F3000C2C5473E48287BBF4D3B463EAB3B7BBF5F
:107F4000B9B0443EE74E7BBF0726433EFC617BBF92
:107F5000379B413EEA747BBF4910403EB2877BBFEE
:107F60003E853E3E539A7BBF15FA3C3ECDAC7BBF6F
:107F7000CF6E3B3E20BF7BBF6CE3393E4DD17BBF14
:107F8000EC57383E53E37BBF50CC363E31F57BBFD8
:107F90009840353EE9067CBFC4B4333E7A187CBFB6
:107FA000D428323EE5297CBFC99C303E283B7CBFAB
:107FB000A2102F3E444C7CBF61842D3E3A5D7CBFB5
:107FC00004F82B3E086E7CBF8D6B2A3EB07E7CBFD2
:107FD000FCDE283E318F7CBF5152273E8A9F7CBFFA
:107FE0008CC5253EBDAF7CBFAD38243EC9BF7CBF2C
:107FF000B6AB223EAECF7CBFA51E213E6CDF7CBF60
:108000007B911F3E03EF7CBF38041E3E73FE7CBF96
:10801000DE761C3EBC0D7DBF6BE91A3EDD1C7DBFCC
:10802000E05B193ED82B7DBF3DCE173EAC3A7DBFFD
:108030008340163E59497DBFB2B2143EDE577DBF24
:10804000CA24133E3D667DBFCC96113E74747DBF3D
:10805000B708103E85827DBF8B7A0E3E6E907DBF45
:108060004AEC0C3E309E7DBFF35D0B3ECCAB7DBF3A
:1080700086CF093E40B97DBF0541083E8CC67DBF15
:108080006EB2063EB2D37DBFC223053EB1E07DBFD6
:108090000295033E88ED7DBF2E06023E38FA7DBF75
:1080A0004577003EC2067EBF92D0FD3D24137EBFC1
:1080B00073B2FA3D5E1F7EBF2C94F73D722B7EBFDC
:1080C000C075F43D5E377EBF2E57F13D23437EBF22
:1080D0007638EE3DC14E7EBF9A19EB3D385A7EBFD1
:1080E0009AFAE73D88657EBF76DBE43DB0707EBFDF
:1080F0002EBCE13DB17B7EBFC49CDE3D8B867EBF46
:10810000377DDB3D3D917EBF895DD83DC99B7EBFFC
:10811000B93DD53D2DA67EBFC81DD23D69B07EBFFD
:10812000B7FDCE3D7FBA7EBF86DDCB3D6DC47EBF41
:1081300036BDC83D34CE7EBFC69CC53DD4D77EBFBC
:10814000397CC23D4CE17EBF8D5BBF3D9DEA7EBF69
:10815000C33ABC3DC7F37EBFDD19B93DC9FC7EBF44
:10816000DAF8B53DA4057FBFBBD7B23D580E7FBF3F
:1081700080B6AF3DE4167FBF2B95AC3D491F7FBF56
:10818000BA73A93D87277FBF3052A63D9D2F7FBF81
:108190008C30A33D8D377FBFCF0EA03D543F7FBFB6
:1081A000F9EC9C3DF4467FBF0ACB993D6D4E7FBFF5
:1081B00005A9963DBF557FBFE786933DE95C7FBF2C
:1081C000B464903DEC637FBF6A428D3DC76A7FBF58
:1081D0000A208A3D7B717FBF94FD863D08787FBF72
:1081E0000ADB833D6D7E7FBF6CB8803DAB847FBF73
:1081F000742B7B3DC28A7FBFE9E5743DB1907FBFA0
:1082000038A06E3D78967FBF625A683D189C7FBF4C
:108210006814623D91A17FBF4CCE5B3DE3A67FBF5A
:108220000E88553D0DAC7FBFAF414F3D0FB17FBFB5
:108230002FFB483DEAB57FBF91B4423D9EBA7FBF58
:10824000D56D3C3D2ABF7FBFFC26363D8FC37FBF27
:1082500007E02F3DCCC77FBFF698293DE2CB7FBF1B
:10826000CC51233DD1CF7FBF880A1D3D98D37FBF1E
:108270002CC3163D37D77FBFB87B103DAFDA7FBF29
:108280002F340A3D00DE7FBF90EC033D29E17FBF24
:10829000B949FB3C2BE47FBF2DBAEE3C05E77FBF1D
:1082A0007B2AE23CB8E97FBFA69AD53C43EC7FBF6E
:1082B000B00AC93CA7EE7FBF9B7ABC3CE3F07FBF0E
:1082C00069EAAF3CF8F27FBF1C5AA33CE6F47FBFDB
:1082D000B6C9963CACF67FBF38398A3C4AF87FBFB6
:1082E0004B517B3CC1F97FBF0030623C11FB7FBF2B
:1082F000900E493C39FC7FBF02ED2F3C39FD7FBF1A
:1083000059CB163C13FE7FBF3053FB3BC4FE7FBFEF
:10831000890FC93B4EFF7FBFC1CB963BB1FF7FBFEB
:10832000C70F493BECFF7FBFD40FC93A000080BFA5
:1083300000000000ECFF7FBFD40FC9BAB1FF7FBFC0
:10834000C70F49BB4EFF7FBFC1CB96BBC4FE7FBFEB
:10835000890FC9BB13FE7FBF3053FBBB39FD7FBF05
:1083600059CB16BC39FC7FBF02ED2FBC11FB7FBF80
:10837000900E49BCC1F97FBF003062BC4AF87FBF94
:108380004B517BBCACF67FBF38398ABCE6F47FBF6B
:10839000B6C996BCF8F27FBF1C5AA3BCE3F07FBFFE
:1083A00069EAAFBCA7EE7FBF9B7ABCBC43EC7FBF42
:1083B000B00AC9BCB8E97FBFA69AD5BC05E77FBFA4
:1083C0007B2AE2BC2BE47FBF2DBAEEBC29E17FBF44
:1083D000B949FBBC00DE7FBF90EC03BDAFDA7FBFC5
:1083E0002F340ABD37D77FBFB87B10BD98D37FBF6E
:1083F0002CC316BDD1CF7FBF880A1DBDE2CB7FBF86
:10840000CC5123BDCCC77FBFF69829BD8FC37FBF9A
:1084100007E02FBD2ABF7FBFFC2636BD9EBA7FBFB7
:10842000D56D3CBDEAB57FBF91B442BD0FB17FBFF2
:108430002FFB48BD0DAC7FBFAF414FBDE3A67FBF53
:108440000E8855BD91A17FBF4CCE5BBD189C7FBFF0
:10845000681462BD78967FBF625A68BDB1907FBFD5
:1084600038A06EBDC28A7FBFE9E574BDAB847FBF13
:10847000742B7BBD6D7E7FBF6CB880BD08787FBFDD
:108480000ADB83BD7B717FBF94FD86BDC76A7FBF5A
:108490000A208ABDEC637FBF6A428DBDE95C7FBF65
:1084A000B46490BDBF557FBFE78693BD6D4E7FBF5F
:1084B00005A996BDF4467FBF0ACB99BD543F7FBF47
:1084C000F9EC9CBD8D377FBFCF0EA0BD9D2F7FBF28
:1084D0008C30A3BD87277FBF3052A6BD491F7FBF09
:1084E000BA73A9BDE4167FBF2B95ACBD580E7FBFF4
:1084F00080B6AFBDA4057FBFBBD7B2BDC9FC7EBFF0
:10850000DAF8B5BDC7F37EBFDD19B9BD9DEA7EBF00
:10851000C33ABCBD4CE17EBF8D5BBFBDD4D77EBF2F
:10852000397CC2BD34CE7EBFC69CC5BD6DC47EBF86
:1085300036BDC8BD7FBA7EBF86DDCBBD69B07EBF0C
:10854000B7FDCEBD2DA67EBFC81DD2BDC99B7EBFC7
:10855000B93DD5BD3D917EBF895DD8BD8B867EBFBF
:10856000377DDBBDB17B7EBFC49CDEBDB0707EBFFE
:108570002EBCE1BD88657EBF76DBE4BD385A7EBF88
:108580009AFAE7BDC14E7EBF9A19EBBD23437EBF69
:108590007638EEBD5E377EBF2E57F1BD722B7EBFA3
:1085A000C075F4BD5E1F7EBF2C94F7BD24137EBF43
:1085B00073B2FABDC2067EBF92D0FDBD38FA7DBF50
:1085C000457700BE88ED7DBF2E0602BEB1E07DBFBF
:1085D000029503BEB2D37DBFC22305BE8CC67DBF4C
:1085E0006EB206BE40B97DBF054108BECCAB7DBFB3
:1085F00086CF09BE309E7DBFF35D0BBE6E907DBF02
:108600004AEC0CBE85827DBF8B7A0EBE74747DBF32
:10861000B70810BE3D667DBFCC9611BEDE577DBF4C
:10862000CA2413BE59497DBFB2B214BEAC3A7DBF55
:10863000834016BED82B7DBF3DCE17BEDD1C7DBF4F
:10864000E05B19BEBC0D7DBF6BE91ABE73FE7CBF3B
:10865000DE761CBE03EF7CBF38041EBE6CDF7CBF21
:108660007B911FBEAECF7CBFA51E21BEC9BF7CBF04
:10867000B6AB22BEBDAF7CBFAD3824BE8A9F7CBFE7
:108680008CC525BE318F7CBF515227BEB07E7CBFCA
:10869000FCDE28BE086E7CBF8D6B2ABE3A5D7CBFB7
:1086A00004F82BBE444C7CBF61842DBE283B7CBFAC
:1086B000A2102FBEE5297CBFC99C30BE7A187CBFB2
:1086C000D42832BEE9067CBFC4B433BE31F57BBFCB
:1086D000984035BE53E37BBF50CC36BE4DD17BBFF7
:1086E000EC5738BE20BF7BBF6CE339BECDAC7BBF3F
:1086F000CF6E3BBE539A7BBF15FA3CBEB2877BBFA1
:108700003E853EBEEA747BBF491040BEFC617BBF24
:10871000379B41BEE74E7BBF072643BEAB3B7BBFCB
:10872000B9B044BE48287BBF4D3B46BEBE147BBF9C
:10873000C2C547BE0E017BBF185049BE37ED7ABF98
:108740004FDA4ABE3AD97ABF67644CBE16C57ABFC3
:1087500060EE4DBECBB07ABF38784FBE599C7ABF21
:10876000F10151BEC1877ABF898B52BE02737ABFB5
:10877000011554BE1C5E7ABF589E55BE10497ABF83
:108780008F2757BEDD337ABFA4B058BE841E7ABF90
:1087900097395ABE04097ABF6AC25BBE5EF379BFDD
:1087A0001A4B5DBE91DD79BFA8D35EBE9DC779BF70
:1087B000135C60BE83B179BF5CE461BE439B79BF4B
:1087C000836C63BEDC8479BF86F464BE4E6E79BF71
:1087D000667C66BE9A5779BF220468BEC04079BFE6
:1087E000BA8B69BEBF2979BF2F136BBE981279BFB0
:1087F0007F9A6CBE4AFB78BFAB216EBED6E378BFD2
:10880000B2A86FBE3BCC78BF942F71BE7BB478BF4B
:1088100051B672BE939C78BFE83C74BE868478BF24
:108820005AC375BE526C78BFA64977BEF85378BF5D
:10883000CCCF78BE773B78BFCB557ABED12278BFFC
:10884000A4DB7BBE040A78BF56617DBE10F177BF02
:10885000E1E67EBEF7D777BF223680BEB7BE77BFD0
:10886000C0F880BE51A577BF4ABB81BEC58B77BF1C
:10887000C07D82BE137277BF224083BE3A5877BF55
:10888000700284BE3C3E77BFAAC484BE172477BF63
:10889000CE8685BECC0977BFDF4886BE5BEF76BF4C
:1088A000DA0A87BEC4D476BFC1CC87BE07BA76BF0A
:1088B000938E88BE249F76BF505089BE1B8476BF9E
:1088C000F8118ABEEC6876BF8AD38ABE974D76BF10
:1088D00007958BBE1B3276BF6E568CBE7A1676BF5E
:1088E000C0178DBEB3FA75BFFCD88DBEC6DE75BF8E
:1088F000229A8EBEB3C275BF325B8FBE7BA675BF98
:108900002C1C90BE1C8A75BF10DD90BE976D75BF84
:10891000DD9D91BEED5075BF945E92BE1D3475BF56
:10892000351F93BE271775BFBFDF93BE0BFA74BF09
:1089300031A094BEC9DC74BF8D6095BE62BF74BFA8
:10894000D22096BED5A174BF00E196BE228474BF2A
:1089500017A197BE496674BF166198BE4B4874BF95
:10896000FE2099BE272A74BFCEE099BEDD0B74BFEE
:1089700086A09ABE6EED73BF27609BBED9CE73BF33
:10898000AF1F9CBE1FB073BF20DF9CBE3F9173BF63
:10899000789E9DBE397273BFB85D9EBE0E5373BF85
:1089A000DF1C9FBEBE3373BFEEDB9FBE471473BF99
:1089B000E59AA0BEACF472BFC259A1BEEBD472BF9F
:1089C0008718A2BE04B572BF33D7A2BEF89472BF97
:1089D000C595A3BEC77472BF3F54A4BE705472BF86
:1089E0009F12A5BEF43372BFE5D0A5BE521372BF6D
:1089F000128FA6BE8CF271BF254DA7BE9FD171BF4D
:108A00001F0BA8BE8EB071BFFEC8A8BE578F71BF26
:108A1000C486A9BEFB6D71BF6F44AABE7A4C71BFFC
:108A20000102ABBED42A71BF77BFABBE080971BFCC
:108A3000D47CACBE17E770BF153AADBE02C570BF9F
:108A40003CF7ADBEC6A270BF49B4AEBE668070BF73
:108A50003A71AFBEE15D70BF102EB0BE373B70BF44
:108A6000CBEAB0BE671870BF6BA7B1BE73F56FBF1E
:108A7000EF63B2BE5AD26FBF5820B3BE1BAF6FBFF9
:108A8000A5DCB3BEB88B6FBFD698B4BE30686FBFDD
:108A9000EC54B5BE83446FBFE610B6BEB0206FBFC6
:108AA000C3CCB6BEBAFC6EBF8488B7BE9ED86EBFBC
:108AB0002A44B8BE5DB46EBFB2FFB8BEF88F6EBFB9
:108AC0001EBBB9BE6D6B6EBF6E76BABEBE466EBFC4
:108AD000A031BBBEEB216EBFB6ECBBBEF2FC6DBFDE
:108AE000AFA7BCBED5D76DBF8B62BDBE93B26DBF05
:108AF0004A1DBEBE2D8D6DBFEBD7BEBEA1676DBF3B
:108B00006F92BFBEF2416DBFD54CC0BE1D1C6DBF84
:108B10001E07C1BE24F66CBF48C1C1BE07D06CBFE2
:108B2000557BC2BEC5A96CBF4435C3BE5E836CBF56
:108B300015EFC3BED45C6CBFC8A8C4BE24366CBFDE
:108B40005C62C5BE500F6CBFD21BC6BE58E86BBF7F
:108B500029D5C6BE3BC16BBF628EC7BEFB996BBF3A
:108B60007C47C8BE95726BBF7700C9BE0C4B6BBF0C
:108B700053B9C9BE5E236BBF1072CABE8CFB6ABFFD
:108B8000AE2ACBBE95D36ABF2CE3CBBE7BAB6ABF0C
:108B90008B9BCCBE3C836ABFCA53CDBED95A6ABF39
:108BA000EA0BCEBE52326ABFEAC3CEBEA7096ABF85
:108BB000CA7BCFBED7E069BF8A33D0BEE4B769BFF6
:108BC0002AEBD0BECC8E69BFAAA2D1BE916569BF87
:108BD000095AD2BE323C69BF4811D3BEAE1269BF3A
:108BE00067C8D3BE07E968BF647FD4BE3CBF68BF17
:108BF0004136D5BE4C9568BFFDECD5BE396B68BF1C
:108C000099A3D6BE034168BF135AD7BEA81668BF42
:108C10006B10D8BE2AEC67BFA3C6D8BE87C167BF9A
:108C2000B97CD9BEC19667BFAD32DABED86B67BF1B
:108C300080E8DABECA4067BF319EDBBE991567BFC8
:108C4000C153DCBE45EA66BF2E09DDBECCBE66BFA1
:108C500079BEDDBE309366BFA273DEBE716766BFAC
:108C6000A928DFBE8E3B66BF8DDDDFBE880F66BFE5
:108C70004F92E0BE5EE365BFEE46E1BE10B765BF52
:108C80006AFBE1BEA08A65BFC4AFE2BE0B5E65BFF2
:108C9000FA63E3BE543165BF0E18E4BE790465BFC4
:108CA000FECBE4BE7BD764BFCB7FE5BE59AA64BFD1
:108CB0007533E6BE147D64BFFBE6E6BEAC4F64BF11
:108CC0005D9AE7BE212264BF9C4DE8BE73F463BF8A
:108CD000B700E9BEA1C663BFAEB3E9BEAC9863BF3F
:108CE0008166EABE956A63BF3019EBBE5A3C63BF2A
:108CF000BBCBEBBEFC0D63BF217EECBE7BDF62BF56
:108D00006330EDBED7B062BF80E2EDBE108262BFBD
:108D10007994EEBE265362BF4C46EFBE1A2462BF62
:108D2000FBF7EFBEEAF461BF85A9F0BE98C561BF4D
:108D3000EA5AF1BE229661BF290CF2BE8A6661BF73
:108D400043BDF2BED03661BF386EF3BEF20661BFDE
:108D5000071FF4BEF2D660BFB1CFF4BECFA660BF8E
:108D60003580F5BE897660BF9330F6BE214660BF80
:108D7000CBE0F6BE961560BFDC90F7BEE9E45FBFBE
:108D8000C840F8BE19B45FBF8EF0F8BE27835FBF3E
:108D90002DA0F9BE12525FBFA54FFABEDB205FBF08
:108DA000F7FEFABE81EF5EBF22AEFBBE05BE5EBF20
:108DB000275DFCBE678C5EBF040CFDBEA65A5EBF7D
:108DC000BBBAFDBEC3285EBF4A69FEBEBEF65DBF2C
:108DD000B217FFBE97C45DBFF3C5FFBE4D925DBF26
:108DE000063A00BFE15F5DBFFF9000BF532D5DBF3E
:108DF000E4E700BFA3FA5CBFB53E01BFD1C75CBFCB
:108E0000739501BFDD945CBF1CEC01BFC7615CBF03
:108E1000B14202BF8E2E5CBF329902BF34FB5BBFF2
:108E20009FEF02BFB8C75BBFF84503BF1A945BBF93
:108E30003D9C03BF5A605BBF6DF203BF792C5BBFE3
:108E4000894804BF75F85ABF919E04BF50C45ABFE9
:108E500084F404BF09905ABF624A05BFA05B5ABFA1
:108E60002CA005BF16275ABFE2F505BF6AF259BF0D
:108E7000824B06BF9CBD59BF0EA106BFAD8859BF2E
:108E800086F606BF9C5359BFE84B07BF6A1E59BF01
:108E900036A107BF17E958BF6FF607BFA1B358BF88
:108EA000924B08BF0B7E58BFA1A008BF534858BFC4
:108EB0009BF508BF791258BF7F4A09BF7FDC57BFB7
:108EC0004E9F09BF63A657BF09F409BF267057BF5D
:108ED000AD480ABFC73957BF3D9D0ABF480357BFBA
:108EE000B7F10ABFA7CC56BF1C460BBFE59556BFCE
:108EF0006B9A0BBF025F56BFA5EE0BBFFE2756BF96
:108F0000C9420CBFD9F055BFD7960CBF93B955BF16
:108F1000D0EA0CBF2C8255BFB33E0DBFA44A55BF4B
:108F200081920DBFFB1255BF38E60DBF31DB54BF38
:108F3000DA390EBF47A354BF658D0EBF3B6B54BFDC
:108F4000DBE00EBF0F3354BF3B340FBFC3FA53BF38
:108F500084870FBF55C253BFB8DA0FBFC78953BF4D
:108F6000D52D10BF185153BFDC8010BF491853BF17
:108F7000CDD310BF59DF52BFA72611BF49A652BF9C
:108F80006B7911BF186D52BF19CC11BFC63352BFD8
:108F9000B01E12BF54FA51BF307112BFC2C051BFD0
:108FA0009AC312BF108751BFEE1513BF3D4D51BF7D
:108FB0002A6813BF4A1351BF50BA13BF37D950BFE5
:108FC0005F0C14BF039F50BF585E14BFAF6450BF07
:108FD00039B014BF3B2A50BF040215BFA8EF4FBFE2
:108FE000B75315BFF4B44FBF54A515BF1F7A4FBF79
:108FF000D9F615BF2B3F4FBF474816BF17044FBFC9
:109000009F9916BFE4C84EBFDFEA16BF908D4EBFD2
:10901000073C17BF1C524EBF188D17BF89164EBF95
:1090200012DE17BFD5DA4DBFF52E18BF029F4DBF18
:10903000C07F18BF10634DBF73D018BFFD264DBF52
:109040000F2119BFCBEA4CBF947119BF79AE4CBF49
:1090500000C219BF08724CBF55121ABF78354CBFF9
:1090600093621ABFC7F84BBFB8B21ABFF8BB4BBF69
:10907000C6021BBF097F4BBFBB521BBFFA414BBF90
:1090800099A21BBFCC044BBF5FF21BBF7FC74ABF77
:109090000C421CBF138A4ABFA2911CBF874C4ABF17
:1090A0001FE11CBFDC0E4ABF84301DBF12D149BF77
:1090B000D17F1DBF299349BF06CF1DBF215549BF91
:1090C000221E1EBFFA1649BF266D1EBFB3D848BF69
:1090D00012BC1EBF4E9A48BFE50A1FBFCA5B48BFFD
:1090E0009F591FBF271D48BF41A81FBF65DE47BF4F
:1090F000CBF61FBF849F47BF3B4520BF856047BF5E
:10910000939320BF672147BFD2E120BF2AE246BF29
:10911000F92F21BFCEA246BF067E21BF546346BFB2
:10912000FBCB21BFBB2346BFD71922BF03E445BFFA
:10913000996722BF2DA445BF43B522BF396445BFFF
:10914000D30223BF262445BF4B5023BFF5E344BFC2
:10915000A99D23BFA5A344BFEEEA23BF376344BF45
:109160001A3824BFAB2244BF2C8524BF00E243BF82
:1091700025D224BF38A143BF041F25BF516043BF80
:10918000CB6B25BF4C1F43BF77B825BF29DE42BF3D
:109190000A0526BFE89C42BF845126BF895B42BFB7
:1091A000E39D26BF0B1A42BF2AEA26BF70D841BFF3
:1091B000563627BFB79641BF688227BFE15441BFEB
:1091C00061CE27BFEC1241BF401A28BFDAD040BFA2
:1091D000056628BFA98E40BFB0B128BF5C4C40BF18
:1091E00041FD28BFF00940BFB84829BF67C73FBF4E
:1091F000159429BFC0843FBF57DF29BFFC413FBF43
:10920000802A2ABF1BFF3EBF8E752ABF1BBC3EBFF4
:1092100082C02ABFFF783EBF5B0B2BBFC5353EBF68
:109220001B562BBF6EF23DBFBFA02BBFF9AE3DBF9B
:109230004AEB2BBF676B3DBFB9352CBFB8273DBF8D
:109240000F802CBFECE33CBF49CA2CBF03A03CBF3E
:1092500069142DBFFC5B3CBF6F5E2DBFD9173CBFAF
:1092600059A82DBF98D33BBF29F22DBF3B8F3BBFE1
:10927000DE3B2EBFC14A3BBF78852EBF29063BBFD0
:10928000F7CE2EBF75C13ABF5B182FBFA47C3ABF83
:10929000A5612FBFB7373ABFD3AA2FBFACF239BFF2
:1092A000E6F32FBF85AD39BFDE3C30BF426839BF22
:1092B000BB8530BFE12239BF7CCE30BF65DD38BF12
:1092C000221731BFCB9738BFAD5F31BF165238BFC1
:1092D0001DA831BF430C38BF71F031BF55C637BF31
:1092E000AA3832BF4A8037BFC78032BF233A37BF60
:1092F000C9C832BFDFF336BFAF1033BF7FAD36BF53
:109300007A5833BF046736BF29A033BF6C2036BFFD
:10931000BCE733BFB8D935BF342F34BFE79235BF70
:109320008F7634BFFB4B35BFCFBD34BFF30435BFA1
:10933000F30435BFCFBD34BFFB4B35BF8F7634BF91
:10934000E79235BF342F34BFB8D935BFBCE733BF40
:109350006C2036BF29A033BF046736BF7A5833BFAD
:109360007FAD36BFAF1033BFDFF336BFC9C832BFE2
:10937000233A37BFC78032BF4A8037BFAA3832BFCF
:1093800055C637BF71F031BF430C38BF1DA831BF80
:10939000165238BFAD5F31BFCB9738BF221731BFF0
:1093A00065DD38BF7CCE30BFE12239BFBB8530BF21
:1093B000426839BFDE3C30BF85AD39BFE6F32FBF11
:1093C000ACF239BFD3AA2FBFB7373ABFA5612FBFC1
:1093D000A47C3ABF5B182FBF75C13ABFF7CE2EBF32
:1093E00029063BBF78852EBFC14A3BBFDE3B2EBF5F
:1093F0003B8F3BBF29F22DBF98D33BBF59A82DBF50
:10940000D9173CBF6F5E2DBFFC5B3CBF69142DBFFD
:1094100003A03CBF49CA2CBFECE33CBF0F802CBF6C
:10942000B8273DBFB9352CBF676B3DBF4AEB2BBF9B
:10943000F9AE3DBFBFA02BBF6EF23DBF1B562BBF89
:10944000C5353EBF5B0B2BBFFF783EBF82C02ABF36
:109450001BBC3EBF8E752ABF1BFF3EBF802A2ABFA2
:10946000FC413FBF57DF29BFC0843FBF159429BFD0
:1094700067C73FBFB84829BFF00940BF41FD28BFBB
:109480005C4C40BFB0B128BFA98E40BF056628BF65
:10949000DAD040BF401A28BFEC1241BF61CE27BFCF
:1094A000E15441BF688227BFB79641BF563627BFF8
:1094B00070D841BF2AEA26BF0B1A42BFE39D26BFE0
:1094C000895B42BF845126BFE89C42BF0A0526BF84
:1094D00029DE42BF77B825BF4C1F43BFCB6B25BFEA
:1094E000516043BF041F25BF38A143BF25D224BF0D
:1094F00000E243BF2C8524BFAB2244BF1A3824BFEF
:10950000376344BFEEEA23BFA5A344BFA99D23BF91
:10951000F5E344BF4B5023BF262445BFD30223BFEE
:10952000396445BF43B522BF2DA445BF996722BF0B
:1095300003E445BFD71922BFBB2346BFFBCB21BFE6
:10954000546346BF067E21BFCEA246BFF92F21BF7E
:109550002AE246BFD2E120BF672147BF939320BFD5
:10956000856047BF3B4520BF849F47BFCBF61FBFE9
:1095700065DE47BF41A81FBF271D48BF9F591FBFBA
:10958000CA5B48BFE50A1FBF4E9A48BF12BC1EBF48
:10959000B3D848BF266D1EBFFA1649BF221E1EBF94
:1095A000215549BF06CF1DBF299349BFD17F1DBF9C
:1095B00012D149BF84301DBFDC0E4ABF1FE11CBF62
:1095C000874C4ABFA2911CBF138A4ABF0C421CBFE2
:1095D0007FC74ABF5FF21BBFCC044BBF99A21BBF22
:1095E000FA414BBFBB521BBF097F4BBFC6021BBF1B
:1095F000F8BB4BBFB8B21ABFC7F84BBF93621ABFD4
:1096000078354CBF55121ABF08724CBF00C219BF43
:1096100079AE4CBF947119BFCBEA4CBF0F2119BF73
:10962000FD264DBF73D018BF10634DBFC07F18BF5C
:10963000029F4DBFF52E18BFD5DA4DBF12DE17BF02
:1096400089164EBF188D17BF1C524EBF073C17BF5F
:10965000908D4EBFDFEA16BFE4C84EBF9F9916BF7C
:1096600017044FBF474816BF2B3F4FBFD9F615BF52
:109670001F7A4FBF54A515BFF4B44FBFB75315BFE2
:10968000A8EF4FBF040215BF3B2A50BF39B014BF2B
:10969000AF6450BF585E14BF039F50BF5F0C14BF30
:1096A00037D950BF50BA13BF4A1351BF2A6813BFEE
:1096B0003D4D51BFEE1513BF108751BF9AC312BF66
:1096C000C2C051BF307112BF54FA51BFB01E12BF99
:1096D000C63352BF19CC11BF186D52BF6B7911BF81
:1096E00049A652BFA72611BF59DF52BFCDD310BF25
:1096F000491853BFDC8010BF185153BFD52D10BF80
:10970000C78953BFB8DA0FBF55C253BF84870FBF95
:10971000C3FA53BF3B340FBF0F3354BFDBE00EBF60
:109720003B6B54BF658D0EBF47A354BFDA390EBFE4
:1097300031DB54BF38E60DBFFB1255BF81920DBF20
:10974000A44A55BFB33E0DBF2C8255BFD0EA0CBF13
:1097500093B955BFD7960CBFD9F055BFC9420CBFBE
:10976000FE2756BFA5EE0BBF025F56BF6B9A0BBF1D
:10977000E59556BF1C460BBFA7CC56BFB7F10ABF35
:10978000480357BF3D9D0ABFC73957BFAD480ABF01
:10979000267057BF09F409BF63A657BF4E9F09BF84
:1097A0007FDC57BF7F4A09BF791258BF9BF508BFBE
:1097B000534858BFA1A008BF0B7E58BF924B08BFAB
:1097C000A1B358BF6FF607BF17E958BF36A107BF4F
:1097D0006A1E59BFE84B07BF9C5359BF86F606BFA8
:1097E000AD8859BF0EA106BF9CBD59BF824B06BFB5
:1097F0006AF259BFE2F505BF16275ABF2CA005BF74
:10980000A05B5ABF624A05BF09905ABF84F404BFE7
:1098100050C45ABF919E04BF75F85ABF894804BF0F
:10982000792C5BBF6DF203BF5A605BBF3D9C03BFE9
:109830001A945BBFF84503BFB8C75BBF9FEF02BF79
:1098400034FB5BBF329902BF8E2E5CBFB14202BFB8
:10985000C7615CBF1CEC01BFDD945CBF739501BFA9
:10986000D1C75CBFB53E01BFA3FA5CBFE4E700BF50
:10987000532D5DBFFF9000BFE15F5DBF063A00BFA3
:109880004D925DBFF3C5FFBE97C45DBFB217FFBE6B
:10989000BEF65DBF4A69FEBEC3285EBFBBBAFDBE51
:1098A000A65A5EBF040CFDBE678C5EBF275DFCBE82
:1098B00005BE5EBF22AEFBBE81EF5EBFF7FEFABE05
:1098C000DB205FBFA54FFABE12525FBF2DA0F9BECD
:1098D00027835FBF8EF0F8BE19B45FBFC840F8BEE3
:1098E000E9E45FBFDC90F7BE961560BFCBE0F6BE43
:1098F000214660BF9330F6BE897660BF3580F5BEE5
:10990000CFA660BFB1CFF4BEF2D660BF071FF4BED2
:10991000F20661BF386EF3BED03661BF43BDF2BE02
:109920008A6661BF290CF2BE229661BFEA5AF1BE77
:1099300098C561BF85A9F0BEEAF461BFFBF7EFBE31
:109940001A2462BF4C46EFBE265362BF7994EEBE26
:10995000108262BF80E2EDBED7B062BF6330EDBE61
:109960007BDF62BF217EECBEFC0D63BFBBCBEBBED9
:109970005A3C63BF3019EBBE956A63BF8166EABE8D
:10998000AC9863BFAEB3E9BEA1C663BFB700E9BE82
:1099900073F463BF9C4DE8BE212264BF5D9AE7BEAD
:1099A000AC4F64BFFBE6E6BE147D64BF7533E6BE14
:1099B00059AA64BFCB7FE5BE7BD764BFFECBE4BEB4
:1099C000790465BF0E18E4BE543165BFFA63E3BE87
:1099D0000B5E65BFC4AFE2BEA08A65BF6AFBE1BE95
:1099E00010B765BFEE46E1BE5EE365BF4F92E0BED5
:1099F000880F66BF8DDDDFBE8E3B66BFA928DFBE48
:109A0000716766BFA273DEBE309366BF79BEDDBEEE
:109A1000CCBE66BF2E09DDBE45EA66BFC153DCBEC3
:109A2000991567BF319EDBBECA4067BF80E8DABECA
:109A3000D86B67BFAD32DABEC19667BFB97CD9BEFD
:109A400087C167BFA3C6D8BE2AEC67BF6B10D8BE5C
:109A5000A81668BF135AD7BE034168BF99A3D6BEE4
:109A6000396B68BFFDECD5BE4C9568BF4136D5BE9D
:109A70003CBF68BF647FD4BE07E968BF67C8D3BE78
:109A8000AE1269BF4811D3BE323C69BF095AD2BE7B
:109A9000916569BFAAA2D1BECC8E69BF2AEBD0BEA8
:109AA000E4B769BF8A33D0BED7E069BFCA7BCFBEF7
:109AB000A7096ABFEAC3CEBE52326ABFEA0BCEBE66
:109AC000D95A6ABFCA53CDBE3C836ABF8B9BCCBEFA
:109AD0007BAB6ABF2CE3CBBE95D36ABFAE2ACBBEAD
:109AE0008CFB6ABF1072CABE5E236BBF53B9C9BE7E
:109AF0000C4B6BBF7700C9BE95726BBF7C47C8BE6D
:109B0000FB996BBF628EC7BE3BC16BBF29D5C6BE7A
:109B100058E86BBFD21BC6BE500F6CBF5C62C5BE9F
:109B200024366CBFC8A8C4BED45C6CBF15EFC3BEDE
:109B30005E836CBF4435C3BEC5A96CBF557BC2BE36
:109B400007D06CBF48C1C1BE24F66CBF1E07C1BEA2
:109B50001D1C6DBFD54CC0BEF2416DBF6F92BFBE24
:109B6000A1676DBFEBD7BEBE2D8D6DBF4A1DBEBEBA
:109B700093B26DBF8B62BDBED5D76DBFAFA7BCBE64
:109B8000F2FC6DBFB6ECBBBEEB216EBFA031BBBE1D
:109B9000BE466EBF6E76BABE6D6B6EBF1EBBB9BEE3
:109BA000F88F6EBFB2FFB8BE5DB46EBF2A44B8BEB8
:109BB0009ED86EBF8488B7BEBAFC6EBFC3CCB6BE9B
:109BC000B0206FBFE610B6BE83446FBFEC54B5BE85
:109BD00030686FBFD698B4BEB88B6FBFA5DCB3BE7C
:109BE0001BAF6FBF5820B3BE5AD26FBFEF63B2BE78
:109BF00073F56FBF6BA7B1BE671870BFCBEAB0BE7D
:109C0000373B70BF102EB0BEE15D70BF3A71AFBE82
:109C1000668070BF49B4AEBEC6A270BF3CF7ADBE91
:109C200002C570BF153AADBE17E770BFD47CACBE9D
:109C3000080971BF77BFABBED42A71BF0102ABBEAA
:109C40007A4C71BF6F44AABEFB6D71BFC486A9BEBA
:109C5000578F71BFFEC8A8BE8EB071BF1F0BA8BEC4
:109C60009FD171BF254DA7BE8CF271BF128FA6BECA
:109C7000521372BFE5D0A5BEF43372BF9F12A5BECA
:109C8000705472BF3F54A4BEC77472BFC595A3BEC3
:109C9000F89472BF33D7A2BE04B572BF8718A2BEB4
:109CA000EBD472BFC259A1BEACF472BFE59AA0BE9C
:109CB000471473BFEEDB9FBEBE3373BFDF1C9FBE76
:109CC0000E5373BFB85D9EBE397273BF789E9DBE42
:109CD0003F9173BF20DF9CBE1FB073BFAF1F9CBE00
:109CE000D9CE73BF27609BBE6EED73BF86A09ABEB0
:109CF000DD0B74BFCEE099BE272A74BFFE2099BE4B
:109D00004B4874BF166198BE496674BF17A197BED1
:109D1000228474BF00E196BED5A174BFD22096BE46
:109D200062BF74BF8D6095BEC9DC74BF31A094BEA4
:109D30000BFA74BFBFDF93BE271775BF351F93BEE5
:109D40001D3475BF945E92BEED5075BFDD9D91BE12
:109D5000976D75BF10DD90BE1C8A75BF2C1C90BE20
:109D60007BA675BF325B8FBEB3C275BF229A8EBE13
:109D7000C6DE75BFFCD88DBEB3FA75BFC0178DBEE9
:109D80007A1676BF6E568CBE1B3276BF07958BBE99
:109D9000974D76BF8AD38ABEEC6876BFF8118ABE2B
:109DA0001B8476BF505089BE249F76BF938E88BE99
:109DB00007BA76BFC1CC87BEC4D476BFDA0A87BEE5
:109DC0005BEF76BFDF4886BECC0977BFCE8685BE07
:109DD000172477BFAAC484BE3C3E77BF700284BEFE
:109DE0003A5877BF224083BE137277BFC07D82BED0
:109DF000C58B77BF4ABB81BE51A577BFC0F880BE77
:109E0000B7BE77BF223680BEF7D777BFE1E67EBE0A
:109E100010F177BF56617DBE040A78BFA4DB7BBE1C
:109E2000D12278BFCB557ABE773B78BFCCCF78BEF6
:109E3000F85378BFA64977BE526C78BF5AC375BE37
:109E4000868478BFE83C74BE939C78BF51B672BEDE
:109E50007BB478BF942F71BE3BCC78BFB2A86FBEE5
:109E6000D6E378BFAB216EBE4AFB78BF7F9A6CBE4B
:109E7000981279BF2F136BBEBF2979BFBA8B69BE09
:109E8000C04079BF220468BE9A5779BF667C66BE1F
:109E90004E6E79BF86F464BEDC8479BF836C63BE8A
:109EA000439B79BF5CE461BE83B179BF135C60BE44
:109EB0009DC779BFA8D35EBE91DD79BF1A4B5DBE49
:109EC0005EF379BF6AC25BBE04097ABF97395ABE96
:109ED000841E7ABFA4B058BEDD337ABF8F2757BE29
:109EE00010497ABF589E55BE1C5E7ABF011554BEFC
:109EF00002737ABF898B52BEC1877ABFF10151BE0E
:109F0000599C7ABF38784FBECBB07ABF60EE4DBE59
:109F100016C57ABF67644CBE3AD97ABF4FDA4ABEDB
:109F200037ED7ABF185049BE0E017BBFC2C547BE90
:109F3000BE147BBF4D3B46BE48287BBFB9B044BE74
:109F4000AB3B7BBF072643BEE74E7BBF379B41BE83
:109F5000FC617BBF491040BEEA747BBF3E853EBEBC
:109F6000B2877BBF15FA3CBE539A7BBFCF6E3BBE18
:109F7000CDAC7BBF6CE339BE20BF7BBFEC5738BE96
:109F80004DD17BBF50CC36BE53E37BBF984035BE2E
:109F900031F57BBFC4B433BEE9067CBFD42832BEE2
:109FA0007A187CBFC99C30BEE5297CBFA2102FBEA9
:109FB000283B7CBF61842DBE444C7CBF04F82BBE83
:109FC0003A5D7CBF8D6B2ABE086E7CBFFCDE28BE6E
:109FD000B07E7CBF515227BE318F7CBF8CC525BE61
:109FE0008A9F7CBFAD3824BEBDAF7CBFB6AB22BE5E
:109FF000C9BF7CBFA51E21BEAECF7CBF7B911FBE5B
:10A000006CDF7CBF38041EBE03EF7CBFDE761CBE57
:10A0100073FE7CBF6BE91ABEBC0D7DBFE05B19BE51
:10A02000DD1C7DBF3DCE17BED82B7DBF834016BE45
:10A03000AC3A7DBFB2B214BE59497DBFCA2413BE2B
:10A04000DE577DBFCC9611BE3D667DBFB70810BE02
:10A0500074747DBF8B7A0EBE85827DBF4AEC0CBEC8
:10A060006E907DBFF35D0BBE309E7DBF86CF09BE77
:10A07000CCAB7DBF054108BE40B97DBF6EB206BE08
:10A080008CC67DBFC22305BEB2D37DBF029503BE81
:10A09000B1E07DBF2E0602BE88ED7DBF457700BED4
:10A0A00038FA7DBF92D0FDBDC2067EBF73B2FABD45
:10A0B00024137EBF2C94F7BD5E1F7EBFC075F4BD18
:10A0C000722B7EBF2E57F1BD5E377EBF7638EEBD58
:10A0D00023437EBF9A19EBBDC14E7EBF9AFAE7BDFE
:10A0E000385A7EBF76DBE4BD88657EBF2EBCE1BDFD
:10A0F000B0707EBFC49CDEBDB17B7EBF377DDBBD53
:10A100008B867EBF895DD8BD3D917EBFB93DD5BDF3
:10A11000C99B7EBFC81DD2BD2DA67EBFB7FDCEBDDB
:10A1200069B07EBF86DDCBBD7FBA7EBF36BDC8BD00
:10A130006DC47EBFC69CC5BD34CE7EBF397CC2BD5A
:10A14000D4D77EBF8D5BBFBD4CE17EBFC33ABCBDE3
:10A150009DEA7EBFDD19B9BDC7F37EBFDAF8B5BD94
:10A16000C9FC7EBFBBD7B2BDA4057FBF80B6AFBD63
:10A17000580E7FBF2B95ACBDE4167FBFBA73A9BD47
:10A18000491F7FBF3052A6BD87277FBF8C30A3BD3C
:10A190009D2F7FBFCF0EA0BD8D377FBFF9EC9CBD3B
:10A1A000543F7FBF0ACB99BDF4467FBF05A996BD3A
:10A1B0006D4E7FBFE78693BDBF557FBFB46490BD32
:10A1C000E95C7FBF6A428DBDEC637FBF0A208ABD18
:10A1D000C76A7FBF94FD86BD7B717FBF0ADB83BDED
:10A1E00008787FBF6CB880BD6D7E7FBF742B7BBD50
:10A1F000AB847FBFE9E574BDC28A7FBF38A06EBD66
:10A20000B1907FBF625A68BD78967FBF681462BD07
:10A21000189C7FBF4CCE5BBD91A17FBF0E8855BD02
:10A22000E3A67FBFAF414FBD0DAC7FBF2FFB48BD45
:10A230000FB17FBF91B442BDEAB57FBFD56D3CBDC4
:10A240009EBA7FBFFC2636BD2ABF7FBF07E02FBD69
:10A250008FC37FBFF69829BDCCC77FBFCC5123BD2C
:10A26000E2CB7FBF880A1DBDD1CF7FBF2CC316BDF7
:10A2700098D37FBFB87B10BD37D77FBF2F340ABDBF
:10A28000AFDA7FBF90EC03BD00DE7FBFB949FBBCF6
:10A2900029E17FBF2DBAEEBC2BE47FBF7B2AE2BC55
:10A2A00005E77FBFA69AD5BCB8E97FBFB00AC9BC95
:10A2B00043EC7FBF9B7ABCBCA7EE7FBF69EAAFBC13
:10A2C000E3F07FBF1C5AA3BCF8F27FBFB6C996BCAF
:10A2D000E6F47FBF38398ABCACF67FBF4B517BBCFC
:10A2E0004AF87FBF003062BCC1F97FBF900E49BC05
:10A2F00011FB7FBF02ED2FBC39FC7FBF59CB16BCD1
:10A3000039FD7FBF3053FBBB13FE7FBF890FC9BB35
:10A31000C4FE7FBFC1CB96BB4EFF7FBFC70F49BBFB
:10A32000B1FF7FBFD40FC9BAECFF7FBF0000008030
:10A33000000080BFD40FC93AECFF7FBFC70F493B75
:10A34000B1FF7FBFC1CB963B4EFF7FBF890FC93B9B
:10A35000C4FE7FBF3053FB3B13FE7FBF59CB163C7F
:10A3600039FD7FBF02ED2F3C39FC7FBF900E493C89
:10A3700011FB7FBF0030623CC1F97FBF4B517B3C7A
:10A380004AF87FBF38398A3CACF67FBFB6C9963CE5
:10A39000E6F47FBF1C5AA33CF8F27FBF69EAAF3CEA
:10A3A000E3F07FBF9B7ABC3CA7EE7FBFB00AC93CFD
:10A3B00043EC7FBFA69AD53CB8E97FBF7B2AE23C3D
:10A3C00005E77FBF2DBAEE3C2BE47FBFB949FB3CCC
:10A3D00029E17FBF90EC033D00DE7FBF2F340A3DB3
:10A3E000AFDA7FBFB87B103D37D77FBF2CC3163D98
:10A3F00098D37FBF880A1D3DD1CF7FBFCC51233D6D
:10A40000E2CB7FBFF698293DCCC77FBF07E02F3D49
:10A410008FC37FBFFC26363D2ABF7FBFD56D3C3D35
:10A420009EBA7FBF91B4423DEAB57FBF2FFB483D46
:10A430000FB17FBFAF414F3D0DAC7FBF0E88553D83
:10A44000E3A67FBF4CCE5B3D91A17FBF6814623D08
:10A45000189C7FBF625A683D78967FBF38A06E3DDA
:10A46000B1907FBFE9E5743DC28A7FBF742B7B3D0D
:10A47000AB847FBF6CB8803D6D7E7FBF0ADB833DC0
:10A4800008787FBF94FD863D7B717FBF0A208A3D9F
:10A49000C76A7FBF6A428D3DEC637FBFB464903D65
:10A4A000E95C7FBFE786933DBF557FBF05A9963D19
:10A4B0006D4E7FBF0ACB993DF4467FBFF9EC9C3DC2
:10A4C000543F7FBFCF0EA03D8D377FBF8C30A33D63
:10A4D0009D2F7FBF3052A63D87277FBFBA73A93D0E
:10A4E000491F7FBF2B95AC3DE4167FBF80B6AF3DC3
:10A4F000580E7FBFBBD7B23DA4057FBFDAF8B53D8C
:10A50000C9FC7EBFDD19B93DC7F37EBFC33ABC3D70
:10A510009DEA7EBF8D5BBF3D4CE17EBF397CC23D75
:10A52000D4D77EBFC69CC53D34CE7EBF36BDC83DA8
:10A530006DC47EBF86DDCB3D7FBA7EBFB7FDCE3D0D
:10A5400069B07EBFC81DD23D2DA67EBFB93DD53DA9
:10A55000C99B7EBF895DD83D3D917EBF377DDB3D88
:10A560008B867EBFC49CDE3DB17B7EBF2EBCE13DB1
:10A57000B0707EBF76DBE43D88657EBF9AFAE73D2A
:10A58000385A7EBF9A19EB3DC14E7EBF7638EE3DFC
:10A5900023437EBF2E57F13D5E377EBFC075F43D2D
:10A5A000722B7EBF2C94F73D5E1F7EBF73B2FA3DC7
:10A5B00024137EBF92D0FD3DC2067EBF4577003E8C
:10A5C00038FA7DBF2E06023E88ED7DBF0295033E20
:10A5D000B1E07DBFC223053EB2D37DBF6EB2063E61
:10A5E0008CC67DBF0541083E40B97DBF86CF093E80
:10A5F000CCAB7DBFF35D0B3E309E7DBF4AEC0C3E85
:10A600006E907DBF8B7A0E3E85827DBFB708103E6F
:10A6100074747DBFCC96113E3D667DBFCA24133E47
:10A62000DE577DBFB2B2143E59497DBF8340163E0E
:10A63000AC3A7DBF3DCE173ED82B7DBFE05B193EC7
:10A64000DD1C7DBF6BE91A3EBC0D7DBFDE761C3E76
:10A6500073FE7CBF38041E3E03EF7CBF7B911F3E20
:10A660006CDF7CBFA51E213EAECF7CBFB6AB223EC9
:10A67000C9BF7CBFAD38243EBDAF7CBF8CC5253E75
:10A680008A9F7CBF5152273E318F7CBFFCDE283E23
:10A69000B07E7CBF8D6B2A3E086E7CBF04F82B3EDB
:10A6A0003A5D7CBF61842D3E444C7CBFA2102F3E9E
:10A6B000283B7CBFC99C303EE5297CBFD428323E74
:10A6C0007A187CBFC4B4333EE9067CBF9840353E5F
:10A6D00031F57BBF50CC363E53E37BBFEC57383E61
:10A6E0004DD17BBF6CE3393E20BF7BBFCF6E3B3E7D
:10A6F000CDAC7BBF15FA3C3E539A7BBF3E853E3EB8
:10A70000B2877BBF4910403EEA747BBF379B413E16
:10A71000FC617BBF0726433EE74E7BBFB9B0443E9A
:10A72000AB3B7BBF4D3B463E48287BBFC2C5473E47
:10A73000BE147BBF1850493E0E017BBF4FDA4A3E24
:10A7400037ED7ABF67644C3E3AD97ABF60EE4D3E32
:10A7500016C57ABF38784F3ECBB07ABFF101513E73
:10A76000599C7ABF898B523EC1877ABF0115543EEE
:10A7700002737ABF589E553E1C5E7ABF8F27573EA4
:10A7800010497ABFA4B0583EDD337ABF97395A3E9C
:10A79000841E7ABF6AC25B3E04097ABF1A4B5D3ED3
:10A7A0005EF379BFA8D35E3E91DD79BF135C603E56
:10A7B0009DC779BF5CE4613E83B179BF836C633E22
:10A7C000439B79BF86F4643EDC8479BF667C663E39
:10A7D0004E6E79BF2204683E9A5779BFBA8B693EA4
:10A7E000C04079BF2F136B3EBF2979BF7F9A6C3E63
:10A7F000981279BFAB216E3E4AFB78BFB2A86F3E7C
:10A80000D6E378BF942F713E3BCC78BF51B6723EF1
:10A810007BB478BFE83C743E939C78BF5AC3753EC6
:10A82000868478BFA649773E526C78BFCCCF783EFD
:10A83000F85378BFCB557A3E773B78BFA4DB7B3E9D
:10A84000D12278BF56617D3E040A78BFE1E67E3EA4
:10A8500010F177BF2236803EF7D777BFC0F8803E31
:10A86000B7BE77BF4ABB813E51A577BFC07D823E50
:10A87000C58B77BF2240833E137277BF7002843E40
:10A880003A5877BFAAC4843E3C3E77BFCE86853E09
:10A89000172477BFDF48863ECC0977BFDA0A873EA8
:10A8A0005BEF76BFC1CC873EC4D476BF938E883E23
:10A8B00007BA76BF5050893E249F76BFF8118A3E72
:10A8C0001B8476BF8AD38A3EEC6876BF07958B3EA1
:10A8D000974D76BF6E568C3E1B3276BFC0178D3EAD
:10A8E0007A1676BFFCD88D3EB3FA75BF229A8E3E9B
:10A8F000C6DE75BF325B8F3EB3C275BF2C1C903E67
:10A900007BA675BF10DD903E1C8A75BFDD9D913E14
:10A91000976D75BF945E923EED5075BF351F933EA7
:10A920001D3475BFBFDF933E271775BF31A0943E1E
:10A930000BFA74BF8D60953EC9DC74BFD220963E81
:10A9400062BF74BF00E1963ED5A174BF17A1973EC8
:10A95000228474BF1661983E496674BFFE20993EFA
:10A960004B4874BFCEE0993E272A74BF86A09A3E1A
:10A97000DD0B74BF27609B3E6EED73BFAF1F9C3E27
:10A98000D9CE73BF20DF9C3E1FB073BF789E9D3E23
:10A990003F9173BFB85D9E3E397273BFDF1C9F3E0F
:10A9A0000E5373BFEEDB9F3EBE3373BFE59AA03EEE
:10A9B000471473BFC259A13EACF472BF8718A23EC0
:10A9C000EBD472BF33D7A23E04B572BFC595A33E88
:10A9D000F89472BF3F54A43EC77472BF9F12A53E45
:10A9E000705472BFE5D0A53EF43372BF128FA63EFD
:10A9F000521372BF254DA73E8CF271BF1F0BA83EAC
:10AA00009FD171BFFEC8A83E8EB071BFC486A93E5B
:10AA1000578F71BF6F44AA3EFB6D71BF0102AB3E01
:10AA20007A4C71BF77BFAB3ED42A71BFD47CAC3EA9
:10AA3000080971BF153AAD3E17E770BF3CF7AD3E50
:10AA400002C570BF49B4AE3EC6A270BF3A71AF3EF8
:10AA5000668070BF102EB03EE15D70BFCBEAB03EA5
:10AA6000373B70BF6BA7B13E671870BFEF63B23E54
:10AA700073F56FBF5820B33E5AD26FBFA5DCB33E0B
:10AA80001BAF6FBFD698B43EB88B6FBFEC54B53ECA
:10AA900030686FBFE610B63E83446FBFC3CCB63E8E
:10AAA000B0206FBF8488B73EBAFC6EBF2A44B83E60
:10AAB0009ED86EBFB2FFB83E5DB46EBF1EBBB93E3E
:10AAC000F88F6EBF6E76BA3E6D6B6EBFA031BB3E27
:10AAD000BE466EBFB6ECBB3EEB216EBFAFA7BC3E21
:10AAE000F2FC6DBF8B62BD3ED5D76DBF4A1DBE3E29
:10AAF00093B26DBFEBD7BE3E2D8D6DBF6F92BF3E43
:10AB0000A1676DBFD54CC03EF2416DBF1E07C13E6F
:10AB10001D1C6DBF48C1C13E24F66CBF557BC23EB3
:10AB200007D06CBF4435C33EC5A96CBF15EFC33E0B
:10AB30005E836CBFC8A8C43ED45C6CBF5C62C53E7B
:10AB400024366CBFD21BC63E500F6CBF29D5C63E03
:10AB500058E86BBF628EC73E3BC16BBF7C47C83EA7
:10AB6000FB996BBF7700C93E95726BBF53B9C93E65
:10AB70000C4B6BBF1072CA3E5E236BBFAE2ACB3E3E
:10AB80008CFB6ABF2CE3CB3E95D36ABF8B9BCC3E3C
:10AB90007BAB6ABFCA53CD3E3C836ABFEA0BCE3E55
:10ABA000D95A6ABFEAC3CE3E52326ABFCA7BCF3E91
:10ABB000A7096ABF8A33D03ED7E069BF2AEBD03EEF
:10ABC000E4B769BFAAA2D13ECC8E69BF095AD23E72
:10ABD000916569BF4811D33E323C69BF67C8D33E17
:10ABE000AE1269BF647FD43E07E968BF4136D53EE7
:10ABF0003CBF68BFFDECD53E4C9568BF99A3D63EDF
:10AC0000396B68BF135AD73E034168BF6B10D83EFB
:10AC1000A81668BFA3C6D83E2AEC67BFB97CD93E48
:10AC200087C167BFAD32DA3EC19667BF80E8DA3EC2
:10AC3000D86B67BF319EDB3ECA4067BFC153DC3E65
:10AC4000991567BF2E09DD3E45EA66BF79BEDD3E38
:10AC5000CCBE66BFA273DE3E309366BFA928DF3E3E
:10AC6000716766BF8DDDDF3E8E3B66BF4F92E03E73
:10AC7000880F66BFEE46E13E5EE365BF6AFBE13EDC
:10AC800010B765BFC4AFE23EA08A65BFFA63E33E7A
:10AC90000B5E65BF0E18E43E543165BFFECBE43E4B
:10ACA000790465BFCB7FE53E7BD764BF7533E63E55
:10ACB00059AA64BFFBE6E63E147D64BF5D9AE73E99
:10ACC000AC4F64BF9C4DE83E212264BFB700E93E13
:10ACD00073F463BFAEB3E93EA1C663BF8166EA3ECB
:10ACE000AC9863BF3019EB3E956A63BFBBCBEB3EBC
:10ACF0005A3C63BF217EEC3EFC0D63BF6330ED3EEA
:10AD00007BDF62BF80E2ED3ED7B062BF7994EE3E5A
:10AD1000108262BF4C46EF3E265362BFFBF7EF3E08
:10AD20001A2462BF85A9F03EEAF461BFEA5AF13EF7
:10AD300098C561BF290CF23E229661BF43BDF23E29
:10AD40008A6661BF386EF33ED03661BF071FF43E9E
:10AD5000F20661BFB1CFF43EF2D660BF3580F53E5A
:10AD6000CFA660BF9330F63E897660BFCBE0F63E5B
:10AD7000214660BFDC90F73E961560BFC840F83EA4
:10AD8000E9E45FBF8EF0F83E19B45FBF2DA0F93E35
:10AD900027835FBFA54FFA3E12525FBFF7FEFA3E10
:10ADA000DB205FBF22AEFB3E81EF5EBF275DFC3E36
:10ADB00005BE5EBF040CFD3E678C5EBFBBBAFD3EA8
:10ADC000A65A5EBF4A69FE3EC3285EBFB217FF3E69
:10ADD000BEF65DBFF3C5FF3E97C45DBF063A003FB8
:10ADE0004D925DBFFF90003FE15F5DBFE4E7003F34
:10ADF000532D5DBFB53E013FA3FA5CBF7395013F84
:10AE0000D1C75CBF1CEC013FDD945CBFB142023F87
:10AE1000C7615CBF3299023F8E2E5CBF9FEF023F3D
:10AE200034FB5BBFF845033FB8C75BBF3D9C033FA6
:10AE30001A945BBF6DF2033F5A605BBF8948043FC1
:10AE4000792C5BBF919E043F75F85ABF84F4043F90
:10AE500050C45ABF624A053F09905ABF2CA0053F13
:10AE6000A05B5ABFE2F5053F16275ABF824B063F4B
:10AE70006AF259BF0EA1063F9CBD59BF86F6063F38
:10AE8000AD8859BFE84B073F9C5359BF36A1073FD8
:10AE90006A1E59BF6FF6073F17E958BF924B083F2C
:10AEA000A1B358BFA1A0083F0B7E58BF9BF5083F38
:10AEB000534858BF7F4A093F791258BF4E9F093FF8
:10AEC0007FDC57BF09F4093F63A657BFAD480A3F6F
:10AED000267057BF3D9D0A3FC73957BFB7F10A3F9C
:10AEE000480357BF1C460B3FA7CC56BF6B9A0B3F7E
:10AEF000E59556BFA5EE0B3F025F56BFC9420C3F1A
:10AF0000FE2756BFD7960C3FD9F055BFD0EA0C3F6D
:10AF100093B955BFB33E0D3F2C8255BF81920D3F73
:10AF2000A44A55BF38E60D3FFB1255BFDA390E3F34
:10AF300031DB54BF658D0E3F47A354BFDBE00E3FAE
:10AF40003B6B54BF3B340F3F0F3354BF84870F3FDD
:10AF5000C3FA53BFB8DA0F3F55C253BFD52D103FC8
:10AF6000C78953BFDC80103F185153BFCDD3103F6A
:10AF7000491853BFA726113F59DF52BF6B79113FC4
:10AF800049A652BF19CC113F186D52BFB01E123FD7
:10AF9000C63352BF3071123F54FA51BF9AC3123FA9
:10AFA000C2C051BFEE15133F108751BF2A68133F2F
:10AFB0003D4D51BF50BA133F4A1351BF5F0C143F70
:10AFC00037D950BF585E143F039F50BF39B0143F6C
:10AFD000AF6450BF0402153F3B2A50BFB753153F23
:10AFE000A8EF4FBF54A5153FF4B44FBFD9F6153F96
:10AFF0001F7A4FBF4748163F2B3F4FBF9F99163FC1
:10B0000017044FBFDFEA163FE4C84EBF073C173FA7
:10B01000908D4EBF188D173F1C524EBF12DE173F4A
:10B0200089164EBFF52E183FD5DA4DBFC07F183FA9
:10B03000029F4DBF73D0183F10634DBF0F21193FC2
:10B04000FD264DBF9471193FCBEA4CBF00C2193F9A
:10B0500079AE4CBF55121A3F08724CBF93621A3F2B
:10B0600078354CBFB8B21A3FC7F84BBFC6021B3F7A
:10B07000F8BB4BBFBB521B3F097F4BBF99A21B3F85
:10B08000FA414BBF5FF21B3FCC044BBF0C421C3F4D
:10B090007FC74ABFA2911C3F138A4ABF1FE11C3FD2
:10B0A000874C4ABF84301D3FDC0E4ABFD17F1D3F15
:10B0B00012D149BF06CF1D3F299349BF221E1E3F13
:10B0C000215549BF266D1E3FFA1649BF12BC1E3FCF
:10B0D000B3D848BFE50A1F3F4E9A48BF9F591F3F4C
:10B0E000CA5B48BF41A81F3F271D48BFCBF61F3F83
:10B0F00065DE47BF3B45203F849F47BF9393203F7A
:10B10000856047BFD2E1203F672147BFF92F213F2C
:10B110002AE246BF067E213FCEA246BFFBCB213F9F
:10B12000546346BFD719223FBB2346BF9967223FCE
:10B1300003E445BF43B5223F2DA445BFD302233FBF
:10B14000396445BF4B50233F262445BFA99D233F6B
:10B15000F5E344BFEEEA233FA5A344BF1A38243FDA
:10B16000376344BF2C85243FAB2244BF25D2243F04
:10B1700000E243BF041F253F38A143BFCB6B253FEF
:10B18000516043BF77B8253F4C1F43BF0A05263F98
:10B1900029DE42BF8451263FE89C42BFE39D263F03
:10B1A000895B42BF2AEA263F0B1A42BF5636273F29
:10B1B00070D841BF6882273FB79641BF61CE273F15
:10B1C000E15441BF401A283FEC1241BF0566283FB9
:10B1D000DAD040BFB0B1283FA98E40BF41FD283F23
:10B1E0005C4C40BFB848293FF00940BF1594293F47
:10B1F00067C73FBF57DF293FC0843FBF802A2A3F30
:10B20000FC413FBF8E752A3F1BFF3EBF82C02A3FD5
:10B210001BBC3EBF5B0B2B3FFF783EBF1B562B3F3B
:10B22000C5353EBFBFA02B3F6EF23DBF4AEB2B3F63
:10B23000F9AE3DBFB9352C3F676B3DBF0F802C3F4A
:10B24000B8273DBF49CA2C3FECE33CBF69142D3FF2
:10B2500003A03CBF6F5E2D3FFC5B3CBF59A82D3F58
:10B26000D9173CBF29F22D3F98D33BBFDE3B2E3F81
:10B270003B8F3BBF78852E3FC14A3BBFF7CE2E3F69
:10B2800029063BBF5B182F3F75C13ABFA5612F3F11
:10B29000A47C3ABFD3AA2F3FB7373ABFE6F32F3F7C
:10B2A000ACF239BFDE3C303F85AD39BFBB85303FA6
:10B2B000426839BF7CCE303FE12239BF2217313F8F
:10B2C00065DD38BFAD5F313FCB9738BF1DA8313F3B
:10B2D000165238BF71F0313F430C38BFAA38323FA5
:10B2E00055C637BFC780323F4A8037BFC9C8323FD3
:10B2F000233A37BFAF10333FDFF336BF7A58333FBF
:10B300007FAD36BF29A0333F046736BFBCE7333F6C
:10B310006C2036BF342F343FB8D935BF8F76343FD9
:10B32000E79235BFCFBD343FFB4B35BFF304353F0C
:10B33000F30435BFFB4B353FCFBD34BFE792353FFC
:10B340008F7634BFB8D9353F342F34BF6C20363FA9
:10B35000BCE733BF0467363F29A033BF7FAD363F1C
:10B360007A5833BFDFF3363FAF1033BF233A373F4E
:10B37000C9C832BF4A80373FC78032BF55C6373F42
:10B38000AA3832BF430C383F71F031BF1652383FF4
:10B390001DA831BFCB97383FAD5F31BF65DD383F6A
:10B3A000221731BFE122393F7CCE30BF4268393F9E
:10B3B000BB8530BF85AD393FDE3C30BFACF2393F95
:10B3C000E6F32FBFB7373A3FD3AA2FBFA47C3A3F4B
:10B3D000A5612FBF75C13A3F5B182FBF29063B3FC0
:10B3E000F7CE2EBFC14A3B3F78852EBF3B8F3B3FF8
:10B3F000DE3B2EBF98D33B3F29F22DBFD9173C3FF0
:10B4000059A82DBFFC5B3C3F6F5E2DBF03A03C3FA6
:10B4100069142DBFECE33C3F49CA2CBFB8273D3F20
:10B420000F802CBF676B3D3FB9352CBFF9AE3D3F58
:10B430004AEB2BBF6EF23D3FBFA02BBFC5353E3F51
:10B440001B562BBFFF783E3F5B0B2BBF1BBC3E3F09
:10B4500082C02ABF1BFF3E3F8E752ABFFC413F3F83
:10B46000802A2ABFC0843F3F57DF29BF67C73F3FBD
:10B47000159429BFF009403FB84829BF5C4C403FB4
:10B4800041FD28BFA98E403FB0B128BFDAD0403F70
:10B49000056628BFEC12413F401A28BFE154413FE6
:10B4A00061CE27BFB796413F688227BF70D8413F22
:10B4B000563627BF0B1A423F2AEA26BF895B423F16
:10B4C000E39D26BFE89C423F845126BF29DE423FD0
:10B4D0000A0526BF4C1F433F77B825BF5160433F45
:10B4E000CB6B25BF38A1433F041F25BF00E2433F7C
:10B4F00025D224BFAB22443F2C8524BF3763443F71
:10B500001A3824BFA5A3443FEEEA23BFF5E3443F26
:10B51000A99D23BF2624453F4B5023BF3964453F97
:10B52000D30223BF2DA4453F43B522BF03E4453FCB
:10B53000996722BFBB23463FD71922BF5463463FBA
:10B54000FBCB21BFCEA2463F067E21BF2AE2463F6B
:10B55000F92F21BF6721473FD2E120BF8560473FD8
:10B56000939320BF849F473F3B4520BF65DE473F05
:10B57000CBF61FBF271D483F41A81FBFCA5B483FEE
:10B580009F591FBF4E9A483FE50A1FBFB3D8483F97
:10B5900012BC1EBFFA16493F266D1EBF2155493FFA
:10B5A000221E1EBF2993493F06CF1DBF12D1493F1E
:10B5B000D17F1DBFDC0E4A3F84301DBF874C4A3F00
:10B5C0001FE11CBF138A4A3FA2911CBF7FC74A3F9D
:10B5D0000C421CBFCC044B3F5FF21BBFFA414B3FF8
:10B5E00099A21BBF097F4B3FBB521BBFF8BB4B3F10
:10B5F000C6021BBFC7F84B3FB8B21ABF78354C3FE5
:10B6000093621ABF08724C3F55121ABF79AE4C3F75
:10B6100000C219BFCBEA4C3F947119BFFD264D3FC4
:10B620000F2119BF10634D3F73D018BF029F4D3FCC
:10B63000C07F18BFD5DA4D3FF52E18BF89164E3F93
:10B6400012DE17BF1C524E3F188D17BF908D4E3F14
:10B65000073C17BFE4C84E3FDFEA16BF17044F3F51
:10B660009F9916BF2B3F4F3F474816BF1F7A4F3F4A
:10B67000D9F615BFF4B44F3F54A515BFA8EF4F3FFF
:10B68000B75315BF3B2A503F040215BFAF64503F6C
:10B6900039B014BF039F503F585E14BF37D9503F95
:10B6A0005F0C14BF4A13513F50BA13BF3D4D513F79
:10B6B0002A6813BF1087513FEE1513BFC2C0513F18
:10B6C0009AC312BF54FA513F307112BFC633523F72
:10B6D000B01E12BF186D523F19CC11BF49A6523F80
:10B6E0006B7911BF59DF523FA72611BF4918533F4D
:10B6F000CDD310BF1851533FDC8010BFC789533FD3
:10B70000D52D10BF55C2533FB8DA0FBFC3FA533F10
:10B7100084870FBF0F33543F3B340FBF3B6B543F05
:10B72000DBE00EBF47A3543F658D0EBF31DB543FB6
:10B73000DA390EBFFB12553F38E60DBFA44A553F1C
:10B7400081920DBF2C82553FB33E0DBF93B9553F3B
:10B75000D0EA0CBFD9F0553FD7960CBFFE27563F15
:10B76000C9420CBF025F563FA5EE0BBFE595563FA1
:10B770006B9A0BBFA7CC563F1C460BBF4803573FE5
:10B78000B7F10ABFC739573F3D9D0ABF2670573FE3
:10B79000AD480ABF63A6573F09F409BF7FDC573F96
:10B7A0004E9F09BF7912583F7F4A09BF5348583FFF
:10B7B0009BF508BF0B7E583FA1A008BFA1B3583F1F
:10B7C000924B08BF17E9583F6FF607BF6A1E593FF3
:10B7D00036A107BF9C53593FE84B07BFAD88593F7F
:10B7E00086F606BF9CBD593F0EA106BF6AF2593FBF
:10B7F000824B06BF16275A3FE2F505BFA05B5A3FB2
:10B800002CA005BF09905A3F624A05BF50C45A3F59
:10B8100084F404BF75F85A3F919E04BF792C5B3FB6
:10B82000894804BF5A605B3F6DF203BF1A945B3FC7
:10B830003D9C03BFB8C75B3FF84503BF34FB5B3F8C
:10B840009FEF02BF8E2E5C3F329902BFC7615C3F03
:10B85000B14202BFDD945C3F1CEC01BFD1C75C3F2D
:10B86000739501BFA3FA5C3FB53E01BF532D5D3F09
:10B87000E4E700BFE15F5D3FFF9000BF4D925D3F99
:10B88000063A00BF97C45D3FF3C5FFBEBEF65D3FFD
:10B89000B217FFBEC3285E3F4A69FEBEA65A5E3F8E
:10B8A000BBBAFDBE678C5E3F040CFDBE05BE5E3FAD
:10B8B000275DFCBE81EF5E3F22AEFBBEDB205F3F1B
:10B8C000F7FEFABE12525F3FA54FFABE27835F3FD5
:10B8D0002DA0F9BE19B45F3F8EF0F8BEE9E45F3FDA
:10B8E000C840F8BE9615603FDC90F7BE2146603F29
:10B8F000CBE0F6BE8976603F9330F6BECFA6603FC0
:10B900003580F5BEF2D6603FB1CFF4BEF206613F9E
:10B91000071FF4BED036613F386EF3BE8A66613FC2
:10B9200043BDF2BE2296613F290CF2BE98C5613F2D
:10B93000EA5AF1BEEAF4613F85A9F0BE1A24623FDB
:10B94000FBF7EFBE2653623F4C46EFBE1082623FCC
:10B950007994EEBED7B0623F80E2EDBE7BDF623FFE
:10B960006330EDBEFC0D633F217EECBE5A3C633F6D
:10B97000BBCBEBBE956A633F3019EBBEAC98633F1F
:10B980008166EABEA1C6633FAEB3E9BE73F4633F0E
:10B99000B700E9BE2122643F9C4DE8BEAC4F643F36
:10B9A0005D9AE7BE147D643FFBE6E6BE59AA643F9C
:10B9B0007533E6BE7BD7643FCB7FE5BE7904653F38
:10B9C000FECBE4BE5431653F0E18E4BE0B5E653F0E
:10B9D000FA63E3BEA08A653FC4AFE2BE10B7653F1D
:10B9E0006AFBE1BE5EE3653FEE46E1BE880F663F5F
:10B9F0004F92E0BE8E3B663F8DDDDFBE7167663FD6
:10BA0000A928DFBE3093663FA273DEBECCBE663F80
:10BA100079BEDDBE45EA663F2E09DDBE9915673F5A
:10BA2000C153DCBECA40673F319EDBBED86B673F67
:10BA300080E8DABEC196673FAD32DABE87C1673FA4
:10BA4000B97CD9BE2AEC673FA3C6D8BEA816683F0A
:10BA50006B10D8BE0341683F135AD7BE396B683F9D
:10BA600099A3D6BE4C95683FFDECD5BE3CBF683F60
:10BA70004136D5BE07E9683F647FD4BEAE12693F48
:10BA800067C8D3BE323C693F4811D3BE9165693F58
:10BA9000095AD2BECC8E693FAAA2D1BEE4B7693F93
:10BAA0002AEBD0BED7E0693F8A33D0BEA7096A3FF0
:10BAB000CA7BCFBE52326A3FEAC3CEBED95A6A3F72
:10BAC000EA0BCEBE3C836A3FCA53CDBE7BAB6A3F16
:10BAD0008B9BCCBE95D36A3F2CE3CBBE8CFB6A3FDD
:10BAE000AE2ACBBE5E236B3F1072CABE0C4B6B3FBF
:10BAF00053B9C9BE95726B3F7700C9BEFB996B3FC6
:10BB00007C47C8BE3BC16B3F628EC7BE58E86B3FE7
:10BB100029D5C6BE500F6C3FD21BC6BE24366C3F23
:10BB20005C62C5BED45C6C3FC8A8C4BE5E836C3F7B
:10BB300015EFC3BEC5A96C3F4435C3BE07D06C3FEB
:10BB4000557BC2BE24F66C3F48C1C1BE1D1C6D3F73
:10BB50001E07C1BEF2416D3FD54CC0BEA1676D3F0F
:10BB60006F92BFBE2D8D6D3FEBD7BEBE93B26D3FC2
:10BB70004A1DBEBED5D76D3F8B62BDBEF2FC6D3F88
:10BB8000AFA7BCBEEB216E3FB6ECBBBEBE466E3F60
:10BB9000A031BBBE6D6B6E3F6E76BABEF88F6E3F46
:10BBA0001EBBB9BE5DB46E3FB2FFB8BE9ED86E3F3D
:10BBB0002A44B8BEBAFC6E3F8488B7BEB0206F3F3F
:10BBC000C3CCB6BE83446F3FE610B6BE30686F3F4D
:10BBD000EC54B5BEB88B6F3FD698B4BE1BAF6F3F69
:10BBE000A5DCB3BE5AD26F3F5820B3BE73F56F3F8A
:10BBF000EF63B2BE6718703F6BA7B1BE373B703FB3
:10BC0000CBEAB0BEE15D703F102EB0BE6680703FE3
:10BC10003A71AFBEC6A2703F49B4AEBE02C5703F16
:10BC20003CF7ADBE17E7703F153AADBE0809713F4E
:10BC3000D47CACBED42A713F77BFABBE7A4C713F87
:10BC40000102ABBEFB6D713F6F44AABE578F713FBF
:10BC5000C486A9BE8EB0713FFEC8A8BE9FD1713FF9
:10BC60001F0BA8BE8CF2713F254DA7BE5213723F29
:10BC7000128FA6BEF433723FE5D0A5BE7054723F5A
:10BC80009F12A5BEC774723F3F54A4BEF894723F82
:10BC9000C595A3BE04B5723F33D7A2BEEBD4723FA5
:10BCA0008718A2BEACF4723FC259A1BE4714733FBD
:10BCB000E59AA0BEBE33733FEEDB9FBE0E53733FCB
:10BCC000DF1C9FBE3972733FB85D9EBE3F91733FCC
:10BCD000789E9DBE1FB0733F20DF9CBED9CE733FC0
:10BCE000AF1F9CBE6EED733F27609BBEDD0B743FA4
:10BCF00086A09ABE272A743FCEE099BE4B48743F77
:10BD0000FE2099BE4966743F166198BE2284743F36
:10BD100017A197BED5A1743F00E196BE62BF743FE4
:10BD2000D22096BEC9DC743F8D6095BE0BFA743F7D
:10BD300031A094BE2717753FBFDF93BE1D34753FFA
:10BD4000351F93BEED50753F945E92BE976D753F63
:10BD5000DD9D91BE1C8A753F10DD90BE7BA6753FB0
:10BD60002C1C90BEB3C2753F325B8FBEC6DE753FE2
:10BD7000229A8EBEB3FA753FFCD88DBE7A16763FF6
:10BD8000C0178DBE1B32763F6E568CBE974D763FE8
:10BD900007958BBEEC68763F8AD38ABE1B84763FBC
:10BDA000F8118ABE249F763F505089BE07BA763F6D
:10BDB000938E88BEC4D4763FC1CC87BE5BEF763FFE
:10BDC000DA0A87BECC09773FDF4886BE1724773F63
:10BDD000CE8685BE3C3E773FAAC484BE3A58773FA4
:10BDE000700284BE1372773F224083BEC58B773FBB
:10BDF000C07D82BE51A5773F4ABB81BEB7BE773FAB
:10BE0000C0F880BEF7D7773F223680BE10F1773F6B
:10BE1000E1E67EBE040A783F56617DBED122783FBE
:10BE2000A4DB7BBE773B783FCB557ABEF853783F97
:10BE3000CCCF78BE526C783FA64977BE8684783FD7
:10BE40005AC375BE939C783FE83C74BE7BB4783F80
:10BE500051B672BE3BCC783F942F71BED6E3783F8B
:10BE6000B2A86FBE4AFB783FAB216EBE9812793FF5
:10BE70007F9A6CBEBF29793F2F136BBEC040793FBC
:10BE8000BA8B69BE9A57793F220468BE4E6E793FDD
:10BE9000667C66BEDC84793F86F464BE439B793F52
:10BEA000836C63BE83B1793F5CE461BE9DC7793F1B
:10BEB000135C60BE91DD793FA8D35EBE5EF3793F2F
:10BEC0001A4B5DBE04097A3F6AC25BBE841E7A3F8C
:10BED00097395ABEDD337A3FA4B058BE10497A3F35
:10BEE0008F2757BE1C5E7A3F589E55BE02737A3F1D
:10BEF000011554BEC1877A3F898B52BE599C7A3F47
:10BF0000F10151BECBB07A3F38784FBE16C57A3FAB
:10BF100060EE4DBE3AD97A3F67644CBE37ED7A3F4A
:10BF20004FDA4ABE0E017B3F185049BEBE147B3F1C
:10BF3000C2C547BE48287B3F4D3B46BEAB3B7B3F1F
:10BF4000B9B044BEE74E7B3F072643BEFC617B3F52
:10BF5000379B41BEEA747B3F491040BEB2877B3FAE
:10BF60003E853EBE539A7B3F15FA3CBECDAC7B3F2F
:10BF7000CF6E3BBE20BF7B3F6CE339BE4DD17B3FD4
:10BF8000EC5738BE53E37B3F50CC36BE31F57B3F98
:10BF9000984035BEE9067C3FC4B433BE7A187C3F76
:10BFA000D42832BEE5297C3FC99C30BE283B7C3F6B
:10BFB000A2102FBE444C7C3F61842DBE3A5D7C3F75
:10BFC00004F82BBE086E7C3F8D6B2ABEB07E7C3F92
:10BFD000FCDE28BE318F7C3F515227BE8A9F7C3FBA
:10BFE0008CC525BEBDAF7C3FAD3824BEC9BF7C3FEC
:10BFF000B6AB22BEAECF7C3FA51E21BE6CDF7C3F20
:10C000007B911FBE03EF7C3F38041EBE73FE7C3F56
:10C01000DE761CBEBC0D7D3F6BE91ABEDD1C7D3F8C
:10C02000E05B19BED82B7D3F3DCE17BEAC3A7D3FBD
:10C03000834016BE59497D3FB2B214BEDE577D3FE4
:10C04000CA2413BE3D667D3FCC9611BE74747D3FFD
:10C05000B70810BE85827D3F8B7A0EBE6E907D3F05
:10C060004AEC0CBE309E7D3FF35D0BBECCAB7D3FFA
:10C0700086CF09BE40B97D3F054108BE8CC67D3FD5
:10C080006EB206BEB2D37D3FC22305BEB1E07D3F96
:10C09000029503BE88ED7D3F2E0602BE38FA7D3F35
:10C0A000457700BEC2067E3F92D0FDBD24137E3F81
:10C0B00073B2FABD5E1F7E3F2C94F7BD722B7E3F9C
:10C0C000C075F4BD5E377E3F2E57F1BD23437E3FE2
:10C0D0007638EEBDC14E7E3F9A19EBBD385A7E3F91
:10C0E0009AFAE7BD88657E3F76DBE4BDB0707E3F9F
:10C0F0002EBCE1BDB17B7E3FC49CDEBD8B867E3F06
:10C10000377DDBBD3D917E3F895DD8BDC99B7E3FBC
:10C11000B93DD5BD2DA67E3FC81DD2BD69B07E3FBD
:10C12000B7FDCEBD7FBA7E3F86DDCBBD6DC47E3F01
:10C1300036BDC8BD34CE7E3FC69CC5BDD4D77E3F7C
:10C14000397CC2BD4CE17E3F8D5BBFBD9DEA7E3F29
:10C15000C33ABCBDC7F37E3FDD19B9BDC9FC7E3F04
:10C16000DAF8B5BDA4057F3FBBD7B2BD580E7F3FFF
:10C1700080B6AFBDE4167F3F2B95ACBD491F7F3F16
:10C18000BA73A9BD87277F3F3052A6BD9D2F7F3F41
:10C190008C30A3BD8D377F3FCF0EA0BD543F7F3F76
:10C1A000F9EC9CBDF4467F3F0ACB99BD6D4E7F3FB5
:10C1B00005A996BDBF557F3FE78693BDE95C7F3FEC
:10C1C000B46490BDEC637F3F6A428DBDC76A7F3F18
:10C1D0000A208ABD7B717F3F94FD86BD08787F3F32
:10C1E0000ADB83BD6D7E7F3F6CB880BDAB847F3F33
:10C1F000742B7BBDC28A7F3FE9E574BDB1907F3F60
:10C2000038A06EBD78967F3F625A68BD189C7F3F0C
:10C21000681462BD91A17F3F4CCE5BBDE3A67F3F1A
:10C220000E8855BD0DAC7F3FAF414FBD0FB17F3F75
:10C230002FFB48BDEAB57F3F91B442BD9EBA7F3F18
:10C24000D56D3CBD2ABF7F3FFC2636BD8FC37F3FE7
:10C2500007E02FBDCCC77F3FF69829BDE2CB7F3FDB
:10C26000CC5123BDD1CF7F3F880A1DBD98D37F3FDE
:10C270002CC316BD37D77F3FB87B10BDAFDA7F3FE9
:10C280002F340ABD00DE7F3F90EC03BD29E17F3FE4
:10C29000B949FBBC2BE47F3F2DBAEEBC05E77F3FDD
:10C2A0007B2AE2BCB8E97F3FA69AD5BC43EC7F3F2E
:10C2B000B00AC9BCA7EE7F3F9B7ABCBCE3F07F3FCE
:10C2C00069EAAFBCF8F27F3F1C5AA3BCE6F47F3F9B
:10C2D000B6C996BCACF67F3F38398ABC4AF87F3F76
:10C2E0004B517BBCC1F97F3F003062BC11FB7F3FEB
:10C2F000900E49BC39FC7F3F02ED2FBC39FD7F3FDA
:10C3000059CB16BC13FE7F3F3053FBBBC4FE7F3FAF
:10C31000890FC9BB4EFF7F3FC1CB96BBB1FF7F3FAB
:10C32000C70F49BBECFF7F3FD40FC9BA4CC300080D
:10C3300000000020240000008816000870C30008D8
:10C34000240000205C68000098160008000000002F
:10C3500000000000000000000000000000C2EB0B25
:10C3600000000000000000000000000000000000CD
:04000005080001AD41
:00000001FF
